{"@aave/safety-module/contracts/stake/StakedToken.sol":{"StakedToken":{"abi":[{"inputs":[{"internalType":"contract IERC20","name":"stakedToken","type":"address"},{"internalType":"contract IERC20","name":"rewardToken","type":"address"},{"internalType":"uint256","name":"cooldownSeconds","type":"uint256"},{"internalType":"uint256","name":"unstakeWindow","type":"uint256"},{"internalType":"address","name":"rewardsVault","type":"address"},{"internalType":"address","name":"emissionManager","type":"address"},{"internalType":"uint128","name":"distributionDuration","type":"uint128"},{"internalType":"string","name":"name","type":"string"},{"internalType":"string","name":"symbol","type":"string"},{"internalType":"uint8","name":"decimals","type":"uint8"}],"stateMutability":"nonpayable","type":"constructor"},{"anonymous":false,"inputs":[{"indexed":true,"internalType":"address","name":"owner","type":"address"},{"indexed":true,"internalType":"address","name":"spender","type":"address"},{"indexed":false,"internalType":"uint256","name":"value","type":"uint256"}],"name":"Approval","type":"event"},{"anonymous":false,"inputs":[{"indexed":true,"internalType":"address","name":"asset","type":"address"},{"indexed":false,"internalType":"uint256","name":"emission","type":"uint256"}],"name":"AssetConfigUpdated","type":"event"},{"anonymous":false,"inputs":[{"indexed":true,"internalType":"address","name":"asset","type":"address"},{"indexed":false,"internalType":"uint256","name":"index","type":"uint256"}],"name":"AssetIndexUpdated","type":"event"},{"anonymous":false,"inputs":[{"indexed":true,"internalType":"address","name":"user","type":"address"}],"name":"Cooldown","type":"event"},{"anonymous":false,"inputs":[{"indexed":true,"internalType":"address","name":"from","type":"address"},{"indexed":true,"internalType":"address","name":"to","type":"address"},{"indexed":false,"internalType":"uint256","name":"amount","type":"uint256"}],"name":"Redeem","type":"event"},{"anonymous":false,"inputs":[{"indexed":false,"internalType":"address","name":"user","type":"address"},{"indexed":false,"internalType":"uint256","name":"amount","type":"uint256"}],"name":"RewardsAccrued","type":"event"},{"anonymous":false,"inputs":[{"indexed":true,"internalType":"address","name":"from","type":"address"},{"indexed":true,"internalType":"address","name":"to","type":"address"},{"indexed":false,"internalType":"uint256","name":"amount","type":"uint256"}],"name":"RewardsClaimed","type":"event"},{"anonymous":false,"inputs":[{"indexed":false,"internalType":"address","name":"owner","type":"address"},{"indexed":false,"internalType":"uint128","name":"oldValue","type":"uint128"},{"indexed":false,"internalType":"uint128","name":"newValue","type":"uint128"}],"name":"SnapshotDone","type":"event"},{"anonymous":false,"inputs":[{"indexed":true,"internalType":"address","name":"from","type":"address"},{"indexed":true,"internalType":"address","name":"onBehalfOf","type":"address"},{"indexed":false,"internalType":"uint256","name":"amount","type":"uint256"}],"name":"Staked","type":"event"},{"anonymous":false,"inputs":[{"indexed":true,"internalType":"address","name":"from","type":"address"},{"indexed":true,"internalType":"address","name":"to","type":"address"},{"indexed":false,"internalType":"uint256","name":"value","type":"uint256"}],"name":"Transfer","type":"event"},{"anonymous":false,"inputs":[{"indexed":true,"internalType":"address","name":"user","type":"address"},{"indexed":true,"internalType":"address","name":"asset","type":"address"},{"indexed":false,"internalType":"uint256","name":"index","type":"uint256"}],"name":"UserIndexUpdated","type":"event"},{"inputs":[],"name":"COOLDOWN_SECONDS","outputs":[{"internalType":"uint256","name":"","type":"uint256"}],"stateMutability":"view","type":"function"},{"inputs":[],"name":"DISTRIBUTION_END","outputs":[{"internalType":"uint256","name":"","type":"uint256"}],"stateMutability":"view","type":"function"},{"inputs":[],"name":"EMISSION_MANAGER","outputs":[{"internalType":"address","name":"","type":"address"}],"stateMutability":"view","type":"function"},{"inputs":[],"name":"PRECISION","outputs":[{"internalType":"uint8","name":"","type":"uint8"}],"stateMutability":"view","type":"function"},{"inputs":[],"name":"REVISION","outputs":[{"internalType":"uint256","name":"","type":"uint256"}],"stateMutability":"view","type":"function"},{"inputs":[],"name":"REWARDS_VAULT","outputs":[{"internalType":"address","name":"","type":"address"}],"stateMutability":"view","type":"function"},{"inputs":[],"name":"REWARD_TOKEN","outputs":[{"internalType":"contract IERC20","name":"","type":"address"}],"stateMutability":"view","type":"function"},{"inputs":[],"name":"STAKED_TOKEN","outputs":[{"internalType":"contract IERC20","name":"","type":"address"}],"stateMutability":"view","type":"function"},{"inputs":[],"name":"UNSTAKE_WINDOW","outputs":[{"internalType":"uint256","name":"","type":"uint256"}],"stateMutability":"view","type":"function"},{"inputs":[],"name":"_aaveGovernance","outputs":[{"internalType":"contract ITransferHook","name":"","type":"address"}],"stateMutability":"view","type":"function"},{"inputs":[{"internalType":"address","name":"","type":"address"}],"name":"_countsSnapshots","outputs":[{"internalType":"uint256","name":"","type":"uint256"}],"stateMutability":"view","type":"function"},{"inputs":[{"internalType":"address","name":"","type":"address"},{"internalType":"uint256","name":"","type":"uint256"}],"name":"_snapshots","outputs":[{"internalType":"uint128","name":"blockNumber","type":"uint128"},{"internalType":"uint128","name":"value","type":"uint128"}],"stateMutability":"view","type":"function"},{"inputs":[{"internalType":"address","name":"owner","type":"address"},{"internalType":"address","name":"spender","type":"address"}],"name":"allowance","outputs":[{"internalType":"uint256","name":"","type":"uint256"}],"stateMutability":"view","type":"function"},{"inputs":[{"internalType":"address","name":"spender","type":"address"},{"internalType":"uint256","name":"amount","type":"uint256"}],"name":"approve","outputs":[{"internalType":"bool","name":"","type":"bool"}],"stateMutability":"nonpayable","type":"function"},{"inputs":[{"internalType":"address","name":"","type":"address"}],"name":"assets","outputs":[{"internalType":"uint128","name":"emissionPerSecond","type":"uint128"},{"internalType":"uint128","name":"lastUpdateTimestamp","type":"uint128"},{"internalType":"uint256","name":"index","type":"uint256"}],"stateMutability":"view","type":"function"},{"inputs":[{"internalType":"address","name":"account","type":"address"}],"name":"balanceOf","outputs":[{"internalType":"uint256","name":"","type":"uint256"}],"stateMutability":"view","type":"function"},{"inputs":[{"internalType":"address","name":"to","type":"address"},{"internalType":"uint256","name":"amount","type":"uint256"}],"name":"claimRewards","outputs":[],"stateMutability":"nonpayable","type":"function"},{"inputs":[{"components":[{"internalType":"uint128","name":"emissionPerSecond","type":"uint128"},{"internalType":"uint256","name":"totalStaked","type":"uint256"},{"internalType":"address","name":"underlyingAsset","type":"address"}],"internalType":"struct DistributionTypes.AssetConfigInput[]","name":"assetsConfigInput","type":"tuple[]"}],"name":"configureAssets","outputs":[],"stateMutability":"nonpayable","type":"function"},{"inputs":[],"name":"cooldown","outputs":[],"stateMutability":"nonpayable","type":"function"},{"inputs":[],"name":"decimals","outputs":[{"internalType":"uint8","name":"","type":"uint8"}],"stateMutability":"view","type":"function"},{"inputs":[{"internalType":"address","name":"spender","type":"address"},{"internalType":"uint256","name":"subtractedValue","type":"uint256"}],"name":"decreaseAllowance","outputs":[{"internalType":"bool","name":"","type":"bool"}],"stateMutability":"nonpayable","type":"function"},{"inputs":[{"internalType":"uint256","name":"fromCooldownTimestamp","type":"uint256"},{"internalType":"uint256","name":"amountToReceive","type":"uint256"},{"internalType":"address","name":"toAddress","type":"address"},{"internalType":"uint256","name":"toBalance","type":"uint256"}],"name":"getNextCooldownTimestamp","outputs":[{"internalType":"uint256","name":"","type":"uint256"}],"stateMutability":"view","type":"function"},{"inputs":[{"internalType":"address","name":"staker","type":"address"}],"name":"getTotalRewardsBalance","outputs":[{"internalType":"uint256","name":"","type":"uint256"}],"stateMutability":"view","type":"function"},{"inputs":[{"internalType":"address","name":"user","type":"address"},{"internalType":"address","name":"asset","type":"address"}],"name":"getUserAssetData","outputs":[{"internalType":"uint256","name":"","type":"uint256"}],"stateMutability":"view","type":"function"},{"inputs":[{"internalType":"address","name":"spender","type":"address"},{"internalType":"uint256","name":"addedValue","type":"uint256"}],"name":"increaseAllowance","outputs":[{"internalType":"bool","name":"","type":"bool"}],"stateMutability":"nonpayable","type":"function"},{"inputs":[{"internalType":"contract ITransferHook","name":"aaveGovernance","type":"address"},{"internalType":"string","name":"name","type":"string"},{"internalType":"string","name":"symbol","type":"string"},{"internalType":"uint8","name":"decimals","type":"uint8"}],"name":"initialize","outputs":[],"stateMutability":"nonpayable","type":"function"},{"inputs":[],"name":"name","outputs":[{"internalType":"string","name":"","type":"string"}],"stateMutability":"view","type":"function"},{"inputs":[{"internalType":"address","name":"to","type":"address"},{"internalType":"uint256","name":"amount","type":"uint256"}],"name":"redeem","outputs":[],"stateMutability":"nonpayable","type":"function"},{"inputs":[{"internalType":"address","name":"onBehalfOf","type":"address"},{"internalType":"uint256","name":"amount","type":"uint256"}],"name":"stake","outputs":[],"stateMutability":"nonpayable","type":"function"},{"inputs":[{"internalType":"address","name":"","type":"address"}],"name":"stakerRewardsToClaim","outputs":[{"internalType":"uint256","name":"","type":"uint256"}],"stateMutability":"view","type":"function"},{"inputs":[{"internalType":"address","name":"","type":"address"}],"name":"stakersCooldowns","outputs":[{"internalType":"uint256","name":"","type":"uint256"}],"stateMutability":"view","type":"function"},{"inputs":[],"name":"symbol","outputs":[{"internalType":"string","name":"","type":"string"}],"stateMutability":"view","type":"function"},{"inputs":[],"name":"totalSupply","outputs":[{"internalType":"uint256","name":"","type":"uint256"}],"stateMutability":"view","type":"function"},{"inputs":[{"internalType":"address","name":"recipient","type":"address"},{"internalType":"uint256","name":"amount","type":"uint256"}],"name":"transfer","outputs":[{"internalType":"bool","name":"","type":"bool"}],"stateMutability":"nonpayable","type":"function"},{"inputs":[{"internalType":"address","name":"sender","type":"address"},{"internalType":"address","name":"recipient","type":"address"},{"internalType":"uint256","name":"amount","type":"uint256"}],"name":"transferFrom","outputs":[{"internalType":"bool","name":"","type":"bool"}],"stateMutability":"nonpayable","type":"function"}],"devdoc":{"author":"Aave*","kind":"dev","methods":{"allowance(address,address)":{"details":"returns the allowance of spender on the tokens owned by owner","params":{"owner":"the owner of the tokens","spender":"the user allowed to spend the owner's tokens"},"returns":{"_0":"the amount of owner's tokens spender is allowed to spend*"}},"approve(address,uint256)":{"details":"allows spender to spend the tokens owned by msg.sender","params":{"spender":"the user allowed to spend msg.sender tokens"},"returns":{"_0":"true*"}},"balanceOf(address)":{"returns":{"_0":"the balance of the token*"}},"claimRewards(address,uint256)":{"details":"Claims an `amount` of `REWARD_TOKEN` to the address `to`","params":{"amount":"Amount to stake*","to":"Address to stake for"}},"configureAssets((uint128,uint256,address)[])":{"details":"Configures the distribution of rewards for a list of assets","params":{"assetsConfigInput":"The list of configurations to apply*"}},"cooldown()":{"details":"Activates the cooldown period to unstake - It can't be called if the user is not staking*"},"decimals()":{"returns":{"_0":"the decimals of the token*"}},"decreaseAllowance(address,uint256)":{"details":"decreases the allowance of spender to spend msg.sender tokens","params":{"spender":"the user allowed to spend on behalf of msg.sender","subtractedValue":"the amount being subtracted to the allowance"},"returns":{"_0":"true*"}},"getNextCooldownTimestamp(uint256,uint256,address,uint256)":{"details":"Calculates the how is gonna be a new cooldown timestamp depending on the sender/receiver situation  - If the timestamp of the sender is \"better\" or the timestamp of the recipient is 0, we take the one of the recipient  - Weighted average of from/to cooldown timestamps if:    # The sender doesn't have the cooldown activated (timestamp 0).    # The sender timestamp is expired    # The sender has a \"worse\" timestamp  - If the receiver's cooldown timestamp expired (too old), the next is 0","params":{"amountToReceive":"Amount","fromCooldownTimestamp":"Cooldown timestamp of the sender","toAddress":"Address of the recipient","toBalance":"Current balance of the receiver"},"returns":{"_0":"The new cooldown timestamp*"}},"getTotalRewardsBalance(address)":{"details":"Return the total rewards pending to claim by an staker","params":{"staker":"The staker address"},"returns":{"_0":"The rewards"}},"getUserAssetData(address,address)":{"details":"Returns the data of an user on a distribution","params":{"asset":"The address of the reference asset of the distribution","user":"Address of the user"},"returns":{"_0":"The new index*"}},"increaseAllowance(address,uint256)":{"details":"increases the allowance of spender to spend msg.sender tokens","params":{"addedValue":"the amount being added to the allowance","spender":"the user allowed to spend on behalf of msg.sender"},"returns":{"_0":"true*"}},"initialize(address,string,string,uint8)":{"details":"Called by the proxy contract*"},"name()":{"returns":{"_0":"the name of the token*"}},"redeem(address,uint256)":{"details":"Redeems staked tokens, and stop earning rewards","params":{"amount":"Amount to redeem*","to":"Address to redeem to"}},"symbol()":{"returns":{"_0":"the symbol of the token*"}},"totalSupply()":{"returns":{"_0":"the total supply of the token*"}},"transfer(address,uint256)":{"details":"executes a transfer of tokens from msg.sender to recipient","params":{"amount":"the amount of tokens being transferred","recipient":"the recipient of the tokens"},"returns":{"_0":"true if the transfer succeeds, false otherwise*"}},"transferFrom(address,address,uint256)":{"details":"executes a transfer of token from sender to recipient, if msg.sender is allowed to do so","params":{"amount":"the amount of tokens being transferred","recipient":"the recipient of the tokens","sender":"the owner of the tokens"},"returns":{"_0":"true if the transfer succeeds, false otherwise*"}}},"title":"StakedToken","version":1},"evm":{"bytecode":{"linkReferences":{},"object":"61016060405260006009553480156200001757600080fd5b506040516200373c3803806200373c8339810160408190526200003a91620002f7565b84846001600160801b031684848482828282600390805190602001906200006392919062000161565b5081516200007990600490602085019062000161565b5080600560006101000a81548160ff021916908360ff160217905550505050505050620000b58142620000ff60201b620014f41790919060201c565b608052506001600160601b0319606091821b811660a0529a811b8b1660c05298891b8a1660e05250505061010094909452506101209190915290911b9091166101405250620003e4565b6000828201838110156200015a576040805162461bcd60e51b815260206004820152601b60248201527f536166654d6174683a206164646974696f6e206f766572666c6f770000000000604482015290519081900360640190fd5b9392505050565b828054600181600116156101000203166002900490600052602060002090601f016020900481019282620001995760008555620001e4565b82601f10620001b457805160ff1916838001178555620001e4565b82800160010185558215620001e4579182015b82811115620001e4578251825591602001919060010190620001c7565b50620001f2929150620001f6565b5090565b5b80821115620001f25760008155600101620001f7565b80516001600160a01b03811681146200022557600080fd5b919050565b600082601f8301126200023b578081fd5b81516001600160401b03808211156200025057fe5b6040516020601f8401601f19168201810183811183821017156200027057fe5b806040525081945083825286818588010111156200028d57600080fd5b600092505b83831015620002b1578583018101518284018201529182019162000292565b83831115620002c35760008185840101525b5050505092915050565b80516001600160801b03811681146200022557600080fd5b805160ff811681146200022557600080fd5b6000806000806000806000806000806101408b8d03121562000317578586fd5b620003228b6200020d565b99506200033260208c016200020d565b985060408b0151975060608b015196506200035060808c016200020d565b95506200036060a08c016200020d565b94506200037060c08c01620002cd565b60e08c01519094506001600160401b03808211156200038d578485fd5b6200039b8e838f016200022a565b94506101008d0151915080821115620003b2578384fd5b50620003c18d828e016200022a565b925050620003d36101208c01620002e5565b90509295989b9194979a5092959850565b60805160a05160601c60c05160601c60e05160601c61010051610120516101405160601c6132b76200048560003980610b795280610d1f5250806106415280610924528061132a5250806105e3528061066952806109cb528061134f525080610c1c5280610ce852508061073c52806108ba5280610f86525080611023528061124b525080610b555280612731528061277652806127a352506132b76000f3fe608060405234801561001057600080fd5b50600436106102415760003560e01c80638dbefee211610145578063adc9772e116100bd578063dd62ed3e1161008c578063f11b818811610071578063f11b81881461045b578063f1cc432a1461047d578063f6d2ee861461049057610241565b8063dd62ed3e14610440578063dde43cba1461045357610241565b8063adc9772e1461040a578063b2a5dbfa1461041d578063c3863ada14610430578063cbcbb5071461043857610241565b806399248ea711610114578063a457c2d7116100f9578063a457c2d7146103dc578063a9059cbb146103ef578063aaf5eb681461040257610241565b806399248ea7146103c15780639a99b4f0146103c957610241565b80638dbefee214610396578063919cd40f146103a9578063946776cd146103b157806395d89b41146103b957610241565b8063313ce567116101d857806370a08231116101a7578063787a08a61161018c578063787a08a6146103685780637e90d7ef146103705780638779588c1461038357610241565b806370a082311461034d57806372b49d631461036057610241565b8063313ce5671461030a5780633373ee4c1461031f578063359c4a9614610332578063395093511461033a57610241565b80631e9a6950116102145780631e9a6950146102ac57806323b872dd146102c15780632acbf823146102d4578063312f6b83146102f557610241565b806306fdde0314610246578063091030c314610264578063095ea7b31461028457806318160ddd146102a4575b600080fd5b61024e6104a3565b60405161025b9190612e97565b60405180910390f35b610277610272366004612c11565b610557565b60405161025b9190613088565b610297610292366004612ca5565b610569565b60405161025b9190612e8c565b610277610587565b6102bf6102ba366004612ca5565b61058d565b005b6102976102cf366004612c65565b6107cf565b6102e76102e2366004612ca5565b610871565b60405161025b929190613038565b6102fd6108b8565b60405161025b9190612e45565b6103126108dc565b60405161025b9190613091565b61027761032d366004612c2d565b6108e5565b610277610922565b610297610348366004612ca5565b610946565b61027761035b366004612c11565b6109a1565b6102776109c9565b6102bf6109ed565b61027761037e366004612c11565b610a66565b610277610391366004612c11565b610a78565b6102776103a4366004612c11565b610a8a565b610277610b53565b6102fd610b77565b61024e610b9b565b6102fd610c1a565b6102bf6103d7366004612ca5565b610c3e565b6102976103ea366004612ca5565b610db0565b6102976103fd366004612ca5565b610e25565b610312610e39565b6102bf610418366004612ca5565b610e3e565b6102bf61042b366004612cd0565b61100b565b6102fd61122d565b6102fd611249565b61027761044e366004612c2d565b61126d565b6102776112a5565b61046e610469366004612c11565b6112aa565b60405161025b9392919061305b565b61027761048b366004612e07565b6112ee565b6102bf61049e366004612d40565b6113f2565b60038054604080516020601f60027fffffffffffffffffffffffffffffffffffffffffffffffffffffffffffffffff61010060018816150201909516949094049384018190048102820181019092528281526060939092909183018282801561054d5780601f106105225761010080835404028352916020019161054d565b820191906000526020600020905b81548152906001019060200180831161053057829003601f168201915b5050505050905090565b603e6020526000908152604090205481565b600061057d610576611568565b848461156c565b5060015b92915050565b60025490565b806105cd576040517f08c379a00000000000000000000000000000000000000000000000000000000081526004016105c490612f08565b60405180910390fd5b336000908152603e6020526040902054610607817f00000000000000000000000000000000000000000000000000000000000000006114f4565b421161063f576040517f08c379a00000000000000000000000000000000000000000000000000000000081526004016105c490612f3f565b7f000000000000000000000000000000000000000000000000000000000000000061069461068d837f00000000000000000000000000000000000000000000000000000000000000006114f4565b42906116b3565b11156106cc576040517f08c379a00000000000000000000000000000000000000000000000000000000081526004016105c490612fad565b60006106d7336109a1565b905060008184116106e857836106ea565b815b90506106f8338360016116f5565b5061070333826117b4565b61070d82826116b3565b61072257336000908152603e60205260408120555b61076373ffffffffffffffffffffffffffffffffffffffff7f00000000000000000000000000000000000000000000000000000000000000001686836118fe565b8473ffffffffffffffffffffffffffffffffffffffff163373ffffffffffffffffffffffffffffffffffffffff167fd12200efa34901b99367694174c3b0d32c99585fdf37c7c26892136ddd0836d9836040516107c09190613088565b60405180910390a35050505050565b60006107dc84848461198b565b610866846107e8611568565b610861856040518060600160405280602881526020016131736028913973ffffffffffffffffffffffffffffffffffffffff8a16600090815260016020526040812090610833611568565b73ffffffffffffffffffffffffffffffffffffffff1681526020810191909152604001600020549190611a98565b61156c565b5060015b9392505050565b60066020908152600092835260408084209091529082529020546fffffffffffffffffffffffffffffffff8082169170010000000000000000000000000000000090041682565b7f000000000000000000000000000000000000000000000000000000000000000081565b60055460ff1690565b73ffffffffffffffffffffffffffffffffffffffff8082166000908152603c60209081526040808320938616835260029093019052205492915050565b7f000000000000000000000000000000000000000000000000000000000000000081565b600061057d610953611568565b846108618560016000610964611568565b73ffffffffffffffffffffffffffffffffffffffff908116825260208083019390935260409182016000908120918c1681529252902054906114f4565b73ffffffffffffffffffffffffffffffffffffffff1660009081526020819052604090205490565b7f000000000000000000000000000000000000000000000000000000000000000081565b6109f6336109a1565b610a2c576040517f08c379a00000000000000000000000000000000000000000000000000000000081526004016105c490612fe4565b336000818152603e6020526040808220429055517ff52f50426b32362d3e6bb8cb36b7074756b224622def6352a59eac7f66ebe6e89190a2565b603d6020526000908152604090205481565b60076020526000908152604090205481565b60408051600180825281830190925260009160609190816020015b610aad612af2565b815260200190600190039081610aa557905050905060405180606001604052803073ffffffffffffffffffffffffffffffffffffffff168152602001610af2856109a1565b8152602001610aff610587565b81525081600081518110610b0f57fe5b602002602001018190525061086a610b278483611b49565b73ffffffffffffffffffffffffffffffffffffffff85166000908152603d6020526040902054906114f4565b7f000000000000000000000000000000000000000000000000000000000000000081565b7f000000000000000000000000000000000000000000000000000000000000000081565b60048054604080516020601f60027fffffffffffffffffffffffffffffffffffffffffffffffffffffffffffffffff61010060018816150201909516949094049384018190048102820181019092528281526060939092909183018282801561054d5780601f106105225761010080835404028352916020019161054d565b7f000000000000000000000000000000000000000000000000000000000000000081565b6000610c5433610c4d336109a1565b60006116f5565b905060007fffffffffffffffffffffffffffffffffffffffffffffffffffffffffffffffff8314610c855782610c87565b815b9050610cd3816040518060400160405280600e81526020017f494e56414c49445f414d4f554e5400000000000000000000000000000000000081525084611a989092919063ffffffff16565b336000908152603d6020526040902055610d457f000000000000000000000000000000000000000000000000000000000000000073ffffffffffffffffffffffffffffffffffffffff167f00000000000000000000000000000000000000000000000000000000000000008684611c77565b8373ffffffffffffffffffffffffffffffffffffffff163373ffffffffffffffffffffffffffffffffffffffff167f9310ccfcb8de723f578a9e4282ea9f521f05ae40dc08f3068dfad528a65ee3c783604051610da29190613088565b60405180910390a350505050565b600061057d610dbd611568565b846108618560405180606001604052806025815260200161325d6025913960016000610de7611568565b73ffffffffffffffffffffffffffffffffffffffff908116825260208083019390935260409182016000908120918d16815292529020549190611a98565b600061057d610e32611568565b848461198b565b601281565b80610e75576040517f08c379a00000000000000000000000000000000000000000000000000000000081526004016105c490612f08565b6000610e80836109a1565b90506000610e97843084610e92610587565b611d0c565b90508015610f2f577f2468f9268c60ad90e2d49edb0032c8a001e733ae888b3ab8e982edf535be1a768482604051610ed0929190612e66565b60405180910390a173ffffffffffffffffffffffffffffffffffffffff84166000908152603d6020526040902054610f0890826114f4565b73ffffffffffffffffffffffffffffffffffffffff85166000908152603d60205260409020555b610f3c60008486856112ee565b73ffffffffffffffffffffffffffffffffffffffff85166000908152603e6020526040902055610f6c8484611de5565b610fae73ffffffffffffffffffffffffffffffffffffffff7f000000000000000000000000000000000000000000000000000000000000000016333086611c77565b8373ffffffffffffffffffffffffffffffffffffffff163373ffffffffffffffffffffffffffffffffffffffff167f5dac0c1b1112564a045ba943c9d50270893e8e826c49be8e7073adc713ab7bd785604051610da29190613088565b3373ffffffffffffffffffffffffffffffffffffffff7f0000000000000000000000000000000000000000000000000000000000000000161461107a576040517f08c379a00000000000000000000000000000000000000000000000000000000081526004016105c490612f76565b60005b81811015611228576000603c600085858581811061109757fe5b90506060020160400160208101906110af9190612c11565b73ffffffffffffffffffffffffffffffffffffffff1673ffffffffffffffffffffffffffffffffffffffff168152602001908152602001600020905061112e8484848181106110fa57fe5b90506060020160400160208101906111129190612c11565b8286868681811061111f57fe5b90506060020160200135611f16565b5083838381811061113b57fe5b6111519260206060909202019081019150612dd7565b81547fffffffffffffffffffffffffffffffff00000000000000000000000000000000166fffffffffffffffffffffffffffffffff9190911617815583838381811061119957fe5b90506060020160400160208101906111b19190612c11565b73ffffffffffffffffffffffffffffffffffffffff167f87fa03892a0556cb6b8f97e6d533a150d4d55fcbf275fff5fa003fa636bcc7fa8585858181106111f457fe5b61120a9260206060909202019081019150612dd7565b604051611217919061301b565b60405180910390a25060010161107d565b505050565b60085473ffffffffffffffffffffffffffffffffffffffff1681565b7f000000000000000000000000000000000000000000000000000000000000000081565b73ffffffffffffffffffffffffffffffffffffffff918216600090815260016020908152604080832093909416825291909152205490565b600181565b603c60205260009081526040902080546001909101546fffffffffffffffffffffffffffffffff808316927001000000000000000000000000000000009004169083565b73ffffffffffffffffffffffffffffffffffffffff82166000908152603e6020526040812054806113235760009150506113ea565b60006113797f0000000000000000000000000000000000000000000000000000000000000000611373427f00000000000000000000000000000000000000000000000000000000000000006116b3565b906116b3565b90508181111561138c57600091506113e6565b600087821161139b578761139d565b425b9050828110156113b2578293505050506113ea565b6113e26113bf88876114f4565b6113dc6113cc8887612015565b6113d68b86612015565b906114f4565b90612088565b9250505b5090505b949350505050565b60006113fc6120ca565b90506009548111611458576040517f08c379a000000000000000000000000000000000000000000000000000000000815260040180806020018281038252602e81526020018061319b602e913960400191505060405180910390fd5b6009819055604080516020601f880181900481028201810190925286815261149a9188908890819084018382808284376000920191909152506120cf92505050565b6114d984848080601f0160208091040260200160405190810160405280939291908181526020018383808284376000920191909152506120e692505050565b6114e2826120f9565b6114eb8761212d565b50505050505050565b60008282018381101561086a57604080517f08c379a000000000000000000000000000000000000000000000000000000000815260206004820152601b60248201527f536166654d6174683a206164646974696f6e206f766572666c6f770000000000604482015290519081900360640190fd5b3390565b73ffffffffffffffffffffffffffffffffffffffff83166115d8576040517f08c379a000000000000000000000000000000000000000000000000000000000815260040180806020018281038252602481526020018061320f6024913960400191505060405180910390fd5b73ffffffffffffffffffffffffffffffffffffffff8216611644576040517f08c379a000000000000000000000000000000000000000000000000000000000815260040180806020018281038252602281526020018061310a6022913960400191505060405180910390fd5b73ffffffffffffffffffffffffffffffffffffffff808416600081815260016020908152604080832094871680845294825291829020859055815185815291517f8c5be1e5ebec7d5bd14f71427d1e84f3dd0314c0f7b2291e5b200ac8c7c3b9259281900390910190a3505050565b600061086a83836040518060400160405280601e81526020017f536166654d6174683a207375627472616374696f6e206f766572666c6f770000815250611a98565b600080611706853086610e92610587565b73ffffffffffffffffffffffffffffffffffffffff86166000908152603d60205260408120549192509061173a90836114f4565b905081156117ab5783156117715773ffffffffffffffffffffffffffffffffffffffff86166000908152603d602052604090208190555b7f2468f9268c60ad90e2d49edb0032c8a001e733ae888b3ab8e982edf535be1a7686836040516117a2929190612e66565b60405180910390a15b95945050505050565b73ffffffffffffffffffffffffffffffffffffffff8216611820576040517f08c379a00000000000000000000000000000000000000000000000000000000081526004018080602001828103825260218152602001806131c96021913960400191505060405180910390fd5b61182c82600083612174565b611876816040518060600160405280602281526020016130e86022913973ffffffffffffffffffffffffffffffffffffffff85166000908152602081905260409020549190611a98565b73ffffffffffffffffffffffffffffffffffffffff83166000908152602081905260409020556002546118a990826116b3565b60025560408051828152905160009173ffffffffffffffffffffffffffffffffffffffff8516917fddf252ad1be2c89b69c2b068fc378daa952ba7f163c4a11628f55a4df523b3ef9181900360200190a35050565b6040805173ffffffffffffffffffffffffffffffffffffffff8416602482015260448082018490528251808303909101815260649091019091526020810180517bffffffffffffffffffffffffffffffffffffffffffffffffffffffff167fa9059cbb000000000000000000000000000000000000000000000000000000001790526112289084906122f2565b6000611996846109a1565b90506119a4848260016116f5565b508273ffffffffffffffffffffffffffffffffffffffff168473ffffffffffffffffffffffffffffffffffffffff1614611a875760006119e3846109a1565b90506119f1848260016116f5565b5073ffffffffffffffffffffffffffffffffffffffff85166000908152603e6020526040902054611a24818587856112ee565b73ffffffffffffffffffffffffffffffffffffffff86166000908152603e60205260409020558284148015611a5857508015155b15611a845773ffffffffffffffffffffffffffffffffffffffff86166000908152603e60205260408120555b50505b611a92848484612530565b50505050565b60008184841115611b41576040517f08c379a00000000000000000000000000000000000000000000000000000000081526004018080602001828103825283818151815260200191508051906020019080838360005b83811015611b06578181015183820152602001611aee565b50505050905090810190601f168015611b335780820380516001836020036101000a031916815260200191505b509250505060405180910390fd5b505050900390565b600080805b8351811015611c6f576000603c6000868481518110611b6957fe5b6020908102919091018101515173ffffffffffffffffffffffffffffffffffffffff1682528101919091526040016000908120600181015481548851929450611bf4926fffffffffffffffffffffffffffffffff80831692700100000000000000000000000000000000900416908a9088908110611be357fe5b602002602001015160400151612700565b9050611c63611c5c878581518110611c0857fe5b602002602001015160200151838560020160008c73ffffffffffffffffffffffffffffffffffffffff1673ffffffffffffffffffffffffffffffffffffffff16815260200190815260200160002054612814565b85906114f4565b93505050600101611b4e565b509392505050565b6040805173ffffffffffffffffffffffffffffffffffffffff80861660248301528416604482015260648082018490528251808303909101815260849091019091526020810180517bffffffffffffffffffffffffffffffffffffffffffffffffffffffff167f23b872dd00000000000000000000000000000000000000000000000000000000179052611a929085906122f2565b73ffffffffffffffffffffffffffffffffffffffff8084166000908152603c602090815260408083209388168352600284019091528120549091908280611d54888588611f16565b9050808314611dd9578615611d7157611d6e878285612814565b91505b73ffffffffffffffffffffffffffffffffffffffff808a1660008181526002870160205260409081902084905551918a16917fbb123b5c06d5408bbea3c4fef481578175cfb432e3b482c6186f02ed9086585b90611dd0908590613088565b60405180910390a35b50979650505050505050565b73ffffffffffffffffffffffffffffffffffffffff8216611e6757604080517f08c379a000000000000000000000000000000000000000000000000000000000815260206004820152601f60248201527f45524332303a206d696e7420746f20746865207a65726f206164647265737300604482015290519081900360640190fd5b611e7360008383612174565b600254611e8090826114f4565b60025573ffffffffffffffffffffffffffffffffffffffff8216600090815260208190526040902054611eb390826114f4565b73ffffffffffffffffffffffffffffffffffffffff83166000818152602081815260408083209490945583518581529351929391927fddf252ad1be2c89b69c2b068fc378daa952ba7f163c4a11628f55a4df523b3ef9281900390910190a35050565b600182015482546000919070010000000000000000000000000000000090046fffffffffffffffffffffffffffffffff1642811415611f575750905061086a565b8454600090611f7b9084906fffffffffffffffffffffffffffffffff168488612700565b9050828114611fdc578086600101819055508673ffffffffffffffffffffffffffffffffffffffff167f5777ca300dfe5bead41006fbce4389794dbc0ed8d6cccebfaf94630aa04184bc82604051611fd39190613088565b60405180910390a25b85546fffffffffffffffffffffffffffffffff428116700100000000000000000000000000000000029116178655925050509392505050565b60008261202457506000610581565b8282028284828161203157fe5b041461086a576040517f08c379a00000000000000000000000000000000000000000000000000000000081526004018080602001828103825260218152602001806131526021913960400191505060405180910390fd5b600061086a83836040518060400160405280601a81526020017f536166654d6174683a206469766973696f6e206279207a65726f000000000000815250612836565b600190565b80516120e2906003906020840190612b29565b5050565b80516120e2906004906020840190612b29565b600580547fffffffffffffffffffffffffffffffffffffffffffffffffffffffffffffff001660ff92909216919091179055565b600880547fffffffffffffffffffffffff00000000000000000000000000000000000000001673ffffffffffffffffffffffffffffffffffffffff92909216919091179055565b8173ffffffffffffffffffffffffffffffffffffffff168373ffffffffffffffffffffffffffffffffffffffff1614156121ad57611228565b73ffffffffffffffffffffffffffffffffffffffff8316156121ec5760006121d4846109a1565b90506121ea84826121e581866116b3565b6128b5565b505b73ffffffffffffffffffffffffffffffffffffffff821615612226576000612213836109a1565b905061222483826121e581866114f4565b505b60085473ffffffffffffffffffffffffffffffffffffffff168015611a92578073ffffffffffffffffffffffffffffffffffffffff16634a3931498585856040518463ffffffff1660e01b8152600401808473ffffffffffffffffffffffffffffffffffffffff1681526020018373ffffffffffffffffffffffffffffffffffffffff1681526020018281526020019350505050600060405180830381600087803b1580156122d457600080fd5b505af11580156122e8573d6000803e3d6000fd5b5050505050505050565b6123118273ffffffffffffffffffffffffffffffffffffffff16612ab9565b61237c57604080517f08c379a000000000000000000000000000000000000000000000000000000000815260206004820152601f60248201527f5361666545524332303a2063616c6c20746f206e6f6e2d636f6e747261637400604482015290519081900360640190fd5b600060608373ffffffffffffffffffffffffffffffffffffffff16836040518082805190602001908083835b602083106123e557805182527fffffffffffffffffffffffffffffffffffffffffffffffffffffffffffffffe090920191602091820191016123a8565b6001836020036101000a0380198251168184511680821785525050505050509050019150506000604051808303816000865af19150503d8060008114612447576040519150601f19603f3d011682016040523d82523d6000602084013e61244c565b606091505b5091509150816124bd57604080517f08c379a000000000000000000000000000000000000000000000000000000000815260206004820181905260248201527f5361666545524332303a206c6f772d6c6576656c2063616c6c206661696c6564604482015290519081900360640190fd5b805115611a92578080602001905160208110156124d957600080fd5b5051611a92576040517f08c379a000000000000000000000000000000000000000000000000000000000815260040180806020018281038252602a815260200180613233602a913960400191505060405180910390fd5b73ffffffffffffffffffffffffffffffffffffffff831661259c576040517f08c379a00000000000000000000000000000000000000000000000000000000081526004018080602001828103825260258152602001806131ea6025913960400191505060405180910390fd5b73ffffffffffffffffffffffffffffffffffffffff8216612608576040517f08c379a00000000000000000000000000000000000000000000000000000000081526004018080602001828103825260238152602001806130c56023913960400191505060405180910390fd5b612613838383612174565b61265d8160405180606001604052806026815260200161312c6026913973ffffffffffffffffffffffffffffffffffffffff86166000908152602081905260409020549190611a98565b73ffffffffffffffffffffffffffffffffffffffff808516600090815260208190526040808220939093559084168152205461269990826114f4565b73ffffffffffffffffffffffffffffffffffffffff8084166000818152602081815260409182902094909455805185815290519193928716927fddf252ad1be2c89b69c2b068fc378daa952ba7f163c4a11628f55a4df523b3ef92918290030190a3505050565b600083158061270d575081155b80612729575042836fffffffffffffffffffffffffffffffff16145b8061276657507f0000000000000000000000000000000000000000000000000000000000000000836fffffffffffffffffffffffffffffffff1610155b156127725750836113ea565b60007f000000000000000000000000000000000000000000000000000000000000000042116127a157426127c3565b7f00000000000000000000000000000000000000000000000000000000000000005b905060006127e3826fffffffffffffffffffffffffffffffff87166116b3565b9050612809876113d6866113dc670de0b6b3a76400006128038c88612015565b90612015565b979650505050505050565b60006113ea670de0b6b3a76400006113dc61282f86866116b3565b8790612015565b6000818361289f576040517f08c379a0000000000000000000000000000000000000000000000000000000008152602060048201818152835160248401528351909283926044909101919085019080838360008315611b06578181015183820152602001611aee565b5060008385816128ab57fe5b0495945050505050565b73ffffffffffffffffffffffffffffffffffffffff83166000908152600760209081526040808320546006909252909120439190811580159061293957506fffffffffffffffffffffffffffffffff83168160006129148560016116b3565b81526020810191909152604001600020546fffffffffffffffffffffffffffffffff16145b15612993578381600061294d8560016116b3565b8152602081019190915260400160002080546fffffffffffffffffffffffffffffffff928316700100000000000000000000000000000000029216919091179055612a49565b6040805180820182526fffffffffffffffffffffffffffffffff80861682528681166020808401918252600087815290869052939093209151825493518216700100000000000000000000000000000000029082167fffffffffffffffffffffffffffffffff000000000000000000000000000000009094169390931716919091179055612a228260016114f4565b73ffffffffffffffffffffffffffffffffffffffff87166000908152600760205260409020555b6040805173ffffffffffffffffffffffffffffffffffffffff881681526fffffffffffffffffffffffffffffffff808816602083015286168183015290517f2cd3c83ddac2953ee75f53265d9ea4463eaf05030e5459a1b7e63819b7ce88f79181900360600190a1505050505050565b6000813f7fc5d2460186f7233c927e7db2dcc703c0e500b653ca82273b7bfad8045d85a4708181148015906113ea575050151592915050565b6040518060600160405280600073ffffffffffffffffffffffffffffffffffffffff16815260200160008152602001600081525090565b828054600181600116156101000203166002900490600052602060002090601f016020900481019282612b5f5760008555612ba5565b82601f10612b7857805160ff1916838001178555612ba5565b82800160010185558215612ba5579182015b82811115612ba5578251825591602001919060010190612b8a565b50612bb1929150612bb5565b5090565b5b80821115612bb15760008155600101612bb6565b60008083601f840112612bdb578182fd5b50813567ffffffffffffffff811115612bf2578182fd5b602083019150836020828501011115612c0a57600080fd5b9250929050565b600060208284031215612c22578081fd5b813561086a8161309f565b60008060408385031215612c3f578081fd5b8235612c4a8161309f565b91506020830135612c5a8161309f565b809150509250929050565b600080600060608486031215612c79578081fd5b8335612c848161309f565b92506020840135612c948161309f565b929592945050506040919091013590565b60008060408385031215612cb7578182fd5b8235612cc28161309f565b946020939093013593505050565b60008060208385031215612ce2578182fd5b823567ffffffffffffffff80821115612cf9578384fd5b818501915085601f830112612d0c578384fd5b813581811115612d1a578485fd5b866020606083028501011115612d2e578485fd5b60209290920196919550909350505050565b60008060008060008060808789031215612d58578182fd5b8635612d638161309f565b9550602087013567ffffffffffffffff80821115612d7f578384fd5b612d8b8a838b01612bca565b90975095506040890135915080821115612da3578384fd5b50612db089828a01612bca565b909450925050606087013560ff81168114612dc9578182fd5b809150509295509295509295565b600060208284031215612de8578081fd5b81356fffffffffffffffffffffffffffffffff8116811461086a578182fd5b60008060008060808587031215612e1c578384fd5b84359350602085013592506040850135612e358161309f565b9396929550929360600135925050565b73ffffffffffffffffffffffffffffffffffffffff91909116815260200190565b73ffffffffffffffffffffffffffffffffffffffff929092168252602082015260400190565b901515815260200190565b6000602080835283518082850152825b81811015612ec357858101830151858201604001528201612ea7565b81811115612ed45783604083870101525b50601f017fffffffffffffffffffffffffffffffffffffffffffffffffffffffffffffffe016929092016040019392505050565b60208082526013908201527f494e56414c49445f5a45524f5f414d4f554e5400000000000000000000000000604082015260600190565b60208082526015908201527f494e53554646494349454e545f434f4f4c444f574e0000000000000000000000604082015260600190565b60208082526015908201527f4f4e4c595f454d495353494f4e5f4d414e414745520000000000000000000000604082015260600190565b60208082526017908201527f554e5354414b455f57494e444f575f46494e4953484544000000000000000000604082015260600190565b6020808252601b908201527f494e56414c49445f42414c414e43455f4f4e5f434f4f4c444f574e0000000000604082015260600190565b6fffffffffffffffffffffffffffffffff91909116815260200190565b6fffffffffffffffffffffffffffffffff92831681529116602082015260400190565b6fffffffffffffffffffffffffffffffff9384168152919092166020820152604081019190915260600190565b90815260200190565b60ff91909116815260200190565b73ffffffffffffffffffffffffffffffffffffffff811681146130c157600080fd5b5056fe45524332303a207472616e7366657220746f20746865207a65726f206164647265737345524332303a206275726e20616d6f756e7420657863656564732062616c616e636545524332303a20617070726f766520746f20746865207a65726f206164647265737345524332303a207472616e7366657220616d6f756e7420657863656564732062616c616e6365536166654d6174683a206d756c7469706c69636174696f6e206f766572666c6f7745524332303a207472616e7366657220616d6f756e74206578636565647320616c6c6f77616e6365436f6e747261637420696e7374616e63652068617320616c7265616479206265656e20696e697469616c697a656445524332303a206275726e2066726f6d20746865207a65726f206164647265737345524332303a207472616e736665722066726f6d20746865207a65726f206164647265737345524332303a20617070726f76652066726f6d20746865207a65726f20616464726573735361666545524332303a204552433230206f7065726174696f6e20646964206e6f74207375636365656445524332303a2064656372656173656420616c6c6f77616e63652062656c6f77207a65726fa2646970667358221220d8eb41ace3f71c07d10b2dea8abe82e4ba8c2b59dc62ec66cbbfedb5f71f2c0264736f6c63430007050033","opcodes":"PUSH2 0x160 PUSH1 0x40 MSTORE PUSH1 0x0 PUSH1 0x9 SSTORE CALLVALUE DUP1 ISZERO PUSH3 0x17 JUMPI PUSH1 0x0 DUP1 REVERT JUMPDEST POP PUSH1 0x40 MLOAD PUSH3 0x373C CODESIZE SUB DUP1 PUSH3 0x373C DUP4 CODECOPY DUP2 ADD PUSH1 0x40 DUP2 SWAP1 MSTORE PUSH3 0x3A SWAP2 PUSH3 0x2F7 JUMP JUMPDEST DUP5 DUP5 PUSH1 0x1 PUSH1 0x1 PUSH1 0x80 SHL SUB AND DUP5 DUP5 DUP5 DUP3 DUP3 DUP3 DUP3 PUSH1 0x3 SWAP1 DUP1 MLOAD SWAP1 PUSH1 0x20 ADD SWAP1 PUSH3 0x63 SWAP3 SWAP2 SWAP1 PUSH3 0x161 JUMP JUMPDEST POP DUP2 MLOAD PUSH3 0x79 SWAP1 PUSH1 0x4 SWAP1 PUSH1 0x20 DUP6 ADD SWAP1 PUSH3 0x161 JUMP JUMPDEST POP DUP1 PUSH1 0x5 PUSH1 0x0 PUSH2 0x100 EXP DUP2 SLOAD DUP2 PUSH1 0xFF MUL NOT AND SWAP1 DUP4 PUSH1 0xFF AND MUL OR SWAP1 SSTORE POP POP POP POP POP POP POP PUSH3 0xB5 DUP2 TIMESTAMP PUSH3 0xFF PUSH1 0x20 SHL PUSH3 0x14F4 OR SWAP1 SWAP2 SWAP1 PUSH1 0x20 SHR JUMP JUMPDEST PUSH1 0x80 MSTORE POP PUSH1 0x1 PUSH1 0x1 PUSH1 0x60 SHL SUB NOT PUSH1 0x60 SWAP2 DUP3 SHL DUP2 AND PUSH1 0xA0 MSTORE SWAP11 DUP2 SHL DUP12 AND PUSH1 0xC0 MSTORE SWAP9 DUP10 SHL DUP11 AND PUSH1 0xE0 MSTORE POP POP POP PUSH2 0x100 SWAP5 SWAP1 SWAP5 MSTORE POP PUSH2 0x120 SWAP2 SWAP1 SWAP2 MSTORE SWAP1 SWAP2 SHL SWAP1 SWAP2 AND PUSH2 0x140 MSTORE POP PUSH3 0x3E4 JUMP JUMPDEST PUSH1 0x0 DUP3 DUP3 ADD DUP4 DUP2 LT ISZERO PUSH3 0x15A JUMPI PUSH1 0x40 DUP1 MLOAD PUSH3 0x461BCD PUSH1 0xE5 SHL DUP2 MSTORE PUSH1 0x20 PUSH1 0x4 DUP3 ADD MSTORE PUSH1 0x1B PUSH1 0x24 DUP3 ADD MSTORE PUSH32 0x536166654D6174683A206164646974696F6E206F766572666C6F770000000000 PUSH1 0x44 DUP3 ADD MSTORE SWAP1 MLOAD SWAP1 DUP2 SWAP1 SUB PUSH1 0x64 ADD SWAP1 REVERT JUMPDEST SWAP4 SWAP3 POP POP POP JUMP JUMPDEST DUP3 DUP1 SLOAD PUSH1 0x1 DUP2 PUSH1 0x1 AND ISZERO PUSH2 0x100 MUL SUB AND PUSH1 0x2 SWAP1 DIV SWAP1 PUSH1 0x0 MSTORE PUSH1 0x20 PUSH1 0x0 KECCAK256 SWAP1 PUSH1 0x1F ADD PUSH1 0x20 SWAP1 DIV DUP2 ADD SWAP3 DUP3 PUSH3 0x199 JUMPI PUSH1 0x0 DUP6 SSTORE PUSH3 0x1E4 JUMP JUMPDEST DUP3 PUSH1 0x1F LT PUSH3 0x1B4 JUMPI DUP1 MLOAD PUSH1 0xFF NOT AND DUP4 DUP1 ADD OR DUP6 SSTORE PUSH3 0x1E4 JUMP JUMPDEST DUP3 DUP1 ADD PUSH1 0x1 ADD DUP6 SSTORE DUP3 ISZERO PUSH3 0x1E4 JUMPI SWAP2 DUP3 ADD JUMPDEST DUP3 DUP2 GT ISZERO PUSH3 0x1E4 JUMPI DUP3 MLOAD DUP3 SSTORE SWAP2 PUSH1 0x20 ADD SWAP2 SWAP1 PUSH1 0x1 ADD SWAP1 PUSH3 0x1C7 JUMP JUMPDEST POP PUSH3 0x1F2 SWAP3 SWAP2 POP PUSH3 0x1F6 JUMP JUMPDEST POP SWAP1 JUMP JUMPDEST JUMPDEST DUP1 DUP3 GT ISZERO PUSH3 0x1F2 JUMPI PUSH1 0x0 DUP2 SSTORE PUSH1 0x1 ADD PUSH3 0x1F7 JUMP JUMPDEST DUP1 MLOAD PUSH1 0x1 PUSH1 0x1 PUSH1 0xA0 SHL SUB DUP2 AND DUP2 EQ PUSH3 0x225 JUMPI PUSH1 0x0 DUP1 REVERT JUMPDEST SWAP2 SWAP1 POP JUMP JUMPDEST PUSH1 0x0 DUP3 PUSH1 0x1F DUP4 ADD SLT PUSH3 0x23B JUMPI DUP1 DUP2 REVERT JUMPDEST DUP2 MLOAD PUSH1 0x1 PUSH1 0x1 PUSH1 0x40 SHL SUB DUP1 DUP3 GT ISZERO PUSH3 0x250 JUMPI INVALID JUMPDEST PUSH1 0x40 MLOAD PUSH1 0x20 PUSH1 0x1F DUP5 ADD PUSH1 0x1F NOT AND DUP3 ADD DUP2 ADD DUP4 DUP2 GT DUP4 DUP3 LT OR ISZERO PUSH3 0x270 JUMPI INVALID JUMPDEST DUP1 PUSH1 0x40 MSTORE POP DUP2 SWAP5 POP DUP4 DUP3 MSTORE DUP7 DUP2 DUP6 DUP9 ADD ADD GT ISZERO PUSH3 0x28D JUMPI PUSH1 0x0 DUP1 REVERT JUMPDEST PUSH1 0x0 SWAP3 POP JUMPDEST DUP4 DUP4 LT ISZERO PUSH3 0x2B1 JUMPI DUP6 DUP4 ADD DUP2 ADD MLOAD DUP3 DUP5 ADD DUP3 ADD MSTORE SWAP2 DUP3 ADD SWAP2 PUSH3 0x292 JUMP JUMPDEST DUP4 DUP4 GT ISZERO PUSH3 0x2C3 JUMPI PUSH1 0x0 DUP2 DUP6 DUP5 ADD ADD MSTORE JUMPDEST POP POP POP POP SWAP3 SWAP2 POP POP JUMP JUMPDEST DUP1 MLOAD PUSH1 0x1 PUSH1 0x1 PUSH1 0x80 SHL SUB DUP2 AND DUP2 EQ PUSH3 0x225 JUMPI PUSH1 0x0 DUP1 REVERT JUMPDEST DUP1 MLOAD PUSH1 0xFF DUP2 AND DUP2 EQ PUSH3 0x225 JUMPI PUSH1 0x0 DUP1 REVERT JUMPDEST PUSH1 0x0 DUP1 PUSH1 0x0 DUP1 PUSH1 0x0 DUP1 PUSH1 0x0 DUP1 PUSH1 0x0 DUP1 PUSH2 0x140 DUP12 DUP14 SUB SLT ISZERO PUSH3 0x317 JUMPI DUP6 DUP7 REVERT JUMPDEST PUSH3 0x322 DUP12 PUSH3 0x20D JUMP JUMPDEST SWAP10 POP PUSH3 0x332 PUSH1 0x20 DUP13 ADD PUSH3 0x20D JUMP JUMPDEST SWAP9 POP PUSH1 0x40 DUP12 ADD MLOAD SWAP8 POP PUSH1 0x60 DUP12 ADD MLOAD SWAP7 POP PUSH3 0x350 PUSH1 0x80 DUP13 ADD PUSH3 0x20D JUMP JUMPDEST SWAP6 POP PUSH3 0x360 PUSH1 0xA0 DUP13 ADD PUSH3 0x20D JUMP JUMPDEST SWAP5 POP PUSH3 0x370 PUSH1 0xC0 DUP13 ADD PUSH3 0x2CD JUMP JUMPDEST PUSH1 0xE0 DUP13 ADD MLOAD SWAP1 SWAP5 POP PUSH1 0x1 PUSH1 0x1 PUSH1 0x40 SHL SUB DUP1 DUP3 GT ISZERO PUSH3 0x38D JUMPI DUP5 DUP6 REVERT JUMPDEST PUSH3 0x39B DUP15 DUP4 DUP16 ADD PUSH3 0x22A JUMP JUMPDEST SWAP5 POP PUSH2 0x100 DUP14 ADD MLOAD SWAP2 POP DUP1 DUP3 GT ISZERO PUSH3 0x3B2 JUMPI DUP4 DUP5 REVERT JUMPDEST POP PUSH3 0x3C1 DUP14 DUP3 DUP15 ADD PUSH3 0x22A JUMP JUMPDEST SWAP3 POP POP PUSH3 0x3D3 PUSH2 0x120 DUP13 ADD PUSH3 0x2E5 JUMP JUMPDEST SWAP1 POP SWAP3 SWAP6 SWAP9 SWAP12 SWAP2 SWAP5 SWAP8 SWAP11 POP SWAP3 SWAP6 SWAP9 POP JUMP JUMPDEST PUSH1 0x80 MLOAD PUSH1 0xA0 MLOAD PUSH1 0x60 SHR PUSH1 0xC0 MLOAD PUSH1 0x60 SHR PUSH1 0xE0 MLOAD PUSH1 0x60 SHR PUSH2 0x100 MLOAD PUSH2 0x120 MLOAD PUSH2 0x140 MLOAD PUSH1 0x60 SHR PUSH2 0x32B7 PUSH3 0x485 PUSH1 0x0 CODECOPY DUP1 PUSH2 0xB79 MSTORE DUP1 PUSH2 0xD1F MSTORE POP DUP1 PUSH2 0x641 MSTORE DUP1 PUSH2 0x924 MSTORE DUP1 PUSH2 0x132A MSTORE POP DUP1 PUSH2 0x5E3 MSTORE DUP1 PUSH2 0x669 MSTORE DUP1 PUSH2 0x9CB MSTORE DUP1 PUSH2 0x134F MSTORE POP DUP1 PUSH2 0xC1C MSTORE DUP1 PUSH2 0xCE8 MSTORE POP DUP1 PUSH2 0x73C MSTORE DUP1 PUSH2 0x8BA MSTORE DUP1 PUSH2 0xF86 MSTORE POP DUP1 PUSH2 0x1023 MSTORE DUP1 PUSH2 0x124B MSTORE POP DUP1 PUSH2 0xB55 MSTORE DUP1 PUSH2 0x2731 MSTORE DUP1 PUSH2 0x2776 MSTORE DUP1 PUSH2 0x27A3 MSTORE POP PUSH2 0x32B7 PUSH1 0x0 RETURN INVALID PUSH1 0x80 PUSH1 0x40 MSTORE CALLVALUE DUP1 ISZERO PUSH2 0x10 JUMPI PUSH1 0x0 DUP1 REVERT JUMPDEST POP PUSH1 0x4 CALLDATASIZE LT PUSH2 0x241 JUMPI PUSH1 0x0 CALLDATALOAD PUSH1 0xE0 SHR DUP1 PUSH4 0x8DBEFEE2 GT PUSH2 0x145 JUMPI DUP1 PUSH4 0xADC9772E GT PUSH2 0xBD JUMPI DUP1 PUSH4 0xDD62ED3E GT PUSH2 0x8C JUMPI DUP1 PUSH4 0xF11B8188 GT PUSH2 0x71 JUMPI DUP1 PUSH4 0xF11B8188 EQ PUSH2 0x45B JUMPI DUP1 PUSH4 0xF1CC432A EQ PUSH2 0x47D JUMPI DUP1 PUSH4 0xF6D2EE86 EQ PUSH2 0x490 JUMPI PUSH2 0x241 JUMP JUMPDEST DUP1 PUSH4 0xDD62ED3E EQ PUSH2 0x440 JUMPI DUP1 PUSH4 0xDDE43CBA EQ PUSH2 0x453 JUMPI PUSH2 0x241 JUMP JUMPDEST DUP1 PUSH4 0xADC9772E EQ PUSH2 0x40A JUMPI DUP1 PUSH4 0xB2A5DBFA EQ PUSH2 0x41D JUMPI DUP1 PUSH4 0xC3863ADA EQ PUSH2 0x430 JUMPI DUP1 PUSH4 0xCBCBB507 EQ PUSH2 0x438 JUMPI PUSH2 0x241 JUMP JUMPDEST DUP1 PUSH4 0x99248EA7 GT PUSH2 0x114 JUMPI DUP1 PUSH4 0xA457C2D7 GT PUSH2 0xF9 JUMPI DUP1 PUSH4 0xA457C2D7 EQ PUSH2 0x3DC JUMPI DUP1 PUSH4 0xA9059CBB EQ PUSH2 0x3EF JUMPI DUP1 PUSH4 0xAAF5EB68 EQ PUSH2 0x402 JUMPI PUSH2 0x241 JUMP JUMPDEST DUP1 PUSH4 0x99248EA7 EQ PUSH2 0x3C1 JUMPI DUP1 PUSH4 0x9A99B4F0 EQ PUSH2 0x3C9 JUMPI PUSH2 0x241 JUMP JUMPDEST DUP1 PUSH4 0x8DBEFEE2 EQ PUSH2 0x396 JUMPI DUP1 PUSH4 0x919CD40F EQ PUSH2 0x3A9 JUMPI DUP1 PUSH4 0x946776CD EQ PUSH2 0x3B1 JUMPI DUP1 PUSH4 0x95D89B41 EQ PUSH2 0x3B9 JUMPI PUSH2 0x241 JUMP JUMPDEST DUP1 PUSH4 0x313CE567 GT PUSH2 0x1D8 JUMPI DUP1 PUSH4 0x70A08231 GT PUSH2 0x1A7 JUMPI DUP1 PUSH4 0x787A08A6 GT PUSH2 0x18C JUMPI DUP1 PUSH4 0x787A08A6 EQ PUSH2 0x368 JUMPI DUP1 PUSH4 0x7E90D7EF EQ PUSH2 0x370 JUMPI DUP1 PUSH4 0x8779588C EQ PUSH2 0x383 JUMPI PUSH2 0x241 JUMP JUMPDEST DUP1 PUSH4 0x70A08231 EQ PUSH2 0x34D JUMPI DUP1 PUSH4 0x72B49D63 EQ PUSH2 0x360 JUMPI PUSH2 0x241 JUMP JUMPDEST DUP1 PUSH4 0x313CE567 EQ PUSH2 0x30A JUMPI DUP1 PUSH4 0x3373EE4C EQ PUSH2 0x31F JUMPI DUP1 PUSH4 0x359C4A96 EQ PUSH2 0x332 JUMPI DUP1 PUSH4 0x39509351 EQ PUSH2 0x33A JUMPI PUSH2 0x241 JUMP JUMPDEST DUP1 PUSH4 0x1E9A6950 GT PUSH2 0x214 JUMPI DUP1 PUSH4 0x1E9A6950 EQ PUSH2 0x2AC JUMPI DUP1 PUSH4 0x23B872DD EQ PUSH2 0x2C1 JUMPI DUP1 PUSH4 0x2ACBF823 EQ PUSH2 0x2D4 JUMPI DUP1 PUSH4 0x312F6B83 EQ PUSH2 0x2F5 JUMPI PUSH2 0x241 JUMP JUMPDEST DUP1 PUSH4 0x6FDDE03 EQ PUSH2 0x246 JUMPI DUP1 PUSH4 0x91030C3 EQ PUSH2 0x264 JUMPI DUP1 PUSH4 0x95EA7B3 EQ PUSH2 0x284 JUMPI DUP1 PUSH4 0x18160DDD EQ PUSH2 0x2A4 JUMPI JUMPDEST PUSH1 0x0 DUP1 REVERT JUMPDEST PUSH2 0x24E PUSH2 0x4A3 JUMP JUMPDEST PUSH1 0x40 MLOAD PUSH2 0x25B SWAP2 SWAP1 PUSH2 0x2E97 JUMP JUMPDEST PUSH1 0x40 MLOAD DUP1 SWAP2 SUB SWAP1 RETURN JUMPDEST PUSH2 0x277 PUSH2 0x272 CALLDATASIZE PUSH1 0x4 PUSH2 0x2C11 JUMP JUMPDEST PUSH2 0x557 JUMP JUMPDEST PUSH1 0x40 MLOAD PUSH2 0x25B SWAP2 SWAP1 PUSH2 0x3088 JUMP JUMPDEST PUSH2 0x297 PUSH2 0x292 CALLDATASIZE PUSH1 0x4 PUSH2 0x2CA5 JUMP JUMPDEST PUSH2 0x569 JUMP JUMPDEST PUSH1 0x40 MLOAD PUSH2 0x25B SWAP2 SWAP1 PUSH2 0x2E8C JUMP JUMPDEST PUSH2 0x277 PUSH2 0x587 JUMP JUMPDEST PUSH2 0x2BF PUSH2 0x2BA CALLDATASIZE PUSH1 0x4 PUSH2 0x2CA5 JUMP JUMPDEST PUSH2 0x58D JUMP JUMPDEST STOP JUMPDEST PUSH2 0x297 PUSH2 0x2CF CALLDATASIZE PUSH1 0x4 PUSH2 0x2C65 JUMP JUMPDEST PUSH2 0x7CF JUMP JUMPDEST PUSH2 0x2E7 PUSH2 0x2E2 CALLDATASIZE PUSH1 0x4 PUSH2 0x2CA5 JUMP JUMPDEST PUSH2 0x871 JUMP JUMPDEST PUSH1 0x40 MLOAD PUSH2 0x25B SWAP3 SWAP2 SWAP1 PUSH2 0x3038 JUMP JUMPDEST PUSH2 0x2FD PUSH2 0x8B8 JUMP JUMPDEST PUSH1 0x40 MLOAD PUSH2 0x25B SWAP2 SWAP1 PUSH2 0x2E45 JUMP JUMPDEST PUSH2 0x312 PUSH2 0x8DC JUMP JUMPDEST PUSH1 0x40 MLOAD PUSH2 0x25B SWAP2 SWAP1 PUSH2 0x3091 JUMP JUMPDEST PUSH2 0x277 PUSH2 0x32D CALLDATASIZE PUSH1 0x4 PUSH2 0x2C2D JUMP JUMPDEST PUSH2 0x8E5 JUMP JUMPDEST PUSH2 0x277 PUSH2 0x922 JUMP JUMPDEST PUSH2 0x297 PUSH2 0x348 CALLDATASIZE PUSH1 0x4 PUSH2 0x2CA5 JUMP JUMPDEST PUSH2 0x946 JUMP JUMPDEST PUSH2 0x277 PUSH2 0x35B CALLDATASIZE PUSH1 0x4 PUSH2 0x2C11 JUMP JUMPDEST PUSH2 0x9A1 JUMP JUMPDEST PUSH2 0x277 PUSH2 0x9C9 JUMP JUMPDEST PUSH2 0x2BF PUSH2 0x9ED JUMP JUMPDEST PUSH2 0x277 PUSH2 0x37E CALLDATASIZE PUSH1 0x4 PUSH2 0x2C11 JUMP JUMPDEST PUSH2 0xA66 JUMP JUMPDEST PUSH2 0x277 PUSH2 0x391 CALLDATASIZE PUSH1 0x4 PUSH2 0x2C11 JUMP JUMPDEST PUSH2 0xA78 JUMP JUMPDEST PUSH2 0x277 PUSH2 0x3A4 CALLDATASIZE PUSH1 0x4 PUSH2 0x2C11 JUMP JUMPDEST PUSH2 0xA8A JUMP JUMPDEST PUSH2 0x277 PUSH2 0xB53 JUMP JUMPDEST PUSH2 0x2FD PUSH2 0xB77 JUMP JUMPDEST PUSH2 0x24E PUSH2 0xB9B JUMP JUMPDEST PUSH2 0x2FD PUSH2 0xC1A JUMP JUMPDEST PUSH2 0x2BF PUSH2 0x3D7 CALLDATASIZE PUSH1 0x4 PUSH2 0x2CA5 JUMP JUMPDEST PUSH2 0xC3E JUMP JUMPDEST PUSH2 0x297 PUSH2 0x3EA CALLDATASIZE PUSH1 0x4 PUSH2 0x2CA5 JUMP JUMPDEST PUSH2 0xDB0 JUMP JUMPDEST PUSH2 0x297 PUSH2 0x3FD CALLDATASIZE PUSH1 0x4 PUSH2 0x2CA5 JUMP JUMPDEST PUSH2 0xE25 JUMP JUMPDEST PUSH2 0x312 PUSH2 0xE39 JUMP JUMPDEST PUSH2 0x2BF PUSH2 0x418 CALLDATASIZE PUSH1 0x4 PUSH2 0x2CA5 JUMP JUMPDEST PUSH2 0xE3E JUMP JUMPDEST PUSH2 0x2BF PUSH2 0x42B CALLDATASIZE PUSH1 0x4 PUSH2 0x2CD0 JUMP JUMPDEST PUSH2 0x100B JUMP JUMPDEST PUSH2 0x2FD PUSH2 0x122D JUMP JUMPDEST PUSH2 0x2FD PUSH2 0x1249 JUMP JUMPDEST PUSH2 0x277 PUSH2 0x44E CALLDATASIZE PUSH1 0x4 PUSH2 0x2C2D JUMP JUMPDEST PUSH2 0x126D JUMP JUMPDEST PUSH2 0x277 PUSH2 0x12A5 JUMP JUMPDEST PUSH2 0x46E PUSH2 0x469 CALLDATASIZE PUSH1 0x4 PUSH2 0x2C11 JUMP JUMPDEST PUSH2 0x12AA JUMP JUMPDEST PUSH1 0x40 MLOAD PUSH2 0x25B SWAP4 SWAP3 SWAP2 SWAP1 PUSH2 0x305B JUMP JUMPDEST PUSH2 0x277 PUSH2 0x48B CALLDATASIZE PUSH1 0x4 PUSH2 0x2E07 JUMP JUMPDEST PUSH2 0x12EE JUMP JUMPDEST PUSH2 0x2BF PUSH2 0x49E CALLDATASIZE PUSH1 0x4 PUSH2 0x2D40 JUMP JUMPDEST PUSH2 0x13F2 JUMP JUMPDEST PUSH1 0x3 DUP1 SLOAD PUSH1 0x40 DUP1 MLOAD PUSH1 0x20 PUSH1 0x1F PUSH1 0x2 PUSH32 0xFFFFFFFFFFFFFFFFFFFFFFFFFFFFFFFFFFFFFFFFFFFFFFFFFFFFFFFFFFFFFFFF PUSH2 0x100 PUSH1 0x1 DUP9 AND ISZERO MUL ADD SWAP1 SWAP6 AND SWAP5 SWAP1 SWAP5 DIV SWAP4 DUP5 ADD DUP2 SWAP1 DIV DUP2 MUL DUP3 ADD DUP2 ADD SWAP1 SWAP3 MSTORE DUP3 DUP2 MSTORE PUSH1 0x60 SWAP4 SWAP1 SWAP3 SWAP1 SWAP2 DUP4 ADD DUP3 DUP3 DUP1 ISZERO PUSH2 0x54D JUMPI DUP1 PUSH1 0x1F LT PUSH2 0x522 JUMPI PUSH2 0x100 DUP1 DUP4 SLOAD DIV MUL DUP4 MSTORE SWAP2 PUSH1 0x20 ADD SWAP2 PUSH2 0x54D JUMP JUMPDEST DUP3 ADD SWAP2 SWAP1 PUSH1 0x0 MSTORE PUSH1 0x20 PUSH1 0x0 KECCAK256 SWAP1 JUMPDEST DUP2 SLOAD DUP2 MSTORE SWAP1 PUSH1 0x1 ADD SWAP1 PUSH1 0x20 ADD DUP1 DUP4 GT PUSH2 0x530 JUMPI DUP3 SWAP1 SUB PUSH1 0x1F AND DUP3 ADD SWAP2 JUMPDEST POP POP POP POP POP SWAP1 POP SWAP1 JUMP JUMPDEST PUSH1 0x3E PUSH1 0x20 MSTORE PUSH1 0x0 SWAP1 DUP2 MSTORE PUSH1 0x40 SWAP1 KECCAK256 SLOAD DUP2 JUMP JUMPDEST PUSH1 0x0 PUSH2 0x57D PUSH2 0x576 PUSH2 0x1568 JUMP JUMPDEST DUP5 DUP5 PUSH2 0x156C JUMP JUMPDEST POP PUSH1 0x1 JUMPDEST SWAP3 SWAP2 POP POP JUMP JUMPDEST PUSH1 0x2 SLOAD SWAP1 JUMP JUMPDEST DUP1 PUSH2 0x5CD JUMPI PUSH1 0x40 MLOAD PUSH32 0x8C379A000000000000000000000000000000000000000000000000000000000 DUP2 MSTORE PUSH1 0x4 ADD PUSH2 0x5C4 SWAP1 PUSH2 0x2F08 JUMP JUMPDEST PUSH1 0x40 MLOAD DUP1 SWAP2 SUB SWAP1 REVERT JUMPDEST CALLER PUSH1 0x0 SWAP1 DUP2 MSTORE PUSH1 0x3E PUSH1 0x20 MSTORE PUSH1 0x40 SWAP1 KECCAK256 SLOAD PUSH2 0x607 DUP2 PUSH32 0x0 PUSH2 0x14F4 JUMP JUMPDEST TIMESTAMP GT PUSH2 0x63F JUMPI PUSH1 0x40 MLOAD PUSH32 0x8C379A000000000000000000000000000000000000000000000000000000000 DUP2 MSTORE PUSH1 0x4 ADD PUSH2 0x5C4 SWAP1 PUSH2 0x2F3F JUMP JUMPDEST PUSH32 0x0 PUSH2 0x694 PUSH2 0x68D DUP4 PUSH32 0x0 PUSH2 0x14F4 JUMP JUMPDEST TIMESTAMP SWAP1 PUSH2 0x16B3 JUMP JUMPDEST GT ISZERO PUSH2 0x6CC JUMPI PUSH1 0x40 MLOAD PUSH32 0x8C379A000000000000000000000000000000000000000000000000000000000 DUP2 MSTORE PUSH1 0x4 ADD PUSH2 0x5C4 SWAP1 PUSH2 0x2FAD JUMP JUMPDEST PUSH1 0x0 PUSH2 0x6D7 CALLER PUSH2 0x9A1 JUMP JUMPDEST SWAP1 POP PUSH1 0x0 DUP2 DUP5 GT PUSH2 0x6E8 JUMPI DUP4 PUSH2 0x6EA JUMP JUMPDEST DUP2 JUMPDEST SWAP1 POP PUSH2 0x6F8 CALLER DUP4 PUSH1 0x1 PUSH2 0x16F5 JUMP JUMPDEST POP PUSH2 0x703 CALLER DUP3 PUSH2 0x17B4 JUMP JUMPDEST PUSH2 0x70D DUP3 DUP3 PUSH2 0x16B3 JUMP JUMPDEST PUSH2 0x722 JUMPI CALLER PUSH1 0x0 SWAP1 DUP2 MSTORE PUSH1 0x3E PUSH1 0x20 MSTORE PUSH1 0x40 DUP2 KECCAK256 SSTORE JUMPDEST PUSH2 0x763 PUSH20 0xFFFFFFFFFFFFFFFFFFFFFFFFFFFFFFFFFFFFFFFF PUSH32 0x0 AND DUP7 DUP4 PUSH2 0x18FE JUMP JUMPDEST DUP5 PUSH20 0xFFFFFFFFFFFFFFFFFFFFFFFFFFFFFFFFFFFFFFFF AND CALLER PUSH20 0xFFFFFFFFFFFFFFFFFFFFFFFFFFFFFFFFFFFFFFFF AND PUSH32 0xD12200EFA34901B99367694174C3B0D32C99585FDF37C7C26892136DDD0836D9 DUP4 PUSH1 0x40 MLOAD PUSH2 0x7C0 SWAP2 SWAP1 PUSH2 0x3088 JUMP JUMPDEST PUSH1 0x40 MLOAD DUP1 SWAP2 SUB SWAP1 LOG3 POP POP POP POP POP JUMP JUMPDEST PUSH1 0x0 PUSH2 0x7DC DUP5 DUP5 DUP5 PUSH2 0x198B JUMP JUMPDEST PUSH2 0x866 DUP5 PUSH2 0x7E8 PUSH2 0x1568 JUMP JUMPDEST PUSH2 0x861 DUP6 PUSH1 0x40 MLOAD DUP1 PUSH1 0x60 ADD PUSH1 0x40 MSTORE DUP1 PUSH1 0x28 DUP2 MSTORE PUSH1 0x20 ADD PUSH2 0x3173 PUSH1 0x28 SWAP2 CODECOPY PUSH20 0xFFFFFFFFFFFFFFFFFFFFFFFFFFFFFFFFFFFFFFFF DUP11 AND PUSH1 0x0 SWAP1 DUP2 MSTORE PUSH1 0x1 PUSH1 0x20 MSTORE PUSH1 0x40 DUP2 KECCAK256 SWAP1 PUSH2 0x833 PUSH2 0x1568 JUMP JUMPDEST PUSH20 0xFFFFFFFFFFFFFFFFFFFFFFFFFFFFFFFFFFFFFFFF AND DUP2 MSTORE PUSH1 0x20 DUP2 ADD SWAP2 SWAP1 SWAP2 MSTORE PUSH1 0x40 ADD PUSH1 0x0 KECCAK256 SLOAD SWAP2 SWAP1 PUSH2 0x1A98 JUMP JUMPDEST PUSH2 0x156C JUMP JUMPDEST POP PUSH1 0x1 JUMPDEST SWAP4 SWAP3 POP POP POP JUMP JUMPDEST PUSH1 0x6 PUSH1 0x20 SWAP1 DUP2 MSTORE PUSH1 0x0 SWAP3 DUP4 MSTORE PUSH1 0x40 DUP1 DUP5 KECCAK256 SWAP1 SWAP2 MSTORE SWAP1 DUP3 MSTORE SWAP1 KECCAK256 SLOAD PUSH16 0xFFFFFFFFFFFFFFFFFFFFFFFFFFFFFFFF DUP1 DUP3 AND SWAP2 PUSH17 0x100000000000000000000000000000000 SWAP1 DIV AND DUP3 JUMP JUMPDEST PUSH32 0x0 DUP2 JUMP JUMPDEST PUSH1 0x5 SLOAD PUSH1 0xFF AND SWAP1 JUMP JUMPDEST PUSH20 0xFFFFFFFFFFFFFFFFFFFFFFFFFFFFFFFFFFFFFFFF DUP1 DUP3 AND PUSH1 0x0 SWAP1 DUP2 MSTORE PUSH1 0x3C PUSH1 0x20 SWAP1 DUP2 MSTORE PUSH1 0x40 DUP1 DUP4 KECCAK256 SWAP4 DUP7 AND DUP4 MSTORE PUSH1 0x2 SWAP1 SWAP4 ADD SWAP1 MSTORE KECCAK256 SLOAD SWAP3 SWAP2 POP POP JUMP JUMPDEST PUSH32 0x0 DUP2 JUMP JUMPDEST PUSH1 0x0 PUSH2 0x57D PUSH2 0x953 PUSH2 0x1568 JUMP JUMPDEST DUP5 PUSH2 0x861 DUP6 PUSH1 0x1 PUSH1 0x0 PUSH2 0x964 PUSH2 0x1568 JUMP JUMPDEST PUSH20 0xFFFFFFFFFFFFFFFFFFFFFFFFFFFFFFFFFFFFFFFF SWAP1 DUP2 AND DUP3 MSTORE PUSH1 0x20 DUP1 DUP4 ADD SWAP4 SWAP1 SWAP4 MSTORE PUSH1 0x40 SWAP2 DUP3 ADD PUSH1 0x0 SWAP1 DUP2 KECCAK256 SWAP2 DUP13 AND DUP2 MSTORE SWAP3 MSTORE SWAP1 KECCAK256 SLOAD SWAP1 PUSH2 0x14F4 JUMP JUMPDEST PUSH20 0xFFFFFFFFFFFFFFFFFFFFFFFFFFFFFFFFFFFFFFFF AND PUSH1 0x0 SWAP1 DUP2 MSTORE PUSH1 0x20 DUP2 SWAP1 MSTORE PUSH1 0x40 SWAP1 KECCAK256 SLOAD SWAP1 JUMP JUMPDEST PUSH32 0x0 DUP2 JUMP JUMPDEST PUSH2 0x9F6 CALLER PUSH2 0x9A1 JUMP JUMPDEST PUSH2 0xA2C JUMPI PUSH1 0x40 MLOAD PUSH32 0x8C379A000000000000000000000000000000000000000000000000000000000 DUP2 MSTORE PUSH1 0x4 ADD PUSH2 0x5C4 SWAP1 PUSH2 0x2FE4 JUMP JUMPDEST CALLER PUSH1 0x0 DUP2 DUP2 MSTORE PUSH1 0x3E PUSH1 0x20 MSTORE PUSH1 0x40 DUP1 DUP3 KECCAK256 TIMESTAMP SWAP1 SSTORE MLOAD PUSH32 0xF52F50426B32362D3E6BB8CB36B7074756B224622DEF6352A59EAC7F66EBE6E8 SWAP2 SWAP1 LOG2 JUMP JUMPDEST PUSH1 0x3D PUSH1 0x20 MSTORE PUSH1 0x0 SWAP1 DUP2 MSTORE PUSH1 0x40 SWAP1 KECCAK256 SLOAD DUP2 JUMP JUMPDEST PUSH1 0x7 PUSH1 0x20 MSTORE PUSH1 0x0 SWAP1 DUP2 MSTORE PUSH1 0x40 SWAP1 KECCAK256 SLOAD DUP2 JUMP JUMPDEST PUSH1 0x40 DUP1 MLOAD PUSH1 0x1 DUP1 DUP3 MSTORE DUP2 DUP4 ADD SWAP1 SWAP3 MSTORE PUSH1 0x0 SWAP2 PUSH1 0x60 SWAP2 SWAP1 DUP2 PUSH1 0x20 ADD JUMPDEST PUSH2 0xAAD PUSH2 0x2AF2 JUMP JUMPDEST DUP2 MSTORE PUSH1 0x20 ADD SWAP1 PUSH1 0x1 SWAP1 SUB SWAP1 DUP2 PUSH2 0xAA5 JUMPI SWAP1 POP POP SWAP1 POP PUSH1 0x40 MLOAD DUP1 PUSH1 0x60 ADD PUSH1 0x40 MSTORE DUP1 ADDRESS PUSH20 0xFFFFFFFFFFFFFFFFFFFFFFFFFFFFFFFFFFFFFFFF AND DUP2 MSTORE PUSH1 0x20 ADD PUSH2 0xAF2 DUP6 PUSH2 0x9A1 JUMP JUMPDEST DUP2 MSTORE PUSH1 0x20 ADD PUSH2 0xAFF PUSH2 0x587 JUMP JUMPDEST DUP2 MSTORE POP DUP2 PUSH1 0x0 DUP2 MLOAD DUP2 LT PUSH2 0xB0F JUMPI INVALID JUMPDEST PUSH1 0x20 MUL PUSH1 0x20 ADD ADD DUP2 SWAP1 MSTORE POP PUSH2 0x86A PUSH2 0xB27 DUP5 DUP4 PUSH2 0x1B49 JUMP JUMPDEST PUSH20 0xFFFFFFFFFFFFFFFFFFFFFFFFFFFFFFFFFFFFFFFF DUP6 AND PUSH1 0x0 SWAP1 DUP2 MSTORE PUSH1 0x3D PUSH1 0x20 MSTORE PUSH1 0x40 SWAP1 KECCAK256 SLOAD SWAP1 PUSH2 0x14F4 JUMP JUMPDEST PUSH32 0x0 DUP2 JUMP JUMPDEST PUSH32 0x0 DUP2 JUMP JUMPDEST PUSH1 0x4 DUP1 SLOAD PUSH1 0x40 DUP1 MLOAD PUSH1 0x20 PUSH1 0x1F PUSH1 0x2 PUSH32 0xFFFFFFFFFFFFFFFFFFFFFFFFFFFFFFFFFFFFFFFFFFFFFFFFFFFFFFFFFFFFFFFF PUSH2 0x100 PUSH1 0x1 DUP9 AND ISZERO MUL ADD SWAP1 SWAP6 AND SWAP5 SWAP1 SWAP5 DIV SWAP4 DUP5 ADD DUP2 SWAP1 DIV DUP2 MUL DUP3 ADD DUP2 ADD SWAP1 SWAP3 MSTORE DUP3 DUP2 MSTORE PUSH1 0x60 SWAP4 SWAP1 SWAP3 SWAP1 SWAP2 DUP4 ADD DUP3 DUP3 DUP1 ISZERO PUSH2 0x54D JUMPI DUP1 PUSH1 0x1F LT PUSH2 0x522 JUMPI PUSH2 0x100 DUP1 DUP4 SLOAD DIV MUL DUP4 MSTORE SWAP2 PUSH1 0x20 ADD SWAP2 PUSH2 0x54D JUMP JUMPDEST PUSH32 0x0 DUP2 JUMP JUMPDEST PUSH1 0x0 PUSH2 0xC54 CALLER PUSH2 0xC4D CALLER PUSH2 0x9A1 JUMP JUMPDEST PUSH1 0x0 PUSH2 0x16F5 JUMP JUMPDEST SWAP1 POP PUSH1 0x0 PUSH32 0xFFFFFFFFFFFFFFFFFFFFFFFFFFFFFFFFFFFFFFFFFFFFFFFFFFFFFFFFFFFFFFFF DUP4 EQ PUSH2 0xC85 JUMPI DUP3 PUSH2 0xC87 JUMP JUMPDEST DUP2 JUMPDEST SWAP1 POP PUSH2 0xCD3 DUP2 PUSH1 0x40 MLOAD DUP1 PUSH1 0x40 ADD PUSH1 0x40 MSTORE DUP1 PUSH1 0xE DUP2 MSTORE PUSH1 0x20 ADD PUSH32 0x494E56414C49445F414D4F554E54000000000000000000000000000000000000 DUP2 MSTORE POP DUP5 PUSH2 0x1A98 SWAP1 SWAP3 SWAP2 SWAP1 PUSH4 0xFFFFFFFF AND JUMP JUMPDEST CALLER PUSH1 0x0 SWAP1 DUP2 MSTORE PUSH1 0x3D PUSH1 0x20 MSTORE PUSH1 0x40 SWAP1 KECCAK256 SSTORE PUSH2 0xD45 PUSH32 0x0 PUSH20 0xFFFFFFFFFFFFFFFFFFFFFFFFFFFFFFFFFFFFFFFF AND PUSH32 0x0 DUP7 DUP5 PUSH2 0x1C77 JUMP JUMPDEST DUP4 PUSH20 0xFFFFFFFFFFFFFFFFFFFFFFFFFFFFFFFFFFFFFFFF AND CALLER PUSH20 0xFFFFFFFFFFFFFFFFFFFFFFFFFFFFFFFFFFFFFFFF AND PUSH32 0x9310CCFCB8DE723F578A9E4282EA9F521F05AE40DC08F3068DFAD528A65EE3C7 DUP4 PUSH1 0x40 MLOAD PUSH2 0xDA2 SWAP2 SWAP1 PUSH2 0x3088 JUMP JUMPDEST PUSH1 0x40 MLOAD DUP1 SWAP2 SUB SWAP1 LOG3 POP POP POP POP JUMP JUMPDEST PUSH1 0x0 PUSH2 0x57D PUSH2 0xDBD PUSH2 0x1568 JUMP JUMPDEST DUP5 PUSH2 0x861 DUP6 PUSH1 0x40 MLOAD DUP1 PUSH1 0x60 ADD PUSH1 0x40 MSTORE DUP1 PUSH1 0x25 DUP2 MSTORE PUSH1 0x20 ADD PUSH2 0x325D PUSH1 0x25 SWAP2 CODECOPY PUSH1 0x1 PUSH1 0x0 PUSH2 0xDE7 PUSH2 0x1568 JUMP JUMPDEST PUSH20 0xFFFFFFFFFFFFFFFFFFFFFFFFFFFFFFFFFFFFFFFF SWAP1 DUP2 AND DUP3 MSTORE PUSH1 0x20 DUP1 DUP4 ADD SWAP4 SWAP1 SWAP4 MSTORE PUSH1 0x40 SWAP2 DUP3 ADD PUSH1 0x0 SWAP1 DUP2 KECCAK256 SWAP2 DUP14 AND DUP2 MSTORE SWAP3 MSTORE SWAP1 KECCAK256 SLOAD SWAP2 SWAP1 PUSH2 0x1A98 JUMP JUMPDEST PUSH1 0x0 PUSH2 0x57D PUSH2 0xE32 PUSH2 0x1568 JUMP JUMPDEST DUP5 DUP5 PUSH2 0x198B JUMP JUMPDEST PUSH1 0x12 DUP2 JUMP JUMPDEST DUP1 PUSH2 0xE75 JUMPI PUSH1 0x40 MLOAD PUSH32 0x8C379A000000000000000000000000000000000000000000000000000000000 DUP2 MSTORE PUSH1 0x4 ADD PUSH2 0x5C4 SWAP1 PUSH2 0x2F08 JUMP JUMPDEST PUSH1 0x0 PUSH2 0xE80 DUP4 PUSH2 0x9A1 JUMP JUMPDEST SWAP1 POP PUSH1 0x0 PUSH2 0xE97 DUP5 ADDRESS DUP5 PUSH2 0xE92 PUSH2 0x587 JUMP JUMPDEST PUSH2 0x1D0C JUMP JUMPDEST SWAP1 POP DUP1 ISZERO PUSH2 0xF2F JUMPI PUSH32 0x2468F9268C60AD90E2D49EDB0032C8A001E733AE888B3AB8E982EDF535BE1A76 DUP5 DUP3 PUSH1 0x40 MLOAD PUSH2 0xED0 SWAP3 SWAP2 SWAP1 PUSH2 0x2E66 JUMP JUMPDEST PUSH1 0x40 MLOAD DUP1 SWAP2 SUB SWAP1 LOG1 PUSH20 0xFFFFFFFFFFFFFFFFFFFFFFFFFFFFFFFFFFFFFFFF DUP5 AND PUSH1 0x0 SWAP1 DUP2 MSTORE PUSH1 0x3D PUSH1 0x20 MSTORE PUSH1 0x40 SWAP1 KECCAK256 SLOAD PUSH2 0xF08 SWAP1 DUP3 PUSH2 0x14F4 JUMP JUMPDEST PUSH20 0xFFFFFFFFFFFFFFFFFFFFFFFFFFFFFFFFFFFFFFFF DUP6 AND PUSH1 0x0 SWAP1 DUP2 MSTORE PUSH1 0x3D PUSH1 0x20 MSTORE PUSH1 0x40 SWAP1 KECCAK256 SSTORE JUMPDEST PUSH2 0xF3C PUSH1 0x0 DUP5 DUP7 DUP6 PUSH2 0x12EE JUMP JUMPDEST PUSH20 0xFFFFFFFFFFFFFFFFFFFFFFFFFFFFFFFFFFFFFFFF DUP6 AND PUSH1 0x0 SWAP1 DUP2 MSTORE PUSH1 0x3E PUSH1 0x20 MSTORE PUSH1 0x40 SWAP1 KECCAK256 SSTORE PUSH2 0xF6C DUP5 DUP5 PUSH2 0x1DE5 JUMP JUMPDEST PUSH2 0xFAE PUSH20 0xFFFFFFFFFFFFFFFFFFFFFFFFFFFFFFFFFFFFFFFF PUSH32 0x0 AND CALLER ADDRESS DUP7 PUSH2 0x1C77 JUMP JUMPDEST DUP4 PUSH20 0xFFFFFFFFFFFFFFFFFFFFFFFFFFFFFFFFFFFFFFFF AND CALLER PUSH20 0xFFFFFFFFFFFFFFFFFFFFFFFFFFFFFFFFFFFFFFFF AND PUSH32 0x5DAC0C1B1112564A045BA943C9D50270893E8E826C49BE8E7073ADC713AB7BD7 DUP6 PUSH1 0x40 MLOAD PUSH2 0xDA2 SWAP2 SWAP1 PUSH2 0x3088 JUMP JUMPDEST CALLER PUSH20 0xFFFFFFFFFFFFFFFFFFFFFFFFFFFFFFFFFFFFFFFF PUSH32 0x0 AND EQ PUSH2 0x107A JUMPI PUSH1 0x40 MLOAD PUSH32 0x8C379A000000000000000000000000000000000000000000000000000000000 DUP2 MSTORE PUSH1 0x4 ADD PUSH2 0x5C4 SWAP1 PUSH2 0x2F76 JUMP JUMPDEST PUSH1 0x0 JUMPDEST DUP2 DUP2 LT ISZERO PUSH2 0x1228 JUMPI PUSH1 0x0 PUSH1 0x3C PUSH1 0x0 DUP6 DUP6 DUP6 DUP2 DUP2 LT PUSH2 0x1097 JUMPI INVALID JUMPDEST SWAP1 POP PUSH1 0x60 MUL ADD PUSH1 0x40 ADD PUSH1 0x20 DUP2 ADD SWAP1 PUSH2 0x10AF SWAP2 SWAP1 PUSH2 0x2C11 JUMP JUMPDEST PUSH20 0xFFFFFFFFFFFFFFFFFFFFFFFFFFFFFFFFFFFFFFFF AND PUSH20 0xFFFFFFFFFFFFFFFFFFFFFFFFFFFFFFFFFFFFFFFF AND DUP2 MSTORE PUSH1 0x20 ADD SWAP1 DUP2 MSTORE PUSH1 0x20 ADD PUSH1 0x0 KECCAK256 SWAP1 POP PUSH2 0x112E DUP5 DUP5 DUP5 DUP2 DUP2 LT PUSH2 0x10FA JUMPI INVALID JUMPDEST SWAP1 POP PUSH1 0x60 MUL ADD PUSH1 0x40 ADD PUSH1 0x20 DUP2 ADD SWAP1 PUSH2 0x1112 SWAP2 SWAP1 PUSH2 0x2C11 JUMP JUMPDEST DUP3 DUP7 DUP7 DUP7 DUP2 DUP2 LT PUSH2 0x111F JUMPI INVALID JUMPDEST SWAP1 POP PUSH1 0x60 MUL ADD PUSH1 0x20 ADD CALLDATALOAD PUSH2 0x1F16 JUMP JUMPDEST POP DUP4 DUP4 DUP4 DUP2 DUP2 LT PUSH2 0x113B JUMPI INVALID JUMPDEST PUSH2 0x1151 SWAP3 PUSH1 0x20 PUSH1 0x60 SWAP1 SWAP3 MUL ADD SWAP1 DUP2 ADD SWAP2 POP PUSH2 0x2DD7 JUMP JUMPDEST DUP2 SLOAD PUSH32 0xFFFFFFFFFFFFFFFFFFFFFFFFFFFFFFFF00000000000000000000000000000000 AND PUSH16 0xFFFFFFFFFFFFFFFFFFFFFFFFFFFFFFFF SWAP2 SWAP1 SWAP2 AND OR DUP2 SSTORE DUP4 DUP4 DUP4 DUP2 DUP2 LT PUSH2 0x1199 JUMPI INVALID JUMPDEST SWAP1 POP PUSH1 0x60 MUL ADD PUSH1 0x40 ADD PUSH1 0x20 DUP2 ADD SWAP1 PUSH2 0x11B1 SWAP2 SWAP1 PUSH2 0x2C11 JUMP JUMPDEST PUSH20 0xFFFFFFFFFFFFFFFFFFFFFFFFFFFFFFFFFFFFFFFF AND PUSH32 0x87FA03892A0556CB6B8F97E6D533A150D4D55FCBF275FFF5FA003FA636BCC7FA DUP6 DUP6 DUP6 DUP2 DUP2 LT PUSH2 0x11F4 JUMPI INVALID JUMPDEST PUSH2 0x120A SWAP3 PUSH1 0x20 PUSH1 0x60 SWAP1 SWAP3 MUL ADD SWAP1 DUP2 ADD SWAP2 POP PUSH2 0x2DD7 JUMP JUMPDEST PUSH1 0x40 MLOAD PUSH2 0x1217 SWAP2 SWAP1 PUSH2 0x301B JUMP JUMPDEST PUSH1 0x40 MLOAD DUP1 SWAP2 SUB SWAP1 LOG2 POP PUSH1 0x1 ADD PUSH2 0x107D JUMP JUMPDEST POP POP POP JUMP JUMPDEST PUSH1 0x8 SLOAD PUSH20 0xFFFFFFFFFFFFFFFFFFFFFFFFFFFFFFFFFFFFFFFF AND DUP2 JUMP JUMPDEST PUSH32 0x0 DUP2 JUMP JUMPDEST PUSH20 0xFFFFFFFFFFFFFFFFFFFFFFFFFFFFFFFFFFFFFFFF SWAP2 DUP3 AND PUSH1 0x0 SWAP1 DUP2 MSTORE PUSH1 0x1 PUSH1 0x20 SWAP1 DUP2 MSTORE PUSH1 0x40 DUP1 DUP4 KECCAK256 SWAP4 SWAP1 SWAP5 AND DUP3 MSTORE SWAP2 SWAP1 SWAP2 MSTORE KECCAK256 SLOAD SWAP1 JUMP JUMPDEST PUSH1 0x1 DUP2 JUMP JUMPDEST PUSH1 0x3C PUSH1 0x20 MSTORE PUSH1 0x0 SWAP1 DUP2 MSTORE PUSH1 0x40 SWAP1 KECCAK256 DUP1 SLOAD PUSH1 0x1 SWAP1 SWAP2 ADD SLOAD PUSH16 0xFFFFFFFFFFFFFFFFFFFFFFFFFFFFFFFF DUP1 DUP4 AND SWAP3 PUSH17 0x100000000000000000000000000000000 SWAP1 DIV AND SWAP1 DUP4 JUMP JUMPDEST PUSH20 0xFFFFFFFFFFFFFFFFFFFFFFFFFFFFFFFFFFFFFFFF DUP3 AND PUSH1 0x0 SWAP1 DUP2 MSTORE PUSH1 0x3E PUSH1 0x20 MSTORE PUSH1 0x40 DUP2 KECCAK256 SLOAD DUP1 PUSH2 0x1323 JUMPI PUSH1 0x0 SWAP2 POP POP PUSH2 0x13EA JUMP JUMPDEST PUSH1 0x0 PUSH2 0x1379 PUSH32 0x0 PUSH2 0x1373 TIMESTAMP PUSH32 0x0 PUSH2 0x16B3 JUMP JUMPDEST SWAP1 PUSH2 0x16B3 JUMP JUMPDEST SWAP1 POP DUP2 DUP2 GT ISZERO PUSH2 0x138C JUMPI PUSH1 0x0 SWAP2 POP PUSH2 0x13E6 JUMP JUMPDEST PUSH1 0x0 DUP8 DUP3 GT PUSH2 0x139B JUMPI DUP8 PUSH2 0x139D JUMP JUMPDEST TIMESTAMP JUMPDEST SWAP1 POP DUP3 DUP2 LT ISZERO PUSH2 0x13B2 JUMPI DUP3 SWAP4 POP POP POP POP PUSH2 0x13EA JUMP JUMPDEST PUSH2 0x13E2 PUSH2 0x13BF DUP9 DUP8 PUSH2 0x14F4 JUMP JUMPDEST PUSH2 0x13DC PUSH2 0x13CC DUP9 DUP8 PUSH2 0x2015 JUMP JUMPDEST PUSH2 0x13D6 DUP12 DUP7 PUSH2 0x2015 JUMP JUMPDEST SWAP1 PUSH2 0x14F4 JUMP JUMPDEST SWAP1 PUSH2 0x2088 JUMP JUMPDEST SWAP3 POP POP JUMPDEST POP SWAP1 POP JUMPDEST SWAP5 SWAP4 POP POP POP POP JUMP JUMPDEST PUSH1 0x0 PUSH2 0x13FC PUSH2 0x20CA JUMP JUMPDEST SWAP1 POP PUSH1 0x9 SLOAD DUP2 GT PUSH2 0x1458 JUMPI PUSH1 0x40 MLOAD PUSH32 0x8C379A000000000000000000000000000000000000000000000000000000000 DUP2 MSTORE PUSH1 0x4 ADD DUP1 DUP1 PUSH1 0x20 ADD DUP3 DUP2 SUB DUP3 MSTORE PUSH1 0x2E DUP2 MSTORE PUSH1 0x20 ADD DUP1 PUSH2 0x319B PUSH1 0x2E SWAP2 CODECOPY PUSH1 0x40 ADD SWAP2 POP POP PUSH1 0x40 MLOAD DUP1 SWAP2 SUB SWAP1 REVERT JUMPDEST PUSH1 0x9 DUP2 SWAP1 SSTORE PUSH1 0x40 DUP1 MLOAD PUSH1 0x20 PUSH1 0x1F DUP9 ADD DUP2 SWAP1 DIV DUP2 MUL DUP3 ADD DUP2 ADD SWAP1 SWAP3 MSTORE DUP7 DUP2 MSTORE PUSH2 0x149A SWAP2 DUP9 SWAP1 DUP9 SWAP1 DUP2 SWAP1 DUP5 ADD DUP4 DUP3 DUP1 DUP3 DUP5 CALLDATACOPY PUSH1 0x0 SWAP3 ADD SWAP2 SWAP1 SWAP2 MSTORE POP PUSH2 0x20CF SWAP3 POP POP POP JUMP JUMPDEST PUSH2 0x14D9 DUP5 DUP5 DUP1 DUP1 PUSH1 0x1F ADD PUSH1 0x20 DUP1 SWAP2 DIV MUL PUSH1 0x20 ADD PUSH1 0x40 MLOAD SWAP1 DUP2 ADD PUSH1 0x40 MSTORE DUP1 SWAP4 SWAP3 SWAP2 SWAP1 DUP2 DUP2 MSTORE PUSH1 0x20 ADD DUP4 DUP4 DUP1 DUP3 DUP5 CALLDATACOPY PUSH1 0x0 SWAP3 ADD SWAP2 SWAP1 SWAP2 MSTORE POP PUSH2 0x20E6 SWAP3 POP POP POP JUMP JUMPDEST PUSH2 0x14E2 DUP3 PUSH2 0x20F9 JUMP JUMPDEST PUSH2 0x14EB DUP8 PUSH2 0x212D JUMP JUMPDEST POP POP POP POP POP POP POP JUMP JUMPDEST PUSH1 0x0 DUP3 DUP3 ADD DUP4 DUP2 LT ISZERO PUSH2 0x86A JUMPI PUSH1 0x40 DUP1 MLOAD PUSH32 0x8C379A000000000000000000000000000000000000000000000000000000000 DUP2 MSTORE PUSH1 0x20 PUSH1 0x4 DUP3 ADD MSTORE PUSH1 0x1B PUSH1 0x24 DUP3 ADD MSTORE PUSH32 0x536166654D6174683A206164646974696F6E206F766572666C6F770000000000 PUSH1 0x44 DUP3 ADD MSTORE SWAP1 MLOAD SWAP1 DUP2 SWAP1 SUB PUSH1 0x64 ADD SWAP1 REVERT JUMPDEST CALLER SWAP1 JUMP JUMPDEST PUSH20 0xFFFFFFFFFFFFFFFFFFFFFFFFFFFFFFFFFFFFFFFF DUP4 AND PUSH2 0x15D8 JUMPI PUSH1 0x40 MLOAD PUSH32 0x8C379A000000000000000000000000000000000000000000000000000000000 DUP2 MSTORE PUSH1 0x4 ADD DUP1 DUP1 PUSH1 0x20 ADD DUP3 DUP2 SUB DUP3 MSTORE PUSH1 0x24 DUP2 MSTORE PUSH1 0x20 ADD DUP1 PUSH2 0x320F PUSH1 0x24 SWAP2 CODECOPY PUSH1 0x40 ADD SWAP2 POP POP PUSH1 0x40 MLOAD DUP1 SWAP2 SUB SWAP1 REVERT JUMPDEST PUSH20 0xFFFFFFFFFFFFFFFFFFFFFFFFFFFFFFFFFFFFFFFF DUP3 AND PUSH2 0x1644 JUMPI PUSH1 0x40 MLOAD PUSH32 0x8C379A000000000000000000000000000000000000000000000000000000000 DUP2 MSTORE PUSH1 0x4 ADD DUP1 DUP1 PUSH1 0x20 ADD DUP3 DUP2 SUB DUP3 MSTORE PUSH1 0x22 DUP2 MSTORE PUSH1 0x20 ADD DUP1 PUSH2 0x310A PUSH1 0x22 SWAP2 CODECOPY PUSH1 0x40 ADD SWAP2 POP POP PUSH1 0x40 MLOAD DUP1 SWAP2 SUB SWAP1 REVERT JUMPDEST PUSH20 0xFFFFFFFFFFFFFFFFFFFFFFFFFFFFFFFFFFFFFFFF DUP1 DUP5 AND PUSH1 0x0 DUP2 DUP2 MSTORE PUSH1 0x1 PUSH1 0x20 SWAP1 DUP2 MSTORE PUSH1 0x40 DUP1 DUP4 KECCAK256 SWAP5 DUP8 AND DUP1 DUP5 MSTORE SWAP5 DUP3 MSTORE SWAP2 DUP3 SWAP1 KECCAK256 DUP6 SWAP1 SSTORE DUP2 MLOAD DUP6 DUP2 MSTORE SWAP2 MLOAD PUSH32 0x8C5BE1E5EBEC7D5BD14F71427D1E84F3DD0314C0F7B2291E5B200AC8C7C3B925 SWAP3 DUP2 SWAP1 SUB SWAP1 SWAP2 ADD SWAP1 LOG3 POP POP POP JUMP JUMPDEST PUSH1 0x0 PUSH2 0x86A DUP4 DUP4 PUSH1 0x40 MLOAD DUP1 PUSH1 0x40 ADD PUSH1 0x40 MSTORE DUP1 PUSH1 0x1E DUP2 MSTORE PUSH1 0x20 ADD PUSH32 0x536166654D6174683A207375627472616374696F6E206F766572666C6F770000 DUP2 MSTORE POP PUSH2 0x1A98 JUMP JUMPDEST PUSH1 0x0 DUP1 PUSH2 0x1706 DUP6 ADDRESS DUP7 PUSH2 0xE92 PUSH2 0x587 JUMP JUMPDEST PUSH20 0xFFFFFFFFFFFFFFFFFFFFFFFFFFFFFFFFFFFFFFFF DUP7 AND PUSH1 0x0 SWAP1 DUP2 MSTORE PUSH1 0x3D PUSH1 0x20 MSTORE PUSH1 0x40 DUP2 KECCAK256 SLOAD SWAP2 SWAP3 POP SWAP1 PUSH2 0x173A SWAP1 DUP4 PUSH2 0x14F4 JUMP JUMPDEST SWAP1 POP DUP2 ISZERO PUSH2 0x17AB JUMPI DUP4 ISZERO PUSH2 0x1771 JUMPI PUSH20 0xFFFFFFFFFFFFFFFFFFFFFFFFFFFFFFFFFFFFFFFF DUP7 AND PUSH1 0x0 SWAP1 DUP2 MSTORE PUSH1 0x3D PUSH1 0x20 MSTORE PUSH1 0x40 SWAP1 KECCAK256 DUP2 SWAP1 SSTORE JUMPDEST PUSH32 0x2468F9268C60AD90E2D49EDB0032C8A001E733AE888B3AB8E982EDF535BE1A76 DUP7 DUP4 PUSH1 0x40 MLOAD PUSH2 0x17A2 SWAP3 SWAP2 SWAP1 PUSH2 0x2E66 JUMP JUMPDEST PUSH1 0x40 MLOAD DUP1 SWAP2 SUB SWAP1 LOG1 JUMPDEST SWAP6 SWAP5 POP POP POP POP POP JUMP JUMPDEST PUSH20 0xFFFFFFFFFFFFFFFFFFFFFFFFFFFFFFFFFFFFFFFF DUP3 AND PUSH2 0x1820 JUMPI PUSH1 0x40 MLOAD PUSH32 0x8C379A000000000000000000000000000000000000000000000000000000000 DUP2 MSTORE PUSH1 0x4 ADD DUP1 DUP1 PUSH1 0x20 ADD DUP3 DUP2 SUB DUP3 MSTORE PUSH1 0x21 DUP2 MSTORE PUSH1 0x20 ADD DUP1 PUSH2 0x31C9 PUSH1 0x21 SWAP2 CODECOPY PUSH1 0x40 ADD SWAP2 POP POP PUSH1 0x40 MLOAD DUP1 SWAP2 SUB SWAP1 REVERT JUMPDEST PUSH2 0x182C DUP3 PUSH1 0x0 DUP4 PUSH2 0x2174 JUMP JUMPDEST PUSH2 0x1876 DUP2 PUSH1 0x40 MLOAD DUP1 PUSH1 0x60 ADD PUSH1 0x40 MSTORE DUP1 PUSH1 0x22 DUP2 MSTORE PUSH1 0x20 ADD PUSH2 0x30E8 PUSH1 0x22 SWAP2 CODECOPY PUSH20 0xFFFFFFFFFFFFFFFFFFFFFFFFFFFFFFFFFFFFFFFF DUP6 AND PUSH1 0x0 SWAP1 DUP2 MSTORE PUSH1 0x20 DUP2 SWAP1 MSTORE PUSH1 0x40 SWAP1 KECCAK256 SLOAD SWAP2 SWAP1 PUSH2 0x1A98 JUMP JUMPDEST PUSH20 0xFFFFFFFFFFFFFFFFFFFFFFFFFFFFFFFFFFFFFFFF DUP4 AND PUSH1 0x0 SWAP1 DUP2 MSTORE PUSH1 0x20 DUP2 SWAP1 MSTORE PUSH1 0x40 SWAP1 KECCAK256 SSTORE PUSH1 0x2 SLOAD PUSH2 0x18A9 SWAP1 DUP3 PUSH2 0x16B3 JUMP JUMPDEST PUSH1 0x2 SSTORE PUSH1 0x40 DUP1 MLOAD DUP3 DUP2 MSTORE SWAP1 MLOAD PUSH1 0x0 SWAP2 PUSH20 0xFFFFFFFFFFFFFFFFFFFFFFFFFFFFFFFFFFFFFFFF DUP6 AND SWAP2 PUSH32 0xDDF252AD1BE2C89B69C2B068FC378DAA952BA7F163C4A11628F55A4DF523B3EF SWAP2 DUP2 SWAP1 SUB PUSH1 0x20 ADD SWAP1 LOG3 POP POP JUMP JUMPDEST PUSH1 0x40 DUP1 MLOAD PUSH20 0xFFFFFFFFFFFFFFFFFFFFFFFFFFFFFFFFFFFFFFFF DUP5 AND PUSH1 0x24 DUP3 ADD MSTORE PUSH1 0x44 DUP1 DUP3 ADD DUP5 SWAP1 MSTORE DUP3 MLOAD DUP1 DUP4 SUB SWAP1 SWAP2 ADD DUP2 MSTORE PUSH1 0x64 SWAP1 SWAP2 ADD SWAP1 SWAP2 MSTORE PUSH1 0x20 DUP2 ADD DUP1 MLOAD PUSH28 0xFFFFFFFFFFFFFFFFFFFFFFFFFFFFFFFFFFFFFFFFFFFFFFFFFFFFFFFF AND PUSH32 0xA9059CBB00000000000000000000000000000000000000000000000000000000 OR SWAP1 MSTORE PUSH2 0x1228 SWAP1 DUP5 SWAP1 PUSH2 0x22F2 JUMP JUMPDEST PUSH1 0x0 PUSH2 0x1996 DUP5 PUSH2 0x9A1 JUMP JUMPDEST SWAP1 POP PUSH2 0x19A4 DUP5 DUP3 PUSH1 0x1 PUSH2 0x16F5 JUMP JUMPDEST POP DUP3 PUSH20 0xFFFFFFFFFFFFFFFFFFFFFFFFFFFFFFFFFFFFFFFF AND DUP5 PUSH20 0xFFFFFFFFFFFFFFFFFFFFFFFFFFFFFFFFFFFFFFFF AND EQ PUSH2 0x1A87 JUMPI PUSH1 0x0 PUSH2 0x19E3 DUP5 PUSH2 0x9A1 JUMP JUMPDEST SWAP1 POP PUSH2 0x19F1 DUP5 DUP3 PUSH1 0x1 PUSH2 0x16F5 JUMP JUMPDEST POP PUSH20 0xFFFFFFFFFFFFFFFFFFFFFFFFFFFFFFFFFFFFFFFF DUP6 AND PUSH1 0x0 SWAP1 DUP2 MSTORE PUSH1 0x3E PUSH1 0x20 MSTORE PUSH1 0x40 SWAP1 KECCAK256 SLOAD PUSH2 0x1A24 DUP2 DUP6 DUP8 DUP6 PUSH2 0x12EE JUMP JUMPDEST PUSH20 0xFFFFFFFFFFFFFFFFFFFFFFFFFFFFFFFFFFFFFFFF DUP7 AND PUSH1 0x0 SWAP1 DUP2 MSTORE PUSH1 0x3E PUSH1 0x20 MSTORE PUSH1 0x40 SWAP1 KECCAK256 SSTORE DUP3 DUP5 EQ DUP1 ISZERO PUSH2 0x1A58 JUMPI POP DUP1 ISZERO ISZERO JUMPDEST ISZERO PUSH2 0x1A84 JUMPI PUSH20 0xFFFFFFFFFFFFFFFFFFFFFFFFFFFFFFFFFFFFFFFF DUP7 AND PUSH1 0x0 SWAP1 DUP2 MSTORE PUSH1 0x3E PUSH1 0x20 MSTORE PUSH1 0x40 DUP2 KECCAK256 SSTORE JUMPDEST POP POP JUMPDEST PUSH2 0x1A92 DUP5 DUP5 DUP5 PUSH2 0x2530 JUMP JUMPDEST POP POP POP POP JUMP JUMPDEST PUSH1 0x0 DUP2 DUP5 DUP5 GT ISZERO PUSH2 0x1B41 JUMPI PUSH1 0x40 MLOAD PUSH32 0x8C379A000000000000000000000000000000000000000000000000000000000 DUP2 MSTORE PUSH1 0x4 ADD DUP1 DUP1 PUSH1 0x20 ADD DUP3 DUP2 SUB DUP3 MSTORE DUP4 DUP2 DUP2 MLOAD DUP2 MSTORE PUSH1 0x20 ADD SWAP2 POP DUP1 MLOAD SWAP1 PUSH1 0x20 ADD SWAP1 DUP1 DUP4 DUP4 PUSH1 0x0 JUMPDEST DUP4 DUP2 LT ISZERO PUSH2 0x1B06 JUMPI DUP2 DUP2 ADD MLOAD DUP4 DUP3 ADD MSTORE PUSH1 0x20 ADD PUSH2 0x1AEE JUMP JUMPDEST POP POP POP POP SWAP1 POP SWAP1 DUP2 ADD SWAP1 PUSH1 0x1F AND DUP1 ISZERO PUSH2 0x1B33 JUMPI DUP1 DUP3 SUB DUP1 MLOAD PUSH1 0x1 DUP4 PUSH1 0x20 SUB PUSH2 0x100 EXP SUB NOT AND DUP2 MSTORE PUSH1 0x20 ADD SWAP2 POP JUMPDEST POP SWAP3 POP POP POP PUSH1 0x40 MLOAD DUP1 SWAP2 SUB SWAP1 REVERT JUMPDEST POP POP POP SWAP1 SUB SWAP1 JUMP JUMPDEST PUSH1 0x0 DUP1 DUP1 JUMPDEST DUP4 MLOAD DUP2 LT ISZERO PUSH2 0x1C6F JUMPI PUSH1 0x0 PUSH1 0x3C PUSH1 0x0 DUP7 DUP5 DUP2 MLOAD DUP2 LT PUSH2 0x1B69 JUMPI INVALID JUMPDEST PUSH1 0x20 SWAP1 DUP2 MUL SWAP2 SWAP1 SWAP2 ADD DUP2 ADD MLOAD MLOAD PUSH20 0xFFFFFFFFFFFFFFFFFFFFFFFFFFFFFFFFFFFFFFFF AND DUP3 MSTORE DUP2 ADD SWAP2 SWAP1 SWAP2 MSTORE PUSH1 0x40 ADD PUSH1 0x0 SWAP1 DUP2 KECCAK256 PUSH1 0x1 DUP2 ADD SLOAD DUP2 SLOAD DUP9 MLOAD SWAP3 SWAP5 POP PUSH2 0x1BF4 SWAP3 PUSH16 0xFFFFFFFFFFFFFFFFFFFFFFFFFFFFFFFF DUP1 DUP4 AND SWAP3 PUSH17 0x100000000000000000000000000000000 SWAP1 DIV AND SWAP1 DUP11 SWAP1 DUP9 SWAP1 DUP2 LT PUSH2 0x1BE3 JUMPI INVALID JUMPDEST PUSH1 0x20 MUL PUSH1 0x20 ADD ADD MLOAD PUSH1 0x40 ADD MLOAD PUSH2 0x2700 JUMP JUMPDEST SWAP1 POP PUSH2 0x1C63 PUSH2 0x1C5C DUP8 DUP6 DUP2 MLOAD DUP2 LT PUSH2 0x1C08 JUMPI INVALID JUMPDEST PUSH1 0x20 MUL PUSH1 0x20 ADD ADD MLOAD PUSH1 0x20 ADD MLOAD DUP4 DUP6 PUSH1 0x2 ADD PUSH1 0x0 DUP13 PUSH20 0xFFFFFFFFFFFFFFFFFFFFFFFFFFFFFFFFFFFFFFFF AND PUSH20 0xFFFFFFFFFFFFFFFFFFFFFFFFFFFFFFFFFFFFFFFF AND DUP2 MSTORE PUSH1 0x20 ADD SWAP1 DUP2 MSTORE PUSH1 0x20 ADD PUSH1 0x0 KECCAK256 SLOAD PUSH2 0x2814 JUMP JUMPDEST DUP6 SWAP1 PUSH2 0x14F4 JUMP JUMPDEST SWAP4 POP POP POP PUSH1 0x1 ADD PUSH2 0x1B4E JUMP JUMPDEST POP SWAP4 SWAP3 POP POP POP JUMP JUMPDEST PUSH1 0x40 DUP1 MLOAD PUSH20 0xFFFFFFFFFFFFFFFFFFFFFFFFFFFFFFFFFFFFFFFF DUP1 DUP7 AND PUSH1 0x24 DUP4 ADD MSTORE DUP5 AND PUSH1 0x44 DUP3 ADD MSTORE PUSH1 0x64 DUP1 DUP3 ADD DUP5 SWAP1 MSTORE DUP3 MLOAD DUP1 DUP4 SUB SWAP1 SWAP2 ADD DUP2 MSTORE PUSH1 0x84 SWAP1 SWAP2 ADD SWAP1 SWAP2 MSTORE PUSH1 0x20 DUP2 ADD DUP1 MLOAD PUSH28 0xFFFFFFFFFFFFFFFFFFFFFFFFFFFFFFFFFFFFFFFFFFFFFFFFFFFFFFFF AND PUSH32 0x23B872DD00000000000000000000000000000000000000000000000000000000 OR SWAP1 MSTORE PUSH2 0x1A92 SWAP1 DUP6 SWAP1 PUSH2 0x22F2 JUMP JUMPDEST PUSH20 0xFFFFFFFFFFFFFFFFFFFFFFFFFFFFFFFFFFFFFFFF DUP1 DUP5 AND PUSH1 0x0 SWAP1 DUP2 MSTORE PUSH1 0x3C PUSH1 0x20 SWAP1 DUP2 MSTORE PUSH1 0x40 DUP1 DUP4 KECCAK256 SWAP4 DUP9 AND DUP4 MSTORE PUSH1 0x2 DUP5 ADD SWAP1 SWAP2 MSTORE DUP2 KECCAK256 SLOAD SWAP1 SWAP2 SWAP1 DUP3 DUP1 PUSH2 0x1D54 DUP9 DUP6 DUP9 PUSH2 0x1F16 JUMP JUMPDEST SWAP1 POP DUP1 DUP4 EQ PUSH2 0x1DD9 JUMPI DUP7 ISZERO PUSH2 0x1D71 JUMPI PUSH2 0x1D6E DUP8 DUP3 DUP6 PUSH2 0x2814 JUMP JUMPDEST SWAP2 POP JUMPDEST PUSH20 0xFFFFFFFFFFFFFFFFFFFFFFFFFFFFFFFFFFFFFFFF DUP1 DUP11 AND PUSH1 0x0 DUP2 DUP2 MSTORE PUSH1 0x2 DUP8 ADD PUSH1 0x20 MSTORE PUSH1 0x40 SWAP1 DUP2 SWAP1 KECCAK256 DUP5 SWAP1 SSTORE MLOAD SWAP2 DUP11 AND SWAP2 PUSH32 0xBB123B5C06D5408BBEA3C4FEF481578175CFB432E3B482C6186F02ED9086585B SWAP1 PUSH2 0x1DD0 SWAP1 DUP6 SWAP1 PUSH2 0x3088 JUMP JUMPDEST PUSH1 0x40 MLOAD DUP1 SWAP2 SUB SWAP1 LOG3 JUMPDEST POP SWAP8 SWAP7 POP POP POP POP POP POP POP JUMP JUMPDEST PUSH20 0xFFFFFFFFFFFFFFFFFFFFFFFFFFFFFFFFFFFFFFFF DUP3 AND PUSH2 0x1E67 JUMPI PUSH1 0x40 DUP1 MLOAD PUSH32 0x8C379A000000000000000000000000000000000000000000000000000000000 DUP2 MSTORE PUSH1 0x20 PUSH1 0x4 DUP3 ADD MSTORE PUSH1 0x1F PUSH1 0x24 DUP3 ADD MSTORE PUSH32 0x45524332303A206D696E7420746F20746865207A65726F206164647265737300 PUSH1 0x44 DUP3 ADD MSTORE SWAP1 MLOAD SWAP1 DUP2 SWAP1 SUB PUSH1 0x64 ADD SWAP1 REVERT JUMPDEST PUSH2 0x1E73 PUSH1 0x0 DUP4 DUP4 PUSH2 0x2174 JUMP JUMPDEST PUSH1 0x2 SLOAD PUSH2 0x1E80 SWAP1 DUP3 PUSH2 0x14F4 JUMP JUMPDEST PUSH1 0x2 SSTORE PUSH20 0xFFFFFFFFFFFFFFFFFFFFFFFFFFFFFFFFFFFFFFFF DUP3 AND PUSH1 0x0 SWAP1 DUP2 MSTORE PUSH1 0x20 DUP2 SWAP1 MSTORE PUSH1 0x40 SWAP1 KECCAK256 SLOAD PUSH2 0x1EB3 SWAP1 DUP3 PUSH2 0x14F4 JUMP JUMPDEST PUSH20 0xFFFFFFFFFFFFFFFFFFFFFFFFFFFFFFFFFFFFFFFF DUP4 AND PUSH1 0x0 DUP2 DUP2 MSTORE PUSH1 0x20 DUP2 DUP2 MSTORE PUSH1 0x40 DUP1 DUP4 KECCAK256 SWAP5 SWAP1 SWAP5 SSTORE DUP4 MLOAD DUP6 DUP2 MSTORE SWAP4 MLOAD SWAP3 SWAP4 SWAP2 SWAP3 PUSH32 0xDDF252AD1BE2C89B69C2B068FC378DAA952BA7F163C4A11628F55A4DF523B3EF SWAP3 DUP2 SWAP1 SUB SWAP1 SWAP2 ADD SWAP1 LOG3 POP POP JUMP JUMPDEST PUSH1 0x1 DUP3 ADD SLOAD DUP3 SLOAD PUSH1 0x0 SWAP2 SWAP1 PUSH17 0x100000000000000000000000000000000 SWAP1 DIV PUSH16 0xFFFFFFFFFFFFFFFFFFFFFFFFFFFFFFFF AND TIMESTAMP DUP2 EQ ISZERO PUSH2 0x1F57 JUMPI POP SWAP1 POP PUSH2 0x86A JUMP JUMPDEST DUP5 SLOAD PUSH1 0x0 SWAP1 PUSH2 0x1F7B SWAP1 DUP5 SWAP1 PUSH16 0xFFFFFFFFFFFFFFFFFFFFFFFFFFFFFFFF AND DUP5 DUP9 PUSH2 0x2700 JUMP JUMPDEST SWAP1 POP DUP3 DUP2 EQ PUSH2 0x1FDC JUMPI DUP1 DUP7 PUSH1 0x1 ADD DUP2 SWAP1 SSTORE POP DUP7 PUSH20 0xFFFFFFFFFFFFFFFFFFFFFFFFFFFFFFFFFFFFFFFF AND PUSH32 0x5777CA300DFE5BEAD41006FBCE4389794DBC0ED8D6CCCEBFAF94630AA04184BC DUP3 PUSH1 0x40 MLOAD PUSH2 0x1FD3 SWAP2 SWAP1 PUSH2 0x3088 JUMP JUMPDEST PUSH1 0x40 MLOAD DUP1 SWAP2 SUB SWAP1 LOG2 JUMPDEST DUP6 SLOAD PUSH16 0xFFFFFFFFFFFFFFFFFFFFFFFFFFFFFFFF TIMESTAMP DUP2 AND PUSH17 0x100000000000000000000000000000000 MUL SWAP2 AND OR DUP7 SSTORE SWAP3 POP POP POP SWAP4 SWAP3 POP POP POP JUMP JUMPDEST PUSH1 0x0 DUP3 PUSH2 0x2024 JUMPI POP PUSH1 0x0 PUSH2 0x581 JUMP JUMPDEST DUP3 DUP3 MUL DUP3 DUP5 DUP3 DUP2 PUSH2 0x2031 JUMPI INVALID JUMPDEST DIV EQ PUSH2 0x86A JUMPI PUSH1 0x40 MLOAD PUSH32 0x8C379A000000000000000000000000000000000000000000000000000000000 DUP2 MSTORE PUSH1 0x4 ADD DUP1 DUP1 PUSH1 0x20 ADD DUP3 DUP2 SUB DUP3 MSTORE PUSH1 0x21 DUP2 MSTORE PUSH1 0x20 ADD DUP1 PUSH2 0x3152 PUSH1 0x21 SWAP2 CODECOPY PUSH1 0x40 ADD SWAP2 POP POP PUSH1 0x40 MLOAD DUP1 SWAP2 SUB SWAP1 REVERT JUMPDEST PUSH1 0x0 PUSH2 0x86A DUP4 DUP4 PUSH1 0x40 MLOAD DUP1 PUSH1 0x40 ADD PUSH1 0x40 MSTORE DUP1 PUSH1 0x1A DUP2 MSTORE PUSH1 0x20 ADD PUSH32 0x536166654D6174683A206469766973696F6E206279207A65726F000000000000 DUP2 MSTORE POP PUSH2 0x2836 JUMP JUMPDEST PUSH1 0x1 SWAP1 JUMP JUMPDEST DUP1 MLOAD PUSH2 0x20E2 SWAP1 PUSH1 0x3 SWAP1 PUSH1 0x20 DUP5 ADD SWAP1 PUSH2 0x2B29 JUMP JUMPDEST POP POP JUMP JUMPDEST DUP1 MLOAD PUSH2 0x20E2 SWAP1 PUSH1 0x4 SWAP1 PUSH1 0x20 DUP5 ADD SWAP1 PUSH2 0x2B29 JUMP JUMPDEST PUSH1 0x5 DUP1 SLOAD PUSH32 0xFFFFFFFFFFFFFFFFFFFFFFFFFFFFFFFFFFFFFFFFFFFFFFFFFFFFFFFFFFFFFF00 AND PUSH1 0xFF SWAP3 SWAP1 SWAP3 AND SWAP2 SWAP1 SWAP2 OR SWAP1 SSTORE JUMP JUMPDEST PUSH1 0x8 DUP1 SLOAD PUSH32 0xFFFFFFFFFFFFFFFFFFFFFFFF0000000000000000000000000000000000000000 AND PUSH20 0xFFFFFFFFFFFFFFFFFFFFFFFFFFFFFFFFFFFFFFFF SWAP3 SWAP1 SWAP3 AND SWAP2 SWAP1 SWAP2 OR SWAP1 SSTORE JUMP JUMPDEST DUP2 PUSH20 0xFFFFFFFFFFFFFFFFFFFFFFFFFFFFFFFFFFFFFFFF AND DUP4 PUSH20 0xFFFFFFFFFFFFFFFFFFFFFFFFFFFFFFFFFFFFFFFF AND EQ ISZERO PUSH2 0x21AD JUMPI PUSH2 0x1228 JUMP JUMPDEST PUSH20 0xFFFFFFFFFFFFFFFFFFFFFFFFFFFFFFFFFFFFFFFF DUP4 AND ISZERO PUSH2 0x21EC JUMPI PUSH1 0x0 PUSH2 0x21D4 DUP5 PUSH2 0x9A1 JUMP JUMPDEST SWAP1 POP PUSH2 0x21EA DUP5 DUP3 PUSH2 0x21E5 DUP2 DUP7 PUSH2 0x16B3 JUMP JUMPDEST PUSH2 0x28B5 JUMP JUMPDEST POP JUMPDEST PUSH20 0xFFFFFFFFFFFFFFFFFFFFFFFFFFFFFFFFFFFFFFFF DUP3 AND ISZERO PUSH2 0x2226 JUMPI PUSH1 0x0 PUSH2 0x2213 DUP4 PUSH2 0x9A1 JUMP JUMPDEST SWAP1 POP PUSH2 0x2224 DUP4 DUP3 PUSH2 0x21E5 DUP2 DUP7 PUSH2 0x14F4 JUMP JUMPDEST POP JUMPDEST PUSH1 0x8 SLOAD PUSH20 0xFFFFFFFFFFFFFFFFFFFFFFFFFFFFFFFFFFFFFFFF AND DUP1 ISZERO PUSH2 0x1A92 JUMPI DUP1 PUSH20 0xFFFFFFFFFFFFFFFFFFFFFFFFFFFFFFFFFFFFFFFF AND PUSH4 0x4A393149 DUP6 DUP6 DUP6 PUSH1 0x40 MLOAD DUP5 PUSH4 0xFFFFFFFF AND PUSH1 0xE0 SHL DUP2 MSTORE PUSH1 0x4 ADD DUP1 DUP5 PUSH20 0xFFFFFFFFFFFFFFFFFFFFFFFFFFFFFFFFFFFFFFFF AND DUP2 MSTORE PUSH1 0x20 ADD DUP4 PUSH20 0xFFFFFFFFFFFFFFFFFFFFFFFFFFFFFFFFFFFFFFFF AND DUP2 MSTORE PUSH1 0x20 ADD DUP3 DUP2 MSTORE PUSH1 0x20 ADD SWAP4 POP POP POP POP PUSH1 0x0 PUSH1 0x40 MLOAD DUP1 DUP4 SUB DUP2 PUSH1 0x0 DUP8 DUP1 EXTCODESIZE ISZERO DUP1 ISZERO PUSH2 0x22D4 JUMPI PUSH1 0x0 DUP1 REVERT JUMPDEST POP GAS CALL ISZERO DUP1 ISZERO PUSH2 0x22E8 JUMPI RETURNDATASIZE PUSH1 0x0 DUP1 RETURNDATACOPY RETURNDATASIZE PUSH1 0x0 REVERT JUMPDEST POP POP POP POP POP POP POP POP JUMP JUMPDEST PUSH2 0x2311 DUP3 PUSH20 0xFFFFFFFFFFFFFFFFFFFFFFFFFFFFFFFFFFFFFFFF AND PUSH2 0x2AB9 JUMP JUMPDEST PUSH2 0x237C JUMPI PUSH1 0x40 DUP1 MLOAD PUSH32 0x8C379A000000000000000000000000000000000000000000000000000000000 DUP2 MSTORE PUSH1 0x20 PUSH1 0x4 DUP3 ADD MSTORE PUSH1 0x1F PUSH1 0x24 DUP3 ADD MSTORE PUSH32 0x5361666545524332303A2063616C6C20746F206E6F6E2D636F6E747261637400 PUSH1 0x44 DUP3 ADD MSTORE SWAP1 MLOAD SWAP1 DUP2 SWAP1 SUB PUSH1 0x64 ADD SWAP1 REVERT JUMPDEST PUSH1 0x0 PUSH1 0x60 DUP4 PUSH20 0xFFFFFFFFFFFFFFFFFFFFFFFFFFFFFFFFFFFFFFFF AND DUP4 PUSH1 0x40 MLOAD DUP1 DUP3 DUP1 MLOAD SWAP1 PUSH1 0x20 ADD SWAP1 DUP1 DUP4 DUP4 JUMPDEST PUSH1 0x20 DUP4 LT PUSH2 0x23E5 JUMPI DUP1 MLOAD DUP3 MSTORE PUSH32 0xFFFFFFFFFFFFFFFFFFFFFFFFFFFFFFFFFFFFFFFFFFFFFFFFFFFFFFFFFFFFFFE0 SWAP1 SWAP3 ADD SWAP2 PUSH1 0x20 SWAP2 DUP3 ADD SWAP2 ADD PUSH2 0x23A8 JUMP JUMPDEST PUSH1 0x1 DUP4 PUSH1 0x20 SUB PUSH2 0x100 EXP SUB DUP1 NOT DUP3 MLOAD AND DUP2 DUP5 MLOAD AND DUP1 DUP3 OR DUP6 MSTORE POP POP POP POP POP POP SWAP1 POP ADD SWAP2 POP POP PUSH1 0x0 PUSH1 0x40 MLOAD DUP1 DUP4 SUB DUP2 PUSH1 0x0 DUP7 GAS CALL SWAP2 POP POP RETURNDATASIZE DUP1 PUSH1 0x0 DUP2 EQ PUSH2 0x2447 JUMPI PUSH1 0x40 MLOAD SWAP2 POP PUSH1 0x1F NOT PUSH1 0x3F RETURNDATASIZE ADD AND DUP3 ADD PUSH1 0x40 MSTORE RETURNDATASIZE DUP3 MSTORE RETURNDATASIZE PUSH1 0x0 PUSH1 0x20 DUP5 ADD RETURNDATACOPY PUSH2 0x244C JUMP JUMPDEST PUSH1 0x60 SWAP2 POP JUMPDEST POP SWAP2 POP SWAP2 POP DUP2 PUSH2 0x24BD JUMPI PUSH1 0x40 DUP1 MLOAD PUSH32 0x8C379A000000000000000000000000000000000000000000000000000000000 DUP2 MSTORE PUSH1 0x20 PUSH1 0x4 DUP3 ADD DUP2 SWAP1 MSTORE PUSH1 0x24 DUP3 ADD MSTORE PUSH32 0x5361666545524332303A206C6F772D6C6576656C2063616C6C206661696C6564 PUSH1 0x44 DUP3 ADD MSTORE SWAP1 MLOAD SWAP1 DUP2 SWAP1 SUB PUSH1 0x64 ADD SWAP1 REVERT JUMPDEST DUP1 MLOAD ISZERO PUSH2 0x1A92 JUMPI DUP1 DUP1 PUSH1 0x20 ADD SWAP1 MLOAD PUSH1 0x20 DUP2 LT ISZERO PUSH2 0x24D9 JUMPI PUSH1 0x0 DUP1 REVERT JUMPDEST POP MLOAD PUSH2 0x1A92 JUMPI PUSH1 0x40 MLOAD PUSH32 0x8C379A000000000000000000000000000000000000000000000000000000000 DUP2 MSTORE PUSH1 0x4 ADD DUP1 DUP1 PUSH1 0x20 ADD DUP3 DUP2 SUB DUP3 MSTORE PUSH1 0x2A DUP2 MSTORE PUSH1 0x20 ADD DUP1 PUSH2 0x3233 PUSH1 0x2A SWAP2 CODECOPY PUSH1 0x40 ADD SWAP2 POP POP PUSH1 0x40 MLOAD DUP1 SWAP2 SUB SWAP1 REVERT JUMPDEST PUSH20 0xFFFFFFFFFFFFFFFFFFFFFFFFFFFFFFFFFFFFFFFF DUP4 AND PUSH2 0x259C JUMPI PUSH1 0x40 MLOAD PUSH32 0x8C379A000000000000000000000000000000000000000000000000000000000 DUP2 MSTORE PUSH1 0x4 ADD DUP1 DUP1 PUSH1 0x20 ADD DUP3 DUP2 SUB DUP3 MSTORE PUSH1 0x25 DUP2 MSTORE PUSH1 0x20 ADD DUP1 PUSH2 0x31EA PUSH1 0x25 SWAP2 CODECOPY PUSH1 0x40 ADD SWAP2 POP POP PUSH1 0x40 MLOAD DUP1 SWAP2 SUB SWAP1 REVERT JUMPDEST PUSH20 0xFFFFFFFFFFFFFFFFFFFFFFFFFFFFFFFFFFFFFFFF DUP3 AND PUSH2 0x2608 JUMPI PUSH1 0x40 MLOAD PUSH32 0x8C379A000000000000000000000000000000000000000000000000000000000 DUP2 MSTORE PUSH1 0x4 ADD DUP1 DUP1 PUSH1 0x20 ADD DUP3 DUP2 SUB DUP3 MSTORE PUSH1 0x23 DUP2 MSTORE PUSH1 0x20 ADD DUP1 PUSH2 0x30C5 PUSH1 0x23 SWAP2 CODECOPY PUSH1 0x40 ADD SWAP2 POP POP PUSH1 0x40 MLOAD DUP1 SWAP2 SUB SWAP1 REVERT JUMPDEST PUSH2 0x2613 DUP4 DUP4 DUP4 PUSH2 0x2174 JUMP JUMPDEST PUSH2 0x265D DUP2 PUSH1 0x40 MLOAD DUP1 PUSH1 0x60 ADD PUSH1 0x40 MSTORE DUP1 PUSH1 0x26 DUP2 MSTORE PUSH1 0x20 ADD PUSH2 0x312C PUSH1 0x26 SWAP2 CODECOPY PUSH20 0xFFFFFFFFFFFFFFFFFFFFFFFFFFFFFFFFFFFFFFFF DUP7 AND PUSH1 0x0 SWAP1 DUP2 MSTORE PUSH1 0x20 DUP2 SWAP1 MSTORE PUSH1 0x40 SWAP1 KECCAK256 SLOAD SWAP2 SWAP1 PUSH2 0x1A98 JUMP JUMPDEST PUSH20 0xFFFFFFFFFFFFFFFFFFFFFFFFFFFFFFFFFFFFFFFF DUP1 DUP6 AND PUSH1 0x0 SWAP1 DUP2 MSTORE PUSH1 0x20 DUP2 SWAP1 MSTORE PUSH1 0x40 DUP1 DUP3 KECCAK256 SWAP4 SWAP1 SWAP4 SSTORE SWAP1 DUP5 AND DUP2 MSTORE KECCAK256 SLOAD PUSH2 0x2699 SWAP1 DUP3 PUSH2 0x14F4 JUMP JUMPDEST PUSH20 0xFFFFFFFFFFFFFFFFFFFFFFFFFFFFFFFFFFFFFFFF DUP1 DUP5 AND PUSH1 0x0 DUP2 DUP2 MSTORE PUSH1 0x20 DUP2 DUP2 MSTORE PUSH1 0x40 SWAP2 DUP3 SWAP1 KECCAK256 SWAP5 SWAP1 SWAP5 SSTORE DUP1 MLOAD DUP6 DUP2 MSTORE SWAP1 MLOAD SWAP2 SWAP4 SWAP3 DUP8 AND SWAP3 PUSH32 0xDDF252AD1BE2C89B69C2B068FC378DAA952BA7F163C4A11628F55A4DF523B3EF SWAP3 SWAP2 DUP3 SWAP1 SUB ADD SWAP1 LOG3 POP POP POP JUMP JUMPDEST PUSH1 0x0 DUP4 ISZERO DUP1 PUSH2 0x270D JUMPI POP DUP2 ISZERO JUMPDEST DUP1 PUSH2 0x2729 JUMPI POP TIMESTAMP DUP4 PUSH16 0xFFFFFFFFFFFFFFFFFFFFFFFFFFFFFFFF AND EQ JUMPDEST DUP1 PUSH2 0x2766 JUMPI POP PUSH32 0x0 DUP4 PUSH16 0xFFFFFFFFFFFFFFFFFFFFFFFFFFFFFFFF AND LT ISZERO JUMPDEST ISZERO PUSH2 0x2772 JUMPI POP DUP4 PUSH2 0x13EA JUMP JUMPDEST PUSH1 0x0 PUSH32 0x0 TIMESTAMP GT PUSH2 0x27A1 JUMPI TIMESTAMP PUSH2 0x27C3 JUMP JUMPDEST PUSH32 0x0 JUMPDEST SWAP1 POP PUSH1 0x0 PUSH2 0x27E3 DUP3 PUSH16 0xFFFFFFFFFFFFFFFFFFFFFFFFFFFFFFFF DUP8 AND PUSH2 0x16B3 JUMP JUMPDEST SWAP1 POP PUSH2 0x2809 DUP8 PUSH2 0x13D6 DUP7 PUSH2 0x13DC PUSH8 0xDE0B6B3A7640000 PUSH2 0x2803 DUP13 DUP9 PUSH2 0x2015 JUMP JUMPDEST SWAP1 PUSH2 0x2015 JUMP JUMPDEST SWAP8 SWAP7 POP POP POP POP POP POP POP JUMP JUMPDEST PUSH1 0x0 PUSH2 0x13EA PUSH8 0xDE0B6B3A7640000 PUSH2 0x13DC PUSH2 0x282F DUP7 DUP7 PUSH2 0x16B3 JUMP JUMPDEST DUP8 SWAP1 PUSH2 0x2015 JUMP JUMPDEST PUSH1 0x0 DUP2 DUP4 PUSH2 0x289F JUMPI PUSH1 0x40 MLOAD PUSH32 0x8C379A000000000000000000000000000000000000000000000000000000000 DUP2 MSTORE PUSH1 0x20 PUSH1 0x4 DUP3 ADD DUP2 DUP2 MSTORE DUP4 MLOAD PUSH1 0x24 DUP5 ADD MSTORE DUP4 MLOAD SWAP1 SWAP3 DUP4 SWAP3 PUSH1 0x44 SWAP1 SWAP2 ADD SWAP2 SWAP1 DUP6 ADD SWAP1 DUP1 DUP4 DUP4 PUSH1 0x0 DUP4 ISZERO PUSH2 0x1B06 JUMPI DUP2 DUP2 ADD MLOAD DUP4 DUP3 ADD MSTORE PUSH1 0x20 ADD PUSH2 0x1AEE JUMP JUMPDEST POP PUSH1 0x0 DUP4 DUP6 DUP2 PUSH2 0x28AB JUMPI INVALID JUMPDEST DIV SWAP6 SWAP5 POP POP POP POP POP JUMP JUMPDEST PUSH20 0xFFFFFFFFFFFFFFFFFFFFFFFFFFFFFFFFFFFFFFFF DUP4 AND PUSH1 0x0 SWAP1 DUP2 MSTORE PUSH1 0x7 PUSH1 0x20 SWAP1 DUP2 MSTORE PUSH1 0x40 DUP1 DUP4 KECCAK256 SLOAD PUSH1 0x6 SWAP1 SWAP3 MSTORE SWAP1 SWAP2 KECCAK256 NUMBER SWAP2 SWAP1 DUP2 ISZERO DUP1 ISZERO SWAP1 PUSH2 0x2939 JUMPI POP PUSH16 0xFFFFFFFFFFFFFFFFFFFFFFFFFFFFFFFF DUP4 AND DUP2 PUSH1 0x0 PUSH2 0x2914 DUP6 PUSH1 0x1 PUSH2 0x16B3 JUMP JUMPDEST DUP2 MSTORE PUSH1 0x20 DUP2 ADD SWAP2 SWAP1 SWAP2 MSTORE PUSH1 0x40 ADD PUSH1 0x0 KECCAK256 SLOAD PUSH16 0xFFFFFFFFFFFFFFFFFFFFFFFFFFFFFFFF AND EQ JUMPDEST ISZERO PUSH2 0x2993 JUMPI DUP4 DUP2 PUSH1 0x0 PUSH2 0x294D DUP6 PUSH1 0x1 PUSH2 0x16B3 JUMP JUMPDEST DUP2 MSTORE PUSH1 0x20 DUP2 ADD SWAP2 SWAP1 SWAP2 MSTORE PUSH1 0x40 ADD PUSH1 0x0 KECCAK256 DUP1 SLOAD PUSH16 0xFFFFFFFFFFFFFFFFFFFFFFFFFFFFFFFF SWAP3 DUP4 AND PUSH17 0x100000000000000000000000000000000 MUL SWAP3 AND SWAP2 SWAP1 SWAP2 OR SWAP1 SSTORE PUSH2 0x2A49 JUMP JUMPDEST PUSH1 0x40 DUP1 MLOAD DUP1 DUP3 ADD DUP3 MSTORE PUSH16 0xFFFFFFFFFFFFFFFFFFFFFFFFFFFFFFFF DUP1 DUP7 AND DUP3 MSTORE DUP7 DUP2 AND PUSH1 0x20 DUP1 DUP5 ADD SWAP2 DUP3 MSTORE PUSH1 0x0 DUP8 DUP2 MSTORE SWAP1 DUP7 SWAP1 MSTORE SWAP4 SWAP1 SWAP4 KECCAK256 SWAP2 MLOAD DUP3 SLOAD SWAP4 MLOAD DUP3 AND PUSH17 0x100000000000000000000000000000000 MUL SWAP1 DUP3 AND PUSH32 0xFFFFFFFFFFFFFFFFFFFFFFFFFFFFFFFF00000000000000000000000000000000 SWAP1 SWAP5 AND SWAP4 SWAP1 SWAP4 OR AND SWAP2 SWAP1 SWAP2 OR SWAP1 SSTORE PUSH2 0x2A22 DUP3 PUSH1 0x1 PUSH2 0x14F4 JUMP JUMPDEST PUSH20 0xFFFFFFFFFFFFFFFFFFFFFFFFFFFFFFFFFFFFFFFF DUP8 AND PUSH1 0x0 SWAP1 DUP2 MSTORE PUSH1 0x7 PUSH1 0x20 MSTORE PUSH1 0x40 SWAP1 KECCAK256 SSTORE JUMPDEST PUSH1 0x40 DUP1 MLOAD PUSH20 0xFFFFFFFFFFFFFFFFFFFFFFFFFFFFFFFFFFFFFFFF DUP9 AND DUP2 MSTORE PUSH16 0xFFFFFFFFFFFFFFFFFFFFFFFFFFFFFFFF DUP1 DUP9 AND PUSH1 0x20 DUP4 ADD MSTORE DUP7 AND DUP2 DUP4 ADD MSTORE SWAP1 MLOAD PUSH32 0x2CD3C83DDAC2953EE75F53265D9EA4463EAF05030E5459A1B7E63819B7CE88F7 SWAP2 DUP2 SWAP1 SUB PUSH1 0x60 ADD SWAP1 LOG1 POP POP POP POP POP POP JUMP JUMPDEST PUSH1 0x0 DUP2 EXTCODEHASH PUSH32 0xC5D2460186F7233C927E7DB2DCC703C0E500B653CA82273B7BFAD8045D85A470 DUP2 DUP2 EQ DUP1 ISZERO SWAP1 PUSH2 0x13EA JUMPI POP POP ISZERO ISZERO SWAP3 SWAP2 POP POP JUMP JUMPDEST PUSH1 0x40 MLOAD DUP1 PUSH1 0x60 ADD PUSH1 0x40 MSTORE DUP1 PUSH1 0x0 PUSH20 0xFFFFFFFFFFFFFFFFFFFFFFFFFFFFFFFFFFFFFFFF AND DUP2 MSTORE PUSH1 0x20 ADD PUSH1 0x0 DUP2 MSTORE PUSH1 0x20 ADD PUSH1 0x0 DUP2 MSTORE POP SWAP1 JUMP JUMPDEST DUP3 DUP1 SLOAD PUSH1 0x1 DUP2 PUSH1 0x1 AND ISZERO PUSH2 0x100 MUL SUB AND PUSH1 0x2 SWAP1 DIV SWAP1 PUSH1 0x0 MSTORE PUSH1 0x20 PUSH1 0x0 KECCAK256 SWAP1 PUSH1 0x1F ADD PUSH1 0x20 SWAP1 DIV DUP2 ADD SWAP3 DUP3 PUSH2 0x2B5F JUMPI PUSH1 0x0 DUP6 SSTORE PUSH2 0x2BA5 JUMP JUMPDEST DUP3 PUSH1 0x1F LT PUSH2 0x2B78 JUMPI DUP1 MLOAD PUSH1 0xFF NOT AND DUP4 DUP1 ADD OR DUP6 SSTORE PUSH2 0x2BA5 JUMP JUMPDEST DUP3 DUP1 ADD PUSH1 0x1 ADD DUP6 SSTORE DUP3 ISZERO PUSH2 0x2BA5 JUMPI SWAP2 DUP3 ADD JUMPDEST DUP3 DUP2 GT ISZERO PUSH2 0x2BA5 JUMPI DUP3 MLOAD DUP3 SSTORE SWAP2 PUSH1 0x20 ADD SWAP2 SWAP1 PUSH1 0x1 ADD SWAP1 PUSH2 0x2B8A JUMP JUMPDEST POP PUSH2 0x2BB1 SWAP3 SWAP2 POP PUSH2 0x2BB5 JUMP JUMPDEST POP SWAP1 JUMP JUMPDEST JUMPDEST DUP1 DUP3 GT ISZERO PUSH2 0x2BB1 JUMPI PUSH1 0x0 DUP2 SSTORE PUSH1 0x1 ADD PUSH2 0x2BB6 JUMP JUMPDEST PUSH1 0x0 DUP1 DUP4 PUSH1 0x1F DUP5 ADD SLT PUSH2 0x2BDB JUMPI DUP2 DUP3 REVERT JUMPDEST POP DUP2 CALLDATALOAD PUSH8 0xFFFFFFFFFFFFFFFF DUP2 GT ISZERO PUSH2 0x2BF2 JUMPI DUP2 DUP3 REVERT JUMPDEST PUSH1 0x20 DUP4 ADD SWAP2 POP DUP4 PUSH1 0x20 DUP3 DUP6 ADD ADD GT ISZERO PUSH2 0x2C0A JUMPI PUSH1 0x0 DUP1 REVERT JUMPDEST SWAP3 POP SWAP3 SWAP1 POP JUMP JUMPDEST PUSH1 0x0 PUSH1 0x20 DUP3 DUP5 SUB SLT ISZERO PUSH2 0x2C22 JUMPI DUP1 DUP2 REVERT JUMPDEST DUP2 CALLDATALOAD PUSH2 0x86A DUP2 PUSH2 0x309F JUMP JUMPDEST PUSH1 0x0 DUP1 PUSH1 0x40 DUP4 DUP6 SUB SLT ISZERO PUSH2 0x2C3F JUMPI DUP1 DUP2 REVERT JUMPDEST DUP3 CALLDATALOAD PUSH2 0x2C4A DUP2 PUSH2 0x309F JUMP JUMPDEST SWAP2 POP PUSH1 0x20 DUP4 ADD CALLDATALOAD PUSH2 0x2C5A DUP2 PUSH2 0x309F JUMP JUMPDEST DUP1 SWAP2 POP POP SWAP3 POP SWAP3 SWAP1 POP JUMP JUMPDEST PUSH1 0x0 DUP1 PUSH1 0x0 PUSH1 0x60 DUP5 DUP7 SUB SLT ISZERO PUSH2 0x2C79 JUMPI DUP1 DUP2 REVERT JUMPDEST DUP4 CALLDATALOAD PUSH2 0x2C84 DUP2 PUSH2 0x309F JUMP JUMPDEST SWAP3 POP PUSH1 0x20 DUP5 ADD CALLDATALOAD PUSH2 0x2C94 DUP2 PUSH2 0x309F JUMP JUMPDEST SWAP3 SWAP6 SWAP3 SWAP5 POP POP POP PUSH1 0x40 SWAP2 SWAP1 SWAP2 ADD CALLDATALOAD SWAP1 JUMP JUMPDEST PUSH1 0x0 DUP1 PUSH1 0x40 DUP4 DUP6 SUB SLT ISZERO PUSH2 0x2CB7 JUMPI DUP2 DUP3 REVERT JUMPDEST DUP3 CALLDATALOAD PUSH2 0x2CC2 DUP2 PUSH2 0x309F JUMP JUMPDEST SWAP5 PUSH1 0x20 SWAP4 SWAP1 SWAP4 ADD CALLDATALOAD SWAP4 POP POP POP JUMP JUMPDEST PUSH1 0x0 DUP1 PUSH1 0x20 DUP4 DUP6 SUB SLT ISZERO PUSH2 0x2CE2 JUMPI DUP2 DUP3 REVERT JUMPDEST DUP3 CALLDATALOAD PUSH8 0xFFFFFFFFFFFFFFFF DUP1 DUP3 GT ISZERO PUSH2 0x2CF9 JUMPI DUP4 DUP5 REVERT JUMPDEST DUP2 DUP6 ADD SWAP2 POP DUP6 PUSH1 0x1F DUP4 ADD SLT PUSH2 0x2D0C JUMPI DUP4 DUP5 REVERT JUMPDEST DUP2 CALLDATALOAD DUP2 DUP2 GT ISZERO PUSH2 0x2D1A JUMPI DUP5 DUP6 REVERT JUMPDEST DUP7 PUSH1 0x20 PUSH1 0x60 DUP4 MUL DUP6 ADD ADD GT ISZERO PUSH2 0x2D2E JUMPI DUP5 DUP6 REVERT JUMPDEST PUSH1 0x20 SWAP3 SWAP1 SWAP3 ADD SWAP7 SWAP2 SWAP6 POP SWAP1 SWAP4 POP POP POP POP JUMP JUMPDEST PUSH1 0x0 DUP1 PUSH1 0x0 DUP1 PUSH1 0x0 DUP1 PUSH1 0x80 DUP8 DUP10 SUB SLT ISZERO PUSH2 0x2D58 JUMPI DUP2 DUP3 REVERT JUMPDEST DUP7 CALLDATALOAD PUSH2 0x2D63 DUP2 PUSH2 0x309F JUMP JUMPDEST SWAP6 POP PUSH1 0x20 DUP8 ADD CALLDATALOAD PUSH8 0xFFFFFFFFFFFFFFFF DUP1 DUP3 GT ISZERO PUSH2 0x2D7F JUMPI DUP4 DUP5 REVERT JUMPDEST PUSH2 0x2D8B DUP11 DUP4 DUP12 ADD PUSH2 0x2BCA JUMP JUMPDEST SWAP1 SWAP8 POP SWAP6 POP PUSH1 0x40 DUP10 ADD CALLDATALOAD SWAP2 POP DUP1 DUP3 GT ISZERO PUSH2 0x2DA3 JUMPI DUP4 DUP5 REVERT JUMPDEST POP PUSH2 0x2DB0 DUP10 DUP3 DUP11 ADD PUSH2 0x2BCA JUMP JUMPDEST SWAP1 SWAP5 POP SWAP3 POP POP PUSH1 0x60 DUP8 ADD CALLDATALOAD PUSH1 0xFF DUP2 AND DUP2 EQ PUSH2 0x2DC9 JUMPI DUP2 DUP3 REVERT JUMPDEST DUP1 SWAP2 POP POP SWAP3 SWAP6 POP SWAP3 SWAP6 POP SWAP3 SWAP6 JUMP JUMPDEST PUSH1 0x0 PUSH1 0x20 DUP3 DUP5 SUB SLT ISZERO PUSH2 0x2DE8 JUMPI DUP1 DUP2 REVERT JUMPDEST DUP2 CALLDATALOAD PUSH16 0xFFFFFFFFFFFFFFFFFFFFFFFFFFFFFFFF DUP2 AND DUP2 EQ PUSH2 0x86A JUMPI DUP2 DUP3 REVERT JUMPDEST PUSH1 0x0 DUP1 PUSH1 0x0 DUP1 PUSH1 0x80 DUP6 DUP8 SUB SLT ISZERO PUSH2 0x2E1C JUMPI DUP4 DUP5 REVERT JUMPDEST DUP5 CALLDATALOAD SWAP4 POP PUSH1 0x20 DUP6 ADD CALLDATALOAD SWAP3 POP PUSH1 0x40 DUP6 ADD CALLDATALOAD PUSH2 0x2E35 DUP2 PUSH2 0x309F JUMP JUMPDEST SWAP4 SWAP7 SWAP3 SWAP6 POP SWAP3 SWAP4 PUSH1 0x60 ADD CALLDATALOAD SWAP3 POP POP JUMP JUMPDEST PUSH20 0xFFFFFFFFFFFFFFFFFFFFFFFFFFFFFFFFFFFFFFFF SWAP2 SWAP1 SWAP2 AND DUP2 MSTORE PUSH1 0x20 ADD SWAP1 JUMP JUMPDEST PUSH20 0xFFFFFFFFFFFFFFFFFFFFFFFFFFFFFFFFFFFFFFFF SWAP3 SWAP1 SWAP3 AND DUP3 MSTORE PUSH1 0x20 DUP3 ADD MSTORE PUSH1 0x40 ADD SWAP1 JUMP JUMPDEST SWAP1 ISZERO ISZERO DUP2 MSTORE PUSH1 0x20 ADD SWAP1 JUMP JUMPDEST PUSH1 0x0 PUSH1 0x20 DUP1 DUP4 MSTORE DUP4 MLOAD DUP1 DUP3 DUP6 ADD MSTORE DUP3 JUMPDEST DUP2 DUP2 LT ISZERO PUSH2 0x2EC3 JUMPI DUP6 DUP2 ADD DUP4 ADD MLOAD DUP6 DUP3 ADD PUSH1 0x40 ADD MSTORE DUP3 ADD PUSH2 0x2EA7 JUMP JUMPDEST DUP2 DUP2 GT ISZERO PUSH2 0x2ED4 JUMPI DUP4 PUSH1 0x40 DUP4 DUP8 ADD ADD MSTORE JUMPDEST POP PUSH1 0x1F ADD PUSH32 0xFFFFFFFFFFFFFFFFFFFFFFFFFFFFFFFFFFFFFFFFFFFFFFFFFFFFFFFFFFFFFFE0 AND SWAP3 SWAP1 SWAP3 ADD PUSH1 0x40 ADD SWAP4 SWAP3 POP POP POP JUMP JUMPDEST PUSH1 0x20 DUP1 DUP3 MSTORE PUSH1 0x13 SWAP1 DUP3 ADD MSTORE PUSH32 0x494E56414C49445F5A45524F5F414D4F554E5400000000000000000000000000 PUSH1 0x40 DUP3 ADD MSTORE PUSH1 0x60 ADD SWAP1 JUMP JUMPDEST PUSH1 0x20 DUP1 DUP3 MSTORE PUSH1 0x15 SWAP1 DUP3 ADD MSTORE PUSH32 0x494E53554646494349454E545F434F4F4C444F574E0000000000000000000000 PUSH1 0x40 DUP3 ADD MSTORE PUSH1 0x60 ADD SWAP1 JUMP JUMPDEST PUSH1 0x20 DUP1 DUP3 MSTORE PUSH1 0x15 SWAP1 DUP3 ADD MSTORE PUSH32 0x4F4E4C595F454D495353494F4E5F4D414E414745520000000000000000000000 PUSH1 0x40 DUP3 ADD MSTORE PUSH1 0x60 ADD SWAP1 JUMP JUMPDEST PUSH1 0x20 DUP1 DUP3 MSTORE PUSH1 0x17 SWAP1 DUP3 ADD MSTORE PUSH32 0x554E5354414B455F57494E444F575F46494E4953484544000000000000000000 PUSH1 0x40 DUP3 ADD MSTORE PUSH1 0x60 ADD SWAP1 JUMP JUMPDEST PUSH1 0x20 DUP1 DUP3 MSTORE PUSH1 0x1B SWAP1 DUP3 ADD MSTORE PUSH32 0x494E56414C49445F42414C414E43455F4F4E5F434F4F4C444F574E0000000000 PUSH1 0x40 DUP3 ADD MSTORE PUSH1 0x60 ADD SWAP1 JUMP JUMPDEST PUSH16 0xFFFFFFFFFFFFFFFFFFFFFFFFFFFFFFFF SWAP2 SWAP1 SWAP2 AND DUP2 MSTORE PUSH1 0x20 ADD SWAP1 JUMP JUMPDEST PUSH16 0xFFFFFFFFFFFFFFFFFFFFFFFFFFFFFFFF SWAP3 DUP4 AND DUP2 MSTORE SWAP2 AND PUSH1 0x20 DUP3 ADD MSTORE PUSH1 0x40 ADD SWAP1 JUMP JUMPDEST PUSH16 0xFFFFFFFFFFFFFFFFFFFFFFFFFFFFFFFF SWAP4 DUP5 AND DUP2 MSTORE SWAP2 SWAP1 SWAP3 AND PUSH1 0x20 DUP3 ADD MSTORE PUSH1 0x40 DUP2 ADD SWAP2 SWAP1 SWAP2 MSTORE PUSH1 0x60 ADD SWAP1 JUMP JUMPDEST SWAP1 DUP2 MSTORE PUSH1 0x20 ADD SWAP1 JUMP JUMPDEST PUSH1 0xFF SWAP2 SWAP1 SWAP2 AND DUP2 MSTORE PUSH1 0x20 ADD SWAP1 JUMP JUMPDEST PUSH20 0xFFFFFFFFFFFFFFFFFFFFFFFFFFFFFFFFFFFFFFFF DUP2 AND DUP2 EQ PUSH2 0x30C1 JUMPI PUSH1 0x0 DUP1 REVERT JUMPDEST POP JUMP INVALID GASLIMIT MSTORE NUMBER ORIGIN ADDRESS GASPRICE KECCAK256 PUSH21 0x72616E7366657220746F20746865207A65726F2061 PUSH5 0x6472657373 GASLIMIT MSTORE NUMBER ORIGIN ADDRESS GASPRICE KECCAK256 PUSH3 0x75726E KECCAK256 PUSH2 0x6D6F PUSH22 0x6E7420657863656564732062616C616E636545524332 ADDRESS GASPRICE KECCAK256 PUSH2 0x7070 PUSH19 0x6F766520746F20746865207A65726F20616464 PUSH19 0x65737345524332303A207472616E7366657220 PUSH2 0x6D6F PUSH22 0x6E7420657863656564732062616C616E636553616665 0x4D PUSH2 0x7468 GASPRICE KECCAK256 PUSH14 0x756C7469706C69636174696F6E20 PUSH16 0x766572666C6F7745524332303A207472 PUSH2 0x6E73 PUSH7 0x657220616D6F75 PUSH15 0x74206578636565647320616C6C6F77 PUSH2 0x6E63 PUSH6 0x436F6E747261 PUSH4 0x7420696E PUSH20 0x74616E63652068617320616C7265616479206265 PUSH6 0x6E20696E6974 PUSH10 0x616C697A656445524332 ADDRESS GASPRICE KECCAK256 PUSH3 0x75726E KECCAK256 PUSH7 0x726F6D20746865 KECCAK256 PUSH27 0x65726F206164647265737345524332303A207472616E7366657220 PUSH7 0x726F6D20746865 KECCAK256 PUSH27 0x65726F206164647265737345524332303A20617070726F76652066 PUSH19 0x6F6D20746865207A65726F2061646472657373 MSTORE8 PUSH2 0x6665 GASLIMIT MSTORE NUMBER ORIGIN ADDRESS GASPRICE KECCAK256 GASLIMIT MSTORE NUMBER ORIGIN ADDRESS KECCAK256 PUSH16 0x7065726174696F6E20646964206E6F74 KECCAK256 PUSH20 0x75636365656445524332303A2064656372656173 PUSH6 0x6420616C6C6F PUSH24 0x616E63652062656C6F77207A65726FA26469706673582212 KECCAK256 0xD8 0xEB COINBASE 0xAC 0xE3 0xF7 SHR SMOD 0xD1 SIGNEXTEND 0x2D 0xEA DUP11 0xBE DUP3 0xE4 0xBA DUP13 0x2B MSIZE 0xDC PUSH3 0xEC66CB 0xBF 0xED 0xB5 0xF7 0x1F 0x2C MUL PUSH5 0x736F6C6343 STOP SMOD SDIV STOP CALLER "},"gasEstimates":{"creation":{"codeDepositCost":"2596600","executionCost":"infinite","totalCost":"infinite"},"external":{"COOLDOWN_SECONDS()":"infinite","DISTRIBUTION_END()":"infinite","EMISSION_MANAGER()":"infinite","PRECISION()":"351","REVISION()":"317","REWARDS_VAULT()":"infinite","REWARD_TOKEN()":"infinite","STAKED_TOKEN()":"infinite","UNSTAKE_WINDOW()":"infinite","_aaveGovernance()":"1135","_countsSnapshots(address)":"1345","_snapshots(address,uint256)":"1479","allowance(address,address)":"infinite","approve(address,uint256)":"infinite","assets(address)":"2213","balanceOf(address)":"1311","claimRewards(address,uint256)":"infinite","configureAssets((uint128,uint256,address)[])":"infinite","cooldown()":"22348","decimals()":"1092","decreaseAllowance(address,uint256)":"infinite","getNextCooldownTimestamp(uint256,uint256,address,uint256)":"infinite","getTotalRewardsBalance(address)":"infinite","getUserAssetData(address,address)":"infinite","increaseAllowance(address,uint256)":"infinite","initialize(address,string,string,uint8)":"infinite","name()":"infinite","redeem(address,uint256)":"infinite","stake(address,uint256)":"infinite","stakerRewardsToClaim(address)":"1323","stakersCooldowns(address)":"1303","symbol()":"infinite","totalSupply()":"1141","transfer(address,uint256)":"infinite","transferFrom(address,address,uint256)":"infinite"},"internal":{"_transfer(address,address,uint256)":"infinite","_updateCurrentUnclaimedRewards(address,uint256,bool)":"infinite","getRevision()":"15"}},"methodIdentifiers":{"COOLDOWN_SECONDS()":"72b49d63","DISTRIBUTION_END()":"919cd40f","EMISSION_MANAGER()":"cbcbb507","PRECISION()":"aaf5eb68","REVISION()":"dde43cba","REWARDS_VAULT()":"946776cd","REWARD_TOKEN()":"99248ea7","STAKED_TOKEN()":"312f6b83","UNSTAKE_WINDOW()":"359c4a96","_aaveGovernance()":"c3863ada","_countsSnapshots(address)":"8779588c","_snapshots(address,uint256)":"2acbf823","allowance(address,address)":"dd62ed3e","approve(address,uint256)":"095ea7b3","assets(address)":"f11b8188","balanceOf(address)":"70a08231","claimRewards(address,uint256)":"9a99b4f0","configureAssets((uint128,uint256,address)[])":"b2a5dbfa","cooldown()":"787a08a6","decimals()":"313ce567","decreaseAllowance(address,uint256)":"a457c2d7","getNextCooldownTimestamp(uint256,uint256,address,uint256)":"f1cc432a","getTotalRewardsBalance(address)":"8dbefee2","getUserAssetData(address,address)":"3373ee4c","increaseAllowance(address,uint256)":"39509351","initialize(address,string,string,uint8)":"f6d2ee86","name()":"06fdde03","redeem(address,uint256)":"1e9a6950","stake(address,uint256)":"adc9772e","stakerRewardsToClaim(address)":"7e90d7ef","stakersCooldowns(address)":"091030c3","symbol()":"95d89b41","totalSupply()":"18160ddd","transfer(address,uint256)":"a9059cbb","transferFrom(address,address,uint256)":"23b872dd"}},"storageLayout":{"storage":[{"astId":1916,"contract":"@aave/safety-module/contracts/stake/StakedToken.sol:StakedToken","label":"_balances","offset":0,"slot":"0","type":"t_mapping(t_address,t_uint256)"},{"astId":1922,"contract":"@aave/safety-module/contracts/stake/StakedToken.sol:StakedToken","label":"_allowances","offset":0,"slot":"1","type":"t_mapping(t_address,t_mapping(t_address,t_uint256))"},{"astId":1924,"contract":"@aave/safety-module/contracts/stake/StakedToken.sol:StakedToken","label":"_totalSupply","offset":0,"slot":"2","type":"t_uint256"},{"astId":1926,"contract":"@aave/safety-module/contracts/stake/StakedToken.sol:StakedToken","label":"_name","offset":0,"slot":"3","type":"t_string_storage"},{"astId":1928,"contract":"@aave/safety-module/contracts/stake/StakedToken.sol:StakedToken","label":"_symbol","offset":0,"slot":"4","type":"t_string_storage"},{"astId":1930,"contract":"@aave/safety-module/contracts/stake/StakedToken.sol:StakedToken","label":"_decimals","offset":0,"slot":"5","type":"t_uint8"},{"astId":2445,"contract":"@aave/safety-module/contracts/stake/StakedToken.sol:StakedToken","label":"_snapshots","offset":0,"slot":"6","type":"t_mapping(t_address,t_mapping(t_uint256,t_struct(Snapshot)2439_storage))"},{"astId":2449,"contract":"@aave/safety-module/contracts/stake/StakedToken.sol:StakedToken","label":"_countsSnapshots","offset":0,"slot":"7","type":"t_mapping(t_address,t_uint256)"},{"astId":2452,"contract":"@aave/safety-module/contracts/stake/StakedToken.sol:StakedToken","label":"_aaveGovernance","offset":0,"slot":"8","type":"t_contract(ITransferHook)1786"},{"astId":5701,"contract":"@aave/safety-module/contracts/stake/StakedToken.sol:StakedToken","label":"lastInitializedRevision","offset":0,"slot":"9","type":"t_uint256"},{"astId":5732,"contract":"@aave/safety-module/contracts/stake/StakedToken.sol:StakedToken","label":"______gap","offset":0,"slot":"10","type":"t_array(t_uint256)50_storage"},{"astId":3095,"contract":"@aave/safety-module/contracts/stake/StakedToken.sol:StakedToken","label":"assets","offset":0,"slot":"60","type":"t_mapping(t_address,t_struct(AssetData)3084_storage)"},{"astId":3751,"contract":"@aave/safety-module/contracts/stake/StakedToken.sol:StakedToken","label":"stakerRewardsToClaim","offset":0,"slot":"61","type":"t_mapping(t_address,t_uint256)"},{"astId":3755,"contract":"@aave/safety-module/contracts/stake/StakedToken.sol:StakedToken","label":"stakersCooldowns","offset":0,"slot":"62","type":"t_mapping(t_address,t_uint256)"}],"types":{"t_address":{"encoding":"inplace","label":"address","numberOfBytes":"20"},"t_array(t_uint256)50_storage":{"base":"t_uint256","encoding":"inplace","label":"uint256[50]","numberOfBytes":"1600"},"t_contract(ITransferHook)1786":{"encoding":"inplace","label":"contract ITransferHook","numberOfBytes":"20"},"t_mapping(t_address,t_mapping(t_address,t_uint256))":{"encoding":"mapping","key":"t_address","label":"mapping(address => mapping(address => uint256))","numberOfBytes":"32","value":"t_mapping(t_address,t_uint256)"},"t_mapping(t_address,t_mapping(t_uint256,t_struct(Snapshot)2439_storage))":{"encoding":"mapping","key":"t_address","label":"mapping(address => mapping(uint256 => struct ERC20WithSnapshot.Snapshot))","numberOfBytes":"32","value":"t_mapping(t_uint256,t_struct(Snapshot)2439_storage)"},"t_mapping(t_address,t_struct(AssetData)3084_storage)":{"encoding":"mapping","key":"t_address","label":"mapping(address => struct AaveDistributionManager.AssetData)","numberOfBytes":"32","value":"t_struct(AssetData)3084_storage"},"t_mapping(t_address,t_uint256)":{"encoding":"mapping","key":"t_address","label":"mapping(address => uint256)","numberOfBytes":"32","value":"t_uint256"},"t_mapping(t_uint256,t_struct(Snapshot)2439_storage)":{"encoding":"mapping","key":"t_uint256","label":"mapping(uint256 => struct ERC20WithSnapshot.Snapshot)","numberOfBytes":"32","value":"t_struct(Snapshot)2439_storage"},"t_string_storage":{"encoding":"bytes","label":"string","numberOfBytes":"32"},"t_struct(AssetData)3084_storage":{"encoding":"inplace","label":"struct AaveDistributionManager.AssetData","members":[{"astId":3075,"contract":"@aave/safety-module/contracts/stake/StakedToken.sol:StakedToken","label":"emissionPerSecond","offset":0,"slot":"0","type":"t_uint128"},{"astId":3077,"contract":"@aave/safety-module/contracts/stake/StakedToken.sol:StakedToken","label":"lastUpdateTimestamp","offset":16,"slot":"0","type":"t_uint128"},{"astId":3079,"contract":"@aave/safety-module/contracts/stake/StakedToken.sol:StakedToken","label":"index","offset":0,"slot":"1","type":"t_uint256"},{"astId":3083,"contract":"@aave/safety-module/contracts/stake/StakedToken.sol:StakedToken","label":"users","offset":0,"slot":"2","type":"t_mapping(t_address,t_uint256)"}],"numberOfBytes":"96"},"t_struct(Snapshot)2439_storage":{"encoding":"inplace","label":"struct ERC20WithSnapshot.Snapshot","members":[{"astId":2436,"contract":"@aave/safety-module/contracts/stake/StakedToken.sol:StakedToken","label":"blockNumber","offset":0,"slot":"0","type":"t_uint128"},{"astId":2438,"contract":"@aave/safety-module/contracts/stake/StakedToken.sol:StakedToken","label":"value","offset":16,"slot":"0","type":"t_uint128"}],"numberOfBytes":"32"},"t_uint128":{"encoding":"inplace","label":"uint128","numberOfBytes":"16"},"t_uint256":{"encoding":"inplace","label":"uint256","numberOfBytes":"32"},"t_uint8":{"encoding":"inplace","label":"uint8","numberOfBytes":"1"}}},"userdoc":{"kind":"user","methods":{"REWARDS_VAULT()":{"notice":"Address to pull from the rewards, needs to have approved this contract"},"UNSTAKE_WINDOW()":{"notice":"Seconds available to redeem once the cooldown period is fullfilled"}},"notice":"Contract to stake Aave token, tokenize the position and get rewards, inheriting from a distribution manager contract","version":1}}}}