{"@aave/safety-module/contracts/stake/AaveDistributionManager.sol":{"AaveDistributionManager":{"abi":[{"inputs":[{"internalType":"address","name":"emissionManager","type":"address"},{"internalType":"uint256","name":"distributionDuration","type":"uint256"}],"stateMutability":"nonpayable","type":"constructor"},{"anonymous":false,"inputs":[{"indexed":true,"internalType":"address","name":"asset","type":"address"},{"indexed":false,"internalType":"uint256","name":"emission","type":"uint256"}],"name":"AssetConfigUpdated","type":"event"},{"anonymous":false,"inputs":[{"indexed":true,"internalType":"address","name":"asset","type":"address"},{"indexed":false,"internalType":"uint256","name":"index","type":"uint256"}],"name":"AssetIndexUpdated","type":"event"},{"anonymous":false,"inputs":[{"indexed":true,"internalType":"address","name":"user","type":"address"},{"indexed":true,"internalType":"address","name":"asset","type":"address"},{"indexed":false,"internalType":"uint256","name":"index","type":"uint256"}],"name":"UserIndexUpdated","type":"event"},{"inputs":[],"name":"DISTRIBUTION_END","outputs":[{"internalType":"uint256","name":"","type":"uint256"}],"stateMutability":"view","type":"function"},{"inputs":[],"name":"EMISSION_MANAGER","outputs":[{"internalType":"address","name":"","type":"address"}],"stateMutability":"view","type":"function"},{"inputs":[],"name":"PRECISION","outputs":[{"internalType":"uint8","name":"","type":"uint8"}],"stateMutability":"view","type":"function"},{"inputs":[{"internalType":"address","name":"","type":"address"}],"name":"assets","outputs":[{"internalType":"uint128","name":"emissionPerSecond","type":"uint128"},{"internalType":"uint128","name":"lastUpdateTimestamp","type":"uint128"},{"internalType":"uint256","name":"index","type":"uint256"}],"stateMutability":"view","type":"function"},{"inputs":[{"components":[{"internalType":"uint128","name":"emissionPerSecond","type":"uint128"},{"internalType":"uint256","name":"totalStaked","type":"uint256"},{"internalType":"address","name":"underlyingAsset","type":"address"}],"internalType":"struct DistributionTypes.AssetConfigInput[]","name":"assetsConfigInput","type":"tuple[]"}],"name":"configureAssets","outputs":[],"stateMutability":"nonpayable","type":"function"},{"inputs":[{"internalType":"address","name":"user","type":"address"},{"internalType":"address","name":"asset","type":"address"}],"name":"getUserAssetData","outputs":[{"internalType":"uint256","name":"","type":"uint256"}],"stateMutability":"view","type":"function"}],"devdoc":{"author":"Aave*","kind":"dev","methods":{"configureAssets((uint128,uint256,address)[])":{"details":"Configures the distribution of rewards for a list of assets","params":{"assetsConfigInput":"The list of configurations to apply*"}},"getUserAssetData(address,address)":{"details":"Returns the data of an user on a distribution","params":{"asset":"The address of the reference asset of the distribution","user":"Address of the user"},"returns":{"_0":"The new index*"}}},"title":"AaveDistributionManager","version":1},"evm":{"bytecode":{"linkReferences":{},"object":"60c060405234801561001057600080fd5b50604051610c1a380380610c1a83398101604081905261002f916100c0565b610046814261005f60201b6104001790919060201c565b6080525060601b6001600160601b03191660a0526100f8565b6000828201838110156100b9576040805162461bcd60e51b815260206004820152601b60248201527f536166654d6174683a206164646974696f6e206f766572666c6f770000000000604482015290519081900360640190fd5b9392505050565b600080604083850312156100d2578182fd5b82516001600160a01b03811681146100e8578283fd5b6020939093015192949293505050565b60805160a05160601c610ae861013260003980610186528061039a52508061014752806105ab52806105f0528061061d5250610ae86000f3fe608060405234801561001057600080fd5b50600436106100725760003560e01c8063b2a5dbfa11610050578063b2a5dbfa146100bd578063cbcbb507146100d2578063f11b8188146100e757610072565b80633373ee4c14610077578063919cd40f146100a0578063aaf5eb68146100a8575b600080fd5b61008a610085366004610906565b610109565b6040516100979190610a7a565b60405180910390f35b61008a610145565b6100b0610169565b6040516100979190610a83565b6100d06100cb366004610938565b61016e565b005b6100da610398565b60405161009791906109d8565b6100fa6100f53660046108ec565b6103bc565b60405161009793929190610a4d565b73ffffffffffffffffffffffffffffffffffffffff80821660009081526020818152604080832093861683526002909301905220545b92915050565b7f000000000000000000000000000000000000000000000000000000000000000081565b601281565b3373ffffffffffffffffffffffffffffffffffffffff7f000000000000000000000000000000000000000000000000000000000000000016146101e6576040517f08c379a00000000000000000000000000000000000000000000000000000000081526004016101dd906109f9565b60405180910390fd5b60005b8181101561039357600080600085858581811061020257fe5b905060600201604001602081019061021a91906108ec565b73ffffffffffffffffffffffffffffffffffffffff1673ffffffffffffffffffffffffffffffffffffffff168152602001908152602001600020905061029984848481811061026557fe5b905060600201604001602081019061027d91906108ec565b8286868681811061028a57fe5b9050606002016020013561047b565b508383838181106102a657fe5b6102bc92602060609092020190810191506109a8565b81547fffffffffffffffffffffffffffffffff00000000000000000000000000000000166fffffffffffffffffffffffffffffffff9190911617815583838381811061030457fe5b905060600201604001602081019061031c91906108ec565b73ffffffffffffffffffffffffffffffffffffffff167f87fa03892a0556cb6b8f97e6d533a150d4d55fcbf275fff5fa003fa636bcc7fa85858581811061035f57fe5b61037592602060609092020190810191506109a8565b6040516103829190610a30565b60405180910390a2506001016101e9565b505050565b7f000000000000000000000000000000000000000000000000000000000000000081565b600060208190529081526040902080546001909101546fffffffffffffffffffffffffffffffff808316927001000000000000000000000000000000009004169083565b60008282018381101561047457604080517f08c379a000000000000000000000000000000000000000000000000000000000815260206004820152601b60248201527f536166654d6174683a206164646974696f6e206f766572666c6f770000000000604482015290519081900360640190fd5b9392505050565b600182015482546000919070010000000000000000000000000000000090046fffffffffffffffffffffffffffffffff16428114156104bc57509050610474565b84546000906104e09084906fffffffffffffffffffffffffffffffff16848861057a565b9050828114610541578086600101819055508673ffffffffffffffffffffffffffffffffffffffff167f5777ca300dfe5bead41006fbce4389794dbc0ed8d6cccebfaf94630aa04184bc826040516105389190610a7a565b60405180910390a25b85546fffffffffffffffffffffffffffffffff428116700100000000000000000000000000000000029116178655925050509392505050565b6000831580610587575081155b806105a3575042836fffffffffffffffffffffffffffffffff16145b806105e057507f0000000000000000000000000000000000000000000000000000000000000000836fffffffffffffffffffffffffffffffff1610155b156105ec575083610694565b60007f0000000000000000000000000000000000000000000000000000000000000000421161061b574261063d565b7f00000000000000000000000000000000000000000000000000000000000000005b9050600061065d826fffffffffffffffffffffffffffffffff871661069c565b905061068f8761068986610683670de0b6b3a764000061067d8c886106de565b906106de565b90610751565b90610400565b925050505b949350505050565b600061047483836040518060400160405280601e81526020017f536166654d6174683a207375627472616374696f6e206f766572666c6f770000815250610793565b6000826106ed5750600061013f565b828202828482816106fa57fe5b0414610474576040517f08c379a0000000000000000000000000000000000000000000000000000000008152600401808060200182810382526021815260200180610a926021913960400191505060405180910390fd5b600061047483836040518060400160405280601a81526020017f536166654d6174683a206469766973696f6e206279207a65726f000000000000815250610844565b6000818484111561083c576040517f08c379a00000000000000000000000000000000000000000000000000000000081526004018080602001828103825283818151815260200191508051906020019080838360005b838110156108015781810151838201526020016107e9565b50505050905090810190601f16801561082e5780820380516001836020036101000a031916815260200191505b509250505060405180910390fd5b505050900390565b600081836108ad576040517f08c379a00000000000000000000000000000000000000000000000000000000081526020600482018181528351602484015283519092839260449091019190850190808383600083156108015781810151838201526020016107e9565b5060008385816108b957fe5b0495945050505050565b803573ffffffffffffffffffffffffffffffffffffffff811681146108e757600080fd5b919050565b6000602082840312156108fd578081fd5b610474826108c3565b60008060408385031215610918578081fd5b610921836108c3565b915061092f602084016108c3565b90509250929050565b6000806020838503121561094a578182fd5b823567ffffffffffffffff80821115610961578384fd5b818501915085601f830112610974578384fd5b813581811115610982578485fd5b866020606083028501011115610996578485fd5b60209290920196919550909350505050565b6000602082840312156109b9578081fd5b81356fffffffffffffffffffffffffffffffff81168114610474578182fd5b73ffffffffffffffffffffffffffffffffffffffff91909116815260200190565b60208082526015908201527f4f4e4c595f454d495353494f4e5f4d414e414745520000000000000000000000604082015260600190565b6fffffffffffffffffffffffffffffffff91909116815260200190565b6fffffffffffffffffffffffffffffffff9384168152919092166020820152604081019190915260600190565b90815260200190565b60ff9190911681526020019056fe536166654d6174683a206d756c7469706c69636174696f6e206f766572666c6f77a264697066735822122099d58be43d58bb6efa9365b0b2d2ac115abb0d7b9b5cfee3c0a2f69c857061d664736f6c63430007050033","opcodes":"PUSH1 0xC0 PUSH1 0x40 MSTORE CALLVALUE DUP1 ISZERO PUSH2 0x10 JUMPI PUSH1 0x0 DUP1 REVERT JUMPDEST POP PUSH1 0x40 MLOAD PUSH2 0xC1A CODESIZE SUB DUP1 PUSH2 0xC1A DUP4 CODECOPY DUP2 ADD PUSH1 0x40 DUP2 SWAP1 MSTORE PUSH2 0x2F SWAP2 PUSH2 0xC0 JUMP JUMPDEST PUSH2 0x46 DUP2 TIMESTAMP PUSH2 0x5F PUSH1 0x20 SHL PUSH2 0x400 OR SWAP1 SWAP2 SWAP1 PUSH1 0x20 SHR JUMP JUMPDEST PUSH1 0x80 MSTORE POP PUSH1 0x60 SHL PUSH1 0x1 PUSH1 0x1 PUSH1 0x60 SHL SUB NOT AND PUSH1 0xA0 MSTORE PUSH2 0xF8 JUMP JUMPDEST PUSH1 0x0 DUP3 DUP3 ADD DUP4 DUP2 LT ISZERO PUSH2 0xB9 JUMPI PUSH1 0x40 DUP1 MLOAD PUSH3 0x461BCD PUSH1 0xE5 SHL DUP2 MSTORE PUSH1 0x20 PUSH1 0x4 DUP3 ADD MSTORE PUSH1 0x1B PUSH1 0x24 DUP3 ADD MSTORE PUSH32 0x536166654D6174683A206164646974696F6E206F766572666C6F770000000000 PUSH1 0x44 DUP3 ADD MSTORE SWAP1 MLOAD SWAP1 DUP2 SWAP1 SUB PUSH1 0x64 ADD SWAP1 REVERT JUMPDEST SWAP4 SWAP3 POP POP POP JUMP JUMPDEST PUSH1 0x0 DUP1 PUSH1 0x40 DUP4 DUP6 SUB SLT ISZERO PUSH2 0xD2 JUMPI DUP2 DUP3 REVERT JUMPDEST DUP3 MLOAD PUSH1 0x1 PUSH1 0x1 PUSH1 0xA0 SHL SUB DUP2 AND DUP2 EQ PUSH2 0xE8 JUMPI DUP3 DUP4 REVERT JUMPDEST PUSH1 0x20 SWAP4 SWAP1 SWAP4 ADD MLOAD SWAP3 SWAP5 SWAP3 SWAP4 POP POP POP JUMP JUMPDEST PUSH1 0x80 MLOAD PUSH1 0xA0 MLOAD PUSH1 0x60 SHR PUSH2 0xAE8 PUSH2 0x132 PUSH1 0x0 CODECOPY DUP1 PUSH2 0x186 MSTORE DUP1 PUSH2 0x39A MSTORE POP DUP1 PUSH2 0x147 MSTORE DUP1 PUSH2 0x5AB MSTORE DUP1 PUSH2 0x5F0 MSTORE DUP1 PUSH2 0x61D MSTORE POP PUSH2 0xAE8 PUSH1 0x0 RETURN INVALID PUSH1 0x80 PUSH1 0x40 MSTORE CALLVALUE DUP1 ISZERO PUSH2 0x10 JUMPI PUSH1 0x0 DUP1 REVERT JUMPDEST POP PUSH1 0x4 CALLDATASIZE LT PUSH2 0x72 JUMPI PUSH1 0x0 CALLDATALOAD PUSH1 0xE0 SHR DUP1 PUSH4 0xB2A5DBFA GT PUSH2 0x50 JUMPI DUP1 PUSH4 0xB2A5DBFA EQ PUSH2 0xBD JUMPI DUP1 PUSH4 0xCBCBB507 EQ PUSH2 0xD2 JUMPI DUP1 PUSH4 0xF11B8188 EQ PUSH2 0xE7 JUMPI PUSH2 0x72 JUMP JUMPDEST DUP1 PUSH4 0x3373EE4C EQ PUSH2 0x77 JUMPI DUP1 PUSH4 0x919CD40F EQ PUSH2 0xA0 JUMPI DUP1 PUSH4 0xAAF5EB68 EQ PUSH2 0xA8 JUMPI JUMPDEST PUSH1 0x0 DUP1 REVERT JUMPDEST PUSH2 0x8A PUSH2 0x85 CALLDATASIZE PUSH1 0x4 PUSH2 0x906 JUMP JUMPDEST PUSH2 0x109 JUMP JUMPDEST PUSH1 0x40 MLOAD PUSH2 0x97 SWAP2 SWAP1 PUSH2 0xA7A JUMP JUMPDEST PUSH1 0x40 MLOAD DUP1 SWAP2 SUB SWAP1 RETURN JUMPDEST PUSH2 0x8A PUSH2 0x145 JUMP JUMPDEST PUSH2 0xB0 PUSH2 0x169 JUMP JUMPDEST PUSH1 0x40 MLOAD PUSH2 0x97 SWAP2 SWAP1 PUSH2 0xA83 JUMP JUMPDEST PUSH2 0xD0 PUSH2 0xCB CALLDATASIZE PUSH1 0x4 PUSH2 0x938 JUMP JUMPDEST PUSH2 0x16E JUMP JUMPDEST STOP JUMPDEST PUSH2 0xDA PUSH2 0x398 JUMP JUMPDEST PUSH1 0x40 MLOAD PUSH2 0x97 SWAP2 SWAP1 PUSH2 0x9D8 JUMP JUMPDEST PUSH2 0xFA PUSH2 0xF5 CALLDATASIZE PUSH1 0x4 PUSH2 0x8EC JUMP JUMPDEST PUSH2 0x3BC JUMP JUMPDEST PUSH1 0x40 MLOAD PUSH2 0x97 SWAP4 SWAP3 SWAP2 SWAP1 PUSH2 0xA4D JUMP JUMPDEST PUSH20 0xFFFFFFFFFFFFFFFFFFFFFFFFFFFFFFFFFFFFFFFF DUP1 DUP3 AND PUSH1 0x0 SWAP1 DUP2 MSTORE PUSH1 0x20 DUP2 DUP2 MSTORE PUSH1 0x40 DUP1 DUP4 KECCAK256 SWAP4 DUP7 AND DUP4 MSTORE PUSH1 0x2 SWAP1 SWAP4 ADD SWAP1 MSTORE KECCAK256 SLOAD JUMPDEST SWAP3 SWAP2 POP POP JUMP JUMPDEST PUSH32 0x0 DUP2 JUMP JUMPDEST PUSH1 0x12 DUP2 JUMP JUMPDEST CALLER PUSH20 0xFFFFFFFFFFFFFFFFFFFFFFFFFFFFFFFFFFFFFFFF PUSH32 0x0 AND EQ PUSH2 0x1E6 JUMPI PUSH1 0x40 MLOAD PUSH32 0x8C379A000000000000000000000000000000000000000000000000000000000 DUP2 MSTORE PUSH1 0x4 ADD PUSH2 0x1DD SWAP1 PUSH2 0x9F9 JUMP JUMPDEST PUSH1 0x40 MLOAD DUP1 SWAP2 SUB SWAP1 REVERT JUMPDEST PUSH1 0x0 JUMPDEST DUP2 DUP2 LT ISZERO PUSH2 0x393 JUMPI PUSH1 0x0 DUP1 PUSH1 0x0 DUP6 DUP6 DUP6 DUP2 DUP2 LT PUSH2 0x202 JUMPI INVALID JUMPDEST SWAP1 POP PUSH1 0x60 MUL ADD PUSH1 0x40 ADD PUSH1 0x20 DUP2 ADD SWAP1 PUSH2 0x21A SWAP2 SWAP1 PUSH2 0x8EC JUMP JUMPDEST PUSH20 0xFFFFFFFFFFFFFFFFFFFFFFFFFFFFFFFFFFFFFFFF AND PUSH20 0xFFFFFFFFFFFFFFFFFFFFFFFFFFFFFFFFFFFFFFFF AND DUP2 MSTORE PUSH1 0x20 ADD SWAP1 DUP2 MSTORE PUSH1 0x20 ADD PUSH1 0x0 KECCAK256 SWAP1 POP PUSH2 0x299 DUP5 DUP5 DUP5 DUP2 DUP2 LT PUSH2 0x265 JUMPI INVALID JUMPDEST SWAP1 POP PUSH1 0x60 MUL ADD PUSH1 0x40 ADD PUSH1 0x20 DUP2 ADD SWAP1 PUSH2 0x27D SWAP2 SWAP1 PUSH2 0x8EC JUMP JUMPDEST DUP3 DUP7 DUP7 DUP7 DUP2 DUP2 LT PUSH2 0x28A JUMPI INVALID JUMPDEST SWAP1 POP PUSH1 0x60 MUL ADD PUSH1 0x20 ADD CALLDATALOAD PUSH2 0x47B JUMP JUMPDEST POP DUP4 DUP4 DUP4 DUP2 DUP2 LT PUSH2 0x2A6 JUMPI INVALID JUMPDEST PUSH2 0x2BC SWAP3 PUSH1 0x20 PUSH1 0x60 SWAP1 SWAP3 MUL ADD SWAP1 DUP2 ADD SWAP2 POP PUSH2 0x9A8 JUMP JUMPDEST DUP2 SLOAD PUSH32 0xFFFFFFFFFFFFFFFFFFFFFFFFFFFFFFFF00000000000000000000000000000000 AND PUSH16 0xFFFFFFFFFFFFFFFFFFFFFFFFFFFFFFFF SWAP2 SWAP1 SWAP2 AND OR DUP2 SSTORE DUP4 DUP4 DUP4 DUP2 DUP2 LT PUSH2 0x304 JUMPI INVALID JUMPDEST SWAP1 POP PUSH1 0x60 MUL ADD PUSH1 0x40 ADD PUSH1 0x20 DUP2 ADD SWAP1 PUSH2 0x31C SWAP2 SWAP1 PUSH2 0x8EC JUMP JUMPDEST PUSH20 0xFFFFFFFFFFFFFFFFFFFFFFFFFFFFFFFFFFFFFFFF AND PUSH32 0x87FA03892A0556CB6B8F97E6D533A150D4D55FCBF275FFF5FA003FA636BCC7FA DUP6 DUP6 DUP6 DUP2 DUP2 LT PUSH2 0x35F JUMPI INVALID JUMPDEST PUSH2 0x375 SWAP3 PUSH1 0x20 PUSH1 0x60 SWAP1 SWAP3 MUL ADD SWAP1 DUP2 ADD SWAP2 POP PUSH2 0x9A8 JUMP JUMPDEST PUSH1 0x40 MLOAD PUSH2 0x382 SWAP2 SWAP1 PUSH2 0xA30 JUMP JUMPDEST PUSH1 0x40 MLOAD DUP1 SWAP2 SUB SWAP1 LOG2 POP PUSH1 0x1 ADD PUSH2 0x1E9 JUMP JUMPDEST POP POP POP JUMP JUMPDEST PUSH32 0x0 DUP2 JUMP JUMPDEST PUSH1 0x0 PUSH1 0x20 DUP2 SWAP1 MSTORE SWAP1 DUP2 MSTORE PUSH1 0x40 SWAP1 KECCAK256 DUP1 SLOAD PUSH1 0x1 SWAP1 SWAP2 ADD SLOAD PUSH16 0xFFFFFFFFFFFFFFFFFFFFFFFFFFFFFFFF DUP1 DUP4 AND SWAP3 PUSH17 0x100000000000000000000000000000000 SWAP1 DIV AND SWAP1 DUP4 JUMP JUMPDEST PUSH1 0x0 DUP3 DUP3 ADD DUP4 DUP2 LT ISZERO PUSH2 0x474 JUMPI PUSH1 0x40 DUP1 MLOAD PUSH32 0x8C379A000000000000000000000000000000000000000000000000000000000 DUP2 MSTORE PUSH1 0x20 PUSH1 0x4 DUP3 ADD MSTORE PUSH1 0x1B PUSH1 0x24 DUP3 ADD MSTORE PUSH32 0x536166654D6174683A206164646974696F6E206F766572666C6F770000000000 PUSH1 0x44 DUP3 ADD MSTORE SWAP1 MLOAD SWAP1 DUP2 SWAP1 SUB PUSH1 0x64 ADD SWAP1 REVERT JUMPDEST SWAP4 SWAP3 POP POP POP JUMP JUMPDEST PUSH1 0x1 DUP3 ADD SLOAD DUP3 SLOAD PUSH1 0x0 SWAP2 SWAP1 PUSH17 0x100000000000000000000000000000000 SWAP1 DIV PUSH16 0xFFFFFFFFFFFFFFFFFFFFFFFFFFFFFFFF AND TIMESTAMP DUP2 EQ ISZERO PUSH2 0x4BC JUMPI POP SWAP1 POP PUSH2 0x474 JUMP JUMPDEST DUP5 SLOAD PUSH1 0x0 SWAP1 PUSH2 0x4E0 SWAP1 DUP5 SWAP1 PUSH16 0xFFFFFFFFFFFFFFFFFFFFFFFFFFFFFFFF AND DUP5 DUP9 PUSH2 0x57A JUMP JUMPDEST SWAP1 POP DUP3 DUP2 EQ PUSH2 0x541 JUMPI DUP1 DUP7 PUSH1 0x1 ADD DUP2 SWAP1 SSTORE POP DUP7 PUSH20 0xFFFFFFFFFFFFFFFFFFFFFFFFFFFFFFFFFFFFFFFF AND PUSH32 0x5777CA300DFE5BEAD41006FBCE4389794DBC0ED8D6CCCEBFAF94630AA04184BC DUP3 PUSH1 0x40 MLOAD PUSH2 0x538 SWAP2 SWAP1 PUSH2 0xA7A JUMP JUMPDEST PUSH1 0x40 MLOAD DUP1 SWAP2 SUB SWAP1 LOG2 JUMPDEST DUP6 SLOAD PUSH16 0xFFFFFFFFFFFFFFFFFFFFFFFFFFFFFFFF TIMESTAMP DUP2 AND PUSH17 0x100000000000000000000000000000000 MUL SWAP2 AND OR DUP7 SSTORE SWAP3 POP POP POP SWAP4 SWAP3 POP POP POP JUMP JUMPDEST PUSH1 0x0 DUP4 ISZERO DUP1 PUSH2 0x587 JUMPI POP DUP2 ISZERO JUMPDEST DUP1 PUSH2 0x5A3 JUMPI POP TIMESTAMP DUP4 PUSH16 0xFFFFFFFFFFFFFFFFFFFFFFFFFFFFFFFF AND EQ JUMPDEST DUP1 PUSH2 0x5E0 JUMPI POP PUSH32 0x0 DUP4 PUSH16 0xFFFFFFFFFFFFFFFFFFFFFFFFFFFFFFFF AND LT ISZERO JUMPDEST ISZERO PUSH2 0x5EC JUMPI POP DUP4 PUSH2 0x694 JUMP JUMPDEST PUSH1 0x0 PUSH32 0x0 TIMESTAMP GT PUSH2 0x61B JUMPI TIMESTAMP PUSH2 0x63D JUMP JUMPDEST PUSH32 0x0 JUMPDEST SWAP1 POP PUSH1 0x0 PUSH2 0x65D DUP3 PUSH16 0xFFFFFFFFFFFFFFFFFFFFFFFFFFFFFFFF DUP8 AND PUSH2 0x69C JUMP JUMPDEST SWAP1 POP PUSH2 0x68F DUP8 PUSH2 0x689 DUP7 PUSH2 0x683 PUSH8 0xDE0B6B3A7640000 PUSH2 0x67D DUP13 DUP9 PUSH2 0x6DE JUMP JUMPDEST SWAP1 PUSH2 0x6DE JUMP JUMPDEST SWAP1 PUSH2 0x751 JUMP JUMPDEST SWAP1 PUSH2 0x400 JUMP JUMPDEST SWAP3 POP POP POP JUMPDEST SWAP5 SWAP4 POP POP POP POP JUMP JUMPDEST PUSH1 0x0 PUSH2 0x474 DUP4 DUP4 PUSH1 0x40 MLOAD DUP1 PUSH1 0x40 ADD PUSH1 0x40 MSTORE DUP1 PUSH1 0x1E DUP2 MSTORE PUSH1 0x20 ADD PUSH32 0x536166654D6174683A207375627472616374696F6E206F766572666C6F770000 DUP2 MSTORE POP PUSH2 0x793 JUMP JUMPDEST PUSH1 0x0 DUP3 PUSH2 0x6ED JUMPI POP PUSH1 0x0 PUSH2 0x13F JUMP JUMPDEST DUP3 DUP3 MUL DUP3 DUP5 DUP3 DUP2 PUSH2 0x6FA JUMPI INVALID JUMPDEST DIV EQ PUSH2 0x474 JUMPI PUSH1 0x40 MLOAD PUSH32 0x8C379A000000000000000000000000000000000000000000000000000000000 DUP2 MSTORE PUSH1 0x4 ADD DUP1 DUP1 PUSH1 0x20 ADD DUP3 DUP2 SUB DUP3 MSTORE PUSH1 0x21 DUP2 MSTORE PUSH1 0x20 ADD DUP1 PUSH2 0xA92 PUSH1 0x21 SWAP2 CODECOPY PUSH1 0x40 ADD SWAP2 POP POP PUSH1 0x40 MLOAD DUP1 SWAP2 SUB SWAP1 REVERT JUMPDEST PUSH1 0x0 PUSH2 0x474 DUP4 DUP4 PUSH1 0x40 MLOAD DUP1 PUSH1 0x40 ADD PUSH1 0x40 MSTORE DUP1 PUSH1 0x1A DUP2 MSTORE PUSH1 0x20 ADD PUSH32 0x536166654D6174683A206469766973696F6E206279207A65726F000000000000 DUP2 MSTORE POP PUSH2 0x844 JUMP JUMPDEST PUSH1 0x0 DUP2 DUP5 DUP5 GT ISZERO PUSH2 0x83C JUMPI PUSH1 0x40 MLOAD PUSH32 0x8C379A000000000000000000000000000000000000000000000000000000000 DUP2 MSTORE PUSH1 0x4 ADD DUP1 DUP1 PUSH1 0x20 ADD DUP3 DUP2 SUB DUP3 MSTORE DUP4 DUP2 DUP2 MLOAD DUP2 MSTORE PUSH1 0x20 ADD SWAP2 POP DUP1 MLOAD SWAP1 PUSH1 0x20 ADD SWAP1 DUP1 DUP4 DUP4 PUSH1 0x0 JUMPDEST DUP4 DUP2 LT ISZERO PUSH2 0x801 JUMPI DUP2 DUP2 ADD MLOAD DUP4 DUP3 ADD MSTORE PUSH1 0x20 ADD PUSH2 0x7E9 JUMP JUMPDEST POP POP POP POP SWAP1 POP SWAP1 DUP2 ADD SWAP1 PUSH1 0x1F AND DUP1 ISZERO PUSH2 0x82E JUMPI DUP1 DUP3 SUB DUP1 MLOAD PUSH1 0x1 DUP4 PUSH1 0x20 SUB PUSH2 0x100 EXP SUB NOT AND DUP2 MSTORE PUSH1 0x20 ADD SWAP2 POP JUMPDEST POP SWAP3 POP POP POP PUSH1 0x40 MLOAD DUP1 SWAP2 SUB SWAP1 REVERT JUMPDEST POP POP POP SWAP1 SUB SWAP1 JUMP JUMPDEST PUSH1 0x0 DUP2 DUP4 PUSH2 0x8AD JUMPI PUSH1 0x40 MLOAD PUSH32 0x8C379A000000000000000000000000000000000000000000000000000000000 DUP2 MSTORE PUSH1 0x20 PUSH1 0x4 DUP3 ADD DUP2 DUP2 MSTORE DUP4 MLOAD PUSH1 0x24 DUP5 ADD MSTORE DUP4 MLOAD SWAP1 SWAP3 DUP4 SWAP3 PUSH1 0x44 SWAP1 SWAP2 ADD SWAP2 SWAP1 DUP6 ADD SWAP1 DUP1 DUP4 DUP4 PUSH1 0x0 DUP4 ISZERO PUSH2 0x801 JUMPI DUP2 DUP2 ADD MLOAD DUP4 DUP3 ADD MSTORE PUSH1 0x20 ADD PUSH2 0x7E9 JUMP JUMPDEST POP PUSH1 0x0 DUP4 DUP6 DUP2 PUSH2 0x8B9 JUMPI INVALID JUMPDEST DIV SWAP6 SWAP5 POP POP POP POP POP JUMP JUMPDEST DUP1 CALLDATALOAD PUSH20 0xFFFFFFFFFFFFFFFFFFFFFFFFFFFFFFFFFFFFFFFF DUP2 AND DUP2 EQ PUSH2 0x8E7 JUMPI PUSH1 0x0 DUP1 REVERT JUMPDEST SWAP2 SWAP1 POP JUMP JUMPDEST PUSH1 0x0 PUSH1 0x20 DUP3 DUP5 SUB SLT ISZERO PUSH2 0x8FD JUMPI DUP1 DUP2 REVERT JUMPDEST PUSH2 0x474 DUP3 PUSH2 0x8C3 JUMP JUMPDEST PUSH1 0x0 DUP1 PUSH1 0x40 DUP4 DUP6 SUB SLT ISZERO PUSH2 0x918 JUMPI DUP1 DUP2 REVERT JUMPDEST PUSH2 0x921 DUP4 PUSH2 0x8C3 JUMP JUMPDEST SWAP2 POP PUSH2 0x92F PUSH1 0x20 DUP5 ADD PUSH2 0x8C3 JUMP JUMPDEST SWAP1 POP SWAP3 POP SWAP3 SWAP1 POP JUMP JUMPDEST PUSH1 0x0 DUP1 PUSH1 0x20 DUP4 DUP6 SUB SLT ISZERO PUSH2 0x94A JUMPI DUP2 DUP3 REVERT JUMPDEST DUP3 CALLDATALOAD PUSH8 0xFFFFFFFFFFFFFFFF DUP1 DUP3 GT ISZERO PUSH2 0x961 JUMPI DUP4 DUP5 REVERT JUMPDEST DUP2 DUP6 ADD SWAP2 POP DUP6 PUSH1 0x1F DUP4 ADD SLT PUSH2 0x974 JUMPI DUP4 DUP5 REVERT JUMPDEST DUP2 CALLDATALOAD DUP2 DUP2 GT ISZERO PUSH2 0x982 JUMPI DUP5 DUP6 REVERT JUMPDEST DUP7 PUSH1 0x20 PUSH1 0x60 DUP4 MUL DUP6 ADD ADD GT ISZERO PUSH2 0x996 JUMPI DUP5 DUP6 REVERT JUMPDEST PUSH1 0x20 SWAP3 SWAP1 SWAP3 ADD SWAP7 SWAP2 SWAP6 POP SWAP1 SWAP4 POP POP POP POP JUMP JUMPDEST PUSH1 0x0 PUSH1 0x20 DUP3 DUP5 SUB SLT ISZERO PUSH2 0x9B9 JUMPI DUP1 DUP2 REVERT JUMPDEST DUP2 CALLDATALOAD PUSH16 0xFFFFFFFFFFFFFFFFFFFFFFFFFFFFFFFF DUP2 AND DUP2 EQ PUSH2 0x474 JUMPI DUP2 DUP3 REVERT JUMPDEST PUSH20 0xFFFFFFFFFFFFFFFFFFFFFFFFFFFFFFFFFFFFFFFF SWAP2 SWAP1 SWAP2 AND DUP2 MSTORE PUSH1 0x20 ADD SWAP1 JUMP JUMPDEST PUSH1 0x20 DUP1 DUP3 MSTORE PUSH1 0x15 SWAP1 DUP3 ADD MSTORE PUSH32 0x4F4E4C595F454D495353494F4E5F4D414E414745520000000000000000000000 PUSH1 0x40 DUP3 ADD MSTORE PUSH1 0x60 ADD SWAP1 JUMP JUMPDEST PUSH16 0xFFFFFFFFFFFFFFFFFFFFFFFFFFFFFFFF SWAP2 SWAP1 SWAP2 AND DUP2 MSTORE PUSH1 0x20 ADD SWAP1 JUMP JUMPDEST PUSH16 0xFFFFFFFFFFFFFFFFFFFFFFFFFFFFFFFF SWAP4 DUP5 AND DUP2 MSTORE SWAP2 SWAP1 SWAP3 AND PUSH1 0x20 DUP3 ADD MSTORE PUSH1 0x40 DUP2 ADD SWAP2 SWAP1 SWAP2 MSTORE PUSH1 0x60 ADD SWAP1 JUMP JUMPDEST SWAP1 DUP2 MSTORE PUSH1 0x20 ADD SWAP1 JUMP JUMPDEST PUSH1 0xFF SWAP2 SWAP1 SWAP2 AND DUP2 MSTORE PUSH1 0x20 ADD SWAP1 JUMP INVALID MSTORE8 PUSH2 0x6665 0x4D PUSH2 0x7468 GASPRICE KECCAK256 PUSH14 0x756C7469706C69636174696F6E20 PUSH16 0x766572666C6F77A26469706673582212 KECCAK256 SWAP10 0xD5 DUP12 0xE4 RETURNDATASIZE PC 0xBB PUSH15 0xFA9365B0B2D2AC115ABB0D7B9B5CFE 0xE3 0xC0 LOG2 0xF6 SWAP13 DUP6 PUSH17 0x61D664736F6C6343000705003300000000 "},"gasEstimates":{"creation":{"codeDepositCost":"558400","executionCost":"infinite","totalCost":"infinite"},"external":{"DISTRIBUTION_END()":"infinite","EMISSION_MANAGER()":"infinite","PRECISION()":"285","assets(address)":"2200","configureAssets((uint128,uint256,address)[])":"infinite","getUserAssetData(address,address)":"infinite"},"internal":{"_claimRewards(address,struct DistributionTypes.UserStakeInput memory[] memory)":"infinite","_getAssetIndex(uint256,uint256,uint128,uint256)":"infinite","_getRewards(uint256,uint256,uint256)":"infinite","_getUnclaimedRewards(address,struct DistributionTypes.UserStakeInput memory[] memory)":"infinite","_updateAssetStateInternal(address,struct AaveDistributionManager.AssetData storage pointer,uint256)":"infinite","_updateUserAssetInternal(address,address,uint256,uint256)":"infinite"}},"methodIdentifiers":{"DISTRIBUTION_END()":"919cd40f","EMISSION_MANAGER()":"cbcbb507","PRECISION()":"aaf5eb68","assets(address)":"f11b8188","configureAssets((uint128,uint256,address)[])":"b2a5dbfa","getUserAssetData(address,address)":"3373ee4c"}},"storageLayout":{"storage":[{"astId":3095,"contract":"@aave/safety-module/contracts/stake/AaveDistributionManager.sol:AaveDistributionManager","label":"assets","offset":0,"slot":"0","type":"t_mapping(t_address,t_struct(AssetData)3084_storage)"}],"types":{"t_address":{"encoding":"inplace","label":"address","numberOfBytes":"20"},"t_mapping(t_address,t_struct(AssetData)3084_storage)":{"encoding":"mapping","key":"t_address","label":"mapping(address => struct AaveDistributionManager.AssetData)","numberOfBytes":"32","value":"t_struct(AssetData)3084_storage"},"t_mapping(t_address,t_uint256)":{"encoding":"mapping","key":"t_address","label":"mapping(address => uint256)","numberOfBytes":"32","value":"t_uint256"},"t_struct(AssetData)3084_storage":{"encoding":"inplace","label":"struct AaveDistributionManager.AssetData","members":[{"astId":3075,"contract":"@aave/safety-module/contracts/stake/AaveDistributionManager.sol:AaveDistributionManager","label":"emissionPerSecond","offset":0,"slot":"0","type":"t_uint128"},{"astId":3077,"contract":"@aave/safety-module/contracts/stake/AaveDistributionManager.sol:AaveDistributionManager","label":"lastUpdateTimestamp","offset":16,"slot":"0","type":"t_uint128"},{"astId":3079,"contract":"@aave/safety-module/contracts/stake/AaveDistributionManager.sol:AaveDistributionManager","label":"index","offset":0,"slot":"1","type":"t_uint256"},{"astId":3083,"contract":"@aave/safety-module/contracts/stake/AaveDistributionManager.sol:AaveDistributionManager","label":"users","offset":0,"slot":"2","type":"t_mapping(t_address,t_uint256)"}],"numberOfBytes":"96"},"t_uint128":{"encoding":"inplace","label":"uint128","numberOfBytes":"16"},"t_uint256":{"encoding":"inplace","label":"uint256","numberOfBytes":"32"}}},"userdoc":{"kind":"user","methods":{},"notice":"Accounting contract to manage multiple staking distributions","version":1}}}}