{"@aave/safety-module/contracts/stake/StakedAaveV2.sol":{"StakedAaveV2":{"abi":[{"inputs":[{"internalType":"contract IERC20","name":"stakedToken","type":"address"},{"internalType":"contract IERC20","name":"rewardToken","type":"address"},{"internalType":"uint256","name":"cooldownSeconds","type":"uint256"},{"internalType":"uint256","name":"unstakeWindow","type":"uint256"},{"internalType":"address","name":"rewardsVault","type":"address"},{"internalType":"address","name":"emissionManager","type":"address"},{"internalType":"uint128","name":"distributionDuration","type":"uint128"},{"internalType":"address","name":"governance","type":"address"}],"stateMutability":"nonpayable","type":"constructor"},{"anonymous":false,"inputs":[{"indexed":true,"internalType":"address","name":"owner","type":"address"},{"indexed":true,"internalType":"address","name":"spender","type":"address"},{"indexed":false,"internalType":"uint256","name":"value","type":"uint256"}],"name":"Approval","type":"event"},{"anonymous":false,"inputs":[{"indexed":true,"internalType":"address","name":"asset","type":"address"},{"indexed":false,"internalType":"uint256","name":"emission","type":"uint256"}],"name":"AssetConfigUpdated","type":"event"},{"anonymous":false,"inputs":[{"indexed":true,"internalType":"address","name":"asset","type":"address"},{"indexed":false,"internalType":"uint256","name":"index","type":"uint256"}],"name":"AssetIndexUpdated","type":"event"},{"anonymous":false,"inputs":[{"indexed":true,"internalType":"address","name":"user","type":"address"}],"name":"Cooldown","type":"event"},{"anonymous":false,"inputs":[{"indexed":true,"internalType":"address","name":"delegator","type":"address"},{"indexed":true,"internalType":"address","name":"delegatee","type":"address"},{"indexed":false,"internalType":"enum IGovernancePowerDelegationToken.DelegationType","name":"delegationType","type":"uint8"}],"name":"DelegateChanged","type":"event"},{"anonymous":false,"inputs":[{"indexed":true,"internalType":"address","name":"user","type":"address"},{"indexed":false,"internalType":"uint256","name":"amount","type":"uint256"},{"indexed":false,"internalType":"enum IGovernancePowerDelegationToken.DelegationType","name":"delegationType","type":"uint8"}],"name":"DelegatedPowerChanged","type":"event"},{"anonymous":false,"inputs":[{"indexed":true,"internalType":"address","name":"from","type":"address"},{"indexed":true,"internalType":"address","name":"to","type":"address"},{"indexed":false,"internalType":"uint256","name":"amount","type":"uint256"}],"name":"Redeem","type":"event"},{"anonymous":false,"inputs":[{"indexed":false,"internalType":"address","name":"user","type":"address"},{"indexed":false,"internalType":"uint256","name":"amount","type":"uint256"}],"name":"RewardsAccrued","type":"event"},{"anonymous":false,"inputs":[{"indexed":true,"internalType":"address","name":"from","type":"address"},{"indexed":true,"internalType":"address","name":"to","type":"address"},{"indexed":false,"internalType":"uint256","name":"amount","type":"uint256"}],"name":"RewardsClaimed","type":"event"},{"anonymous":false,"inputs":[{"indexed":true,"internalType":"address","name":"from","type":"address"},{"indexed":true,"internalType":"address","name":"onBehalfOf","type":"address"},{"indexed":false,"internalType":"uint256","name":"amount","type":"uint256"}],"name":"Staked","type":"event"},{"anonymous":false,"inputs":[{"indexed":true,"internalType":"address","name":"from","type":"address"},{"indexed":true,"internalType":"address","name":"to","type":"address"},{"indexed":false,"internalType":"uint256","name":"value","type":"uint256"}],"name":"Transfer","type":"event"},{"anonymous":false,"inputs":[{"indexed":true,"internalType":"address","name":"user","type":"address"},{"indexed":true,"internalType":"address","name":"asset","type":"address"},{"indexed":false,"internalType":"uint256","name":"index","type":"uint256"}],"name":"UserIndexUpdated","type":"event"},{"inputs":[],"name":"COOLDOWN_SECONDS","outputs":[{"internalType":"uint256","name":"","type":"uint256"}],"stateMutability":"view","type":"function"},{"inputs":[],"name":"DELEGATE_BY_TYPE_TYPEHASH","outputs":[{"internalType":"bytes32","name":"","type":"bytes32"}],"stateMutability":"view","type":"function"},{"inputs":[],"name":"DELEGATE_TYPEHASH","outputs":[{"internalType":"bytes32","name":"","type":"bytes32"}],"stateMutability":"view","type":"function"},{"inputs":[],"name":"DISTRIBUTION_END","outputs":[{"internalType":"uint256","name":"","type":"uint256"}],"stateMutability":"view","type":"function"},{"inputs":[],"name":"DOMAIN_SEPARATOR","outputs":[{"internalType":"bytes32","name":"","type":"bytes32"}],"stateMutability":"view","type":"function"},{"inputs":[],"name":"EIP712_REVISION","outputs":[{"internalType":"bytes","name":"","type":"bytes"}],"stateMutability":"view","type":"function"},{"inputs":[],"name":"EMISSION_MANAGER","outputs":[{"internalType":"address","name":"","type":"address"}],"stateMutability":"view","type":"function"},{"inputs":[],"name":"PERMIT_TYPEHASH","outputs":[{"internalType":"bytes32","name":"","type":"bytes32"}],"stateMutability":"view","type":"function"},{"inputs":[],"name":"PRECISION","outputs":[{"internalType":"uint8","name":"","type":"uint8"}],"stateMutability":"view","type":"function"},{"inputs":[],"name":"REVISION","outputs":[{"internalType":"uint256","name":"","type":"uint256"}],"stateMutability":"view","type":"function"},{"inputs":[],"name":"REWARDS_VAULT","outputs":[{"internalType":"address","name":"","type":"address"}],"stateMutability":"view","type":"function"},{"inputs":[],"name":"REWARD_TOKEN","outputs":[{"internalType":"contract IERC20","name":"","type":"address"}],"stateMutability":"view","type":"function"},{"inputs":[],"name":"STAKED_TOKEN","outputs":[{"internalType":"contract IERC20","name":"","type":"address"}],"stateMutability":"view","type":"function"},{"inputs":[],"name":"UNSTAKE_WINDOW","outputs":[{"internalType":"uint256","name":"","type":"uint256"}],"stateMutability":"view","type":"function"},{"inputs":[],"name":"_aaveGovernance","outputs":[{"internalType":"contract ITransferHook","name":"","type":"address"}],"stateMutability":"view","type":"function"},{"inputs":[{"internalType":"address","name":"","type":"address"}],"name":"_nonces","outputs":[{"internalType":"uint256","name":"","type":"uint256"}],"stateMutability":"view","type":"function"},{"inputs":[{"internalType":"address","name":"","type":"address"},{"internalType":"uint256","name":"","type":"uint256"}],"name":"_votingSnapshots","outputs":[{"internalType":"uint128","name":"blockNumber","type":"uint128"},{"internalType":"uint128","name":"value","type":"uint128"}],"stateMutability":"view","type":"function"},{"inputs":[{"internalType":"address","name":"","type":"address"}],"name":"_votingSnapshotsCounts","outputs":[{"internalType":"uint256","name":"","type":"uint256"}],"stateMutability":"view","type":"function"},{"inputs":[{"internalType":"address","name":"owner","type":"address"},{"internalType":"address","name":"spender","type":"address"}],"name":"allowance","outputs":[{"internalType":"uint256","name":"","type":"uint256"}],"stateMutability":"view","type":"function"},{"inputs":[{"internalType":"address","name":"spender","type":"address"},{"internalType":"uint256","name":"amount","type":"uint256"}],"name":"approve","outputs":[{"internalType":"bool","name":"","type":"bool"}],"stateMutability":"nonpayable","type":"function"},{"inputs":[{"internalType":"address","name":"","type":"address"}],"name":"assets","outputs":[{"internalType":"uint128","name":"emissionPerSecond","type":"uint128"},{"internalType":"uint128","name":"lastUpdateTimestamp","type":"uint128"},{"internalType":"uint256","name":"index","type":"uint256"}],"stateMutability":"view","type":"function"},{"inputs":[{"internalType":"address","name":"account","type":"address"}],"name":"balanceOf","outputs":[{"internalType":"uint256","name":"","type":"uint256"}],"stateMutability":"view","type":"function"},{"inputs":[{"internalType":"address","name":"to","type":"address"},{"internalType":"uint256","name":"amount","type":"uint256"}],"name":"claimRewards","outputs":[],"stateMutability":"nonpayable","type":"function"},{"inputs":[{"components":[{"internalType":"uint128","name":"emissionPerSecond","type":"uint128"},{"internalType":"uint256","name":"totalStaked","type":"uint256"},{"internalType":"address","name":"underlyingAsset","type":"address"}],"internalType":"struct DistributionTypes.AssetConfigInput[]","name":"assetsConfigInput","type":"tuple[]"}],"name":"configureAssets","outputs":[],"stateMutability":"nonpayable","type":"function"},{"inputs":[],"name":"cooldown","outputs":[],"stateMutability":"nonpayable","type":"function"},{"inputs":[],"name":"decimals","outputs":[{"internalType":"uint8","name":"","type":"uint8"}],"stateMutability":"view","type":"function"},{"inputs":[{"internalType":"address","name":"spender","type":"address"},{"internalType":"uint256","name":"subtractedValue","type":"uint256"}],"name":"decreaseAllowance","outputs":[{"internalType":"bool","name":"","type":"bool"}],"stateMutability":"nonpayable","type":"function"},{"inputs":[{"internalType":"address","name":"delegatee","type":"address"}],"name":"delegate","outputs":[],"stateMutability":"nonpayable","type":"function"},{"inputs":[{"internalType":"address","name":"delegatee","type":"address"},{"internalType":"uint256","name":"nonce","type":"uint256"},{"internalType":"uint256","name":"expiry","type":"uint256"},{"internalType":"uint8","name":"v","type":"uint8"},{"internalType":"bytes32","name":"r","type":"bytes32"},{"internalType":"bytes32","name":"s","type":"bytes32"}],"name":"delegateBySig","outputs":[],"stateMutability":"nonpayable","type":"function"},{"inputs":[{"internalType":"address","name":"delegatee","type":"address"},{"internalType":"enum IGovernancePowerDelegationToken.DelegationType","name":"delegationType","type":"uint8"}],"name":"delegateByType","outputs":[],"stateMutability":"nonpayable","type":"function"},{"inputs":[{"internalType":"address","name":"delegatee","type":"address"},{"internalType":"enum IGovernancePowerDelegationToken.DelegationType","name":"delegationType","type":"uint8"},{"internalType":"uint256","name":"nonce","type":"uint256"},{"internalType":"uint256","name":"expiry","type":"uint256"},{"internalType":"uint8","name":"v","type":"uint8"},{"internalType":"bytes32","name":"r","type":"bytes32"},{"internalType":"bytes32","name":"s","type":"bytes32"}],"name":"delegateByTypeBySig","outputs":[],"stateMutability":"nonpayable","type":"function"},{"inputs":[{"internalType":"address","name":"delegator","type":"address"},{"internalType":"enum IGovernancePowerDelegationToken.DelegationType","name":"delegationType","type":"uint8"}],"name":"getDelegateeByType","outputs":[{"internalType":"address","name":"","type":"address"}],"stateMutability":"view","type":"function"},{"inputs":[{"internalType":"uint256","name":"fromCooldownTimestamp","type":"uint256"},{"internalType":"uint256","name":"amountToReceive","type":"uint256"},{"internalType":"address","name":"toAddress","type":"address"},{"internalType":"uint256","name":"toBalance","type":"uint256"}],"name":"getNextCooldownTimestamp","outputs":[{"internalType":"uint256","name":"","type":"uint256"}],"stateMutability":"view","type":"function"},{"inputs":[{"internalType":"address","name":"user","type":"address"},{"internalType":"uint256","name":"blockNumber","type":"uint256"},{"internalType":"enum IGovernancePowerDelegationToken.DelegationType","name":"delegationType","type":"uint8"}],"name":"getPowerAtBlock","outputs":[{"internalType":"uint256","name":"","type":"uint256"}],"stateMutability":"view","type":"function"},{"inputs":[{"internalType":"address","name":"user","type":"address"},{"internalType":"enum IGovernancePowerDelegationToken.DelegationType","name":"delegationType","type":"uint8"}],"name":"getPowerCurrent","outputs":[{"internalType":"uint256","name":"","type":"uint256"}],"stateMutability":"view","type":"function"},{"inputs":[{"internalType":"address","name":"staker","type":"address"}],"name":"getTotalRewardsBalance","outputs":[{"internalType":"uint256","name":"","type":"uint256"}],"stateMutability":"view","type":"function"},{"inputs":[{"internalType":"address","name":"user","type":"address"},{"internalType":"address","name":"asset","type":"address"}],"name":"getUserAssetData","outputs":[{"internalType":"uint256","name":"","type":"uint256"}],"stateMutability":"view","type":"function"},{"inputs":[{"internalType":"address","name":"spender","type":"address"},{"internalType":"uint256","name":"addedValue","type":"uint256"}],"name":"increaseAllowance","outputs":[{"internalType":"bool","name":"","type":"bool"}],"stateMutability":"nonpayable","type":"function"},{"inputs":[],"name":"initialize","outputs":[],"stateMutability":"nonpayable","type":"function"},{"inputs":[],"name":"name","outputs":[{"internalType":"string","name":"","type":"string"}],"stateMutability":"view","type":"function"},{"inputs":[{"internalType":"address","name":"owner","type":"address"},{"internalType":"address","name":"spender","type":"address"},{"internalType":"uint256","name":"value","type":"uint256"},{"internalType":"uint256","name":"deadline","type":"uint256"},{"internalType":"uint8","name":"v","type":"uint8"},{"internalType":"bytes32","name":"r","type":"bytes32"},{"internalType":"bytes32","name":"s","type":"bytes32"}],"name":"permit","outputs":[],"stateMutability":"nonpayable","type":"function"},{"inputs":[{"internalType":"address","name":"to","type":"address"},{"internalType":"uint256","name":"amount","type":"uint256"}],"name":"redeem","outputs":[],"stateMutability":"nonpayable","type":"function"},{"inputs":[{"internalType":"address","name":"onBehalfOf","type":"address"},{"internalType":"uint256","name":"amount","type":"uint256"}],"name":"stake","outputs":[],"stateMutability":"nonpayable","type":"function"},{"inputs":[{"internalType":"address","name":"","type":"address"}],"name":"stakerRewardsToClaim","outputs":[{"internalType":"uint256","name":"","type":"uint256"}],"stateMutability":"view","type":"function"},{"inputs":[{"internalType":"address","name":"","type":"address"}],"name":"stakersCooldowns","outputs":[{"internalType":"uint256","name":"","type":"uint256"}],"stateMutability":"view","type":"function"},{"inputs":[],"name":"symbol","outputs":[{"internalType":"string","name":"","type":"string"}],"stateMutability":"view","type":"function"},{"inputs":[],"name":"totalSupply","outputs":[{"internalType":"uint256","name":"","type":"uint256"}],"stateMutability":"view","type":"function"},{"inputs":[{"internalType":"uint256","name":"blockNumber","type":"uint256"}],"name":"totalSupplyAt","outputs":[{"internalType":"uint256","name":"","type":"uint256"}],"stateMutability":"view","type":"function"},{"inputs":[{"internalType":"address","name":"recipient","type":"address"},{"internalType":"uint256","name":"amount","type":"uint256"}],"name":"transfer","outputs":[{"internalType":"bool","name":"","type":"bool"}],"stateMutability":"nonpayable","type":"function"},{"inputs":[{"internalType":"address","name":"sender","type":"address"},{"internalType":"address","name":"recipient","type":"address"},{"internalType":"uint256","name":"amount","type":"uint256"}],"name":"transferFrom","outputs":[{"internalType":"bool","name":"","type":"bool"}],"stateMutability":"nonpayable","type":"function"}],"devdoc":{"author":"Aave*","kind":"dev","methods":{"allowance(address,address)":{"details":"See {IERC20-allowance}."},"approve(address,uint256)":{"details":"See {IERC20-approve}. Requirements: - `spender` cannot be the zero address."},"balanceOf(address)":{"details":"See {IERC20-balanceOf}."},"claimRewards(address,uint256)":{"details":"Claims an `amount` of `REWARD_TOKEN` to the address `to`","params":{"amount":"Amount to stake*","to":"Address to stake for"}},"configureAssets((uint128,uint256,address)[])":{"details":"Configures the distribution of rewards for a list of assets","params":{"assetsConfigInput":"The list of configurations to apply*"}},"cooldown()":{"details":"Activates the cooldown period to unstake - It can't be called if the user is not staking*"},"decimals()":{"details":"Returns the number of decimals used to get its user representation. For example, if `decimals` equals `2`, a balance of `505` tokens should be displayed to a user as `5,05` (`505 / 10 ** 2`). Tokens usually opt for a value of 18, imitating the relationship between Ether and Wei. This is the value {ERC20} uses, unless {_setupDecimals} is called. NOTE: This information is only used for _display_ purposes: it in no way affects any of the arithmetic of the contract, including {IERC20-balanceOf} and {IERC20-transfer}."},"decreaseAllowance(address,uint256)":{"details":"Atomically decreases the allowance granted to `spender` by the caller. This is an alternative to {approve} that can be used as a mitigation for problems described in {IERC20-approve}. Emits an {Approval} event indicating the updated allowance. Requirements: - `spender` cannot be the zero address. - `spender` must have allowance for the caller of at least `subtractedValue`."},"delegate(address)":{"details":"delegates all the powers to a specific user","params":{"delegatee":"the user to which the power will be delegated*"}},"delegateBySig(address,uint256,uint256,uint8,bytes32,bytes32)":{"details":"Delegates power from signatory to `delegatee`","params":{"delegatee":"The address to delegate votes to","expiry":"The time at which to expire the signature","nonce":"The contract state required to match the signature","r":"Half of the ECDSA signature pair","s":"Half of the ECDSA signature pair","v":"The recovery byte of the signature"}},"delegateByType(address,uint8)":{"details":"delegates one specific power to a delegatee","params":{"delegatee":"the user which delegated power has changed","delegationType":"the type of delegation (VOTING_POWER, PROPOSITION_POWER)*"}},"delegateByTypeBySig(address,uint8,uint256,uint256,uint8,bytes32,bytes32)":{"details":"Delegates power from signatory to `delegatee`","params":{"delegatee":"The address to delegate votes to","delegationType":"the type of delegation (VOTING_POWER, PROPOSITION_POWER)","expiry":"The time at which to expire the signature","nonce":"The contract state required to match the signature","r":"Half of the ECDSA signature pair","s":"Half of the ECDSA signature pair","v":"The recovery byte of the signature"}},"getDelegateeByType(address,uint8)":{"details":"returns the delegatee of an user","params":{"delegator":"the address of the delegator*"}},"getNextCooldownTimestamp(uint256,uint256,address,uint256)":{"details":"Calculates the how is gonna be a new cooldown timestamp depending on the sender/receiver situation  - If the timestamp of the sender is \"better\" or the timestamp of the recipient is 0, we take the one of the recipient  - Weighted average of from/to cooldown timestamps if:    # The sender doesn't have the cooldown activated (timestamp 0).    # The sender timestamp is expired    # The sender has a \"worse\" timestamp  - If the receiver's cooldown timestamp expired (too old), the next is 0","params":{"amountToReceive":"Amount","fromCooldownTimestamp":"Cooldown timestamp of the sender","toAddress":"Address of the recipient","toBalance":"Current balance of the receiver"},"returns":{"_0":"The new cooldown timestamp*"}},"getPowerAtBlock(address,uint256,uint8)":{"details":"returns the delegated power of a user at a certain block","params":{"user":"the user*"}},"getPowerCurrent(address,uint8)":{"details":"returns the current delegated power of a user. The current power is the power delegated at the time of the last snapshot","params":{"user":"the user*"}},"getTotalRewardsBalance(address)":{"details":"Return the total rewards pending to claim by an staker","params":{"staker":"The staker address"},"returns":{"_0":"The rewards"}},"getUserAssetData(address,address)":{"details":"Returns the data of an user on a distribution","params":{"asset":"The address of the reference asset of the distribution","user":"Address of the user"},"returns":{"_0":"The new index*"}},"increaseAllowance(address,uint256)":{"details":"Atomically increases the allowance granted to `spender` by the caller. This is an alternative to {approve} that can be used as a mitigation for problems described in {IERC20-approve}. Emits an {Approval} event indicating the updated allowance. Requirements: - `spender` cannot be the zero address."},"initialize()":{"details":"Called by the proxy contract*"},"name()":{"details":"Returns the name of the token."},"permit(address,address,uint256,uint256,uint8,bytes32,bytes32)":{"details":"implements the permit function as for https://github.com/ethereum/EIPs/blob/8a34d644aacf0f9f8f00815307fd7dd5da07655f/EIPS/eip-2612.md","params":{"deadline":"the deadline timestamp, type(uint256).max for no deadline","owner":"the owner of the funds","r":"signature param","s":"signature param","spender":"the spender","v":"signature param","value":"the amount"}},"redeem(address,uint256)":{"details":"Redeems staked tokens, and stop earning rewards","params":{"amount":"Amount to redeem*","to":"Address to redeem to"}},"symbol()":{"details":"Returns the symbol of the token, usually a shorter version of the name."},"totalSupply()":{"details":"See {IERC20-totalSupply}."},"totalSupplyAt(uint256)":{"details":"returns the total supply at a certain block number used by the voting strategy contracts to calculate the total votes needed for threshold/quorum In this initial implementation with no AAVE minting, simply returns the current supply A snapshots mapping will need to be added in case a mint function is added to the AAVE token in the future*"},"transfer(address,uint256)":{"details":"See {IERC20-transfer}. Requirements: - `recipient` cannot be the zero address. - the caller must have a balance of at least `amount`."},"transferFrom(address,address,uint256)":{"details":"See {IERC20-transferFrom}. Emits an {Approval} event indicating the updated allowance. This is not required by the EIP. See the note at the beginning of {ERC20}; Requirements: - `sender` and `recipient` cannot be the zero address. - `sender` must have a balance of at least `amount`. - the caller must have allowance for ``sender``'s tokens of at least `amount`."}},"title":"StakedAaveV2","version":1},"evm":{"bytecode":{"linkReferences":{},"object":"61016060405260006009553480156200001757600080fd5b5060405162004a1e38038062004a1e8339810160408190526200003a9162000299565b878787878787876040518060400160405280600b81526020016a5374616b6564204161766560a81b8152506040518060400160405280600781526020016673746b4141564560c81b81525060128a85856001600160801b031685858160039080519060200190620000ad929190620001ed565b508051620000c3906004906020840190620001ed565b505060058054601260ff1990911617905550620000ed428262000175602090811b62001e8717901c565b60805250606090811b6001600160601b031990811660a0528c821b811660c0528b821b811660e0526101008b90526101208a90529088901b1661014052600880546001600160a01b0319166001600160a01b0383161790556200015c82620001d7602090811b62001efb17901c565b5050505050505050505050505050505050505062000365565b600082820183811015620001d0576040805162461bcd60e51b815260206004820152601b60248201527f536166654d6174683a206164646974696f6e206f766572666c6f770000000000604482015290519081900360640190fd5b9392505050565b6005805460ff191660ff92909216919091179055565b828054600181600116156101000203166002900490600052602060002090601f01602090048101928262000225576000855562000270565b82601f106200024057805160ff191683800117855562000270565b8280016001018555821562000270579182015b828111156200027057825182559160200191906001019062000253565b506200027e92915062000282565b5090565b5b808211156200027e576000815560010162000283565b600080600080600080600080610100898b031215620002b6578384fd5b8851620002c3816200034c565b60208a0151909850620002d6816200034c565b8097505060408901519550606089015194506080890151620002f8816200034c565b60a08a01519094506200030b816200034c565b60c08a01519093506001600160801b038116811462000328578283fd5b60e08a01519092506200033b816200034c565b809150509295985092959890939650565b6001600160a01b03811681146200036257600080fd5b50565b60805160a05160601c60c05160601c60e05160601c61010051610120516101405160601c6146186200040660003980610f4f52806110ff5250806108115280610ad15280611bbe5250806107b352806108395280610c2a5280611be3525080610ffc52806110c852508061090c5280610a67528061138a52508061142752806118b4525080610f2b528061389252806138d7528061390452506146186000f3fe608060405234801561001057600080fd5b50600436106103365760003560e01c8063919cd40f116101b2578063b2f4201d116100f9578063d505accf116100a2578063dde43cba1161007c578063dde43cba14610623578063f11b81881461062b578063f1cc432a1461064d578063f713d8a81461066057610336565b8063d505accf146105ea578063dc937e1c146105fd578063dd62ed3e1461061057610336565b8063c3863ada116100d3578063c3863ada146105c7578063c3cda520146105cf578063cbcbb507146105e257610336565b8063b2f4201d1461058e578063b9844d8d146105a1578063c2ffbb91146105b457610336565b8063a457c2d71161015b578063aaf5eb6811610135578063aaf5eb6814610560578063adc9772e14610568578063b2a5dbfa1461057b57610336565b8063a457c2d714610532578063a9059cbb14610545578063aa9fbe021461055857610336565b8063981b24d01161018c578063981b24d01461050457806399248ea7146105175780639a99b4f01461051f57610336565b8063919cd40f146104ec578063946776cd146104f457806395d89b41146104fc57610336565b8063395093511161028157806372b49d631161022a5780637bb73c97116102045780637bb73c97146104ab5780637e90d7ef146104be5780638129fc1c146104d15780638dbefee2146104d957610336565b806372b49d6314610493578063781603761461049b578063787a08a6146104a357610336565b80635c19a95c1161025b5780635c19a95c1461045a5780636f50458d1461046d57806370a082311461048057610336565b8063395093511461041e57806341cbf54a146104315780635b3cc0cf1461043957610336565b806330adf81f116102e35780633373ee4c116102bd5780633373ee4c146103fb578063359c4a961461040e5780633644e5151461041657610336565b806330adf81f146103c9578063312f6b83146103d1578063313ce567146103e657610336565b806318160ddd1161031457806318160ddd146103995780631e9a6950146103a157806323b872dd146103b657610336565b806306fdde031461033b578063091030c314610359578063095ea7b314610379575b600080fd5b610343610673565b60405161035091906141a8565b60405180910390f35b61036c610367366004613c82565b610727565b604051610350919061409d565b61038c610387366004613dcc565b610739565b6040516103509190614092565b61036c610757565b6103b46103af366004613dcc565b61075d565b005b61038c6103c4366004613cce565b61099f565b61036c610a41565b6103d9610a65565b604051610350919061401a565b6103ee610a89565b6040516103509190614417565b61036c610409366004613c9c565b610a92565b61036c610acf565b61036c610af3565b61038c61042c366004613dcc565b610af9565b61036c610b54565b61044c610447366004613dcc565b610b78565b6040516103509291906143c7565b6103b4610468366004613c82565b610bbf565b6103d961047b366004613d72565b610bda565b61036c61048e366004613c82565b610bfc565b61036c610c28565b610343610c4c565b6103b4610c85565b61036c6104b9366004613c82565b610cfe565b61036c6104cc366004613c82565b610d10565b6103b4610d22565b61036c6104e7366004613c82565b610e60565b61036c610f29565b6103d9610f4d565b610343610f71565b61036c610512366004613f27565b610ff0565b6103d9610ffa565b6103b461052d366004613dcc565b61101e565b61038c610540366004613dcc565b611190565b61038c610553366004613dcc565b611205565b61036c611219565b6103ee61123d565b6103b4610576366004613dcc565b611242565b6103b4610589366004613e87565b61140f565b61036c61059c366004613d72565b611631565b61036c6105af366004613c82565b611659565b61036c6105c2366004613df5565b61166b565b6103d9611694565b6103b46105dd366004613e30565b6116b0565b6103d96118b2565b6103b46105f8366004613d09565b6118d6565b6103b461060b366004613d72565b611af2565b61036c61061e366004613c9c565b611b01565b61036c611b39565b61063e610639366004613c82565b611b3e565b604051610350939291906143ea565b61036c61065b366004613f3f565b611b82565b6103b461066e366004613d9b565b611c84565b60038054604080516020601f60027fffffffffffffffffffffffffffffffffffffffffffffffffffffffffffffffff61010060018816150201909516949094049384018190048102820181019092528281526060939092909183018282801561071d5780601f106106f25761010080835404028352916020019161071d565b820191906000526020600020905b81548152906001019060200180831161070057829003601f168201915b5050505050905090565b603e6020526000908152604090205481565b600061074d610746611f2f565b8484611f33565b5060015b92915050565b60025490565b8061079d576040517f08c379a0000000000000000000000000000000000000000000000000000000008152600401610794906141bb565b60405180910390fd5b336000908152603e60205260409020546107d7817f0000000000000000000000000000000000000000000000000000000000000000611e87565b421161080f576040517f08c379a000000000000000000000000000000000000000000000000000000000815260040161079490614229565b7f000000000000000000000000000000000000000000000000000000000000000061086461085d837f0000000000000000000000000000000000000000000000000000000000000000611e87565b429061207a565b111561089c576040517f08c379a00000000000000000000000000000000000000000000000000000000081526004016107949061433c565b60006108a733610bfc565b905060008184116108b857836108ba565b815b90506108c8338360016120bc565b506108d3338261217a565b6108dd828261207a565b6108f257336000908152603e60205260408120555b61093373ffffffffffffffffffffffffffffffffffffffff7f00000000000000000000000000000000000000000000000000000000000000001686836122c4565b8473ffffffffffffffffffffffffffffffffffffffff163373ffffffffffffffffffffffffffffffffffffffff167fd12200efa34901b99367694174c3b0d32c99585fdf37c7c26892136ddd0836d983604051610990919061409d565b60405180910390a35050505050565b60006109ac848484612351565b610a36846109b8611f2f565b610a31856040518060600160405280602881526020016144d46028913973ffffffffffffffffffffffffffffffffffffffff8a16600090815260016020526040812090610a03611f2f565b73ffffffffffffffffffffffffffffffffffffffff168152602081019190915260400160002054919061245e565b611f33565b5060015b9392505050565b7f6e71edae12b1b97f4d1f60370fef10105fa2faae0126114a169c64845d6126c981565b7f000000000000000000000000000000000000000000000000000000000000000081565b60055460ff1690565b73ffffffffffffffffffffffffffffffffffffffff8082166000908152603c60209081526040808320938616835260029093019052205492915050565b7f000000000000000000000000000000000000000000000000000000000000000081565b60435481565b600061074d610b06611f2f565b84610a318560016000610b17611f2f565b73ffffffffffffffffffffffffffffffffffffffff908116825260208083019390935260409182016000908120918c168152925290205490611e87565b7f9a9a49b990ba9bb39f8048c490a40ab25c18f55d208d5fbcf958261a9b48716d81565b60066020908152600092835260408084209091529082529020546fffffffffffffffffffffffffffffffff8082169170010000000000000000000000000000000090041682565b610bcb3382600061250f565b610bd73382600161250f565b50565b600080610be683612692565b92505050610bf484826126cc565b949350505050565b73ffffffffffffffffffffffffffffffffffffffff81166000908152602081905260409020545b919050565b7f000000000000000000000000000000000000000000000000000000000000000081565b6040518060400160405280600181526020017f310000000000000000000000000000000000000000000000000000000000000081525081565b610c8e33610bfc565b610cc4576040517f08c379a000000000000000000000000000000000000000000000000000000000815260040161079490614373565b336000818152603e6020526040808220429055517ff52f50426b32362d3e6bb8cb36b7074756b224622def6352a59eac7f66ebe6e89190a2565b60076020526000908152604090205481565b603d6020526000908152604090205481565b6000610d2c612704565b90506009548111610d88576040517f08c379a000000000000000000000000000000000000000000000000000000000815260040180806020018281038252602e8152602001806144fc602e913960400191505060405180910390fd5b6009819055467f8b73c3c69bb8fe3d512ecc4cf759cc79239f7b179b0ffacaa9a75d522b39400f610db7610673565b8051602091820120604080518082018252600181527f31000000000000000000000000000000000000000000000000000000000000009084015251610e2393927fc89efdaa54c0f20c7adf612882df0950f5a951637e0307cdcb4c672f298b8bc6918691309101614151565b604080517fffffffffffffffffffffffffffffffffffffffffffffffffffffffffffffffe081840301815291905280516020909101206043555050565b60408051600180825281830190925260009160609190816020015b610e83613bf0565b815260200190600190039081610e7b57905050905060405180606001604052803073ffffffffffffffffffffffffffffffffffffffff168152602001610ec885610bfc565b8152602001610ed5610757565b81525081600081518110610ee557fe5b6020026020010181905250610a3a610efd8483612709565b73ffffffffffffffffffffffffffffffffffffffff85166000908152603d602052604090205490611e87565b7f000000000000000000000000000000000000000000000000000000000000000081565b7f000000000000000000000000000000000000000000000000000000000000000081565b60048054604080516020601f60027fffffffffffffffffffffffffffffffffffffffffffffffffffffffffffffffff61010060018816150201909516949094049384018190048102820181019092528281526060939092909183018282801561071d5780601f106106f25761010080835404028352916020019161071d565b6000610751610757565b7f000000000000000000000000000000000000000000000000000000000000000081565b60006110343361102d33610bfc565b60006120bc565b905060007fffffffffffffffffffffffffffffffffffffffffffffffffffffffffffffffff83146110655782611067565b815b90506110b3816040518060400160405280600e81526020017f494e56414c49445f414d4f554e540000000000000000000000000000000000008152508461245e9092919063ffffffff16565b336000908152603d60205260409020556111257f000000000000000000000000000000000000000000000000000000000000000073ffffffffffffffffffffffffffffffffffffffff167f00000000000000000000000000000000000000000000000000000000000000008684612837565b8373ffffffffffffffffffffffffffffffffffffffff163373ffffffffffffffffffffffffffffffffffffffff167f9310ccfcb8de723f578a9e4282ea9f521f05ae40dc08f3068dfad528a65ee3c783604051611182919061409d565b60405180910390a350505050565b600061074d61119d611f2f565b84610a31856040518060600160405280602581526020016145be60259139600160006111c7611f2f565b73ffffffffffffffffffffffffffffffffffffffff908116825260208083019390935260409182016000908120918d1681529252902054919061245e565b600061074d611212611f2f565b8484612351565b7f10d8d059343739efce7dad10d09f0806da52b252b3e6a7951920d2d6ec4102e581565b601281565b80611279576040517f08c379a0000000000000000000000000000000000000000000000000000000008152600401610794906141bb565b600061128483610bfc565b9050600061129b843084611296610757565b6128cc565b90508015611333577f2468f9268c60ad90e2d49edb0032c8a001e733ae888b3ab8e982edf535be1a7684826040516112d492919061406c565b60405180910390a173ffffffffffffffffffffffffffffffffffffffff84166000908152603d602052604090205461130c9082611e87565b73ffffffffffffffffffffffffffffffffffffffff85166000908152603d60205260409020555b6113406000848685611b82565b73ffffffffffffffffffffffffffffffffffffffff85166000908152603e602052604090205561137084846129a5565b6113b273ffffffffffffffffffffffffffffffffffffffff7f000000000000000000000000000000000000000000000000000000000000000016333086612837565b8373ffffffffffffffffffffffffffffffffffffffff163373ffffffffffffffffffffffffffffffffffffffff167f5dac0c1b1112564a045ba943c9d50270893e8e826c49be8e7073adc713ab7bd785604051611182919061409d565b3373ffffffffffffffffffffffffffffffffffffffff7f0000000000000000000000000000000000000000000000000000000000000000161461147e576040517f08c379a0000000000000000000000000000000000000000000000000000000008152600401610794906142ce565b60005b8181101561162c576000603c600085858581811061149b57fe5b90506060020160400160208101906114b39190613c82565b73ffffffffffffffffffffffffffffffffffffffff1673ffffffffffffffffffffffffffffffffffffffff16815260200190815260200160002090506115328484848181106114fe57fe5b90506060020160400160208101906115169190613c82565b8286868681811061152357fe5b90506060020160200135612ad6565b5083838381811061153f57fe5b6115559260206060909202019081019150613ef7565b81547fffffffffffffffffffffffffffffffff00000000000000000000000000000000166fffffffffffffffffffffffffffffffff9190911617815583838381811061159d57fe5b90506060020160400160208101906115b59190613c82565b73ffffffffffffffffffffffffffffffffffffffff167f87fa03892a0556cb6b8f97e6d533a150d4d55fcbf275fff5fa003fa636bcc7fa8585858181106115f857fe5b61160e9260206060909202019081019150613ef7565b60405161161b91906143aa565b60405180910390a250600101611481565b505050565b600080600061163f84612692565b509150915061165082828743612bd5565b95945050505050565b60446020526000908152604090205481565b600080600061167984612692565b509150915061168a82828888612bd5565b9695505050505050565b60085473ffffffffffffffffffffffffffffffffffffffff1681565b60007f9a9a49b990ba9bb39f8048c490a40ab25c18f55d208d5fbcf958261a9b48716d8787876040516020016116e994939291906140e7565b604051602081830303815290604052805190602001209050600060435482604051602001611718929190613fe4565b604051602081830303815290604052805190602001209050600060018287878760405160008152602001604052604051611755949392919061418a565b6020604051602081039080840390855afa158015611777573d6000803e3d6000fd5b50506040517fffffffffffffffffffffffffffffffffffffffffffffffffffffffffffffffe0015191505073ffffffffffffffffffffffffffffffffffffffff81166117ef576040517f08c379a0000000000000000000000000000000000000000000000000000000008152600401610794906141f2565b73ffffffffffffffffffffffffffffffffffffffff811660009081526044602052604090208054600181019091558814611855576040517f08c379a000000000000000000000000000000000000000000000000000000000815260040161079490614297565b8642111561188f576040517f08c379a000000000000000000000000000000000000000000000000000000000815260040161079490614260565b61189b818a600061250f565b6118a7818a600161250f565b505050505050505050565b7f000000000000000000000000000000000000000000000000000000000000000081565b73ffffffffffffffffffffffffffffffffffffffff8716611923576040517f08c379a000000000000000000000000000000000000000000000000000000000815260040161079490614305565b8342111561195d576040517f08c379a000000000000000000000000000000000000000000000000000000000815260040161079490614260565b73ffffffffffffffffffffffffffffffffffffffff871660009081526044602090815260408083205460435491519093926119c4917f6e71edae12b1b97f4d1f60370fef10105fa2faae0126114a169c64845d6126c9918d918d918d9189918e91016140a6565b604051602081830303815290604052805190602001206040516020016119eb929190613fe4565b60405160208183030381529060405280519060200120905060018186868660405160008152602001604052604051611a26949392919061418a565b6020604051602081039080840390855afa158015611a48573d6000803e3d6000fd5b5050506020604051035173ffffffffffffffffffffffffffffffffffffffff168973ffffffffffffffffffffffffffffffffffffffff1614611ab6576040517f08c379a0000000000000000000000000000000000000000000000000000000008152600401610794906141f2565b611ac1826001611e87565b73ffffffffffffffffffffffffffffffffffffffff8a166000908152604460205260409020556118a7898989611f33565b611afd33838361250f565b5050565b73ffffffffffffffffffffffffffffffffffffffff918216600090815260016020908152604080832093909416825291909152205490565b600281565b603c60205260009081526040902080546001909101546fffffffffffffffffffffffffffffffff808316927001000000000000000000000000000000009004169083565b73ffffffffffffffffffffffffffffffffffffffff82166000908152603e602052604081205480611bb7576000915050610bf4565b6000611c0d7f0000000000000000000000000000000000000000000000000000000000000000611c07427f000000000000000000000000000000000000000000000000000000000000000061207a565b9061207a565b905081811115611c205760009150611c7a565b6000878211611c2f5787611c31565b425b905082811015611c4657829350505050610bf4565b611c76611c538887611e87565b611c70611c608887612f22565b611c6a8b86612f22565b90611e87565b90612f95565b9250505b5095945050505050565b60007f10d8d059343739efce7dad10d09f0806da52b252b3e6a7951920d2d6ec4102e588886001811115611cb457fe5b8888604051602001611cca959493929190614118565b604051602081830303815290604052805190602001209050600060435482604051602001611cf9929190613fe4565b604051602081830303815290604052805190602001209050600060018287878760405160008152602001604052604051611d36949392919061418a565b6020604051602081039080840390855afa158015611d58573d6000803e3d6000fd5b50506040517fffffffffffffffffffffffffffffffffffffffffffffffffffffffffffffffe0015191505073ffffffffffffffffffffffffffffffffffffffff8116611dd0576040517f08c379a0000000000000000000000000000000000000000000000000000000008152600401610794906141f2565b73ffffffffffffffffffffffffffffffffffffffff811660009081526044602052604090208054600181019091558814611e36576040517f08c379a000000000000000000000000000000000000000000000000000000000815260040161079490614297565b86421115611e70576040517f08c379a000000000000000000000000000000000000000000000000000000000815260040161079490614260565b611e7b818b8b61250f565b50505050505050505050565b600082820183811015610a3a57604080517f08c379a000000000000000000000000000000000000000000000000000000000815260206004820152601b60248201527f536166654d6174683a206164646974696f6e206f766572666c6f770000000000604482015290519081900360640190fd5b600580547fffffffffffffffffffffffffffffffffffffffffffffffffffffffffffffff001660ff92909216919091179055565b3390565b73ffffffffffffffffffffffffffffffffffffffff8316611f9f576040517f08c379a00000000000000000000000000000000000000000000000000000000081526004018080602001828103825260248152602001806145706024913960400191505060405180910390fd5b73ffffffffffffffffffffffffffffffffffffffff821661200b576040517f08c379a000000000000000000000000000000000000000000000000000000000815260040180806020018281038252602281526020018061446b6022913960400191505060405180910390fd5b73ffffffffffffffffffffffffffffffffffffffff808416600081815260016020908152604080832094871680845294825291829020859055815185815291517f8c5be1e5ebec7d5bd14f71427d1e84f3dd0314c0f7b2291e5b200ac8c7c3b9259281900390910190a3505050565b6000610a3a83836040518060400160405280601e81526020017f536166654d6174683a207375627472616374696f6e206f766572666c6f77000081525061245e565b6000806120cd853086611296610757565b73ffffffffffffffffffffffffffffffffffffffff86166000908152603d6020526040812054919250906121019083611e87565b905081156116505783156121385773ffffffffffffffffffffffffffffffffffffffff86166000908152603d602052604090208190555b7f2468f9268c60ad90e2d49edb0032c8a001e733ae888b3ab8e982edf535be1a76868360405161216992919061406c565b60405180910390a195945050505050565b73ffffffffffffffffffffffffffffffffffffffff82166121e6576040517f08c379a000000000000000000000000000000000000000000000000000000000815260040180806020018281038252602181526020018061452a6021913960400191505060405180910390fd5b6121f282600083612fd7565b61223c816040518060600160405280602281526020016144496022913973ffffffffffffffffffffffffffffffffffffffff8516600090815260208190526040902054919061245e565b73ffffffffffffffffffffffffffffffffffffffff831660009081526020819052604090205560025461226f908261207a565b60025560408051828152905160009173ffffffffffffffffffffffffffffffffffffffff8516917fddf252ad1be2c89b69c2b068fc378daa952ba7f163c4a11628f55a4df523b3ef9181900360200190a35050565b6040805173ffffffffffffffffffffffffffffffffffffffff8416602482015260448082018490528251808303909101815260649091019091526020810180517bffffffffffffffffffffffffffffffffffffffffffffffffffffffff167fa9059cbb0000000000000000000000000000000000000000000000000000000017905261162c90849061315b565b600061235c84610bfc565b905061236a848260016120bc565b508273ffffffffffffffffffffffffffffffffffffffff168473ffffffffffffffffffffffffffffffffffffffff161461244d5760006123a984610bfc565b90506123b7848260016120bc565b5073ffffffffffffffffffffffffffffffffffffffff85166000908152603e60205260409020546123ea81858785611b82565b73ffffffffffffffffffffffffffffffffffffffff86166000908152603e6020526040902055828414801561241e57508015155b1561244a5773ffffffffffffffffffffffffffffffffffffffff86166000908152603e60205260408120555b50505b612458848484613399565b50505050565b60008184841115612507576040517f08c379a00000000000000000000000000000000000000000000000000000000081526004018080602001828103825283818151815260200191508051906020019080838360005b838110156124cc5781810151838201526020016124b4565b50505050905090810190601f1680156124f95780820380516001836020036101000a031916815260200191505b509250505060405180910390fd5b505050900390565b73ffffffffffffffffffffffffffffffffffffffff821661259157604080517f08c379a000000000000000000000000000000000000000000000000000000000815260206004820152601160248201527f494e56414c49445f44454c454741544545000000000000000000000000000000604482015290519081900360640190fd5b600061259c82612692565b9250505060006125ab85610bfc565b905060006125b986846126cc565b73ffffffffffffffffffffffffffffffffffffffff878116600090815260208690526040902080547fffffffffffffffffffffffff000000000000000000000000000000000000000016918816919091179055905061261a81868487613569565b8473ffffffffffffffffffffffffffffffffffffffff168673ffffffffffffffffffffffffffffffffffffffff167fe8d51c8e11bd570db1734c8ec775785330e77007feed45c43b608ef33ff914bd866040518082600181111561267a57fe5b815260200191505060405180910390a3505050505050565b60008080808460018111156126a357fe5b14156126b957506006915060079050603f6126c5565b50604091506041905060425b9193909250565b73ffffffffffffffffffffffffffffffffffffffff80831660009081526020839052604081205490911680610a3a5783915050610751565b600290565b600080805b835181101561282f576000603c600086848151811061272957fe5b6020908102919091018101515173ffffffffffffffffffffffffffffffffffffffff16825281019190915260400160009081206001810154815488519294506127b4926fffffffffffffffffffffffffffffffff80831692700100000000000000000000000000000000900416908a90889081106127a357fe5b602002602001015160400151613861565b905061282361281c8785815181106127c857fe5b602002602001015160200151838560020160008c73ffffffffffffffffffffffffffffffffffffffff1673ffffffffffffffffffffffffffffffffffffffff16815260200190815260200160002054613975565b8590611e87565b9350505060010161270e565b509392505050565b6040805173ffffffffffffffffffffffffffffffffffffffff80861660248301528416604482015260648082018490528251808303909101815260849091019091526020810180517bffffffffffffffffffffffffffffffffffffffffffffffffffffffff167f23b872dd0000000000000000000000000000000000000000000000000000000017905261245890859061315b565b73ffffffffffffffffffffffffffffffffffffffff8084166000908152603c602090815260408083209388168352600284019091528120549091908280612914888588612ad6565b90508083146129995786156129315761292e878285613975565b91505b73ffffffffffffffffffffffffffffffffffffffff808a1660008181526002870160205260409081902084905551918a16917fbb123b5c06d5408bbea3c4fef481578175cfb432e3b482c6186f02ed9086585b9061299090859061409d565b60405180910390a35b50979650505050505050565b73ffffffffffffffffffffffffffffffffffffffff8216612a2757604080517f08c379a000000000000000000000000000000000000000000000000000000000815260206004820152601f60248201527f45524332303a206d696e7420746f20746865207a65726f206164647265737300604482015290519081900360640190fd5b612a3360008383612fd7565b600254612a409082611e87565b60025573ffffffffffffffffffffffffffffffffffffffff8216600090815260208190526040902054612a739082611e87565b73ffffffffffffffffffffffffffffffffffffffff83166000818152602081815260408083209490945583518581529351929391927fddf252ad1be2c89b69c2b068fc378daa952ba7f163c4a11628f55a4df523b3ef9281900390910190a35050565b600182015482546000919070010000000000000000000000000000000090046fffffffffffffffffffffffffffffffff1642811415612b1757509050610a3a565b8454600090612b3b9084906fffffffffffffffffffffffffffffffff168488613861565b9050828114612b9c578086600101819055508673ffffffffffffffffffffffffffffffffffffffff167f5777ca300dfe5bead41006fbce4389794dbc0ed8d6cccebfaf94630aa04184bc82604051612b93919061409d565b60405180910390a25b85546fffffffffffffffffffffffffffffffff428116700100000000000000000000000000000000029116178655925050509392505050565b600043821115612c4657604080517f08c379a000000000000000000000000000000000000000000000000000000000815260206004820152601460248201527f494e56414c49445f424c4f434b5f4e554d424552000000000000000000000000604482015290519081900360640190fd5b73ffffffffffffffffffffffffffffffffffffffff831660009081526020859052604090205480612c8257612c7a84610bfc565b915050610bf4565b73ffffffffffffffffffffffffffffffffffffffff84166000908152602087815260408083207fffffffffffffffffffffffffffffffffffffffffffffffffffffffffffffffff850184529091529020546fffffffffffffffffffffffffffffffff168310612d6a5773ffffffffffffffffffffffffffffffffffffffff84166000908152602087815260408083207fffffffffffffffffffffffffffffffffffffffffffffffffffffffffffffffff909401835292905220546fffffffffffffffffffffffffffffffff700100000000000000000000000000000000909104169050610bf4565b73ffffffffffffffffffffffffffffffffffffffff84166000908152602087815260408083208380529091529020546fffffffffffffffffffffffffffffffff16831015612dbc576000915050610bf4565b60007fffffffffffffffffffffffffffffffffffffffffffffffffffffffffffffffff82015b81811115612ec1576002828203048103612dfa613c27565b5073ffffffffffffffffffffffffffffffffffffffff8716600090815260208a815260408083208484528252918290208251808401909352546fffffffffffffffffffffffffffffffff8082168085527001000000000000000000000000000000009092041691830191909152871415612e9057602001516fffffffffffffffffffffffffffffffff169450610bf49350505050565b80516fffffffffffffffffffffffffffffffff16871115612eb357819350612eba565b6001820392505b5050612de2565b5073ffffffffffffffffffffffffffffffffffffffff851660009081526020888152604080832093835292905220546fffffffffffffffffffffffffffffffff70010000000000000000000000000000000090910416915050949350505050565b600082612f3157506000610751565b82820282848281612f3e57fe5b0414610a3a576040517f08c379a00000000000000000000000000000000000000000000000000000000081526004018080602001828103825260218152602001806144b36021913960400191505060405180910390fd5b6000610a3a83836040518060400160405280601a81526020017f536166654d6174683a206469766973696f6e206279207a65726f000000000000815250613997565b73ffffffffffffffffffffffffffffffffffffffff8084166000908152603f6020526040808220548584168352912054908216911681613015578491505b73ffffffffffffffffffffffffffffffffffffffff81166130335750825b6130408282856000613569565b73ffffffffffffffffffffffffffffffffffffffff80861660009081526042602052604080822054878416835291205490821691168161307e578691505b73ffffffffffffffffffffffffffffffffffffffff811661309c5750845b6130a98282876001613569565b60085473ffffffffffffffffffffffffffffffffffffffff168015613151576040517f4a39314900000000000000000000000000000000000000000000000000000000815273ffffffffffffffffffffffffffffffffffffffff821690634a3931499061311e908b908b908b9060040161403b565b600060405180830381600087803b15801561313857600080fd5b505af115801561314c573d6000803e3d6000fd5b505050505b5050505050505050565b61317a8273ffffffffffffffffffffffffffffffffffffffff16613a16565b6131e557604080517f08c379a000000000000000000000000000000000000000000000000000000000815260206004820152601f60248201527f5361666545524332303a2063616c6c20746f206e6f6e2d636f6e747261637400604482015290519081900360640190fd5b600060608373ffffffffffffffffffffffffffffffffffffffff16836040518082805190602001908083835b6020831061324e57805182527fffffffffffffffffffffffffffffffffffffffffffffffffffffffffffffffe09092019160209182019101613211565b6001836020036101000a0380198251168184511680821785525050505050509050019150506000604051808303816000865af19150503d80600081146132b0576040519150601f19603f3d011682016040523d82523d6000602084013e6132b5565b606091505b50915091508161332657604080517f08c379a000000000000000000000000000000000000000000000000000000000815260206004820181905260248201527f5361666545524332303a206c6f772d6c6576656c2063616c6c206661696c6564604482015290519081900360640190fd5b8051156124585780806020019051602081101561334257600080fd5b5051612458576040517f08c379a000000000000000000000000000000000000000000000000000000000815260040180806020018281038252602a815260200180614594602a913960400191505060405180910390fd5b73ffffffffffffffffffffffffffffffffffffffff8316613405576040517f08c379a000000000000000000000000000000000000000000000000000000000815260040180806020018281038252602581526020018061454b6025913960400191505060405180910390fd5b73ffffffffffffffffffffffffffffffffffffffff8216613471576040517f08c379a00000000000000000000000000000000000000000000000000000000081526004018080602001828103825260238152602001806144266023913960400191505060405180910390fd5b61347c838383612fd7565b6134c68160405180606001604052806026815260200161448d6026913973ffffffffffffffffffffffffffffffffffffffff8616600090815260208190526040902054919061245e565b73ffffffffffffffffffffffffffffffffffffffff80851660009081526020819052604080822093909355908416815220546135029082611e87565b73ffffffffffffffffffffffffffffffffffffffff8084166000818152602081815260409182902094909455805185815290519193928716927fddf252ad1be2c89b69c2b068fc378daa952ba7f163c4a11628f55a4df523b3ef92918290030190a3505050565b8273ffffffffffffffffffffffffffffffffffffffff168473ffffffffffffffffffffffffffffffffffffffff1614156135a257612458565b6000806135ae83612692565b50909250905073ffffffffffffffffffffffffffffffffffffffff8616156137095773ffffffffffffffffffffffffffffffffffffffff8616600090815260208290526040812054801561367a5773ffffffffffffffffffffffffffffffffffffffff88166000908152602085815260408083207fffffffffffffffffffffffffffffffffffffffffffffffffffffffffffffffff8501845290915290205470010000000000000000000000000000000090046fffffffffffffffffffffffffffffffff169150613686565b61368388610bfc565b91505b61369c84848a85613697818c61207a565b613a4f565b73ffffffffffffffffffffffffffffffffffffffff88167fa0a19463ee116110c9b282012d9b65cc5522dc38a9520340cbaf3142e550127f6136de848961207a565b87604051808381526020018260018111156136f557fe5b81526020019250505060405180910390a250505b73ffffffffffffffffffffffffffffffffffffffff8516156138595773ffffffffffffffffffffffffffffffffffffffff851660009081526020829052604081205480156137cf5773ffffffffffffffffffffffffffffffffffffffff87166000908152602085815260408083207fffffffffffffffffffffffffffffffffffffffffffffffffffffffffffffffff8501845290915290205470010000000000000000000000000000000090046fffffffffffffffffffffffffffffffff1691506137db565b6137d887610bfc565b91505b6137ec84848985613697818c611e87565b73ffffffffffffffffffffffffffffffffffffffff87167fa0a19463ee116110c9b282012d9b65cc5522dc38a9520340cbaf3142e550127f61382e8489611e87565b876040518083815260200182600181111561384557fe5b81526020019250505060405180910390a250505b505050505050565b600083158061386e575081155b8061388a575042836fffffffffffffffffffffffffffffffff16145b806138c757507f0000000000000000000000000000000000000000000000000000000000000000836fffffffffffffffffffffffffffffffff1610155b156138d3575083610bf4565b60007f000000000000000000000000000000000000000000000000000000000000000042116139025742613924565b7f00000000000000000000000000000000000000000000000000000000000000005b90506000613944826fffffffffffffffffffffffffffffffff871661207a565b905061396a87611c6a86611c70670de0b6b3a76400006139648c88612f22565b90612f22565b979650505050505050565b6000610bf4670de0b6b3a7640000611c70613990868661207a565b8790612f22565b60008183613a00576040517f08c379a00000000000000000000000000000000000000000000000000000000081526020600482018181528351602484015283519092839260449091019190850190808383600083156124cc5781810151838201526020016124b4565b506000838581613a0c57fe5b0495945050505050565b6000813f7fc5d2460186f7233c927e7db2dcc703c0e500b653ca82273b7bfad8045d85a470818114801590610bf4575050151592915050565b73ffffffffffffffffffffffffffffffffffffffff831660009081526020858152604080832054918890529091204391908115801590613ad457507fffffffffffffffffffffffffffffffffffffffffffffffffffffffffffffffff82016000908152602082905260409020546fffffffffffffffffffffffffffffffff8481169116145b15613b3d577fffffffffffffffffffffffffffffffffffffffffffffffffffffffffffffffff8201600090815260208290526040902080546fffffffffffffffffffffffffffffffff808716700100000000000000000000000000000000029116179055613151565b6040805180820182526fffffffffffffffffffffffffffffffff8086168252868116602080840191825260008781528682528581209451855493518516700100000000000000000000000000000000029085167fffffffffffffffffffffffffffffffff00000000000000000000000000000000909416939093179093169190911790925573ffffffffffffffffffffffffffffffffffffffff8916815290899052206001830190555050505050505050565b6040518060600160405280600073ffffffffffffffffffffffffffffffffffffffff16815260200160008152602001600081525090565b604080518082019091526000808252602082015290565b803573ffffffffffffffffffffffffffffffffffffffff81168114610c2357600080fd5b803560028110610c2357600080fd5b803560ff81168114610c2357600080fd5b600060208284031215613c93578081fd5b610a3a82613c3e565b60008060408385031215613cae578081fd5b613cb783613c3e565b9150613cc560208401613c3e565b90509250929050565b600080600060608486031215613ce2578081fd5b613ceb84613c3e565b9250613cf960208501613c3e565b9150604084013590509250925092565b600080600080600080600060e0888a031215613d23578283fd5b613d2c88613c3e565b9650613d3a60208901613c3e565b95506040880135945060608801359350613d5660808901613c71565b925060a0880135915060c0880135905092959891949750929550565b60008060408385031215613d84578182fd5b613d8d83613c3e565b9150613cc560208401613c62565b600080600080600080600060e0888a031215613db5578283fd5b613dbe88613c3e565b9650613d3a60208901613c62565b60008060408385031215613dde578182fd5b613de783613c3e565b946020939093013593505050565b600080600060608486031215613e09578283fd5b613e1284613c3e565b925060208401359150613e2760408501613c62565b90509250925092565b60008060008060008060c08789031215613e48578182fd5b613e5187613c3e565b95506020870135945060408701359350613e6d60608801613c71565b92506080870135915060a087013590509295509295509295565b60008060208385031215613e99578182fd5b823567ffffffffffffffff80821115613eb0578384fd5b818501915085601f830112613ec3578384fd5b813581811115613ed1578485fd5b866020606083028501011115613ee5578485fd5b60209290920196919550909350505050565b600060208284031215613f08578081fd5b81356fffffffffffffffffffffffffffffffff81168114610a3a578182fd5b600060208284031215613f38578081fd5b5035919050565b60008060008060808587031215613f54578182fd5b8435935060208501359250613f6b60408601613c3e565b9396929550929360600135925050565b60008151808452815b81811015613fa057602081850181015186830182015201613f84565b81811115613fb15782602083870101525b50601f017fffffffffffffffffffffffffffffffffffffffffffffffffffffffffffffffe0169290920160200192915050565b7f190100000000000000000000000000000000000000000000000000000000000081526002810192909252602282015260420190565b73ffffffffffffffffffffffffffffffffffffffff91909116815260200190565b73ffffffffffffffffffffffffffffffffffffffff9384168152919092166020820152604081019190915260600190565b73ffffffffffffffffffffffffffffffffffffffff929092168252602082015260400190565b901515815260200190565b90815260200190565b95865273ffffffffffffffffffffffffffffffffffffffff94851660208701529290931660408501526060840152608083019190915260a082015260c00190565b93845273ffffffffffffffffffffffffffffffffffffffff9290921660208401526040830152606082015260800190565b94855273ffffffffffffffffffffffffffffffffffffffff93909316602085015260408401919091526060830152608082015260a00190565b94855260208501939093526040840191909152606083015273ffffffffffffffffffffffffffffffffffffffff16608082015260a00190565b93845260ff9290921660208401526040830152606082015260800190565b600060208252610a3a6020830184613f7b565b60208082526013908201527f494e56414c49445f5a45524f5f414d4f554e5400000000000000000000000000604082015260600190565b60208082526011908201527f494e56414c49445f5349474e4154555245000000000000000000000000000000604082015260600190565b60208082526015908201527f494e53554646494349454e545f434f4f4c444f574e0000000000000000000000604082015260600190565b60208082526012908201527f494e56414c49445f45585049524154494f4e0000000000000000000000000000604082015260600190565b6020808252600d908201527f494e56414c49445f4e4f4e434500000000000000000000000000000000000000604082015260600190565b60208082526015908201527f4f4e4c595f454d495353494f4e5f4d414e414745520000000000000000000000604082015260600190565b6020808252600d908201527f494e56414c49445f4f574e455200000000000000000000000000000000000000604082015260600190565b60208082526017908201527f554e5354414b455f57494e444f575f46494e4953484544000000000000000000604082015260600190565b6020808252601b908201527f494e56414c49445f42414c414e43455f4f4e5f434f4f4c444f574e0000000000604082015260600190565b6fffffffffffffffffffffffffffffffff91909116815260200190565b6fffffffffffffffffffffffffffffffff92831681529116602082015260400190565b6fffffffffffffffffffffffffffffffff9384168152919092166020820152604081019190915260600190565b60ff9190911681526020019056fe45524332303a207472616e7366657220746f20746865207a65726f206164647265737345524332303a206275726e20616d6f756e7420657863656564732062616c616e636545524332303a20617070726f766520746f20746865207a65726f206164647265737345524332303a207472616e7366657220616d6f756e7420657863656564732062616c616e6365536166654d6174683a206d756c7469706c69636174696f6e206f766572666c6f7745524332303a207472616e7366657220616d6f756e74206578636565647320616c6c6f77616e6365436f6e747261637420696e7374616e63652068617320616c7265616479206265656e20696e697469616c697a656445524332303a206275726e2066726f6d20746865207a65726f206164647265737345524332303a207472616e736665722066726f6d20746865207a65726f206164647265737345524332303a20617070726f76652066726f6d20746865207a65726f20616464726573735361666545524332303a204552433230206f7065726174696f6e20646964206e6f74207375636365656445524332303a2064656372656173656420616c6c6f77616e63652062656c6f77207a65726fa2646970667358221220429852e7a0def53a34ad922b7e3d08d6dddc39a9398aa3132648753531de835764736f6c63430007050033","opcodes":"PUSH2 0x160 PUSH1 0x40 MSTORE PUSH1 0x0 PUSH1 0x9 SSTORE CALLVALUE DUP1 ISZERO PUSH3 0x17 JUMPI PUSH1 0x0 DUP1 REVERT JUMPDEST POP PUSH1 0x40 MLOAD PUSH3 0x4A1E CODESIZE SUB DUP1 PUSH3 0x4A1E DUP4 CODECOPY DUP2 ADD PUSH1 0x40 DUP2 SWAP1 MSTORE PUSH3 0x3A SWAP2 PUSH3 0x299 JUMP JUMPDEST DUP8 DUP8 DUP8 DUP8 DUP8 DUP8 DUP8 PUSH1 0x40 MLOAD DUP1 PUSH1 0x40 ADD PUSH1 0x40 MSTORE DUP1 PUSH1 0xB DUP2 MSTORE PUSH1 0x20 ADD PUSH11 0x5374616B65642041617665 PUSH1 0xA8 SHL DUP2 MSTORE POP PUSH1 0x40 MLOAD DUP1 PUSH1 0x40 ADD PUSH1 0x40 MSTORE DUP1 PUSH1 0x7 DUP2 MSTORE PUSH1 0x20 ADD PUSH7 0x73746B41415645 PUSH1 0xC8 SHL DUP2 MSTORE POP PUSH1 0x12 DUP11 DUP6 DUP6 PUSH1 0x1 PUSH1 0x1 PUSH1 0x80 SHL SUB AND DUP6 DUP6 DUP2 PUSH1 0x3 SWAP1 DUP1 MLOAD SWAP1 PUSH1 0x20 ADD SWAP1 PUSH3 0xAD SWAP3 SWAP2 SWAP1 PUSH3 0x1ED JUMP JUMPDEST POP DUP1 MLOAD PUSH3 0xC3 SWAP1 PUSH1 0x4 SWAP1 PUSH1 0x20 DUP5 ADD SWAP1 PUSH3 0x1ED JUMP JUMPDEST POP POP PUSH1 0x5 DUP1 SLOAD PUSH1 0x12 PUSH1 0xFF NOT SWAP1 SWAP2 AND OR SWAP1 SSTORE POP PUSH3 0xED TIMESTAMP DUP3 PUSH3 0x175 PUSH1 0x20 SWAP1 DUP2 SHL PUSH3 0x1E87 OR SWAP1 SHR JUMP JUMPDEST PUSH1 0x80 MSTORE POP PUSH1 0x60 SWAP1 DUP2 SHL PUSH1 0x1 PUSH1 0x1 PUSH1 0x60 SHL SUB NOT SWAP1 DUP2 AND PUSH1 0xA0 MSTORE DUP13 DUP3 SHL DUP2 AND PUSH1 0xC0 MSTORE DUP12 DUP3 SHL DUP2 AND PUSH1 0xE0 MSTORE PUSH2 0x100 DUP12 SWAP1 MSTORE PUSH2 0x120 DUP11 SWAP1 MSTORE SWAP1 DUP9 SWAP1 SHL AND PUSH2 0x140 MSTORE PUSH1 0x8 DUP1 SLOAD PUSH1 0x1 PUSH1 0x1 PUSH1 0xA0 SHL SUB NOT AND PUSH1 0x1 PUSH1 0x1 PUSH1 0xA0 SHL SUB DUP4 AND OR SWAP1 SSTORE PUSH3 0x15C DUP3 PUSH3 0x1D7 PUSH1 0x20 SWAP1 DUP2 SHL PUSH3 0x1EFB OR SWAP1 SHR JUMP JUMPDEST POP POP POP POP POP POP POP POP POP POP POP POP POP POP POP POP POP POP POP PUSH3 0x365 JUMP JUMPDEST PUSH1 0x0 DUP3 DUP3 ADD DUP4 DUP2 LT ISZERO PUSH3 0x1D0 JUMPI PUSH1 0x40 DUP1 MLOAD PUSH3 0x461BCD PUSH1 0xE5 SHL DUP2 MSTORE PUSH1 0x20 PUSH1 0x4 DUP3 ADD MSTORE PUSH1 0x1B PUSH1 0x24 DUP3 ADD MSTORE PUSH32 0x536166654D6174683A206164646974696F6E206F766572666C6F770000000000 PUSH1 0x44 DUP3 ADD MSTORE SWAP1 MLOAD SWAP1 DUP2 SWAP1 SUB PUSH1 0x64 ADD SWAP1 REVERT JUMPDEST SWAP4 SWAP3 POP POP POP JUMP JUMPDEST PUSH1 0x5 DUP1 SLOAD PUSH1 0xFF NOT AND PUSH1 0xFF SWAP3 SWAP1 SWAP3 AND SWAP2 SWAP1 SWAP2 OR SWAP1 SSTORE JUMP JUMPDEST DUP3 DUP1 SLOAD PUSH1 0x1 DUP2 PUSH1 0x1 AND ISZERO PUSH2 0x100 MUL SUB AND PUSH1 0x2 SWAP1 DIV SWAP1 PUSH1 0x0 MSTORE PUSH1 0x20 PUSH1 0x0 KECCAK256 SWAP1 PUSH1 0x1F ADD PUSH1 0x20 SWAP1 DIV DUP2 ADD SWAP3 DUP3 PUSH3 0x225 JUMPI PUSH1 0x0 DUP6 SSTORE PUSH3 0x270 JUMP JUMPDEST DUP3 PUSH1 0x1F LT PUSH3 0x240 JUMPI DUP1 MLOAD PUSH1 0xFF NOT AND DUP4 DUP1 ADD OR DUP6 SSTORE PUSH3 0x270 JUMP JUMPDEST DUP3 DUP1 ADD PUSH1 0x1 ADD DUP6 SSTORE DUP3 ISZERO PUSH3 0x270 JUMPI SWAP2 DUP3 ADD JUMPDEST DUP3 DUP2 GT ISZERO PUSH3 0x270 JUMPI DUP3 MLOAD DUP3 SSTORE SWAP2 PUSH1 0x20 ADD SWAP2 SWAP1 PUSH1 0x1 ADD SWAP1 PUSH3 0x253 JUMP JUMPDEST POP PUSH3 0x27E SWAP3 SWAP2 POP PUSH3 0x282 JUMP JUMPDEST POP SWAP1 JUMP JUMPDEST JUMPDEST DUP1 DUP3 GT ISZERO PUSH3 0x27E JUMPI PUSH1 0x0 DUP2 SSTORE PUSH1 0x1 ADD PUSH3 0x283 JUMP JUMPDEST PUSH1 0x0 DUP1 PUSH1 0x0 DUP1 PUSH1 0x0 DUP1 PUSH1 0x0 DUP1 PUSH2 0x100 DUP10 DUP12 SUB SLT ISZERO PUSH3 0x2B6 JUMPI DUP4 DUP5 REVERT JUMPDEST DUP9 MLOAD PUSH3 0x2C3 DUP2 PUSH3 0x34C JUMP JUMPDEST PUSH1 0x20 DUP11 ADD MLOAD SWAP1 SWAP9 POP PUSH3 0x2D6 DUP2 PUSH3 0x34C JUMP JUMPDEST DUP1 SWAP8 POP POP PUSH1 0x40 DUP10 ADD MLOAD SWAP6 POP PUSH1 0x60 DUP10 ADD MLOAD SWAP5 POP PUSH1 0x80 DUP10 ADD MLOAD PUSH3 0x2F8 DUP2 PUSH3 0x34C JUMP JUMPDEST PUSH1 0xA0 DUP11 ADD MLOAD SWAP1 SWAP5 POP PUSH3 0x30B DUP2 PUSH3 0x34C JUMP JUMPDEST PUSH1 0xC0 DUP11 ADD MLOAD SWAP1 SWAP4 POP PUSH1 0x1 PUSH1 0x1 PUSH1 0x80 SHL SUB DUP2 AND DUP2 EQ PUSH3 0x328 JUMPI DUP3 DUP4 REVERT JUMPDEST PUSH1 0xE0 DUP11 ADD MLOAD SWAP1 SWAP3 POP PUSH3 0x33B DUP2 PUSH3 0x34C JUMP JUMPDEST DUP1 SWAP2 POP POP SWAP3 SWAP6 SWAP9 POP SWAP3 SWAP6 SWAP9 SWAP1 SWAP4 SWAP7 POP JUMP JUMPDEST PUSH1 0x1 PUSH1 0x1 PUSH1 0xA0 SHL SUB DUP2 AND DUP2 EQ PUSH3 0x362 JUMPI PUSH1 0x0 DUP1 REVERT JUMPDEST POP JUMP JUMPDEST PUSH1 0x80 MLOAD PUSH1 0xA0 MLOAD PUSH1 0x60 SHR PUSH1 0xC0 MLOAD PUSH1 0x60 SHR PUSH1 0xE0 MLOAD PUSH1 0x60 SHR PUSH2 0x100 MLOAD PUSH2 0x120 MLOAD PUSH2 0x140 MLOAD PUSH1 0x60 SHR PUSH2 0x4618 PUSH3 0x406 PUSH1 0x0 CODECOPY DUP1 PUSH2 0xF4F MSTORE DUP1 PUSH2 0x10FF MSTORE POP DUP1 PUSH2 0x811 MSTORE DUP1 PUSH2 0xAD1 MSTORE DUP1 PUSH2 0x1BBE MSTORE POP DUP1 PUSH2 0x7B3 MSTORE DUP1 PUSH2 0x839 MSTORE DUP1 PUSH2 0xC2A MSTORE DUP1 PUSH2 0x1BE3 MSTORE POP DUP1 PUSH2 0xFFC MSTORE DUP1 PUSH2 0x10C8 MSTORE POP DUP1 PUSH2 0x90C MSTORE DUP1 PUSH2 0xA67 MSTORE DUP1 PUSH2 0x138A MSTORE POP DUP1 PUSH2 0x1427 MSTORE DUP1 PUSH2 0x18B4 MSTORE POP DUP1 PUSH2 0xF2B MSTORE DUP1 PUSH2 0x3892 MSTORE DUP1 PUSH2 0x38D7 MSTORE DUP1 PUSH2 0x3904 MSTORE POP PUSH2 0x4618 PUSH1 0x0 RETURN INVALID PUSH1 0x80 PUSH1 0x40 MSTORE CALLVALUE DUP1 ISZERO PUSH2 0x10 JUMPI PUSH1 0x0 DUP1 REVERT JUMPDEST POP PUSH1 0x4 CALLDATASIZE LT PUSH2 0x336 JUMPI PUSH1 0x0 CALLDATALOAD PUSH1 0xE0 SHR DUP1 PUSH4 0x919CD40F GT PUSH2 0x1B2 JUMPI DUP1 PUSH4 0xB2F4201D GT PUSH2 0xF9 JUMPI DUP1 PUSH4 0xD505ACCF GT PUSH2 0xA2 JUMPI DUP1 PUSH4 0xDDE43CBA GT PUSH2 0x7C JUMPI DUP1 PUSH4 0xDDE43CBA EQ PUSH2 0x623 JUMPI DUP1 PUSH4 0xF11B8188 EQ PUSH2 0x62B JUMPI DUP1 PUSH4 0xF1CC432A EQ PUSH2 0x64D JUMPI DUP1 PUSH4 0xF713D8A8 EQ PUSH2 0x660 JUMPI PUSH2 0x336 JUMP JUMPDEST DUP1 PUSH4 0xD505ACCF EQ PUSH2 0x5EA JUMPI DUP1 PUSH4 0xDC937E1C EQ PUSH2 0x5FD JUMPI DUP1 PUSH4 0xDD62ED3E EQ PUSH2 0x610 JUMPI PUSH2 0x336 JUMP JUMPDEST DUP1 PUSH4 0xC3863ADA GT PUSH2 0xD3 JUMPI DUP1 PUSH4 0xC3863ADA EQ PUSH2 0x5C7 JUMPI DUP1 PUSH4 0xC3CDA520 EQ PUSH2 0x5CF JUMPI DUP1 PUSH4 0xCBCBB507 EQ PUSH2 0x5E2 JUMPI PUSH2 0x336 JUMP JUMPDEST DUP1 PUSH4 0xB2F4201D EQ PUSH2 0x58E JUMPI DUP1 PUSH4 0xB9844D8D EQ PUSH2 0x5A1 JUMPI DUP1 PUSH4 0xC2FFBB91 EQ PUSH2 0x5B4 JUMPI PUSH2 0x336 JUMP JUMPDEST DUP1 PUSH4 0xA457C2D7 GT PUSH2 0x15B JUMPI DUP1 PUSH4 0xAAF5EB68 GT PUSH2 0x135 JUMPI DUP1 PUSH4 0xAAF5EB68 EQ PUSH2 0x560 JUMPI DUP1 PUSH4 0xADC9772E EQ PUSH2 0x568 JUMPI DUP1 PUSH4 0xB2A5DBFA EQ PUSH2 0x57B JUMPI PUSH2 0x336 JUMP JUMPDEST DUP1 PUSH4 0xA457C2D7 EQ PUSH2 0x532 JUMPI DUP1 PUSH4 0xA9059CBB EQ PUSH2 0x545 JUMPI DUP1 PUSH4 0xAA9FBE02 EQ PUSH2 0x558 JUMPI PUSH2 0x336 JUMP JUMPDEST DUP1 PUSH4 0x981B24D0 GT PUSH2 0x18C JUMPI DUP1 PUSH4 0x981B24D0 EQ PUSH2 0x504 JUMPI DUP1 PUSH4 0x99248EA7 EQ PUSH2 0x517 JUMPI DUP1 PUSH4 0x9A99B4F0 EQ PUSH2 0x51F JUMPI PUSH2 0x336 JUMP JUMPDEST DUP1 PUSH4 0x919CD40F EQ PUSH2 0x4EC JUMPI DUP1 PUSH4 0x946776CD EQ PUSH2 0x4F4 JUMPI DUP1 PUSH4 0x95D89B41 EQ PUSH2 0x4FC JUMPI PUSH2 0x336 JUMP JUMPDEST DUP1 PUSH4 0x39509351 GT PUSH2 0x281 JUMPI DUP1 PUSH4 0x72B49D63 GT PUSH2 0x22A JUMPI DUP1 PUSH4 0x7BB73C97 GT PUSH2 0x204 JUMPI DUP1 PUSH4 0x7BB73C97 EQ PUSH2 0x4AB JUMPI DUP1 PUSH4 0x7E90D7EF EQ PUSH2 0x4BE JUMPI DUP1 PUSH4 0x8129FC1C EQ PUSH2 0x4D1 JUMPI DUP1 PUSH4 0x8DBEFEE2 EQ PUSH2 0x4D9 JUMPI PUSH2 0x336 JUMP JUMPDEST DUP1 PUSH4 0x72B49D63 EQ PUSH2 0x493 JUMPI DUP1 PUSH4 0x78160376 EQ PUSH2 0x49B JUMPI DUP1 PUSH4 0x787A08A6 EQ PUSH2 0x4A3 JUMPI PUSH2 0x336 JUMP JUMPDEST DUP1 PUSH4 0x5C19A95C GT PUSH2 0x25B JUMPI DUP1 PUSH4 0x5C19A95C EQ PUSH2 0x45A JUMPI DUP1 PUSH4 0x6F50458D EQ PUSH2 0x46D JUMPI DUP1 PUSH4 0x70A08231 EQ PUSH2 0x480 JUMPI PUSH2 0x336 JUMP JUMPDEST DUP1 PUSH4 0x39509351 EQ PUSH2 0x41E JUMPI DUP1 PUSH4 0x41CBF54A EQ PUSH2 0x431 JUMPI DUP1 PUSH4 0x5B3CC0CF EQ PUSH2 0x439 JUMPI PUSH2 0x336 JUMP JUMPDEST DUP1 PUSH4 0x30ADF81F GT PUSH2 0x2E3 JUMPI DUP1 PUSH4 0x3373EE4C GT PUSH2 0x2BD JUMPI DUP1 PUSH4 0x3373EE4C EQ PUSH2 0x3FB JUMPI DUP1 PUSH4 0x359C4A96 EQ PUSH2 0x40E JUMPI DUP1 PUSH4 0x3644E515 EQ PUSH2 0x416 JUMPI PUSH2 0x336 JUMP JUMPDEST DUP1 PUSH4 0x30ADF81F EQ PUSH2 0x3C9 JUMPI DUP1 PUSH4 0x312F6B83 EQ PUSH2 0x3D1 JUMPI DUP1 PUSH4 0x313CE567 EQ PUSH2 0x3E6 JUMPI PUSH2 0x336 JUMP JUMPDEST DUP1 PUSH4 0x18160DDD GT PUSH2 0x314 JUMPI DUP1 PUSH4 0x18160DDD EQ PUSH2 0x399 JUMPI DUP1 PUSH4 0x1E9A6950 EQ PUSH2 0x3A1 JUMPI DUP1 PUSH4 0x23B872DD EQ PUSH2 0x3B6 JUMPI PUSH2 0x336 JUMP JUMPDEST DUP1 PUSH4 0x6FDDE03 EQ PUSH2 0x33B JUMPI DUP1 PUSH4 0x91030C3 EQ PUSH2 0x359 JUMPI DUP1 PUSH4 0x95EA7B3 EQ PUSH2 0x379 JUMPI JUMPDEST PUSH1 0x0 DUP1 REVERT JUMPDEST PUSH2 0x343 PUSH2 0x673 JUMP JUMPDEST PUSH1 0x40 MLOAD PUSH2 0x350 SWAP2 SWAP1 PUSH2 0x41A8 JUMP JUMPDEST PUSH1 0x40 MLOAD DUP1 SWAP2 SUB SWAP1 RETURN JUMPDEST PUSH2 0x36C PUSH2 0x367 CALLDATASIZE PUSH1 0x4 PUSH2 0x3C82 JUMP JUMPDEST PUSH2 0x727 JUMP JUMPDEST PUSH1 0x40 MLOAD PUSH2 0x350 SWAP2 SWAP1 PUSH2 0x409D JUMP JUMPDEST PUSH2 0x38C PUSH2 0x387 CALLDATASIZE PUSH1 0x4 PUSH2 0x3DCC JUMP JUMPDEST PUSH2 0x739 JUMP JUMPDEST PUSH1 0x40 MLOAD PUSH2 0x350 SWAP2 SWAP1 PUSH2 0x4092 JUMP JUMPDEST PUSH2 0x36C PUSH2 0x757 JUMP JUMPDEST PUSH2 0x3B4 PUSH2 0x3AF CALLDATASIZE PUSH1 0x4 PUSH2 0x3DCC JUMP JUMPDEST PUSH2 0x75D JUMP JUMPDEST STOP JUMPDEST PUSH2 0x38C PUSH2 0x3C4 CALLDATASIZE PUSH1 0x4 PUSH2 0x3CCE JUMP JUMPDEST PUSH2 0x99F JUMP JUMPDEST PUSH2 0x36C PUSH2 0xA41 JUMP JUMPDEST PUSH2 0x3D9 PUSH2 0xA65 JUMP JUMPDEST PUSH1 0x40 MLOAD PUSH2 0x350 SWAP2 SWAP1 PUSH2 0x401A JUMP JUMPDEST PUSH2 0x3EE PUSH2 0xA89 JUMP JUMPDEST PUSH1 0x40 MLOAD PUSH2 0x350 SWAP2 SWAP1 PUSH2 0x4417 JUMP JUMPDEST PUSH2 0x36C PUSH2 0x409 CALLDATASIZE PUSH1 0x4 PUSH2 0x3C9C JUMP JUMPDEST PUSH2 0xA92 JUMP JUMPDEST PUSH2 0x36C PUSH2 0xACF JUMP JUMPDEST PUSH2 0x36C PUSH2 0xAF3 JUMP JUMPDEST PUSH2 0x38C PUSH2 0x42C CALLDATASIZE PUSH1 0x4 PUSH2 0x3DCC JUMP JUMPDEST PUSH2 0xAF9 JUMP JUMPDEST PUSH2 0x36C PUSH2 0xB54 JUMP JUMPDEST PUSH2 0x44C PUSH2 0x447 CALLDATASIZE PUSH1 0x4 PUSH2 0x3DCC JUMP JUMPDEST PUSH2 0xB78 JUMP JUMPDEST PUSH1 0x40 MLOAD PUSH2 0x350 SWAP3 SWAP2 SWAP1 PUSH2 0x43C7 JUMP JUMPDEST PUSH2 0x3B4 PUSH2 0x468 CALLDATASIZE PUSH1 0x4 PUSH2 0x3C82 JUMP JUMPDEST PUSH2 0xBBF JUMP JUMPDEST PUSH2 0x3D9 PUSH2 0x47B CALLDATASIZE PUSH1 0x4 PUSH2 0x3D72 JUMP JUMPDEST PUSH2 0xBDA JUMP JUMPDEST PUSH2 0x36C PUSH2 0x48E CALLDATASIZE PUSH1 0x4 PUSH2 0x3C82 JUMP JUMPDEST PUSH2 0xBFC JUMP JUMPDEST PUSH2 0x36C PUSH2 0xC28 JUMP JUMPDEST PUSH2 0x343 PUSH2 0xC4C JUMP JUMPDEST PUSH2 0x3B4 PUSH2 0xC85 JUMP JUMPDEST PUSH2 0x36C PUSH2 0x4B9 CALLDATASIZE PUSH1 0x4 PUSH2 0x3C82 JUMP JUMPDEST PUSH2 0xCFE JUMP JUMPDEST PUSH2 0x36C PUSH2 0x4CC CALLDATASIZE PUSH1 0x4 PUSH2 0x3C82 JUMP JUMPDEST PUSH2 0xD10 JUMP JUMPDEST PUSH2 0x3B4 PUSH2 0xD22 JUMP JUMPDEST PUSH2 0x36C PUSH2 0x4E7 CALLDATASIZE PUSH1 0x4 PUSH2 0x3C82 JUMP JUMPDEST PUSH2 0xE60 JUMP JUMPDEST PUSH2 0x36C PUSH2 0xF29 JUMP JUMPDEST PUSH2 0x3D9 PUSH2 0xF4D JUMP JUMPDEST PUSH2 0x343 PUSH2 0xF71 JUMP JUMPDEST PUSH2 0x36C PUSH2 0x512 CALLDATASIZE PUSH1 0x4 PUSH2 0x3F27 JUMP JUMPDEST PUSH2 0xFF0 JUMP JUMPDEST PUSH2 0x3D9 PUSH2 0xFFA JUMP JUMPDEST PUSH2 0x3B4 PUSH2 0x52D CALLDATASIZE PUSH1 0x4 PUSH2 0x3DCC JUMP JUMPDEST PUSH2 0x101E JUMP JUMPDEST PUSH2 0x38C PUSH2 0x540 CALLDATASIZE PUSH1 0x4 PUSH2 0x3DCC JUMP JUMPDEST PUSH2 0x1190 JUMP JUMPDEST PUSH2 0x38C PUSH2 0x553 CALLDATASIZE PUSH1 0x4 PUSH2 0x3DCC JUMP JUMPDEST PUSH2 0x1205 JUMP JUMPDEST PUSH2 0x36C PUSH2 0x1219 JUMP JUMPDEST PUSH2 0x3EE PUSH2 0x123D JUMP JUMPDEST PUSH2 0x3B4 PUSH2 0x576 CALLDATASIZE PUSH1 0x4 PUSH2 0x3DCC JUMP JUMPDEST PUSH2 0x1242 JUMP JUMPDEST PUSH2 0x3B4 PUSH2 0x589 CALLDATASIZE PUSH1 0x4 PUSH2 0x3E87 JUMP JUMPDEST PUSH2 0x140F JUMP JUMPDEST PUSH2 0x36C PUSH2 0x59C CALLDATASIZE PUSH1 0x4 PUSH2 0x3D72 JUMP JUMPDEST PUSH2 0x1631 JUMP JUMPDEST PUSH2 0x36C PUSH2 0x5AF CALLDATASIZE PUSH1 0x4 PUSH2 0x3C82 JUMP JUMPDEST PUSH2 0x1659 JUMP JUMPDEST PUSH2 0x36C PUSH2 0x5C2 CALLDATASIZE PUSH1 0x4 PUSH2 0x3DF5 JUMP JUMPDEST PUSH2 0x166B JUMP JUMPDEST PUSH2 0x3D9 PUSH2 0x1694 JUMP JUMPDEST PUSH2 0x3B4 PUSH2 0x5DD CALLDATASIZE PUSH1 0x4 PUSH2 0x3E30 JUMP JUMPDEST PUSH2 0x16B0 JUMP JUMPDEST PUSH2 0x3D9 PUSH2 0x18B2 JUMP JUMPDEST PUSH2 0x3B4 PUSH2 0x5F8 CALLDATASIZE PUSH1 0x4 PUSH2 0x3D09 JUMP JUMPDEST PUSH2 0x18D6 JUMP JUMPDEST PUSH2 0x3B4 PUSH2 0x60B CALLDATASIZE PUSH1 0x4 PUSH2 0x3D72 JUMP JUMPDEST PUSH2 0x1AF2 JUMP JUMPDEST PUSH2 0x36C PUSH2 0x61E CALLDATASIZE PUSH1 0x4 PUSH2 0x3C9C JUMP JUMPDEST PUSH2 0x1B01 JUMP JUMPDEST PUSH2 0x36C PUSH2 0x1B39 JUMP JUMPDEST PUSH2 0x63E PUSH2 0x639 CALLDATASIZE PUSH1 0x4 PUSH2 0x3C82 JUMP JUMPDEST PUSH2 0x1B3E JUMP JUMPDEST PUSH1 0x40 MLOAD PUSH2 0x350 SWAP4 SWAP3 SWAP2 SWAP1 PUSH2 0x43EA JUMP JUMPDEST PUSH2 0x36C PUSH2 0x65B CALLDATASIZE PUSH1 0x4 PUSH2 0x3F3F JUMP JUMPDEST PUSH2 0x1B82 JUMP JUMPDEST PUSH2 0x3B4 PUSH2 0x66E CALLDATASIZE PUSH1 0x4 PUSH2 0x3D9B JUMP JUMPDEST PUSH2 0x1C84 JUMP JUMPDEST PUSH1 0x3 DUP1 SLOAD PUSH1 0x40 DUP1 MLOAD PUSH1 0x20 PUSH1 0x1F PUSH1 0x2 PUSH32 0xFFFFFFFFFFFFFFFFFFFFFFFFFFFFFFFFFFFFFFFFFFFFFFFFFFFFFFFFFFFFFFFF PUSH2 0x100 PUSH1 0x1 DUP9 AND ISZERO MUL ADD SWAP1 SWAP6 AND SWAP5 SWAP1 SWAP5 DIV SWAP4 DUP5 ADD DUP2 SWAP1 DIV DUP2 MUL DUP3 ADD DUP2 ADD SWAP1 SWAP3 MSTORE DUP3 DUP2 MSTORE PUSH1 0x60 SWAP4 SWAP1 SWAP3 SWAP1 SWAP2 DUP4 ADD DUP3 DUP3 DUP1 ISZERO PUSH2 0x71D JUMPI DUP1 PUSH1 0x1F LT PUSH2 0x6F2 JUMPI PUSH2 0x100 DUP1 DUP4 SLOAD DIV MUL DUP4 MSTORE SWAP2 PUSH1 0x20 ADD SWAP2 PUSH2 0x71D JUMP JUMPDEST DUP3 ADD SWAP2 SWAP1 PUSH1 0x0 MSTORE PUSH1 0x20 PUSH1 0x0 KECCAK256 SWAP1 JUMPDEST DUP2 SLOAD DUP2 MSTORE SWAP1 PUSH1 0x1 ADD SWAP1 PUSH1 0x20 ADD DUP1 DUP4 GT PUSH2 0x700 JUMPI DUP3 SWAP1 SUB PUSH1 0x1F AND DUP3 ADD SWAP2 JUMPDEST POP POP POP POP POP SWAP1 POP SWAP1 JUMP JUMPDEST PUSH1 0x3E PUSH1 0x20 MSTORE PUSH1 0x0 SWAP1 DUP2 MSTORE PUSH1 0x40 SWAP1 KECCAK256 SLOAD DUP2 JUMP JUMPDEST PUSH1 0x0 PUSH2 0x74D PUSH2 0x746 PUSH2 0x1F2F JUMP JUMPDEST DUP5 DUP5 PUSH2 0x1F33 JUMP JUMPDEST POP PUSH1 0x1 JUMPDEST SWAP3 SWAP2 POP POP JUMP JUMPDEST PUSH1 0x2 SLOAD SWAP1 JUMP JUMPDEST DUP1 PUSH2 0x79D JUMPI PUSH1 0x40 MLOAD PUSH32 0x8C379A000000000000000000000000000000000000000000000000000000000 DUP2 MSTORE PUSH1 0x4 ADD PUSH2 0x794 SWAP1 PUSH2 0x41BB JUMP JUMPDEST PUSH1 0x40 MLOAD DUP1 SWAP2 SUB SWAP1 REVERT JUMPDEST CALLER PUSH1 0x0 SWAP1 DUP2 MSTORE PUSH1 0x3E PUSH1 0x20 MSTORE PUSH1 0x40 SWAP1 KECCAK256 SLOAD PUSH2 0x7D7 DUP2 PUSH32 0x0 PUSH2 0x1E87 JUMP JUMPDEST TIMESTAMP GT PUSH2 0x80F JUMPI PUSH1 0x40 MLOAD PUSH32 0x8C379A000000000000000000000000000000000000000000000000000000000 DUP2 MSTORE PUSH1 0x4 ADD PUSH2 0x794 SWAP1 PUSH2 0x4229 JUMP JUMPDEST PUSH32 0x0 PUSH2 0x864 PUSH2 0x85D DUP4 PUSH32 0x0 PUSH2 0x1E87 JUMP JUMPDEST TIMESTAMP SWAP1 PUSH2 0x207A JUMP JUMPDEST GT ISZERO PUSH2 0x89C JUMPI PUSH1 0x40 MLOAD PUSH32 0x8C379A000000000000000000000000000000000000000000000000000000000 DUP2 MSTORE PUSH1 0x4 ADD PUSH2 0x794 SWAP1 PUSH2 0x433C JUMP JUMPDEST PUSH1 0x0 PUSH2 0x8A7 CALLER PUSH2 0xBFC JUMP JUMPDEST SWAP1 POP PUSH1 0x0 DUP2 DUP5 GT PUSH2 0x8B8 JUMPI DUP4 PUSH2 0x8BA JUMP JUMPDEST DUP2 JUMPDEST SWAP1 POP PUSH2 0x8C8 CALLER DUP4 PUSH1 0x1 PUSH2 0x20BC JUMP JUMPDEST POP PUSH2 0x8D3 CALLER DUP3 PUSH2 0x217A JUMP JUMPDEST PUSH2 0x8DD DUP3 DUP3 PUSH2 0x207A JUMP JUMPDEST PUSH2 0x8F2 JUMPI CALLER PUSH1 0x0 SWAP1 DUP2 MSTORE PUSH1 0x3E PUSH1 0x20 MSTORE PUSH1 0x40 DUP2 KECCAK256 SSTORE JUMPDEST PUSH2 0x933 PUSH20 0xFFFFFFFFFFFFFFFFFFFFFFFFFFFFFFFFFFFFFFFF PUSH32 0x0 AND DUP7 DUP4 PUSH2 0x22C4 JUMP JUMPDEST DUP5 PUSH20 0xFFFFFFFFFFFFFFFFFFFFFFFFFFFFFFFFFFFFFFFF AND CALLER PUSH20 0xFFFFFFFFFFFFFFFFFFFFFFFFFFFFFFFFFFFFFFFF AND PUSH32 0xD12200EFA34901B99367694174C3B0D32C99585FDF37C7C26892136DDD0836D9 DUP4 PUSH1 0x40 MLOAD PUSH2 0x990 SWAP2 SWAP1 PUSH2 0x409D JUMP JUMPDEST PUSH1 0x40 MLOAD DUP1 SWAP2 SUB SWAP1 LOG3 POP POP POP POP POP JUMP JUMPDEST PUSH1 0x0 PUSH2 0x9AC DUP5 DUP5 DUP5 PUSH2 0x2351 JUMP JUMPDEST PUSH2 0xA36 DUP5 PUSH2 0x9B8 PUSH2 0x1F2F JUMP JUMPDEST PUSH2 0xA31 DUP6 PUSH1 0x40 MLOAD DUP1 PUSH1 0x60 ADD PUSH1 0x40 MSTORE DUP1 PUSH1 0x28 DUP2 MSTORE PUSH1 0x20 ADD PUSH2 0x44D4 PUSH1 0x28 SWAP2 CODECOPY PUSH20 0xFFFFFFFFFFFFFFFFFFFFFFFFFFFFFFFFFFFFFFFF DUP11 AND PUSH1 0x0 SWAP1 DUP2 MSTORE PUSH1 0x1 PUSH1 0x20 MSTORE PUSH1 0x40 DUP2 KECCAK256 SWAP1 PUSH2 0xA03 PUSH2 0x1F2F JUMP JUMPDEST PUSH20 0xFFFFFFFFFFFFFFFFFFFFFFFFFFFFFFFFFFFFFFFF AND DUP2 MSTORE PUSH1 0x20 DUP2 ADD SWAP2 SWAP1 SWAP2 MSTORE PUSH1 0x40 ADD PUSH1 0x0 KECCAK256 SLOAD SWAP2 SWAP1 PUSH2 0x245E JUMP JUMPDEST PUSH2 0x1F33 JUMP JUMPDEST POP PUSH1 0x1 JUMPDEST SWAP4 SWAP3 POP POP POP JUMP JUMPDEST PUSH32 0x6E71EDAE12B1B97F4D1F60370FEF10105FA2FAAE0126114A169C64845D6126C9 DUP2 JUMP JUMPDEST PUSH32 0x0 DUP2 JUMP JUMPDEST PUSH1 0x5 SLOAD PUSH1 0xFF AND SWAP1 JUMP JUMPDEST PUSH20 0xFFFFFFFFFFFFFFFFFFFFFFFFFFFFFFFFFFFFFFFF DUP1 DUP3 AND PUSH1 0x0 SWAP1 DUP2 MSTORE PUSH1 0x3C PUSH1 0x20 SWAP1 DUP2 MSTORE PUSH1 0x40 DUP1 DUP4 KECCAK256 SWAP4 DUP7 AND DUP4 MSTORE PUSH1 0x2 SWAP1 SWAP4 ADD SWAP1 MSTORE KECCAK256 SLOAD SWAP3 SWAP2 POP POP JUMP JUMPDEST PUSH32 0x0 DUP2 JUMP JUMPDEST PUSH1 0x43 SLOAD DUP2 JUMP JUMPDEST PUSH1 0x0 PUSH2 0x74D PUSH2 0xB06 PUSH2 0x1F2F JUMP JUMPDEST DUP5 PUSH2 0xA31 DUP6 PUSH1 0x1 PUSH1 0x0 PUSH2 0xB17 PUSH2 0x1F2F JUMP JUMPDEST PUSH20 0xFFFFFFFFFFFFFFFFFFFFFFFFFFFFFFFFFFFFFFFF SWAP1 DUP2 AND DUP3 MSTORE PUSH1 0x20 DUP1 DUP4 ADD SWAP4 SWAP1 SWAP4 MSTORE PUSH1 0x40 SWAP2 DUP3 ADD PUSH1 0x0 SWAP1 DUP2 KECCAK256 SWAP2 DUP13 AND DUP2 MSTORE SWAP3 MSTORE SWAP1 KECCAK256 SLOAD SWAP1 PUSH2 0x1E87 JUMP JUMPDEST PUSH32 0x9A9A49B990BA9BB39F8048C490A40AB25C18F55D208D5FBCF958261A9B48716D DUP2 JUMP JUMPDEST PUSH1 0x6 PUSH1 0x20 SWAP1 DUP2 MSTORE PUSH1 0x0 SWAP3 DUP4 MSTORE PUSH1 0x40 DUP1 DUP5 KECCAK256 SWAP1 SWAP2 MSTORE SWAP1 DUP3 MSTORE SWAP1 KECCAK256 SLOAD PUSH16 0xFFFFFFFFFFFFFFFFFFFFFFFFFFFFFFFF DUP1 DUP3 AND SWAP2 PUSH17 0x100000000000000000000000000000000 SWAP1 DIV AND DUP3 JUMP JUMPDEST PUSH2 0xBCB CALLER DUP3 PUSH1 0x0 PUSH2 0x250F JUMP JUMPDEST PUSH2 0xBD7 CALLER DUP3 PUSH1 0x1 PUSH2 0x250F JUMP JUMPDEST POP JUMP JUMPDEST PUSH1 0x0 DUP1 PUSH2 0xBE6 DUP4 PUSH2 0x2692 JUMP JUMPDEST SWAP3 POP POP POP PUSH2 0xBF4 DUP5 DUP3 PUSH2 0x26CC JUMP JUMPDEST SWAP5 SWAP4 POP POP POP POP JUMP JUMPDEST PUSH20 0xFFFFFFFFFFFFFFFFFFFFFFFFFFFFFFFFFFFFFFFF DUP2 AND PUSH1 0x0 SWAP1 DUP2 MSTORE PUSH1 0x20 DUP2 SWAP1 MSTORE PUSH1 0x40 SWAP1 KECCAK256 SLOAD JUMPDEST SWAP2 SWAP1 POP JUMP JUMPDEST PUSH32 0x0 DUP2 JUMP JUMPDEST PUSH1 0x40 MLOAD DUP1 PUSH1 0x40 ADD PUSH1 0x40 MSTORE DUP1 PUSH1 0x1 DUP2 MSTORE PUSH1 0x20 ADD PUSH32 0x3100000000000000000000000000000000000000000000000000000000000000 DUP2 MSTORE POP DUP2 JUMP JUMPDEST PUSH2 0xC8E CALLER PUSH2 0xBFC JUMP JUMPDEST PUSH2 0xCC4 JUMPI PUSH1 0x40 MLOAD PUSH32 0x8C379A000000000000000000000000000000000000000000000000000000000 DUP2 MSTORE PUSH1 0x4 ADD PUSH2 0x794 SWAP1 PUSH2 0x4373 JUMP JUMPDEST CALLER PUSH1 0x0 DUP2 DUP2 MSTORE PUSH1 0x3E PUSH1 0x20 MSTORE PUSH1 0x40 DUP1 DUP3 KECCAK256 TIMESTAMP SWAP1 SSTORE MLOAD PUSH32 0xF52F50426B32362D3E6BB8CB36B7074756B224622DEF6352A59EAC7F66EBE6E8 SWAP2 SWAP1 LOG2 JUMP JUMPDEST PUSH1 0x7 PUSH1 0x20 MSTORE PUSH1 0x0 SWAP1 DUP2 MSTORE PUSH1 0x40 SWAP1 KECCAK256 SLOAD DUP2 JUMP JUMPDEST PUSH1 0x3D PUSH1 0x20 MSTORE PUSH1 0x0 SWAP1 DUP2 MSTORE PUSH1 0x40 SWAP1 KECCAK256 SLOAD DUP2 JUMP JUMPDEST PUSH1 0x0 PUSH2 0xD2C PUSH2 0x2704 JUMP JUMPDEST SWAP1 POP PUSH1 0x9 SLOAD DUP2 GT PUSH2 0xD88 JUMPI PUSH1 0x40 MLOAD PUSH32 0x8C379A000000000000000000000000000000000000000000000000000000000 DUP2 MSTORE PUSH1 0x4 ADD DUP1 DUP1 PUSH1 0x20 ADD DUP3 DUP2 SUB DUP3 MSTORE PUSH1 0x2E DUP2 MSTORE PUSH1 0x20 ADD DUP1 PUSH2 0x44FC PUSH1 0x2E SWAP2 CODECOPY PUSH1 0x40 ADD SWAP2 POP POP PUSH1 0x40 MLOAD DUP1 SWAP2 SUB SWAP1 REVERT JUMPDEST PUSH1 0x9 DUP2 SWAP1 SSTORE CHAINID PUSH32 0x8B73C3C69BB8FE3D512ECC4CF759CC79239F7B179B0FFACAA9A75D522B39400F PUSH2 0xDB7 PUSH2 0x673 JUMP JUMPDEST DUP1 MLOAD PUSH1 0x20 SWAP2 DUP3 ADD KECCAK256 PUSH1 0x40 DUP1 MLOAD DUP1 DUP3 ADD DUP3 MSTORE PUSH1 0x1 DUP2 MSTORE PUSH32 0x3100000000000000000000000000000000000000000000000000000000000000 SWAP1 DUP5 ADD MSTORE MLOAD PUSH2 0xE23 SWAP4 SWAP3 PUSH32 0xC89EFDAA54C0F20C7ADF612882DF0950F5A951637E0307CDCB4C672F298B8BC6 SWAP2 DUP7 SWAP2 ADDRESS SWAP2 ADD PUSH2 0x4151 JUMP JUMPDEST PUSH1 0x40 DUP1 MLOAD PUSH32 0xFFFFFFFFFFFFFFFFFFFFFFFFFFFFFFFFFFFFFFFFFFFFFFFFFFFFFFFFFFFFFFE0 DUP2 DUP5 SUB ADD DUP2 MSTORE SWAP2 SWAP1 MSTORE DUP1 MLOAD PUSH1 0x20 SWAP1 SWAP2 ADD KECCAK256 PUSH1 0x43 SSTORE POP POP JUMP JUMPDEST PUSH1 0x40 DUP1 MLOAD PUSH1 0x1 DUP1 DUP3 MSTORE DUP2 DUP4 ADD SWAP1 SWAP3 MSTORE PUSH1 0x0 SWAP2 PUSH1 0x60 SWAP2 SWAP1 DUP2 PUSH1 0x20 ADD JUMPDEST PUSH2 0xE83 PUSH2 0x3BF0 JUMP JUMPDEST DUP2 MSTORE PUSH1 0x20 ADD SWAP1 PUSH1 0x1 SWAP1 SUB SWAP1 DUP2 PUSH2 0xE7B JUMPI SWAP1 POP POP SWAP1 POP PUSH1 0x40 MLOAD DUP1 PUSH1 0x60 ADD PUSH1 0x40 MSTORE DUP1 ADDRESS PUSH20 0xFFFFFFFFFFFFFFFFFFFFFFFFFFFFFFFFFFFFFFFF AND DUP2 MSTORE PUSH1 0x20 ADD PUSH2 0xEC8 DUP6 PUSH2 0xBFC JUMP JUMPDEST DUP2 MSTORE PUSH1 0x20 ADD PUSH2 0xED5 PUSH2 0x757 JUMP JUMPDEST DUP2 MSTORE POP DUP2 PUSH1 0x0 DUP2 MLOAD DUP2 LT PUSH2 0xEE5 JUMPI INVALID JUMPDEST PUSH1 0x20 MUL PUSH1 0x20 ADD ADD DUP2 SWAP1 MSTORE POP PUSH2 0xA3A PUSH2 0xEFD DUP5 DUP4 PUSH2 0x2709 JUMP JUMPDEST PUSH20 0xFFFFFFFFFFFFFFFFFFFFFFFFFFFFFFFFFFFFFFFF DUP6 AND PUSH1 0x0 SWAP1 DUP2 MSTORE PUSH1 0x3D PUSH1 0x20 MSTORE PUSH1 0x40 SWAP1 KECCAK256 SLOAD SWAP1 PUSH2 0x1E87 JUMP JUMPDEST PUSH32 0x0 DUP2 JUMP JUMPDEST PUSH32 0x0 DUP2 JUMP JUMPDEST PUSH1 0x4 DUP1 SLOAD PUSH1 0x40 DUP1 MLOAD PUSH1 0x20 PUSH1 0x1F PUSH1 0x2 PUSH32 0xFFFFFFFFFFFFFFFFFFFFFFFFFFFFFFFFFFFFFFFFFFFFFFFFFFFFFFFFFFFFFFFF PUSH2 0x100 PUSH1 0x1 DUP9 AND ISZERO MUL ADD SWAP1 SWAP6 AND SWAP5 SWAP1 SWAP5 DIV SWAP4 DUP5 ADD DUP2 SWAP1 DIV DUP2 MUL DUP3 ADD DUP2 ADD SWAP1 SWAP3 MSTORE DUP3 DUP2 MSTORE PUSH1 0x60 SWAP4 SWAP1 SWAP3 SWAP1 SWAP2 DUP4 ADD DUP3 DUP3 DUP1 ISZERO PUSH2 0x71D JUMPI DUP1 PUSH1 0x1F LT PUSH2 0x6F2 JUMPI PUSH2 0x100 DUP1 DUP4 SLOAD DIV MUL DUP4 MSTORE SWAP2 PUSH1 0x20 ADD SWAP2 PUSH2 0x71D JUMP JUMPDEST PUSH1 0x0 PUSH2 0x751 PUSH2 0x757 JUMP JUMPDEST PUSH32 0x0 DUP2 JUMP JUMPDEST PUSH1 0x0 PUSH2 0x1034 CALLER PUSH2 0x102D CALLER PUSH2 0xBFC JUMP JUMPDEST PUSH1 0x0 PUSH2 0x20BC JUMP JUMPDEST SWAP1 POP PUSH1 0x0 PUSH32 0xFFFFFFFFFFFFFFFFFFFFFFFFFFFFFFFFFFFFFFFFFFFFFFFFFFFFFFFFFFFFFFFF DUP4 EQ PUSH2 0x1065 JUMPI DUP3 PUSH2 0x1067 JUMP JUMPDEST DUP2 JUMPDEST SWAP1 POP PUSH2 0x10B3 DUP2 PUSH1 0x40 MLOAD DUP1 PUSH1 0x40 ADD PUSH1 0x40 MSTORE DUP1 PUSH1 0xE DUP2 MSTORE PUSH1 0x20 ADD PUSH32 0x494E56414C49445F414D4F554E54000000000000000000000000000000000000 DUP2 MSTORE POP DUP5 PUSH2 0x245E SWAP1 SWAP3 SWAP2 SWAP1 PUSH4 0xFFFFFFFF AND JUMP JUMPDEST CALLER PUSH1 0x0 SWAP1 DUP2 MSTORE PUSH1 0x3D PUSH1 0x20 MSTORE PUSH1 0x40 SWAP1 KECCAK256 SSTORE PUSH2 0x1125 PUSH32 0x0 PUSH20 0xFFFFFFFFFFFFFFFFFFFFFFFFFFFFFFFFFFFFFFFF AND PUSH32 0x0 DUP7 DUP5 PUSH2 0x2837 JUMP JUMPDEST DUP4 PUSH20 0xFFFFFFFFFFFFFFFFFFFFFFFFFFFFFFFFFFFFFFFF AND CALLER PUSH20 0xFFFFFFFFFFFFFFFFFFFFFFFFFFFFFFFFFFFFFFFF AND PUSH32 0x9310CCFCB8DE723F578A9E4282EA9F521F05AE40DC08F3068DFAD528A65EE3C7 DUP4 PUSH1 0x40 MLOAD PUSH2 0x1182 SWAP2 SWAP1 PUSH2 0x409D JUMP JUMPDEST PUSH1 0x40 MLOAD DUP1 SWAP2 SUB SWAP1 LOG3 POP POP POP POP JUMP JUMPDEST PUSH1 0x0 PUSH2 0x74D PUSH2 0x119D PUSH2 0x1F2F JUMP JUMPDEST DUP5 PUSH2 0xA31 DUP6 PUSH1 0x40 MLOAD DUP1 PUSH1 0x60 ADD PUSH1 0x40 MSTORE DUP1 PUSH1 0x25 DUP2 MSTORE PUSH1 0x20 ADD PUSH2 0x45BE PUSH1 0x25 SWAP2 CODECOPY PUSH1 0x1 PUSH1 0x0 PUSH2 0x11C7 PUSH2 0x1F2F JUMP JUMPDEST PUSH20 0xFFFFFFFFFFFFFFFFFFFFFFFFFFFFFFFFFFFFFFFF SWAP1 DUP2 AND DUP3 MSTORE PUSH1 0x20 DUP1 DUP4 ADD SWAP4 SWAP1 SWAP4 MSTORE PUSH1 0x40 SWAP2 DUP3 ADD PUSH1 0x0 SWAP1 DUP2 KECCAK256 SWAP2 DUP14 AND DUP2 MSTORE SWAP3 MSTORE SWAP1 KECCAK256 SLOAD SWAP2 SWAP1 PUSH2 0x245E JUMP JUMPDEST PUSH1 0x0 PUSH2 0x74D PUSH2 0x1212 PUSH2 0x1F2F JUMP JUMPDEST DUP5 DUP5 PUSH2 0x2351 JUMP JUMPDEST PUSH32 0x10D8D059343739EFCE7DAD10D09F0806DA52B252B3E6A7951920D2D6EC4102E5 DUP2 JUMP JUMPDEST PUSH1 0x12 DUP2 JUMP JUMPDEST DUP1 PUSH2 0x1279 JUMPI PUSH1 0x40 MLOAD PUSH32 0x8C379A000000000000000000000000000000000000000000000000000000000 DUP2 MSTORE PUSH1 0x4 ADD PUSH2 0x794 SWAP1 PUSH2 0x41BB JUMP JUMPDEST PUSH1 0x0 PUSH2 0x1284 DUP4 PUSH2 0xBFC JUMP JUMPDEST SWAP1 POP PUSH1 0x0 PUSH2 0x129B DUP5 ADDRESS DUP5 PUSH2 0x1296 PUSH2 0x757 JUMP JUMPDEST PUSH2 0x28CC JUMP JUMPDEST SWAP1 POP DUP1 ISZERO PUSH2 0x1333 JUMPI PUSH32 0x2468F9268C60AD90E2D49EDB0032C8A001E733AE888B3AB8E982EDF535BE1A76 DUP5 DUP3 PUSH1 0x40 MLOAD PUSH2 0x12D4 SWAP3 SWAP2 SWAP1 PUSH2 0x406C JUMP JUMPDEST PUSH1 0x40 MLOAD DUP1 SWAP2 SUB SWAP1 LOG1 PUSH20 0xFFFFFFFFFFFFFFFFFFFFFFFFFFFFFFFFFFFFFFFF DUP5 AND PUSH1 0x0 SWAP1 DUP2 MSTORE PUSH1 0x3D PUSH1 0x20 MSTORE PUSH1 0x40 SWAP1 KECCAK256 SLOAD PUSH2 0x130C SWAP1 DUP3 PUSH2 0x1E87 JUMP JUMPDEST PUSH20 0xFFFFFFFFFFFFFFFFFFFFFFFFFFFFFFFFFFFFFFFF DUP6 AND PUSH1 0x0 SWAP1 DUP2 MSTORE PUSH1 0x3D PUSH1 0x20 MSTORE PUSH1 0x40 SWAP1 KECCAK256 SSTORE JUMPDEST PUSH2 0x1340 PUSH1 0x0 DUP5 DUP7 DUP6 PUSH2 0x1B82 JUMP JUMPDEST PUSH20 0xFFFFFFFFFFFFFFFFFFFFFFFFFFFFFFFFFFFFFFFF DUP6 AND PUSH1 0x0 SWAP1 DUP2 MSTORE PUSH1 0x3E PUSH1 0x20 MSTORE PUSH1 0x40 SWAP1 KECCAK256 SSTORE PUSH2 0x1370 DUP5 DUP5 PUSH2 0x29A5 JUMP JUMPDEST PUSH2 0x13B2 PUSH20 0xFFFFFFFFFFFFFFFFFFFFFFFFFFFFFFFFFFFFFFFF PUSH32 0x0 AND CALLER ADDRESS DUP7 PUSH2 0x2837 JUMP JUMPDEST DUP4 PUSH20 0xFFFFFFFFFFFFFFFFFFFFFFFFFFFFFFFFFFFFFFFF AND CALLER PUSH20 0xFFFFFFFFFFFFFFFFFFFFFFFFFFFFFFFFFFFFFFFF AND PUSH32 0x5DAC0C1B1112564A045BA943C9D50270893E8E826C49BE8E7073ADC713AB7BD7 DUP6 PUSH1 0x40 MLOAD PUSH2 0x1182 SWAP2 SWAP1 PUSH2 0x409D JUMP JUMPDEST CALLER PUSH20 0xFFFFFFFFFFFFFFFFFFFFFFFFFFFFFFFFFFFFFFFF PUSH32 0x0 AND EQ PUSH2 0x147E JUMPI PUSH1 0x40 MLOAD PUSH32 0x8C379A000000000000000000000000000000000000000000000000000000000 DUP2 MSTORE PUSH1 0x4 ADD PUSH2 0x794 SWAP1 PUSH2 0x42CE JUMP JUMPDEST PUSH1 0x0 JUMPDEST DUP2 DUP2 LT ISZERO PUSH2 0x162C JUMPI PUSH1 0x0 PUSH1 0x3C PUSH1 0x0 DUP6 DUP6 DUP6 DUP2 DUP2 LT PUSH2 0x149B JUMPI INVALID JUMPDEST SWAP1 POP PUSH1 0x60 MUL ADD PUSH1 0x40 ADD PUSH1 0x20 DUP2 ADD SWAP1 PUSH2 0x14B3 SWAP2 SWAP1 PUSH2 0x3C82 JUMP JUMPDEST PUSH20 0xFFFFFFFFFFFFFFFFFFFFFFFFFFFFFFFFFFFFFFFF AND PUSH20 0xFFFFFFFFFFFFFFFFFFFFFFFFFFFFFFFFFFFFFFFF AND DUP2 MSTORE PUSH1 0x20 ADD SWAP1 DUP2 MSTORE PUSH1 0x20 ADD PUSH1 0x0 KECCAK256 SWAP1 POP PUSH2 0x1532 DUP5 DUP5 DUP5 DUP2 DUP2 LT PUSH2 0x14FE JUMPI INVALID JUMPDEST SWAP1 POP PUSH1 0x60 MUL ADD PUSH1 0x40 ADD PUSH1 0x20 DUP2 ADD SWAP1 PUSH2 0x1516 SWAP2 SWAP1 PUSH2 0x3C82 JUMP JUMPDEST DUP3 DUP7 DUP7 DUP7 DUP2 DUP2 LT PUSH2 0x1523 JUMPI INVALID JUMPDEST SWAP1 POP PUSH1 0x60 MUL ADD PUSH1 0x20 ADD CALLDATALOAD PUSH2 0x2AD6 JUMP JUMPDEST POP DUP4 DUP4 DUP4 DUP2 DUP2 LT PUSH2 0x153F JUMPI INVALID JUMPDEST PUSH2 0x1555 SWAP3 PUSH1 0x20 PUSH1 0x60 SWAP1 SWAP3 MUL ADD SWAP1 DUP2 ADD SWAP2 POP PUSH2 0x3EF7 JUMP JUMPDEST DUP2 SLOAD PUSH32 0xFFFFFFFFFFFFFFFFFFFFFFFFFFFFFFFF00000000000000000000000000000000 AND PUSH16 0xFFFFFFFFFFFFFFFFFFFFFFFFFFFFFFFF SWAP2 SWAP1 SWAP2 AND OR DUP2 SSTORE DUP4 DUP4 DUP4 DUP2 DUP2 LT PUSH2 0x159D JUMPI INVALID JUMPDEST SWAP1 POP PUSH1 0x60 MUL ADD PUSH1 0x40 ADD PUSH1 0x20 DUP2 ADD SWAP1 PUSH2 0x15B5 SWAP2 SWAP1 PUSH2 0x3C82 JUMP JUMPDEST PUSH20 0xFFFFFFFFFFFFFFFFFFFFFFFFFFFFFFFFFFFFFFFF AND PUSH32 0x87FA03892A0556CB6B8F97E6D533A150D4D55FCBF275FFF5FA003FA636BCC7FA DUP6 DUP6 DUP6 DUP2 DUP2 LT PUSH2 0x15F8 JUMPI INVALID JUMPDEST PUSH2 0x160E SWAP3 PUSH1 0x20 PUSH1 0x60 SWAP1 SWAP3 MUL ADD SWAP1 DUP2 ADD SWAP2 POP PUSH2 0x3EF7 JUMP JUMPDEST PUSH1 0x40 MLOAD PUSH2 0x161B SWAP2 SWAP1 PUSH2 0x43AA JUMP JUMPDEST PUSH1 0x40 MLOAD DUP1 SWAP2 SUB SWAP1 LOG2 POP PUSH1 0x1 ADD PUSH2 0x1481 JUMP JUMPDEST POP POP POP JUMP JUMPDEST PUSH1 0x0 DUP1 PUSH1 0x0 PUSH2 0x163F DUP5 PUSH2 0x2692 JUMP JUMPDEST POP SWAP2 POP SWAP2 POP PUSH2 0x1650 DUP3 DUP3 DUP8 NUMBER PUSH2 0x2BD5 JUMP JUMPDEST SWAP6 SWAP5 POP POP POP POP POP JUMP JUMPDEST PUSH1 0x44 PUSH1 0x20 MSTORE PUSH1 0x0 SWAP1 DUP2 MSTORE PUSH1 0x40 SWAP1 KECCAK256 SLOAD DUP2 JUMP JUMPDEST PUSH1 0x0 DUP1 PUSH1 0x0 PUSH2 0x1679 DUP5 PUSH2 0x2692 JUMP JUMPDEST POP SWAP2 POP SWAP2 POP PUSH2 0x168A DUP3 DUP3 DUP9 DUP9 PUSH2 0x2BD5 JUMP JUMPDEST SWAP7 SWAP6 POP POP POP POP POP POP JUMP JUMPDEST PUSH1 0x8 SLOAD PUSH20 0xFFFFFFFFFFFFFFFFFFFFFFFFFFFFFFFFFFFFFFFF AND DUP2 JUMP JUMPDEST PUSH1 0x0 PUSH32 0x9A9A49B990BA9BB39F8048C490A40AB25C18F55D208D5FBCF958261A9B48716D DUP8 DUP8 DUP8 PUSH1 0x40 MLOAD PUSH1 0x20 ADD PUSH2 0x16E9 SWAP5 SWAP4 SWAP3 SWAP2 SWAP1 PUSH2 0x40E7 JUMP JUMPDEST PUSH1 0x40 MLOAD PUSH1 0x20 DUP2 DUP4 SUB SUB DUP2 MSTORE SWAP1 PUSH1 0x40 MSTORE DUP1 MLOAD SWAP1 PUSH1 0x20 ADD KECCAK256 SWAP1 POP PUSH1 0x0 PUSH1 0x43 SLOAD DUP3 PUSH1 0x40 MLOAD PUSH1 0x20 ADD PUSH2 0x1718 SWAP3 SWAP2 SWAP1 PUSH2 0x3FE4 JUMP JUMPDEST PUSH1 0x40 MLOAD PUSH1 0x20 DUP2 DUP4 SUB SUB DUP2 MSTORE SWAP1 PUSH1 0x40 MSTORE DUP1 MLOAD SWAP1 PUSH1 0x20 ADD KECCAK256 SWAP1 POP PUSH1 0x0 PUSH1 0x1 DUP3 DUP8 DUP8 DUP8 PUSH1 0x40 MLOAD PUSH1 0x0 DUP2 MSTORE PUSH1 0x20 ADD PUSH1 0x40 MSTORE PUSH1 0x40 MLOAD PUSH2 0x1755 SWAP5 SWAP4 SWAP3 SWAP2 SWAP1 PUSH2 0x418A JUMP JUMPDEST PUSH1 0x20 PUSH1 0x40 MLOAD PUSH1 0x20 DUP2 SUB SWAP1 DUP1 DUP5 SUB SWAP1 DUP6 GAS STATICCALL ISZERO DUP1 ISZERO PUSH2 0x1777 JUMPI RETURNDATASIZE PUSH1 0x0 DUP1 RETURNDATACOPY RETURNDATASIZE PUSH1 0x0 REVERT JUMPDEST POP POP PUSH1 0x40 MLOAD PUSH32 0xFFFFFFFFFFFFFFFFFFFFFFFFFFFFFFFFFFFFFFFFFFFFFFFFFFFFFFFFFFFFFFE0 ADD MLOAD SWAP2 POP POP PUSH20 0xFFFFFFFFFFFFFFFFFFFFFFFFFFFFFFFFFFFFFFFF DUP2 AND PUSH2 0x17EF JUMPI PUSH1 0x40 MLOAD PUSH32 0x8C379A000000000000000000000000000000000000000000000000000000000 DUP2 MSTORE PUSH1 0x4 ADD PUSH2 0x794 SWAP1 PUSH2 0x41F2 JUMP JUMPDEST PUSH20 0xFFFFFFFFFFFFFFFFFFFFFFFFFFFFFFFFFFFFFFFF DUP2 AND PUSH1 0x0 SWAP1 DUP2 MSTORE PUSH1 0x44 PUSH1 0x20 MSTORE PUSH1 0x40 SWAP1 KECCAK256 DUP1 SLOAD PUSH1 0x1 DUP2 ADD SWAP1 SWAP2 SSTORE DUP9 EQ PUSH2 0x1855 JUMPI PUSH1 0x40 MLOAD PUSH32 0x8C379A000000000000000000000000000000000000000000000000000000000 DUP2 MSTORE PUSH1 0x4 ADD PUSH2 0x794 SWAP1 PUSH2 0x4297 JUMP JUMPDEST DUP7 TIMESTAMP GT ISZERO PUSH2 0x188F JUMPI PUSH1 0x40 MLOAD PUSH32 0x8C379A000000000000000000000000000000000000000000000000000000000 DUP2 MSTORE PUSH1 0x4 ADD PUSH2 0x794 SWAP1 PUSH2 0x4260 JUMP JUMPDEST PUSH2 0x189B DUP2 DUP11 PUSH1 0x0 PUSH2 0x250F JUMP JUMPDEST PUSH2 0x18A7 DUP2 DUP11 PUSH1 0x1 PUSH2 0x250F JUMP JUMPDEST POP POP POP POP POP POP POP POP POP JUMP JUMPDEST PUSH32 0x0 DUP2 JUMP JUMPDEST PUSH20 0xFFFFFFFFFFFFFFFFFFFFFFFFFFFFFFFFFFFFFFFF DUP8 AND PUSH2 0x1923 JUMPI PUSH1 0x40 MLOAD PUSH32 0x8C379A000000000000000000000000000000000000000000000000000000000 DUP2 MSTORE PUSH1 0x4 ADD PUSH2 0x794 SWAP1 PUSH2 0x4305 JUMP JUMPDEST DUP4 TIMESTAMP GT ISZERO PUSH2 0x195D JUMPI PUSH1 0x40 MLOAD PUSH32 0x8C379A000000000000000000000000000000000000000000000000000000000 DUP2 MSTORE PUSH1 0x4 ADD PUSH2 0x794 SWAP1 PUSH2 0x4260 JUMP JUMPDEST PUSH20 0xFFFFFFFFFFFFFFFFFFFFFFFFFFFFFFFFFFFFFFFF DUP8 AND PUSH1 0x0 SWAP1 DUP2 MSTORE PUSH1 0x44 PUSH1 0x20 SWAP1 DUP2 MSTORE PUSH1 0x40 DUP1 DUP4 KECCAK256 SLOAD PUSH1 0x43 SLOAD SWAP2 MLOAD SWAP1 SWAP4 SWAP3 PUSH2 0x19C4 SWAP2 PUSH32 0x6E71EDAE12B1B97F4D1F60370FEF10105FA2FAAE0126114A169C64845D6126C9 SWAP2 DUP14 SWAP2 DUP14 SWAP2 DUP14 SWAP2 DUP10 SWAP2 DUP15 SWAP2 ADD PUSH2 0x40A6 JUMP JUMPDEST PUSH1 0x40 MLOAD PUSH1 0x20 DUP2 DUP4 SUB SUB DUP2 MSTORE SWAP1 PUSH1 0x40 MSTORE DUP1 MLOAD SWAP1 PUSH1 0x20 ADD KECCAK256 PUSH1 0x40 MLOAD PUSH1 0x20 ADD PUSH2 0x19EB SWAP3 SWAP2 SWAP1 PUSH2 0x3FE4 JUMP JUMPDEST PUSH1 0x40 MLOAD PUSH1 0x20 DUP2 DUP4 SUB SUB DUP2 MSTORE SWAP1 PUSH1 0x40 MSTORE DUP1 MLOAD SWAP1 PUSH1 0x20 ADD KECCAK256 SWAP1 POP PUSH1 0x1 DUP2 DUP7 DUP7 DUP7 PUSH1 0x40 MLOAD PUSH1 0x0 DUP2 MSTORE PUSH1 0x20 ADD PUSH1 0x40 MSTORE PUSH1 0x40 MLOAD PUSH2 0x1A26 SWAP5 SWAP4 SWAP3 SWAP2 SWAP1 PUSH2 0x418A JUMP JUMPDEST PUSH1 0x20 PUSH1 0x40 MLOAD PUSH1 0x20 DUP2 SUB SWAP1 DUP1 DUP5 SUB SWAP1 DUP6 GAS STATICCALL ISZERO DUP1 ISZERO PUSH2 0x1A48 JUMPI RETURNDATASIZE PUSH1 0x0 DUP1 RETURNDATACOPY RETURNDATASIZE PUSH1 0x0 REVERT JUMPDEST POP POP POP PUSH1 0x20 PUSH1 0x40 MLOAD SUB MLOAD PUSH20 0xFFFFFFFFFFFFFFFFFFFFFFFFFFFFFFFFFFFFFFFF AND DUP10 PUSH20 0xFFFFFFFFFFFFFFFFFFFFFFFFFFFFFFFFFFFFFFFF AND EQ PUSH2 0x1AB6 JUMPI PUSH1 0x40 MLOAD PUSH32 0x8C379A000000000000000000000000000000000000000000000000000000000 DUP2 MSTORE PUSH1 0x4 ADD PUSH2 0x794 SWAP1 PUSH2 0x41F2 JUMP JUMPDEST PUSH2 0x1AC1 DUP3 PUSH1 0x1 PUSH2 0x1E87 JUMP JUMPDEST PUSH20 0xFFFFFFFFFFFFFFFFFFFFFFFFFFFFFFFFFFFFFFFF DUP11 AND PUSH1 0x0 SWAP1 DUP2 MSTORE PUSH1 0x44 PUSH1 0x20 MSTORE PUSH1 0x40 SWAP1 KECCAK256 SSTORE PUSH2 0x18A7 DUP10 DUP10 DUP10 PUSH2 0x1F33 JUMP JUMPDEST PUSH2 0x1AFD CALLER DUP4 DUP4 PUSH2 0x250F JUMP JUMPDEST POP POP JUMP JUMPDEST PUSH20 0xFFFFFFFFFFFFFFFFFFFFFFFFFFFFFFFFFFFFFFFF SWAP2 DUP3 AND PUSH1 0x0 SWAP1 DUP2 MSTORE PUSH1 0x1 PUSH1 0x20 SWAP1 DUP2 MSTORE PUSH1 0x40 DUP1 DUP4 KECCAK256 SWAP4 SWAP1 SWAP5 AND DUP3 MSTORE SWAP2 SWAP1 SWAP2 MSTORE KECCAK256 SLOAD SWAP1 JUMP JUMPDEST PUSH1 0x2 DUP2 JUMP JUMPDEST PUSH1 0x3C PUSH1 0x20 MSTORE PUSH1 0x0 SWAP1 DUP2 MSTORE PUSH1 0x40 SWAP1 KECCAK256 DUP1 SLOAD PUSH1 0x1 SWAP1 SWAP2 ADD SLOAD PUSH16 0xFFFFFFFFFFFFFFFFFFFFFFFFFFFFFFFF DUP1 DUP4 AND SWAP3 PUSH17 0x100000000000000000000000000000000 SWAP1 DIV AND SWAP1 DUP4 JUMP JUMPDEST PUSH20 0xFFFFFFFFFFFFFFFFFFFFFFFFFFFFFFFFFFFFFFFF DUP3 AND PUSH1 0x0 SWAP1 DUP2 MSTORE PUSH1 0x3E PUSH1 0x20 MSTORE PUSH1 0x40 DUP2 KECCAK256 SLOAD DUP1 PUSH2 0x1BB7 JUMPI PUSH1 0x0 SWAP2 POP POP PUSH2 0xBF4 JUMP JUMPDEST PUSH1 0x0 PUSH2 0x1C0D PUSH32 0x0 PUSH2 0x1C07 TIMESTAMP PUSH32 0x0 PUSH2 0x207A JUMP JUMPDEST SWAP1 PUSH2 0x207A JUMP JUMPDEST SWAP1 POP DUP2 DUP2 GT ISZERO PUSH2 0x1C20 JUMPI PUSH1 0x0 SWAP2 POP PUSH2 0x1C7A JUMP JUMPDEST PUSH1 0x0 DUP8 DUP3 GT PUSH2 0x1C2F JUMPI DUP8 PUSH2 0x1C31 JUMP JUMPDEST TIMESTAMP JUMPDEST SWAP1 POP DUP3 DUP2 LT ISZERO PUSH2 0x1C46 JUMPI DUP3 SWAP4 POP POP POP POP PUSH2 0xBF4 JUMP JUMPDEST PUSH2 0x1C76 PUSH2 0x1C53 DUP9 DUP8 PUSH2 0x1E87 JUMP JUMPDEST PUSH2 0x1C70 PUSH2 0x1C60 DUP9 DUP8 PUSH2 0x2F22 JUMP JUMPDEST PUSH2 0x1C6A DUP12 DUP7 PUSH2 0x2F22 JUMP JUMPDEST SWAP1 PUSH2 0x1E87 JUMP JUMPDEST SWAP1 PUSH2 0x2F95 JUMP JUMPDEST SWAP3 POP POP JUMPDEST POP SWAP6 SWAP5 POP POP POP POP POP JUMP JUMPDEST PUSH1 0x0 PUSH32 0x10D8D059343739EFCE7DAD10D09F0806DA52B252B3E6A7951920D2D6EC4102E5 DUP9 DUP9 PUSH1 0x1 DUP2 GT ISZERO PUSH2 0x1CB4 JUMPI INVALID JUMPDEST DUP9 DUP9 PUSH1 0x40 MLOAD PUSH1 0x20 ADD PUSH2 0x1CCA SWAP6 SWAP5 SWAP4 SWAP3 SWAP2 SWAP1 PUSH2 0x4118 JUMP JUMPDEST PUSH1 0x40 MLOAD PUSH1 0x20 DUP2 DUP4 SUB SUB DUP2 MSTORE SWAP1 PUSH1 0x40 MSTORE DUP1 MLOAD SWAP1 PUSH1 0x20 ADD KECCAK256 SWAP1 POP PUSH1 0x0 PUSH1 0x43 SLOAD DUP3 PUSH1 0x40 MLOAD PUSH1 0x20 ADD PUSH2 0x1CF9 SWAP3 SWAP2 SWAP1 PUSH2 0x3FE4 JUMP JUMPDEST PUSH1 0x40 MLOAD PUSH1 0x20 DUP2 DUP4 SUB SUB DUP2 MSTORE SWAP1 PUSH1 0x40 MSTORE DUP1 MLOAD SWAP1 PUSH1 0x20 ADD KECCAK256 SWAP1 POP PUSH1 0x0 PUSH1 0x1 DUP3 DUP8 DUP8 DUP8 PUSH1 0x40 MLOAD PUSH1 0x0 DUP2 MSTORE PUSH1 0x20 ADD PUSH1 0x40 MSTORE PUSH1 0x40 MLOAD PUSH2 0x1D36 SWAP5 SWAP4 SWAP3 SWAP2 SWAP1 PUSH2 0x418A JUMP JUMPDEST PUSH1 0x20 PUSH1 0x40 MLOAD PUSH1 0x20 DUP2 SUB SWAP1 DUP1 DUP5 SUB SWAP1 DUP6 GAS STATICCALL ISZERO DUP1 ISZERO PUSH2 0x1D58 JUMPI RETURNDATASIZE PUSH1 0x0 DUP1 RETURNDATACOPY RETURNDATASIZE PUSH1 0x0 REVERT JUMPDEST POP POP PUSH1 0x40 MLOAD PUSH32 0xFFFFFFFFFFFFFFFFFFFFFFFFFFFFFFFFFFFFFFFFFFFFFFFFFFFFFFFFFFFFFFE0 ADD MLOAD SWAP2 POP POP PUSH20 0xFFFFFFFFFFFFFFFFFFFFFFFFFFFFFFFFFFFFFFFF DUP2 AND PUSH2 0x1DD0 JUMPI PUSH1 0x40 MLOAD PUSH32 0x8C379A000000000000000000000000000000000000000000000000000000000 DUP2 MSTORE PUSH1 0x4 ADD PUSH2 0x794 SWAP1 PUSH2 0x41F2 JUMP JUMPDEST PUSH20 0xFFFFFFFFFFFFFFFFFFFFFFFFFFFFFFFFFFFFFFFF DUP2 AND PUSH1 0x0 SWAP1 DUP2 MSTORE PUSH1 0x44 PUSH1 0x20 MSTORE PUSH1 0x40 SWAP1 KECCAK256 DUP1 SLOAD PUSH1 0x1 DUP2 ADD SWAP1 SWAP2 SSTORE DUP9 EQ PUSH2 0x1E36 JUMPI PUSH1 0x40 MLOAD PUSH32 0x8C379A000000000000000000000000000000000000000000000000000000000 DUP2 MSTORE PUSH1 0x4 ADD PUSH2 0x794 SWAP1 PUSH2 0x4297 JUMP JUMPDEST DUP7 TIMESTAMP GT ISZERO PUSH2 0x1E70 JUMPI PUSH1 0x40 MLOAD PUSH32 0x8C379A000000000000000000000000000000000000000000000000000000000 DUP2 MSTORE PUSH1 0x4 ADD PUSH2 0x794 SWAP1 PUSH2 0x4260 JUMP JUMPDEST PUSH2 0x1E7B DUP2 DUP12 DUP12 PUSH2 0x250F JUMP JUMPDEST POP POP POP POP POP POP POP POP POP POP JUMP JUMPDEST PUSH1 0x0 DUP3 DUP3 ADD DUP4 DUP2 LT ISZERO PUSH2 0xA3A JUMPI PUSH1 0x40 DUP1 MLOAD PUSH32 0x8C379A000000000000000000000000000000000000000000000000000000000 DUP2 MSTORE PUSH1 0x20 PUSH1 0x4 DUP3 ADD MSTORE PUSH1 0x1B PUSH1 0x24 DUP3 ADD MSTORE PUSH32 0x536166654D6174683A206164646974696F6E206F766572666C6F770000000000 PUSH1 0x44 DUP3 ADD MSTORE SWAP1 MLOAD SWAP1 DUP2 SWAP1 SUB PUSH1 0x64 ADD SWAP1 REVERT JUMPDEST PUSH1 0x5 DUP1 SLOAD PUSH32 0xFFFFFFFFFFFFFFFFFFFFFFFFFFFFFFFFFFFFFFFFFFFFFFFFFFFFFFFFFFFFFF00 AND PUSH1 0xFF SWAP3 SWAP1 SWAP3 AND SWAP2 SWAP1 SWAP2 OR SWAP1 SSTORE JUMP JUMPDEST CALLER SWAP1 JUMP JUMPDEST PUSH20 0xFFFFFFFFFFFFFFFFFFFFFFFFFFFFFFFFFFFFFFFF DUP4 AND PUSH2 0x1F9F JUMPI PUSH1 0x40 MLOAD PUSH32 0x8C379A000000000000000000000000000000000000000000000000000000000 DUP2 MSTORE PUSH1 0x4 ADD DUP1 DUP1 PUSH1 0x20 ADD DUP3 DUP2 SUB DUP3 MSTORE PUSH1 0x24 DUP2 MSTORE PUSH1 0x20 ADD DUP1 PUSH2 0x4570 PUSH1 0x24 SWAP2 CODECOPY PUSH1 0x40 ADD SWAP2 POP POP PUSH1 0x40 MLOAD DUP1 SWAP2 SUB SWAP1 REVERT JUMPDEST PUSH20 0xFFFFFFFFFFFFFFFFFFFFFFFFFFFFFFFFFFFFFFFF DUP3 AND PUSH2 0x200B JUMPI PUSH1 0x40 MLOAD PUSH32 0x8C379A000000000000000000000000000000000000000000000000000000000 DUP2 MSTORE PUSH1 0x4 ADD DUP1 DUP1 PUSH1 0x20 ADD DUP3 DUP2 SUB DUP3 MSTORE PUSH1 0x22 DUP2 MSTORE PUSH1 0x20 ADD DUP1 PUSH2 0x446B PUSH1 0x22 SWAP2 CODECOPY PUSH1 0x40 ADD SWAP2 POP POP PUSH1 0x40 MLOAD DUP1 SWAP2 SUB SWAP1 REVERT JUMPDEST PUSH20 0xFFFFFFFFFFFFFFFFFFFFFFFFFFFFFFFFFFFFFFFF DUP1 DUP5 AND PUSH1 0x0 DUP2 DUP2 MSTORE PUSH1 0x1 PUSH1 0x20 SWAP1 DUP2 MSTORE PUSH1 0x40 DUP1 DUP4 KECCAK256 SWAP5 DUP8 AND DUP1 DUP5 MSTORE SWAP5 DUP3 MSTORE SWAP2 DUP3 SWAP1 KECCAK256 DUP6 SWAP1 SSTORE DUP2 MLOAD DUP6 DUP2 MSTORE SWAP2 MLOAD PUSH32 0x8C5BE1E5EBEC7D5BD14F71427D1E84F3DD0314C0F7B2291E5B200AC8C7C3B925 SWAP3 DUP2 SWAP1 SUB SWAP1 SWAP2 ADD SWAP1 LOG3 POP POP POP JUMP JUMPDEST PUSH1 0x0 PUSH2 0xA3A DUP4 DUP4 PUSH1 0x40 MLOAD DUP1 PUSH1 0x40 ADD PUSH1 0x40 MSTORE DUP1 PUSH1 0x1E DUP2 MSTORE PUSH1 0x20 ADD PUSH32 0x536166654D6174683A207375627472616374696F6E206F766572666C6F770000 DUP2 MSTORE POP PUSH2 0x245E JUMP JUMPDEST PUSH1 0x0 DUP1 PUSH2 0x20CD DUP6 ADDRESS DUP7 PUSH2 0x1296 PUSH2 0x757 JUMP JUMPDEST PUSH20 0xFFFFFFFFFFFFFFFFFFFFFFFFFFFFFFFFFFFFFFFF DUP7 AND PUSH1 0x0 SWAP1 DUP2 MSTORE PUSH1 0x3D PUSH1 0x20 MSTORE PUSH1 0x40 DUP2 KECCAK256 SLOAD SWAP2 SWAP3 POP SWAP1 PUSH2 0x2101 SWAP1 DUP4 PUSH2 0x1E87 JUMP JUMPDEST SWAP1 POP DUP2 ISZERO PUSH2 0x1650 JUMPI DUP4 ISZERO PUSH2 0x2138 JUMPI PUSH20 0xFFFFFFFFFFFFFFFFFFFFFFFFFFFFFFFFFFFFFFFF DUP7 AND PUSH1 0x0 SWAP1 DUP2 MSTORE PUSH1 0x3D PUSH1 0x20 MSTORE PUSH1 0x40 SWAP1 KECCAK256 DUP2 SWAP1 SSTORE JUMPDEST PUSH32 0x2468F9268C60AD90E2D49EDB0032C8A001E733AE888B3AB8E982EDF535BE1A76 DUP7 DUP4 PUSH1 0x40 MLOAD PUSH2 0x2169 SWAP3 SWAP2 SWAP1 PUSH2 0x406C JUMP JUMPDEST PUSH1 0x40 MLOAD DUP1 SWAP2 SUB SWAP1 LOG1 SWAP6 SWAP5 POP POP POP POP POP JUMP JUMPDEST PUSH20 0xFFFFFFFFFFFFFFFFFFFFFFFFFFFFFFFFFFFFFFFF DUP3 AND PUSH2 0x21E6 JUMPI PUSH1 0x40 MLOAD PUSH32 0x8C379A000000000000000000000000000000000000000000000000000000000 DUP2 MSTORE PUSH1 0x4 ADD DUP1 DUP1 PUSH1 0x20 ADD DUP3 DUP2 SUB DUP3 MSTORE PUSH1 0x21 DUP2 MSTORE PUSH1 0x20 ADD DUP1 PUSH2 0x452A PUSH1 0x21 SWAP2 CODECOPY PUSH1 0x40 ADD SWAP2 POP POP PUSH1 0x40 MLOAD DUP1 SWAP2 SUB SWAP1 REVERT JUMPDEST PUSH2 0x21F2 DUP3 PUSH1 0x0 DUP4 PUSH2 0x2FD7 JUMP JUMPDEST PUSH2 0x223C DUP2 PUSH1 0x40 MLOAD DUP1 PUSH1 0x60 ADD PUSH1 0x40 MSTORE DUP1 PUSH1 0x22 DUP2 MSTORE PUSH1 0x20 ADD PUSH2 0x4449 PUSH1 0x22 SWAP2 CODECOPY PUSH20 0xFFFFFFFFFFFFFFFFFFFFFFFFFFFFFFFFFFFFFFFF DUP6 AND PUSH1 0x0 SWAP1 DUP2 MSTORE PUSH1 0x20 DUP2 SWAP1 MSTORE PUSH1 0x40 SWAP1 KECCAK256 SLOAD SWAP2 SWAP1 PUSH2 0x245E JUMP JUMPDEST PUSH20 0xFFFFFFFFFFFFFFFFFFFFFFFFFFFFFFFFFFFFFFFF DUP4 AND PUSH1 0x0 SWAP1 DUP2 MSTORE PUSH1 0x20 DUP2 SWAP1 MSTORE PUSH1 0x40 SWAP1 KECCAK256 SSTORE PUSH1 0x2 SLOAD PUSH2 0x226F SWAP1 DUP3 PUSH2 0x207A JUMP JUMPDEST PUSH1 0x2 SSTORE PUSH1 0x40 DUP1 MLOAD DUP3 DUP2 MSTORE SWAP1 MLOAD PUSH1 0x0 SWAP2 PUSH20 0xFFFFFFFFFFFFFFFFFFFFFFFFFFFFFFFFFFFFFFFF DUP6 AND SWAP2 PUSH32 0xDDF252AD1BE2C89B69C2B068FC378DAA952BA7F163C4A11628F55A4DF523B3EF SWAP2 DUP2 SWAP1 SUB PUSH1 0x20 ADD SWAP1 LOG3 POP POP JUMP JUMPDEST PUSH1 0x40 DUP1 MLOAD PUSH20 0xFFFFFFFFFFFFFFFFFFFFFFFFFFFFFFFFFFFFFFFF DUP5 AND PUSH1 0x24 DUP3 ADD MSTORE PUSH1 0x44 DUP1 DUP3 ADD DUP5 SWAP1 MSTORE DUP3 MLOAD DUP1 DUP4 SUB SWAP1 SWAP2 ADD DUP2 MSTORE PUSH1 0x64 SWAP1 SWAP2 ADD SWAP1 SWAP2 MSTORE PUSH1 0x20 DUP2 ADD DUP1 MLOAD PUSH28 0xFFFFFFFFFFFFFFFFFFFFFFFFFFFFFFFFFFFFFFFFFFFFFFFFFFFFFFFF AND PUSH32 0xA9059CBB00000000000000000000000000000000000000000000000000000000 OR SWAP1 MSTORE PUSH2 0x162C SWAP1 DUP5 SWAP1 PUSH2 0x315B JUMP JUMPDEST PUSH1 0x0 PUSH2 0x235C DUP5 PUSH2 0xBFC JUMP JUMPDEST SWAP1 POP PUSH2 0x236A DUP5 DUP3 PUSH1 0x1 PUSH2 0x20BC JUMP JUMPDEST POP DUP3 PUSH20 0xFFFFFFFFFFFFFFFFFFFFFFFFFFFFFFFFFFFFFFFF AND DUP5 PUSH20 0xFFFFFFFFFFFFFFFFFFFFFFFFFFFFFFFFFFFFFFFF AND EQ PUSH2 0x244D JUMPI PUSH1 0x0 PUSH2 0x23A9 DUP5 PUSH2 0xBFC JUMP JUMPDEST SWAP1 POP PUSH2 0x23B7 DUP5 DUP3 PUSH1 0x1 PUSH2 0x20BC JUMP JUMPDEST POP PUSH20 0xFFFFFFFFFFFFFFFFFFFFFFFFFFFFFFFFFFFFFFFF DUP6 AND PUSH1 0x0 SWAP1 DUP2 MSTORE PUSH1 0x3E PUSH1 0x20 MSTORE PUSH1 0x40 SWAP1 KECCAK256 SLOAD PUSH2 0x23EA DUP2 DUP6 DUP8 DUP6 PUSH2 0x1B82 JUMP JUMPDEST PUSH20 0xFFFFFFFFFFFFFFFFFFFFFFFFFFFFFFFFFFFFFFFF DUP7 AND PUSH1 0x0 SWAP1 DUP2 MSTORE PUSH1 0x3E PUSH1 0x20 MSTORE PUSH1 0x40 SWAP1 KECCAK256 SSTORE DUP3 DUP5 EQ DUP1 ISZERO PUSH2 0x241E JUMPI POP DUP1 ISZERO ISZERO JUMPDEST ISZERO PUSH2 0x244A JUMPI PUSH20 0xFFFFFFFFFFFFFFFFFFFFFFFFFFFFFFFFFFFFFFFF DUP7 AND PUSH1 0x0 SWAP1 DUP2 MSTORE PUSH1 0x3E PUSH1 0x20 MSTORE PUSH1 0x40 DUP2 KECCAK256 SSTORE JUMPDEST POP POP JUMPDEST PUSH2 0x2458 DUP5 DUP5 DUP5 PUSH2 0x3399 JUMP JUMPDEST POP POP POP POP JUMP JUMPDEST PUSH1 0x0 DUP2 DUP5 DUP5 GT ISZERO PUSH2 0x2507 JUMPI PUSH1 0x40 MLOAD PUSH32 0x8C379A000000000000000000000000000000000000000000000000000000000 DUP2 MSTORE PUSH1 0x4 ADD DUP1 DUP1 PUSH1 0x20 ADD DUP3 DUP2 SUB DUP3 MSTORE DUP4 DUP2 DUP2 MLOAD DUP2 MSTORE PUSH1 0x20 ADD SWAP2 POP DUP1 MLOAD SWAP1 PUSH1 0x20 ADD SWAP1 DUP1 DUP4 DUP4 PUSH1 0x0 JUMPDEST DUP4 DUP2 LT ISZERO PUSH2 0x24CC JUMPI DUP2 DUP2 ADD MLOAD DUP4 DUP3 ADD MSTORE PUSH1 0x20 ADD PUSH2 0x24B4 JUMP JUMPDEST POP POP POP POP SWAP1 POP SWAP1 DUP2 ADD SWAP1 PUSH1 0x1F AND DUP1 ISZERO PUSH2 0x24F9 JUMPI DUP1 DUP3 SUB DUP1 MLOAD PUSH1 0x1 DUP4 PUSH1 0x20 SUB PUSH2 0x100 EXP SUB NOT AND DUP2 MSTORE PUSH1 0x20 ADD SWAP2 POP JUMPDEST POP SWAP3 POP POP POP PUSH1 0x40 MLOAD DUP1 SWAP2 SUB SWAP1 REVERT JUMPDEST POP POP POP SWAP1 SUB SWAP1 JUMP JUMPDEST PUSH20 0xFFFFFFFFFFFFFFFFFFFFFFFFFFFFFFFFFFFFFFFF DUP3 AND PUSH2 0x2591 JUMPI PUSH1 0x40 DUP1 MLOAD PUSH32 0x8C379A000000000000000000000000000000000000000000000000000000000 DUP2 MSTORE PUSH1 0x20 PUSH1 0x4 DUP3 ADD MSTORE PUSH1 0x11 PUSH1 0x24 DUP3 ADD MSTORE PUSH32 0x494E56414C49445F44454C454741544545000000000000000000000000000000 PUSH1 0x44 DUP3 ADD MSTORE SWAP1 MLOAD SWAP1 DUP2 SWAP1 SUB PUSH1 0x64 ADD SWAP1 REVERT JUMPDEST PUSH1 0x0 PUSH2 0x259C DUP3 PUSH2 0x2692 JUMP JUMPDEST SWAP3 POP POP POP PUSH1 0x0 PUSH2 0x25AB DUP6 PUSH2 0xBFC JUMP JUMPDEST SWAP1 POP PUSH1 0x0 PUSH2 0x25B9 DUP7 DUP5 PUSH2 0x26CC JUMP JUMPDEST PUSH20 0xFFFFFFFFFFFFFFFFFFFFFFFFFFFFFFFFFFFFFFFF DUP8 DUP2 AND PUSH1 0x0 SWAP1 DUP2 MSTORE PUSH1 0x20 DUP7 SWAP1 MSTORE PUSH1 0x40 SWAP1 KECCAK256 DUP1 SLOAD PUSH32 0xFFFFFFFFFFFFFFFFFFFFFFFF0000000000000000000000000000000000000000 AND SWAP2 DUP9 AND SWAP2 SWAP1 SWAP2 OR SWAP1 SSTORE SWAP1 POP PUSH2 0x261A DUP2 DUP7 DUP5 DUP8 PUSH2 0x3569 JUMP JUMPDEST DUP5 PUSH20 0xFFFFFFFFFFFFFFFFFFFFFFFFFFFFFFFFFFFFFFFF AND DUP7 PUSH20 0xFFFFFFFFFFFFFFFFFFFFFFFFFFFFFFFFFFFFFFFF AND PUSH32 0xE8D51C8E11BD570DB1734C8EC775785330E77007FEED45C43B608EF33FF914BD DUP7 PUSH1 0x40 MLOAD DUP1 DUP3 PUSH1 0x1 DUP2 GT ISZERO PUSH2 0x267A JUMPI INVALID JUMPDEST DUP2 MSTORE PUSH1 0x20 ADD SWAP2 POP POP PUSH1 0x40 MLOAD DUP1 SWAP2 SUB SWAP1 LOG3 POP POP POP POP POP POP JUMP JUMPDEST PUSH1 0x0 DUP1 DUP1 DUP1 DUP5 PUSH1 0x1 DUP2 GT ISZERO PUSH2 0x26A3 JUMPI INVALID JUMPDEST EQ ISZERO PUSH2 0x26B9 JUMPI POP PUSH1 0x6 SWAP2 POP PUSH1 0x7 SWAP1 POP PUSH1 0x3F PUSH2 0x26C5 JUMP JUMPDEST POP PUSH1 0x40 SWAP2 POP PUSH1 0x41 SWAP1 POP PUSH1 0x42 JUMPDEST SWAP2 SWAP4 SWAP1 SWAP3 POP JUMP JUMPDEST PUSH20 0xFFFFFFFFFFFFFFFFFFFFFFFFFFFFFFFFFFFFFFFF DUP1 DUP4 AND PUSH1 0x0 SWAP1 DUP2 MSTORE PUSH1 0x20 DUP4 SWAP1 MSTORE PUSH1 0x40 DUP2 KECCAK256 SLOAD SWAP1 SWAP2 AND DUP1 PUSH2 0xA3A JUMPI DUP4 SWAP2 POP POP PUSH2 0x751 JUMP JUMPDEST PUSH1 0x2 SWAP1 JUMP JUMPDEST PUSH1 0x0 DUP1 DUP1 JUMPDEST DUP4 MLOAD DUP2 LT ISZERO PUSH2 0x282F JUMPI PUSH1 0x0 PUSH1 0x3C PUSH1 0x0 DUP7 DUP5 DUP2 MLOAD DUP2 LT PUSH2 0x2729 JUMPI INVALID JUMPDEST PUSH1 0x20 SWAP1 DUP2 MUL SWAP2 SWAP1 SWAP2 ADD DUP2 ADD MLOAD MLOAD PUSH20 0xFFFFFFFFFFFFFFFFFFFFFFFFFFFFFFFFFFFFFFFF AND DUP3 MSTORE DUP2 ADD SWAP2 SWAP1 SWAP2 MSTORE PUSH1 0x40 ADD PUSH1 0x0 SWAP1 DUP2 KECCAK256 PUSH1 0x1 DUP2 ADD SLOAD DUP2 SLOAD DUP9 MLOAD SWAP3 SWAP5 POP PUSH2 0x27B4 SWAP3 PUSH16 0xFFFFFFFFFFFFFFFFFFFFFFFFFFFFFFFF DUP1 DUP4 AND SWAP3 PUSH17 0x100000000000000000000000000000000 SWAP1 DIV AND SWAP1 DUP11 SWAP1 DUP9 SWAP1 DUP2 LT PUSH2 0x27A3 JUMPI INVALID JUMPDEST PUSH1 0x20 MUL PUSH1 0x20 ADD ADD MLOAD PUSH1 0x40 ADD MLOAD PUSH2 0x3861 JUMP JUMPDEST SWAP1 POP PUSH2 0x2823 PUSH2 0x281C DUP8 DUP6 DUP2 MLOAD DUP2 LT PUSH2 0x27C8 JUMPI INVALID JUMPDEST PUSH1 0x20 MUL PUSH1 0x20 ADD ADD MLOAD PUSH1 0x20 ADD MLOAD DUP4 DUP6 PUSH1 0x2 ADD PUSH1 0x0 DUP13 PUSH20 0xFFFFFFFFFFFFFFFFFFFFFFFFFFFFFFFFFFFFFFFF AND PUSH20 0xFFFFFFFFFFFFFFFFFFFFFFFFFFFFFFFFFFFFFFFF AND DUP2 MSTORE PUSH1 0x20 ADD SWAP1 DUP2 MSTORE PUSH1 0x20 ADD PUSH1 0x0 KECCAK256 SLOAD PUSH2 0x3975 JUMP JUMPDEST DUP6 SWAP1 PUSH2 0x1E87 JUMP JUMPDEST SWAP4 POP POP POP PUSH1 0x1 ADD PUSH2 0x270E JUMP JUMPDEST POP SWAP4 SWAP3 POP POP POP JUMP JUMPDEST PUSH1 0x40 DUP1 MLOAD PUSH20 0xFFFFFFFFFFFFFFFFFFFFFFFFFFFFFFFFFFFFFFFF DUP1 DUP7 AND PUSH1 0x24 DUP4 ADD MSTORE DUP5 AND PUSH1 0x44 DUP3 ADD MSTORE PUSH1 0x64 DUP1 DUP3 ADD DUP5 SWAP1 MSTORE DUP3 MLOAD DUP1 DUP4 SUB SWAP1 SWAP2 ADD DUP2 MSTORE PUSH1 0x84 SWAP1 SWAP2 ADD SWAP1 SWAP2 MSTORE PUSH1 0x20 DUP2 ADD DUP1 MLOAD PUSH28 0xFFFFFFFFFFFFFFFFFFFFFFFFFFFFFFFFFFFFFFFFFFFFFFFFFFFFFFFF AND PUSH32 0x23B872DD00000000000000000000000000000000000000000000000000000000 OR SWAP1 MSTORE PUSH2 0x2458 SWAP1 DUP6 SWAP1 PUSH2 0x315B JUMP JUMPDEST PUSH20 0xFFFFFFFFFFFFFFFFFFFFFFFFFFFFFFFFFFFFFFFF DUP1 DUP5 AND PUSH1 0x0 SWAP1 DUP2 MSTORE PUSH1 0x3C PUSH1 0x20 SWAP1 DUP2 MSTORE PUSH1 0x40 DUP1 DUP4 KECCAK256 SWAP4 DUP9 AND DUP4 MSTORE PUSH1 0x2 DUP5 ADD SWAP1 SWAP2 MSTORE DUP2 KECCAK256 SLOAD SWAP1 SWAP2 SWAP1 DUP3 DUP1 PUSH2 0x2914 DUP9 DUP6 DUP9 PUSH2 0x2AD6 JUMP JUMPDEST SWAP1 POP DUP1 DUP4 EQ PUSH2 0x2999 JUMPI DUP7 ISZERO PUSH2 0x2931 JUMPI PUSH2 0x292E DUP8 DUP3 DUP6 PUSH2 0x3975 JUMP JUMPDEST SWAP2 POP JUMPDEST PUSH20 0xFFFFFFFFFFFFFFFFFFFFFFFFFFFFFFFFFFFFFFFF DUP1 DUP11 AND PUSH1 0x0 DUP2 DUP2 MSTORE PUSH1 0x2 DUP8 ADD PUSH1 0x20 MSTORE PUSH1 0x40 SWAP1 DUP2 SWAP1 KECCAK256 DUP5 SWAP1 SSTORE MLOAD SWAP2 DUP11 AND SWAP2 PUSH32 0xBB123B5C06D5408BBEA3C4FEF481578175CFB432E3B482C6186F02ED9086585B SWAP1 PUSH2 0x2990 SWAP1 DUP6 SWAP1 PUSH2 0x409D JUMP JUMPDEST PUSH1 0x40 MLOAD DUP1 SWAP2 SUB SWAP1 LOG3 JUMPDEST POP SWAP8 SWAP7 POP POP POP POP POP POP POP JUMP JUMPDEST PUSH20 0xFFFFFFFFFFFFFFFFFFFFFFFFFFFFFFFFFFFFFFFF DUP3 AND PUSH2 0x2A27 JUMPI PUSH1 0x40 DUP1 MLOAD PUSH32 0x8C379A000000000000000000000000000000000000000000000000000000000 DUP2 MSTORE PUSH1 0x20 PUSH1 0x4 DUP3 ADD MSTORE PUSH1 0x1F PUSH1 0x24 DUP3 ADD MSTORE PUSH32 0x45524332303A206D696E7420746F20746865207A65726F206164647265737300 PUSH1 0x44 DUP3 ADD MSTORE SWAP1 MLOAD SWAP1 DUP2 SWAP1 SUB PUSH1 0x64 ADD SWAP1 REVERT JUMPDEST PUSH2 0x2A33 PUSH1 0x0 DUP4 DUP4 PUSH2 0x2FD7 JUMP JUMPDEST PUSH1 0x2 SLOAD PUSH2 0x2A40 SWAP1 DUP3 PUSH2 0x1E87 JUMP JUMPDEST PUSH1 0x2 SSTORE PUSH20 0xFFFFFFFFFFFFFFFFFFFFFFFFFFFFFFFFFFFFFFFF DUP3 AND PUSH1 0x0 SWAP1 DUP2 MSTORE PUSH1 0x20 DUP2 SWAP1 MSTORE PUSH1 0x40 SWAP1 KECCAK256 SLOAD PUSH2 0x2A73 SWAP1 DUP3 PUSH2 0x1E87 JUMP JUMPDEST PUSH20 0xFFFFFFFFFFFFFFFFFFFFFFFFFFFFFFFFFFFFFFFF DUP4 AND PUSH1 0x0 DUP2 DUP2 MSTORE PUSH1 0x20 DUP2 DUP2 MSTORE PUSH1 0x40 DUP1 DUP4 KECCAK256 SWAP5 SWAP1 SWAP5 SSTORE DUP4 MLOAD DUP6 DUP2 MSTORE SWAP4 MLOAD SWAP3 SWAP4 SWAP2 SWAP3 PUSH32 0xDDF252AD1BE2C89B69C2B068FC378DAA952BA7F163C4A11628F55A4DF523B3EF SWAP3 DUP2 SWAP1 SUB SWAP1 SWAP2 ADD SWAP1 LOG3 POP POP JUMP JUMPDEST PUSH1 0x1 DUP3 ADD SLOAD DUP3 SLOAD PUSH1 0x0 SWAP2 SWAP1 PUSH17 0x100000000000000000000000000000000 SWAP1 DIV PUSH16 0xFFFFFFFFFFFFFFFFFFFFFFFFFFFFFFFF AND TIMESTAMP DUP2 EQ ISZERO PUSH2 0x2B17 JUMPI POP SWAP1 POP PUSH2 0xA3A JUMP JUMPDEST DUP5 SLOAD PUSH1 0x0 SWAP1 PUSH2 0x2B3B SWAP1 DUP5 SWAP1 PUSH16 0xFFFFFFFFFFFFFFFFFFFFFFFFFFFFFFFF AND DUP5 DUP9 PUSH2 0x3861 JUMP JUMPDEST SWAP1 POP DUP3 DUP2 EQ PUSH2 0x2B9C JUMPI DUP1 DUP7 PUSH1 0x1 ADD DUP2 SWAP1 SSTORE POP DUP7 PUSH20 0xFFFFFFFFFFFFFFFFFFFFFFFFFFFFFFFFFFFFFFFF AND PUSH32 0x5777CA300DFE5BEAD41006FBCE4389794DBC0ED8D6CCCEBFAF94630AA04184BC DUP3 PUSH1 0x40 MLOAD PUSH2 0x2B93 SWAP2 SWAP1 PUSH2 0x409D JUMP JUMPDEST PUSH1 0x40 MLOAD DUP1 SWAP2 SUB SWAP1 LOG2 JUMPDEST DUP6 SLOAD PUSH16 0xFFFFFFFFFFFFFFFFFFFFFFFFFFFFFFFF TIMESTAMP DUP2 AND PUSH17 0x100000000000000000000000000000000 MUL SWAP2 AND OR DUP7 SSTORE SWAP3 POP POP POP SWAP4 SWAP3 POP POP POP JUMP JUMPDEST PUSH1 0x0 NUMBER DUP3 GT ISZERO PUSH2 0x2C46 JUMPI PUSH1 0x40 DUP1 MLOAD PUSH32 0x8C379A000000000000000000000000000000000000000000000000000000000 DUP2 MSTORE PUSH1 0x20 PUSH1 0x4 DUP3 ADD MSTORE PUSH1 0x14 PUSH1 0x24 DUP3 ADD MSTORE PUSH32 0x494E56414C49445F424C4F434B5F4E554D424552000000000000000000000000 PUSH1 0x44 DUP3 ADD MSTORE SWAP1 MLOAD SWAP1 DUP2 SWAP1 SUB PUSH1 0x64 ADD SWAP1 REVERT JUMPDEST PUSH20 0xFFFFFFFFFFFFFFFFFFFFFFFFFFFFFFFFFFFFFFFF DUP4 AND PUSH1 0x0 SWAP1 DUP2 MSTORE PUSH1 0x20 DUP6 SWAP1 MSTORE PUSH1 0x40 SWAP1 KECCAK256 SLOAD DUP1 PUSH2 0x2C82 JUMPI PUSH2 0x2C7A DUP5 PUSH2 0xBFC JUMP JUMPDEST SWAP2 POP POP PUSH2 0xBF4 JUMP JUMPDEST PUSH20 0xFFFFFFFFFFFFFFFFFFFFFFFFFFFFFFFFFFFFFFFF DUP5 AND PUSH1 0x0 SWAP1 DUP2 MSTORE PUSH1 0x20 DUP8 DUP2 MSTORE PUSH1 0x40 DUP1 DUP4 KECCAK256 PUSH32 0xFFFFFFFFFFFFFFFFFFFFFFFFFFFFFFFFFFFFFFFFFFFFFFFFFFFFFFFFFFFFFFFF DUP6 ADD DUP5 MSTORE SWAP1 SWAP2 MSTORE SWAP1 KECCAK256 SLOAD PUSH16 0xFFFFFFFFFFFFFFFFFFFFFFFFFFFFFFFF AND DUP4 LT PUSH2 0x2D6A JUMPI PUSH20 0xFFFFFFFFFFFFFFFFFFFFFFFFFFFFFFFFFFFFFFFF DUP5 AND PUSH1 0x0 SWAP1 DUP2 MSTORE PUSH1 0x20 DUP8 DUP2 MSTORE PUSH1 0x40 DUP1 DUP4 KECCAK256 PUSH32 0xFFFFFFFFFFFFFFFFFFFFFFFFFFFFFFFFFFFFFFFFFFFFFFFFFFFFFFFFFFFFFFFF SWAP1 SWAP5 ADD DUP4 MSTORE SWAP3 SWAP1 MSTORE KECCAK256 SLOAD PUSH16 0xFFFFFFFFFFFFFFFFFFFFFFFFFFFFFFFF PUSH17 0x100000000000000000000000000000000 SWAP1 SWAP2 DIV AND SWAP1 POP PUSH2 0xBF4 JUMP JUMPDEST PUSH20 0xFFFFFFFFFFFFFFFFFFFFFFFFFFFFFFFFFFFFFFFF DUP5 AND PUSH1 0x0 SWAP1 DUP2 MSTORE PUSH1 0x20 DUP8 DUP2 MSTORE PUSH1 0x40 DUP1 DUP4 KECCAK256 DUP4 DUP1 MSTORE SWAP1 SWAP2 MSTORE SWAP1 KECCAK256 SLOAD PUSH16 0xFFFFFFFFFFFFFFFFFFFFFFFFFFFFFFFF AND DUP4 LT ISZERO PUSH2 0x2DBC JUMPI PUSH1 0x0 SWAP2 POP POP PUSH2 0xBF4 JUMP JUMPDEST PUSH1 0x0 PUSH32 0xFFFFFFFFFFFFFFFFFFFFFFFFFFFFFFFFFFFFFFFFFFFFFFFFFFFFFFFFFFFFFFFF DUP3 ADD JUMPDEST DUP2 DUP2 GT ISZERO PUSH2 0x2EC1 JUMPI PUSH1 0x2 DUP3 DUP3 SUB DIV DUP2 SUB PUSH2 0x2DFA PUSH2 0x3C27 JUMP JUMPDEST POP PUSH20 0xFFFFFFFFFFFFFFFFFFFFFFFFFFFFFFFFFFFFFFFF DUP8 AND PUSH1 0x0 SWAP1 DUP2 MSTORE PUSH1 0x20 DUP11 DUP2 MSTORE PUSH1 0x40 DUP1 DUP4 KECCAK256 DUP5 DUP5 MSTORE DUP3 MSTORE SWAP2 DUP3 SWAP1 KECCAK256 DUP3 MLOAD DUP1 DUP5 ADD SWAP1 SWAP4 MSTORE SLOAD PUSH16 0xFFFFFFFFFFFFFFFFFFFFFFFFFFFFFFFF DUP1 DUP3 AND DUP1 DUP6 MSTORE PUSH17 0x100000000000000000000000000000000 SWAP1 SWAP3 DIV AND SWAP2 DUP4 ADD SWAP2 SWAP1 SWAP2 MSTORE DUP8 EQ ISZERO PUSH2 0x2E90 JUMPI PUSH1 0x20 ADD MLOAD PUSH16 0xFFFFFFFFFFFFFFFFFFFFFFFFFFFFFFFF AND SWAP5 POP PUSH2 0xBF4 SWAP4 POP POP POP POP JUMP JUMPDEST DUP1 MLOAD PUSH16 0xFFFFFFFFFFFFFFFFFFFFFFFFFFFFFFFF AND DUP8 GT ISZERO PUSH2 0x2EB3 JUMPI DUP2 SWAP4 POP PUSH2 0x2EBA JUMP JUMPDEST PUSH1 0x1 DUP3 SUB SWAP3 POP JUMPDEST POP POP PUSH2 0x2DE2 JUMP JUMPDEST POP PUSH20 0xFFFFFFFFFFFFFFFFFFFFFFFFFFFFFFFFFFFFFFFF DUP6 AND PUSH1 0x0 SWAP1 DUP2 MSTORE PUSH1 0x20 DUP9 DUP2 MSTORE PUSH1 0x40 DUP1 DUP4 KECCAK256 SWAP4 DUP4 MSTORE SWAP3 SWAP1 MSTORE KECCAK256 SLOAD PUSH16 0xFFFFFFFFFFFFFFFFFFFFFFFFFFFFFFFF PUSH17 0x100000000000000000000000000000000 SWAP1 SWAP2 DIV AND SWAP2 POP POP SWAP5 SWAP4 POP POP POP POP JUMP JUMPDEST PUSH1 0x0 DUP3 PUSH2 0x2F31 JUMPI POP PUSH1 0x0 PUSH2 0x751 JUMP JUMPDEST DUP3 DUP3 MUL DUP3 DUP5 DUP3 DUP2 PUSH2 0x2F3E JUMPI INVALID JUMPDEST DIV EQ PUSH2 0xA3A JUMPI PUSH1 0x40 MLOAD PUSH32 0x8C379A000000000000000000000000000000000000000000000000000000000 DUP2 MSTORE PUSH1 0x4 ADD DUP1 DUP1 PUSH1 0x20 ADD DUP3 DUP2 SUB DUP3 MSTORE PUSH1 0x21 DUP2 MSTORE PUSH1 0x20 ADD DUP1 PUSH2 0x44B3 PUSH1 0x21 SWAP2 CODECOPY PUSH1 0x40 ADD SWAP2 POP POP PUSH1 0x40 MLOAD DUP1 SWAP2 SUB SWAP1 REVERT JUMPDEST PUSH1 0x0 PUSH2 0xA3A DUP4 DUP4 PUSH1 0x40 MLOAD DUP1 PUSH1 0x40 ADD PUSH1 0x40 MSTORE DUP1 PUSH1 0x1A DUP2 MSTORE PUSH1 0x20 ADD PUSH32 0x536166654D6174683A206469766973696F6E206279207A65726F000000000000 DUP2 MSTORE POP PUSH2 0x3997 JUMP JUMPDEST PUSH20 0xFFFFFFFFFFFFFFFFFFFFFFFFFFFFFFFFFFFFFFFF DUP1 DUP5 AND PUSH1 0x0 SWAP1 DUP2 MSTORE PUSH1 0x3F PUSH1 0x20 MSTORE PUSH1 0x40 DUP1 DUP3 KECCAK256 SLOAD DUP6 DUP5 AND DUP4 MSTORE SWAP2 KECCAK256 SLOAD SWAP1 DUP3 AND SWAP2 AND DUP2 PUSH2 0x3015 JUMPI DUP5 SWAP2 POP JUMPDEST PUSH20 0xFFFFFFFFFFFFFFFFFFFFFFFFFFFFFFFFFFFFFFFF DUP2 AND PUSH2 0x3033 JUMPI POP DUP3 JUMPDEST PUSH2 0x3040 DUP3 DUP3 DUP6 PUSH1 0x0 PUSH2 0x3569 JUMP JUMPDEST PUSH20 0xFFFFFFFFFFFFFFFFFFFFFFFFFFFFFFFFFFFFFFFF DUP1 DUP7 AND PUSH1 0x0 SWAP1 DUP2 MSTORE PUSH1 0x42 PUSH1 0x20 MSTORE PUSH1 0x40 DUP1 DUP3 KECCAK256 SLOAD DUP8 DUP5 AND DUP4 MSTORE SWAP2 KECCAK256 SLOAD SWAP1 DUP3 AND SWAP2 AND DUP2 PUSH2 0x307E JUMPI DUP7 SWAP2 POP JUMPDEST PUSH20 0xFFFFFFFFFFFFFFFFFFFFFFFFFFFFFFFFFFFFFFFF DUP2 AND PUSH2 0x309C JUMPI POP DUP5 JUMPDEST PUSH2 0x30A9 DUP3 DUP3 DUP8 PUSH1 0x1 PUSH2 0x3569 JUMP JUMPDEST PUSH1 0x8 SLOAD PUSH20 0xFFFFFFFFFFFFFFFFFFFFFFFFFFFFFFFFFFFFFFFF AND DUP1 ISZERO PUSH2 0x3151 JUMPI PUSH1 0x40 MLOAD PUSH32 0x4A39314900000000000000000000000000000000000000000000000000000000 DUP2 MSTORE PUSH20 0xFFFFFFFFFFFFFFFFFFFFFFFFFFFFFFFFFFFFFFFF DUP3 AND SWAP1 PUSH4 0x4A393149 SWAP1 PUSH2 0x311E SWAP1 DUP12 SWAP1 DUP12 SWAP1 DUP12 SWAP1 PUSH1 0x4 ADD PUSH2 0x403B JUMP JUMPDEST PUSH1 0x0 PUSH1 0x40 MLOAD DUP1 DUP4 SUB DUP2 PUSH1 0x0 DUP8 DUP1 EXTCODESIZE ISZERO DUP1 ISZERO PUSH2 0x3138 JUMPI PUSH1 0x0 DUP1 REVERT JUMPDEST POP GAS CALL ISZERO DUP1 ISZERO PUSH2 0x314C JUMPI RETURNDATASIZE PUSH1 0x0 DUP1 RETURNDATACOPY RETURNDATASIZE PUSH1 0x0 REVERT JUMPDEST POP POP POP POP JUMPDEST POP POP POP POP POP POP POP POP JUMP JUMPDEST PUSH2 0x317A DUP3 PUSH20 0xFFFFFFFFFFFFFFFFFFFFFFFFFFFFFFFFFFFFFFFF AND PUSH2 0x3A16 JUMP JUMPDEST PUSH2 0x31E5 JUMPI PUSH1 0x40 DUP1 MLOAD PUSH32 0x8C379A000000000000000000000000000000000000000000000000000000000 DUP2 MSTORE PUSH1 0x20 PUSH1 0x4 DUP3 ADD MSTORE PUSH1 0x1F PUSH1 0x24 DUP3 ADD MSTORE PUSH32 0x5361666545524332303A2063616C6C20746F206E6F6E2D636F6E747261637400 PUSH1 0x44 DUP3 ADD MSTORE SWAP1 MLOAD SWAP1 DUP2 SWAP1 SUB PUSH1 0x64 ADD SWAP1 REVERT JUMPDEST PUSH1 0x0 PUSH1 0x60 DUP4 PUSH20 0xFFFFFFFFFFFFFFFFFFFFFFFFFFFFFFFFFFFFFFFF AND DUP4 PUSH1 0x40 MLOAD DUP1 DUP3 DUP1 MLOAD SWAP1 PUSH1 0x20 ADD SWAP1 DUP1 DUP4 DUP4 JUMPDEST PUSH1 0x20 DUP4 LT PUSH2 0x324E JUMPI DUP1 MLOAD DUP3 MSTORE PUSH32 0xFFFFFFFFFFFFFFFFFFFFFFFFFFFFFFFFFFFFFFFFFFFFFFFFFFFFFFFFFFFFFFE0 SWAP1 SWAP3 ADD SWAP2 PUSH1 0x20 SWAP2 DUP3 ADD SWAP2 ADD PUSH2 0x3211 JUMP JUMPDEST PUSH1 0x1 DUP4 PUSH1 0x20 SUB PUSH2 0x100 EXP SUB DUP1 NOT DUP3 MLOAD AND DUP2 DUP5 MLOAD AND DUP1 DUP3 OR DUP6 MSTORE POP POP POP POP POP POP SWAP1 POP ADD SWAP2 POP POP PUSH1 0x0 PUSH1 0x40 MLOAD DUP1 DUP4 SUB DUP2 PUSH1 0x0 DUP7 GAS CALL SWAP2 POP POP RETURNDATASIZE DUP1 PUSH1 0x0 DUP2 EQ PUSH2 0x32B0 JUMPI PUSH1 0x40 MLOAD SWAP2 POP PUSH1 0x1F NOT PUSH1 0x3F RETURNDATASIZE ADD AND DUP3 ADD PUSH1 0x40 MSTORE RETURNDATASIZE DUP3 MSTORE RETURNDATASIZE PUSH1 0x0 PUSH1 0x20 DUP5 ADD RETURNDATACOPY PUSH2 0x32B5 JUMP JUMPDEST PUSH1 0x60 SWAP2 POP JUMPDEST POP SWAP2 POP SWAP2 POP DUP2 PUSH2 0x3326 JUMPI PUSH1 0x40 DUP1 MLOAD PUSH32 0x8C379A000000000000000000000000000000000000000000000000000000000 DUP2 MSTORE PUSH1 0x20 PUSH1 0x4 DUP3 ADD DUP2 SWAP1 MSTORE PUSH1 0x24 DUP3 ADD MSTORE PUSH32 0x5361666545524332303A206C6F772D6C6576656C2063616C6C206661696C6564 PUSH1 0x44 DUP3 ADD MSTORE SWAP1 MLOAD SWAP1 DUP2 SWAP1 SUB PUSH1 0x64 ADD SWAP1 REVERT JUMPDEST DUP1 MLOAD ISZERO PUSH2 0x2458 JUMPI DUP1 DUP1 PUSH1 0x20 ADD SWAP1 MLOAD PUSH1 0x20 DUP2 LT ISZERO PUSH2 0x3342 JUMPI PUSH1 0x0 DUP1 REVERT JUMPDEST POP MLOAD PUSH2 0x2458 JUMPI PUSH1 0x40 MLOAD PUSH32 0x8C379A000000000000000000000000000000000000000000000000000000000 DUP2 MSTORE PUSH1 0x4 ADD DUP1 DUP1 PUSH1 0x20 ADD DUP3 DUP2 SUB DUP3 MSTORE PUSH1 0x2A DUP2 MSTORE PUSH1 0x20 ADD DUP1 PUSH2 0x4594 PUSH1 0x2A SWAP2 CODECOPY PUSH1 0x40 ADD SWAP2 POP POP PUSH1 0x40 MLOAD DUP1 SWAP2 SUB SWAP1 REVERT JUMPDEST PUSH20 0xFFFFFFFFFFFFFFFFFFFFFFFFFFFFFFFFFFFFFFFF DUP4 AND PUSH2 0x3405 JUMPI PUSH1 0x40 MLOAD PUSH32 0x8C379A000000000000000000000000000000000000000000000000000000000 DUP2 MSTORE PUSH1 0x4 ADD DUP1 DUP1 PUSH1 0x20 ADD DUP3 DUP2 SUB DUP3 MSTORE PUSH1 0x25 DUP2 MSTORE PUSH1 0x20 ADD DUP1 PUSH2 0x454B PUSH1 0x25 SWAP2 CODECOPY PUSH1 0x40 ADD SWAP2 POP POP PUSH1 0x40 MLOAD DUP1 SWAP2 SUB SWAP1 REVERT JUMPDEST PUSH20 0xFFFFFFFFFFFFFFFFFFFFFFFFFFFFFFFFFFFFFFFF DUP3 AND PUSH2 0x3471 JUMPI PUSH1 0x40 MLOAD PUSH32 0x8C379A000000000000000000000000000000000000000000000000000000000 DUP2 MSTORE PUSH1 0x4 ADD DUP1 DUP1 PUSH1 0x20 ADD DUP3 DUP2 SUB DUP3 MSTORE PUSH1 0x23 DUP2 MSTORE PUSH1 0x20 ADD DUP1 PUSH2 0x4426 PUSH1 0x23 SWAP2 CODECOPY PUSH1 0x40 ADD SWAP2 POP POP PUSH1 0x40 MLOAD DUP1 SWAP2 SUB SWAP1 REVERT JUMPDEST PUSH2 0x347C DUP4 DUP4 DUP4 PUSH2 0x2FD7 JUMP JUMPDEST PUSH2 0x34C6 DUP2 PUSH1 0x40 MLOAD DUP1 PUSH1 0x60 ADD PUSH1 0x40 MSTORE DUP1 PUSH1 0x26 DUP2 MSTORE PUSH1 0x20 ADD PUSH2 0x448D PUSH1 0x26 SWAP2 CODECOPY PUSH20 0xFFFFFFFFFFFFFFFFFFFFFFFFFFFFFFFFFFFFFFFF DUP7 AND PUSH1 0x0 SWAP1 DUP2 MSTORE PUSH1 0x20 DUP2 SWAP1 MSTORE PUSH1 0x40 SWAP1 KECCAK256 SLOAD SWAP2 SWAP1 PUSH2 0x245E JUMP JUMPDEST PUSH20 0xFFFFFFFFFFFFFFFFFFFFFFFFFFFFFFFFFFFFFFFF DUP1 DUP6 AND PUSH1 0x0 SWAP1 DUP2 MSTORE PUSH1 0x20 DUP2 SWAP1 MSTORE PUSH1 0x40 DUP1 DUP3 KECCAK256 SWAP4 SWAP1 SWAP4 SSTORE SWAP1 DUP5 AND DUP2 MSTORE KECCAK256 SLOAD PUSH2 0x3502 SWAP1 DUP3 PUSH2 0x1E87 JUMP JUMPDEST PUSH20 0xFFFFFFFFFFFFFFFFFFFFFFFFFFFFFFFFFFFFFFFF DUP1 DUP5 AND PUSH1 0x0 DUP2 DUP2 MSTORE PUSH1 0x20 DUP2 DUP2 MSTORE PUSH1 0x40 SWAP2 DUP3 SWAP1 KECCAK256 SWAP5 SWAP1 SWAP5 SSTORE DUP1 MLOAD DUP6 DUP2 MSTORE SWAP1 MLOAD SWAP2 SWAP4 SWAP3 DUP8 AND SWAP3 PUSH32 0xDDF252AD1BE2C89B69C2B068FC378DAA952BA7F163C4A11628F55A4DF523B3EF SWAP3 SWAP2 DUP3 SWAP1 SUB ADD SWAP1 LOG3 POP POP POP JUMP JUMPDEST DUP3 PUSH20 0xFFFFFFFFFFFFFFFFFFFFFFFFFFFFFFFFFFFFFFFF AND DUP5 PUSH20 0xFFFFFFFFFFFFFFFFFFFFFFFFFFFFFFFFFFFFFFFF AND EQ ISZERO PUSH2 0x35A2 JUMPI PUSH2 0x2458 JUMP JUMPDEST PUSH1 0x0 DUP1 PUSH2 0x35AE DUP4 PUSH2 0x2692 JUMP JUMPDEST POP SWAP1 SWAP3 POP SWAP1 POP PUSH20 0xFFFFFFFFFFFFFFFFFFFFFFFFFFFFFFFFFFFFFFFF DUP7 AND ISZERO PUSH2 0x3709 JUMPI PUSH20 0xFFFFFFFFFFFFFFFFFFFFFFFFFFFFFFFFFFFFFFFF DUP7 AND PUSH1 0x0 SWAP1 DUP2 MSTORE PUSH1 0x20 DUP3 SWAP1 MSTORE PUSH1 0x40 DUP2 KECCAK256 SLOAD DUP1 ISZERO PUSH2 0x367A JUMPI PUSH20 0xFFFFFFFFFFFFFFFFFFFFFFFFFFFFFFFFFFFFFFFF DUP9 AND PUSH1 0x0 SWAP1 DUP2 MSTORE PUSH1 0x20 DUP6 DUP2 MSTORE PUSH1 0x40 DUP1 DUP4 KECCAK256 PUSH32 0xFFFFFFFFFFFFFFFFFFFFFFFFFFFFFFFFFFFFFFFFFFFFFFFFFFFFFFFFFFFFFFFF DUP6 ADD DUP5 MSTORE SWAP1 SWAP2 MSTORE SWAP1 KECCAK256 SLOAD PUSH17 0x100000000000000000000000000000000 SWAP1 DIV PUSH16 0xFFFFFFFFFFFFFFFFFFFFFFFFFFFFFFFF AND SWAP2 POP PUSH2 0x3686 JUMP JUMPDEST PUSH2 0x3683 DUP9 PUSH2 0xBFC JUMP JUMPDEST SWAP2 POP JUMPDEST PUSH2 0x369C DUP5 DUP5 DUP11 DUP6 PUSH2 0x3697 DUP2 DUP13 PUSH2 0x207A JUMP JUMPDEST PUSH2 0x3A4F JUMP JUMPDEST PUSH20 0xFFFFFFFFFFFFFFFFFFFFFFFFFFFFFFFFFFFFFFFF DUP9 AND PUSH32 0xA0A19463EE116110C9B282012D9B65CC5522DC38A9520340CBAF3142E550127F PUSH2 0x36DE DUP5 DUP10 PUSH2 0x207A JUMP JUMPDEST DUP8 PUSH1 0x40 MLOAD DUP1 DUP4 DUP2 MSTORE PUSH1 0x20 ADD DUP3 PUSH1 0x1 DUP2 GT ISZERO PUSH2 0x36F5 JUMPI INVALID JUMPDEST DUP2 MSTORE PUSH1 0x20 ADD SWAP3 POP POP POP PUSH1 0x40 MLOAD DUP1 SWAP2 SUB SWAP1 LOG2 POP POP JUMPDEST PUSH20 0xFFFFFFFFFFFFFFFFFFFFFFFFFFFFFFFFFFFFFFFF DUP6 AND ISZERO PUSH2 0x3859 JUMPI PUSH20 0xFFFFFFFFFFFFFFFFFFFFFFFFFFFFFFFFFFFFFFFF DUP6 AND PUSH1 0x0 SWAP1 DUP2 MSTORE PUSH1 0x20 DUP3 SWAP1 MSTORE PUSH1 0x40 DUP2 KECCAK256 SLOAD DUP1 ISZERO PUSH2 0x37CF JUMPI PUSH20 0xFFFFFFFFFFFFFFFFFFFFFFFFFFFFFFFFFFFFFFFF DUP8 AND PUSH1 0x0 SWAP1 DUP2 MSTORE PUSH1 0x20 DUP6 DUP2 MSTORE PUSH1 0x40 DUP1 DUP4 KECCAK256 PUSH32 0xFFFFFFFFFFFFFFFFFFFFFFFFFFFFFFFFFFFFFFFFFFFFFFFFFFFFFFFFFFFFFFFF DUP6 ADD DUP5 MSTORE SWAP1 SWAP2 MSTORE SWAP1 KECCAK256 SLOAD PUSH17 0x100000000000000000000000000000000 SWAP1 DIV PUSH16 0xFFFFFFFFFFFFFFFFFFFFFFFFFFFFFFFF AND SWAP2 POP PUSH2 0x37DB JUMP JUMPDEST PUSH2 0x37D8 DUP8 PUSH2 0xBFC JUMP JUMPDEST SWAP2 POP JUMPDEST PUSH2 0x37EC DUP5 DUP5 DUP10 DUP6 PUSH2 0x3697 DUP2 DUP13 PUSH2 0x1E87 JUMP JUMPDEST PUSH20 0xFFFFFFFFFFFFFFFFFFFFFFFFFFFFFFFFFFFFFFFF DUP8 AND PUSH32 0xA0A19463EE116110C9B282012D9B65CC5522DC38A9520340CBAF3142E550127F PUSH2 0x382E DUP5 DUP10 PUSH2 0x1E87 JUMP JUMPDEST DUP8 PUSH1 0x40 MLOAD DUP1 DUP4 DUP2 MSTORE PUSH1 0x20 ADD DUP3 PUSH1 0x1 DUP2 GT ISZERO PUSH2 0x3845 JUMPI INVALID JUMPDEST DUP2 MSTORE PUSH1 0x20 ADD SWAP3 POP POP POP PUSH1 0x40 MLOAD DUP1 SWAP2 SUB SWAP1 LOG2 POP POP JUMPDEST POP POP POP POP POP POP JUMP JUMPDEST PUSH1 0x0 DUP4 ISZERO DUP1 PUSH2 0x386E JUMPI POP DUP2 ISZERO JUMPDEST DUP1 PUSH2 0x388A JUMPI POP TIMESTAMP DUP4 PUSH16 0xFFFFFFFFFFFFFFFFFFFFFFFFFFFFFFFF AND EQ JUMPDEST DUP1 PUSH2 0x38C7 JUMPI POP PUSH32 0x0 DUP4 PUSH16 0xFFFFFFFFFFFFFFFFFFFFFFFFFFFFFFFF AND LT ISZERO JUMPDEST ISZERO PUSH2 0x38D3 JUMPI POP DUP4 PUSH2 0xBF4 JUMP JUMPDEST PUSH1 0x0 PUSH32 0x0 TIMESTAMP GT PUSH2 0x3902 JUMPI TIMESTAMP PUSH2 0x3924 JUMP JUMPDEST PUSH32 0x0 JUMPDEST SWAP1 POP PUSH1 0x0 PUSH2 0x3944 DUP3 PUSH16 0xFFFFFFFFFFFFFFFFFFFFFFFFFFFFFFFF DUP8 AND PUSH2 0x207A JUMP JUMPDEST SWAP1 POP PUSH2 0x396A DUP8 PUSH2 0x1C6A DUP7 PUSH2 0x1C70 PUSH8 0xDE0B6B3A7640000 PUSH2 0x3964 DUP13 DUP9 PUSH2 0x2F22 JUMP JUMPDEST SWAP1 PUSH2 0x2F22 JUMP JUMPDEST SWAP8 SWAP7 POP POP POP POP POP POP POP JUMP JUMPDEST PUSH1 0x0 PUSH2 0xBF4 PUSH8 0xDE0B6B3A7640000 PUSH2 0x1C70 PUSH2 0x3990 DUP7 DUP7 PUSH2 0x207A JUMP JUMPDEST DUP8 SWAP1 PUSH2 0x2F22 JUMP JUMPDEST PUSH1 0x0 DUP2 DUP4 PUSH2 0x3A00 JUMPI PUSH1 0x40 MLOAD PUSH32 0x8C379A000000000000000000000000000000000000000000000000000000000 DUP2 MSTORE PUSH1 0x20 PUSH1 0x4 DUP3 ADD DUP2 DUP2 MSTORE DUP4 MLOAD PUSH1 0x24 DUP5 ADD MSTORE DUP4 MLOAD SWAP1 SWAP3 DUP4 SWAP3 PUSH1 0x44 SWAP1 SWAP2 ADD SWAP2 SWAP1 DUP6 ADD SWAP1 DUP1 DUP4 DUP4 PUSH1 0x0 DUP4 ISZERO PUSH2 0x24CC JUMPI DUP2 DUP2 ADD MLOAD DUP4 DUP3 ADD MSTORE PUSH1 0x20 ADD PUSH2 0x24B4 JUMP JUMPDEST POP PUSH1 0x0 DUP4 DUP6 DUP2 PUSH2 0x3A0C JUMPI INVALID JUMPDEST DIV SWAP6 SWAP5 POP POP POP POP POP JUMP JUMPDEST PUSH1 0x0 DUP2 EXTCODEHASH PUSH32 0xC5D2460186F7233C927E7DB2DCC703C0E500B653CA82273B7BFAD8045D85A470 DUP2 DUP2 EQ DUP1 ISZERO SWAP1 PUSH2 0xBF4 JUMPI POP POP ISZERO ISZERO SWAP3 SWAP2 POP POP JUMP JUMPDEST PUSH20 0xFFFFFFFFFFFFFFFFFFFFFFFFFFFFFFFFFFFFFFFF DUP4 AND PUSH1 0x0 SWAP1 DUP2 MSTORE PUSH1 0x20 DUP6 DUP2 MSTORE PUSH1 0x40 DUP1 DUP4 KECCAK256 SLOAD SWAP2 DUP9 SWAP1 MSTORE SWAP1 SWAP2 KECCAK256 NUMBER SWAP2 SWAP1 DUP2 ISZERO DUP1 ISZERO SWAP1 PUSH2 0x3AD4 JUMPI POP PUSH32 0xFFFFFFFFFFFFFFFFFFFFFFFFFFFFFFFFFFFFFFFFFFFFFFFFFFFFFFFFFFFFFFFF DUP3 ADD PUSH1 0x0 SWAP1 DUP2 MSTORE PUSH1 0x20 DUP3 SWAP1 MSTORE PUSH1 0x40 SWAP1 KECCAK256 SLOAD PUSH16 0xFFFFFFFFFFFFFFFFFFFFFFFFFFFFFFFF DUP5 DUP2 AND SWAP2 AND EQ JUMPDEST ISZERO PUSH2 0x3B3D JUMPI PUSH32 0xFFFFFFFFFFFFFFFFFFFFFFFFFFFFFFFFFFFFFFFFFFFFFFFFFFFFFFFFFFFFFFFF DUP3 ADD PUSH1 0x0 SWAP1 DUP2 MSTORE PUSH1 0x20 DUP3 SWAP1 MSTORE PUSH1 0x40 SWAP1 KECCAK256 DUP1 SLOAD PUSH16 0xFFFFFFFFFFFFFFFFFFFFFFFFFFFFFFFF DUP1 DUP8 AND PUSH17 0x100000000000000000000000000000000 MUL SWAP2 AND OR SWAP1 SSTORE PUSH2 0x3151 JUMP JUMPDEST PUSH1 0x40 DUP1 MLOAD DUP1 DUP3 ADD DUP3 MSTORE PUSH16 0xFFFFFFFFFFFFFFFFFFFFFFFFFFFFFFFF DUP1 DUP7 AND DUP3 MSTORE DUP7 DUP2 AND PUSH1 0x20 DUP1 DUP5 ADD SWAP2 DUP3 MSTORE PUSH1 0x0 DUP8 DUP2 MSTORE DUP7 DUP3 MSTORE DUP6 DUP2 KECCAK256 SWAP5 MLOAD DUP6 SLOAD SWAP4 MLOAD DUP6 AND PUSH17 0x100000000000000000000000000000000 MUL SWAP1 DUP6 AND PUSH32 0xFFFFFFFFFFFFFFFFFFFFFFFFFFFFFFFF00000000000000000000000000000000 SWAP1 SWAP5 AND SWAP4 SWAP1 SWAP4 OR SWAP1 SWAP4 AND SWAP2 SWAP1 SWAP2 OR SWAP1 SWAP3 SSTORE PUSH20 0xFFFFFFFFFFFFFFFFFFFFFFFFFFFFFFFFFFFFFFFF DUP10 AND DUP2 MSTORE SWAP1 DUP10 SWAP1 MSTORE KECCAK256 PUSH1 0x1 DUP4 ADD SWAP1 SSTORE POP POP POP POP POP POP POP POP JUMP JUMPDEST PUSH1 0x40 MLOAD DUP1 PUSH1 0x60 ADD PUSH1 0x40 MSTORE DUP1 PUSH1 0x0 PUSH20 0xFFFFFFFFFFFFFFFFFFFFFFFFFFFFFFFFFFFFFFFF AND DUP2 MSTORE PUSH1 0x20 ADD PUSH1 0x0 DUP2 MSTORE PUSH1 0x20 ADD PUSH1 0x0 DUP2 MSTORE POP SWAP1 JUMP JUMPDEST PUSH1 0x40 DUP1 MLOAD DUP1 DUP3 ADD SWAP1 SWAP2 MSTORE PUSH1 0x0 DUP1 DUP3 MSTORE PUSH1 0x20 DUP3 ADD MSTORE SWAP1 JUMP JUMPDEST DUP1 CALLDATALOAD PUSH20 0xFFFFFFFFFFFFFFFFFFFFFFFFFFFFFFFFFFFFFFFF DUP2 AND DUP2 EQ PUSH2 0xC23 JUMPI PUSH1 0x0 DUP1 REVERT JUMPDEST DUP1 CALLDATALOAD PUSH1 0x2 DUP2 LT PUSH2 0xC23 JUMPI PUSH1 0x0 DUP1 REVERT JUMPDEST DUP1 CALLDATALOAD PUSH1 0xFF DUP2 AND DUP2 EQ PUSH2 0xC23 JUMPI PUSH1 0x0 DUP1 REVERT JUMPDEST PUSH1 0x0 PUSH1 0x20 DUP3 DUP5 SUB SLT ISZERO PUSH2 0x3C93 JUMPI DUP1 DUP2 REVERT JUMPDEST PUSH2 0xA3A DUP3 PUSH2 0x3C3E JUMP JUMPDEST PUSH1 0x0 DUP1 PUSH1 0x40 DUP4 DUP6 SUB SLT ISZERO PUSH2 0x3CAE JUMPI DUP1 DUP2 REVERT JUMPDEST PUSH2 0x3CB7 DUP4 PUSH2 0x3C3E JUMP JUMPDEST SWAP2 POP PUSH2 0x3CC5 PUSH1 0x20 DUP5 ADD PUSH2 0x3C3E JUMP JUMPDEST SWAP1 POP SWAP3 POP SWAP3 SWAP1 POP JUMP JUMPDEST PUSH1 0x0 DUP1 PUSH1 0x0 PUSH1 0x60 DUP5 DUP7 SUB SLT ISZERO PUSH2 0x3CE2 JUMPI DUP1 DUP2 REVERT JUMPDEST PUSH2 0x3CEB DUP5 PUSH2 0x3C3E JUMP JUMPDEST SWAP3 POP PUSH2 0x3CF9 PUSH1 0x20 DUP6 ADD PUSH2 0x3C3E JUMP JUMPDEST SWAP2 POP PUSH1 0x40 DUP5 ADD CALLDATALOAD SWAP1 POP SWAP3 POP SWAP3 POP SWAP3 JUMP JUMPDEST PUSH1 0x0 DUP1 PUSH1 0x0 DUP1 PUSH1 0x0 DUP1 PUSH1 0x0 PUSH1 0xE0 DUP9 DUP11 SUB SLT ISZERO PUSH2 0x3D23 JUMPI DUP3 DUP4 REVERT JUMPDEST PUSH2 0x3D2C DUP9 PUSH2 0x3C3E JUMP JUMPDEST SWAP7 POP PUSH2 0x3D3A PUSH1 0x20 DUP10 ADD PUSH2 0x3C3E JUMP JUMPDEST SWAP6 POP PUSH1 0x40 DUP9 ADD CALLDATALOAD SWAP5 POP PUSH1 0x60 DUP9 ADD CALLDATALOAD SWAP4 POP PUSH2 0x3D56 PUSH1 0x80 DUP10 ADD PUSH2 0x3C71 JUMP JUMPDEST SWAP3 POP PUSH1 0xA0 DUP9 ADD CALLDATALOAD SWAP2 POP PUSH1 0xC0 DUP9 ADD CALLDATALOAD SWAP1 POP SWAP3 SWAP6 SWAP9 SWAP2 SWAP5 SWAP8 POP SWAP3 SWAP6 POP JUMP JUMPDEST PUSH1 0x0 DUP1 PUSH1 0x40 DUP4 DUP6 SUB SLT ISZERO PUSH2 0x3D84 JUMPI DUP2 DUP3 REVERT JUMPDEST PUSH2 0x3D8D DUP4 PUSH2 0x3C3E JUMP JUMPDEST SWAP2 POP PUSH2 0x3CC5 PUSH1 0x20 DUP5 ADD PUSH2 0x3C62 JUMP JUMPDEST PUSH1 0x0 DUP1 PUSH1 0x0 DUP1 PUSH1 0x0 DUP1 PUSH1 0x0 PUSH1 0xE0 DUP9 DUP11 SUB SLT ISZERO PUSH2 0x3DB5 JUMPI DUP3 DUP4 REVERT JUMPDEST PUSH2 0x3DBE DUP9 PUSH2 0x3C3E JUMP JUMPDEST SWAP7 POP PUSH2 0x3D3A PUSH1 0x20 DUP10 ADD PUSH2 0x3C62 JUMP JUMPDEST PUSH1 0x0 DUP1 PUSH1 0x40 DUP4 DUP6 SUB SLT ISZERO PUSH2 0x3DDE JUMPI DUP2 DUP3 REVERT JUMPDEST PUSH2 0x3DE7 DUP4 PUSH2 0x3C3E JUMP JUMPDEST SWAP5 PUSH1 0x20 SWAP4 SWAP1 SWAP4 ADD CALLDATALOAD SWAP4 POP POP POP JUMP JUMPDEST PUSH1 0x0 DUP1 PUSH1 0x0 PUSH1 0x60 DUP5 DUP7 SUB SLT ISZERO PUSH2 0x3E09 JUMPI DUP3 DUP4 REVERT JUMPDEST PUSH2 0x3E12 DUP5 PUSH2 0x3C3E JUMP JUMPDEST SWAP3 POP PUSH1 0x20 DUP5 ADD CALLDATALOAD SWAP2 POP PUSH2 0x3E27 PUSH1 0x40 DUP6 ADD PUSH2 0x3C62 JUMP JUMPDEST SWAP1 POP SWAP3 POP SWAP3 POP SWAP3 JUMP JUMPDEST PUSH1 0x0 DUP1 PUSH1 0x0 DUP1 PUSH1 0x0 DUP1 PUSH1 0xC0 DUP8 DUP10 SUB SLT ISZERO PUSH2 0x3E48 JUMPI DUP2 DUP3 REVERT JUMPDEST PUSH2 0x3E51 DUP8 PUSH2 0x3C3E JUMP JUMPDEST SWAP6 POP PUSH1 0x20 DUP8 ADD CALLDATALOAD SWAP5 POP PUSH1 0x40 DUP8 ADD CALLDATALOAD SWAP4 POP PUSH2 0x3E6D PUSH1 0x60 DUP9 ADD PUSH2 0x3C71 JUMP JUMPDEST SWAP3 POP PUSH1 0x80 DUP8 ADD CALLDATALOAD SWAP2 POP PUSH1 0xA0 DUP8 ADD CALLDATALOAD SWAP1 POP SWAP3 SWAP6 POP SWAP3 SWAP6 POP SWAP3 SWAP6 JUMP JUMPDEST PUSH1 0x0 DUP1 PUSH1 0x20 DUP4 DUP6 SUB SLT ISZERO PUSH2 0x3E99 JUMPI DUP2 DUP3 REVERT JUMPDEST DUP3 CALLDATALOAD PUSH8 0xFFFFFFFFFFFFFFFF DUP1 DUP3 GT ISZERO PUSH2 0x3EB0 JUMPI DUP4 DUP5 REVERT JUMPDEST DUP2 DUP6 ADD SWAP2 POP DUP6 PUSH1 0x1F DUP4 ADD SLT PUSH2 0x3EC3 JUMPI DUP4 DUP5 REVERT JUMPDEST DUP2 CALLDATALOAD DUP2 DUP2 GT ISZERO PUSH2 0x3ED1 JUMPI DUP5 DUP6 REVERT JUMPDEST DUP7 PUSH1 0x20 PUSH1 0x60 DUP4 MUL DUP6 ADD ADD GT ISZERO PUSH2 0x3EE5 JUMPI DUP5 DUP6 REVERT JUMPDEST PUSH1 0x20 SWAP3 SWAP1 SWAP3 ADD SWAP7 SWAP2 SWAP6 POP SWAP1 SWAP4 POP POP POP POP JUMP JUMPDEST PUSH1 0x0 PUSH1 0x20 DUP3 DUP5 SUB SLT ISZERO PUSH2 0x3F08 JUMPI DUP1 DUP2 REVERT JUMPDEST DUP2 CALLDATALOAD PUSH16 0xFFFFFFFFFFFFFFFFFFFFFFFFFFFFFFFF DUP2 AND DUP2 EQ PUSH2 0xA3A JUMPI DUP2 DUP3 REVERT JUMPDEST PUSH1 0x0 PUSH1 0x20 DUP3 DUP5 SUB SLT ISZERO PUSH2 0x3F38 JUMPI DUP1 DUP2 REVERT JUMPDEST POP CALLDATALOAD SWAP2 SWAP1 POP JUMP JUMPDEST PUSH1 0x0 DUP1 PUSH1 0x0 DUP1 PUSH1 0x80 DUP6 DUP8 SUB SLT ISZERO PUSH2 0x3F54 JUMPI DUP2 DUP3 REVERT JUMPDEST DUP5 CALLDATALOAD SWAP4 POP PUSH1 0x20 DUP6 ADD CALLDATALOAD SWAP3 POP PUSH2 0x3F6B PUSH1 0x40 DUP7 ADD PUSH2 0x3C3E JUMP JUMPDEST SWAP4 SWAP7 SWAP3 SWAP6 POP SWAP3 SWAP4 PUSH1 0x60 ADD CALLDATALOAD SWAP3 POP POP JUMP JUMPDEST PUSH1 0x0 DUP2 MLOAD DUP1 DUP5 MSTORE DUP2 JUMPDEST DUP2 DUP2 LT ISZERO PUSH2 0x3FA0 JUMPI PUSH1 0x20 DUP2 DUP6 ADD DUP2 ADD MLOAD DUP7 DUP4 ADD DUP3 ADD MSTORE ADD PUSH2 0x3F84 JUMP JUMPDEST DUP2 DUP2 GT ISZERO PUSH2 0x3FB1 JUMPI DUP3 PUSH1 0x20 DUP4 DUP8 ADD ADD MSTORE JUMPDEST POP PUSH1 0x1F ADD PUSH32 0xFFFFFFFFFFFFFFFFFFFFFFFFFFFFFFFFFFFFFFFFFFFFFFFFFFFFFFFFFFFFFFE0 AND SWAP3 SWAP1 SWAP3 ADD PUSH1 0x20 ADD SWAP3 SWAP2 POP POP JUMP JUMPDEST PUSH32 0x1901000000000000000000000000000000000000000000000000000000000000 DUP2 MSTORE PUSH1 0x2 DUP2 ADD SWAP3 SWAP1 SWAP3 MSTORE PUSH1 0x22 DUP3 ADD MSTORE PUSH1 0x42 ADD SWAP1 JUMP JUMPDEST PUSH20 0xFFFFFFFFFFFFFFFFFFFFFFFFFFFFFFFFFFFFFFFF SWAP2 SWAP1 SWAP2 AND DUP2 MSTORE PUSH1 0x20 ADD SWAP1 JUMP JUMPDEST PUSH20 0xFFFFFFFFFFFFFFFFFFFFFFFFFFFFFFFFFFFFFFFF SWAP4 DUP5 AND DUP2 MSTORE SWAP2 SWAP1 SWAP3 AND PUSH1 0x20 DUP3 ADD MSTORE PUSH1 0x40 DUP2 ADD SWAP2 SWAP1 SWAP2 MSTORE PUSH1 0x60 ADD SWAP1 JUMP JUMPDEST PUSH20 0xFFFFFFFFFFFFFFFFFFFFFFFFFFFFFFFFFFFFFFFF SWAP3 SWAP1 SWAP3 AND DUP3 MSTORE PUSH1 0x20 DUP3 ADD MSTORE PUSH1 0x40 ADD SWAP1 JUMP JUMPDEST SWAP1 ISZERO ISZERO DUP2 MSTORE PUSH1 0x20 ADD SWAP1 JUMP JUMPDEST SWAP1 DUP2 MSTORE PUSH1 0x20 ADD SWAP1 JUMP JUMPDEST SWAP6 DUP7 MSTORE PUSH20 0xFFFFFFFFFFFFFFFFFFFFFFFFFFFFFFFFFFFFFFFF SWAP5 DUP6 AND PUSH1 0x20 DUP8 ADD MSTORE SWAP3 SWAP1 SWAP4 AND PUSH1 0x40 DUP6 ADD MSTORE PUSH1 0x60 DUP5 ADD MSTORE PUSH1 0x80 DUP4 ADD SWAP2 SWAP1 SWAP2 MSTORE PUSH1 0xA0 DUP3 ADD MSTORE PUSH1 0xC0 ADD SWAP1 JUMP JUMPDEST SWAP4 DUP5 MSTORE PUSH20 0xFFFFFFFFFFFFFFFFFFFFFFFFFFFFFFFFFFFFFFFF SWAP3 SWAP1 SWAP3 AND PUSH1 0x20 DUP5 ADD MSTORE PUSH1 0x40 DUP4 ADD MSTORE PUSH1 0x60 DUP3 ADD MSTORE PUSH1 0x80 ADD SWAP1 JUMP JUMPDEST SWAP5 DUP6 MSTORE PUSH20 0xFFFFFFFFFFFFFFFFFFFFFFFFFFFFFFFFFFFFFFFF SWAP4 SWAP1 SWAP4 AND PUSH1 0x20 DUP6 ADD MSTORE PUSH1 0x40 DUP5 ADD SWAP2 SWAP1 SWAP2 MSTORE PUSH1 0x60 DUP4 ADD MSTORE PUSH1 0x80 DUP3 ADD MSTORE PUSH1 0xA0 ADD SWAP1 JUMP JUMPDEST SWAP5 DUP6 MSTORE PUSH1 0x20 DUP6 ADD SWAP4 SWAP1 SWAP4 MSTORE PUSH1 0x40 DUP5 ADD SWAP2 SWAP1 SWAP2 MSTORE PUSH1 0x60 DUP4 ADD MSTORE PUSH20 0xFFFFFFFFFFFFFFFFFFFFFFFFFFFFFFFFFFFFFFFF AND PUSH1 0x80 DUP3 ADD MSTORE PUSH1 0xA0 ADD SWAP1 JUMP JUMPDEST SWAP4 DUP5 MSTORE PUSH1 0xFF SWAP3 SWAP1 SWAP3 AND PUSH1 0x20 DUP5 ADD MSTORE PUSH1 0x40 DUP4 ADD MSTORE PUSH1 0x60 DUP3 ADD MSTORE PUSH1 0x80 ADD SWAP1 JUMP JUMPDEST PUSH1 0x0 PUSH1 0x20 DUP3 MSTORE PUSH2 0xA3A PUSH1 0x20 DUP4 ADD DUP5 PUSH2 0x3F7B JUMP JUMPDEST PUSH1 0x20 DUP1 DUP3 MSTORE PUSH1 0x13 SWAP1 DUP3 ADD MSTORE PUSH32 0x494E56414C49445F5A45524F5F414D4F554E5400000000000000000000000000 PUSH1 0x40 DUP3 ADD MSTORE PUSH1 0x60 ADD SWAP1 JUMP JUMPDEST PUSH1 0x20 DUP1 DUP3 MSTORE PUSH1 0x11 SWAP1 DUP3 ADD MSTORE PUSH32 0x494E56414C49445F5349474E4154555245000000000000000000000000000000 PUSH1 0x40 DUP3 ADD MSTORE PUSH1 0x60 ADD SWAP1 JUMP JUMPDEST PUSH1 0x20 DUP1 DUP3 MSTORE PUSH1 0x15 SWAP1 DUP3 ADD MSTORE PUSH32 0x494E53554646494349454E545F434F4F4C444F574E0000000000000000000000 PUSH1 0x40 DUP3 ADD MSTORE PUSH1 0x60 ADD SWAP1 JUMP JUMPDEST PUSH1 0x20 DUP1 DUP3 MSTORE PUSH1 0x12 SWAP1 DUP3 ADD MSTORE PUSH32 0x494E56414C49445F45585049524154494F4E0000000000000000000000000000 PUSH1 0x40 DUP3 ADD MSTORE PUSH1 0x60 ADD SWAP1 JUMP JUMPDEST PUSH1 0x20 DUP1 DUP3 MSTORE PUSH1 0xD SWAP1 DUP3 ADD MSTORE PUSH32 0x494E56414C49445F4E4F4E434500000000000000000000000000000000000000 PUSH1 0x40 DUP3 ADD MSTORE PUSH1 0x60 ADD SWAP1 JUMP JUMPDEST PUSH1 0x20 DUP1 DUP3 MSTORE PUSH1 0x15 SWAP1 DUP3 ADD MSTORE PUSH32 0x4F4E4C595F454D495353494F4E5F4D414E414745520000000000000000000000 PUSH1 0x40 DUP3 ADD MSTORE PUSH1 0x60 ADD SWAP1 JUMP JUMPDEST PUSH1 0x20 DUP1 DUP3 MSTORE PUSH1 0xD SWAP1 DUP3 ADD MSTORE PUSH32 0x494E56414C49445F4F574E455200000000000000000000000000000000000000 PUSH1 0x40 DUP3 ADD MSTORE PUSH1 0x60 ADD SWAP1 JUMP JUMPDEST PUSH1 0x20 DUP1 DUP3 MSTORE PUSH1 0x17 SWAP1 DUP3 ADD MSTORE PUSH32 0x554E5354414B455F57494E444F575F46494E4953484544000000000000000000 PUSH1 0x40 DUP3 ADD MSTORE PUSH1 0x60 ADD SWAP1 JUMP JUMPDEST PUSH1 0x20 DUP1 DUP3 MSTORE PUSH1 0x1B SWAP1 DUP3 ADD MSTORE PUSH32 0x494E56414C49445F42414C414E43455F4F4E5F434F4F4C444F574E0000000000 PUSH1 0x40 DUP3 ADD MSTORE PUSH1 0x60 ADD SWAP1 JUMP JUMPDEST PUSH16 0xFFFFFFFFFFFFFFFFFFFFFFFFFFFFFFFF SWAP2 SWAP1 SWAP2 AND DUP2 MSTORE PUSH1 0x20 ADD SWAP1 JUMP JUMPDEST PUSH16 0xFFFFFFFFFFFFFFFFFFFFFFFFFFFFFFFF SWAP3 DUP4 AND DUP2 MSTORE SWAP2 AND PUSH1 0x20 DUP3 ADD MSTORE PUSH1 0x40 ADD SWAP1 JUMP JUMPDEST PUSH16 0xFFFFFFFFFFFFFFFFFFFFFFFFFFFFFFFF SWAP4 DUP5 AND DUP2 MSTORE SWAP2 SWAP1 SWAP3 AND PUSH1 0x20 DUP3 ADD MSTORE PUSH1 0x40 DUP2 ADD SWAP2 SWAP1 SWAP2 MSTORE PUSH1 0x60 ADD SWAP1 JUMP JUMPDEST PUSH1 0xFF SWAP2 SWAP1 SWAP2 AND DUP2 MSTORE PUSH1 0x20 ADD SWAP1 JUMP INVALID GASLIMIT MSTORE NUMBER ORIGIN ADDRESS GASPRICE KECCAK256 PUSH21 0x72616E7366657220746F20746865207A65726F2061 PUSH5 0x6472657373 GASLIMIT MSTORE NUMBER ORIGIN ADDRESS GASPRICE KECCAK256 PUSH3 0x75726E KECCAK256 PUSH2 0x6D6F PUSH22 0x6E7420657863656564732062616C616E636545524332 ADDRESS GASPRICE KECCAK256 PUSH2 0x7070 PUSH19 0x6F766520746F20746865207A65726F20616464 PUSH19 0x65737345524332303A207472616E7366657220 PUSH2 0x6D6F PUSH22 0x6E7420657863656564732062616C616E636553616665 0x4D PUSH2 0x7468 GASPRICE KECCAK256 PUSH14 0x756C7469706C69636174696F6E20 PUSH16 0x766572666C6F7745524332303A207472 PUSH2 0x6E73 PUSH7 0x657220616D6F75 PUSH15 0x74206578636565647320616C6C6F77 PUSH2 0x6E63 PUSH6 0x436F6E747261 PUSH4 0x7420696E PUSH20 0x74616E63652068617320616C7265616479206265 PUSH6 0x6E20696E6974 PUSH10 0x616C697A656445524332 ADDRESS GASPRICE KECCAK256 PUSH3 0x75726E KECCAK256 PUSH7 0x726F6D20746865 KECCAK256 PUSH27 0x65726F206164647265737345524332303A207472616E7366657220 PUSH7 0x726F6D20746865 KECCAK256 PUSH27 0x65726F206164647265737345524332303A20617070726F76652066 PUSH19 0x6F6D20746865207A65726F2061646472657373 MSTORE8 PUSH2 0x6665 GASLIMIT MSTORE NUMBER ORIGIN ADDRESS GASPRICE KECCAK256 GASLIMIT MSTORE NUMBER ORIGIN ADDRESS KECCAK256 PUSH16 0x7065726174696F6E20646964206E6F74 KECCAK256 PUSH20 0x75636365656445524332303A2064656372656173 PUSH6 0x6420616C6C6F PUSH24 0x616E63652062656C6F77207A65726FA26469706673582212 KECCAK256 TIMESTAMP SWAP9 MSTORE 0xE7 LOG0 0xDE CREATE2 GASPRICE CALLVALUE 0xAD SWAP3 0x2B PUSH31 0x3D08D6DDDC39A9398AA3132648753531DE835764736F6C6343000705003300 "},"gasEstimates":{"creation":{"codeDepositCost":"3588800","executionCost":"infinite","totalCost":"infinite"},"external":{"COOLDOWN_SECONDS()":"infinite","DELEGATE_BY_TYPE_TYPEHASH()":"340","DELEGATE_TYPEHASH()":"319","DISTRIBUTION_END()":"infinite","DOMAIN_SEPARATOR()":"1140","EIP712_REVISION()":"infinite","EMISSION_MANAGER()":"infinite","PERMIT_TYPEHASH()":"297","PRECISION()":"307","REVISION()":"294","REWARDS_VAULT()":"infinite","REWARD_TOKEN()":"infinite","STAKED_TOKEN()":"infinite","UNSTAKE_WINDOW()":"infinite","_aaveGovernance()":"1113","_nonces(address)":"1330","_votingSnapshots(address,uint256)":"1508","_votingSnapshotsCounts(address)":"1307","allowance(address,address)":"infinite","approve(address,uint256)":"infinite","assets(address)":"2241","balanceOf(address)":"infinite","claimRewards(address,uint256)":"infinite","configureAssets((uint128,uint256,address)[])":"infinite","cooldown()":"22402","decimals()":"1159","decreaseAllowance(address,uint256)":"infinite","delegate(address)":"infinite","delegateBySig(address,uint256,uint256,uint8,bytes32,bytes32)":"infinite","delegateByType(address,uint8)":"infinite","delegateByTypeBySig(address,uint8,uint256,uint256,uint8,bytes32,bytes32)":"infinite","getDelegateeByType(address,uint8)":"infinite","getNextCooldownTimestamp(uint256,uint256,address,uint256)":"infinite","getPowerAtBlock(address,uint256,uint8)":"infinite","getPowerCurrent(address,uint8)":"infinite","getTotalRewardsBalance(address)":"infinite","getUserAssetData(address,address)":"infinite","increaseAllowance(address,uint256)":"infinite","initialize()":"infinite","name()":"infinite","permit(address,address,uint256,uint256,uint8,bytes32,bytes32)":"infinite","redeem(address,uint256)":"infinite","stake(address,uint256)":"infinite","stakerRewardsToClaim(address)":"1329","stakersCooldowns(address)":"1332","symbol()":"infinite","totalSupply()":"1097","totalSupplyAt(uint256)":"1210","transfer(address,uint256)":"infinite","transferFrom(address,address,uint256)":"infinite"}},"methodIdentifiers":{"COOLDOWN_SECONDS()":"72b49d63","DELEGATE_BY_TYPE_TYPEHASH()":"aa9fbe02","DELEGATE_TYPEHASH()":"41cbf54a","DISTRIBUTION_END()":"919cd40f","DOMAIN_SEPARATOR()":"3644e515","EIP712_REVISION()":"78160376","EMISSION_MANAGER()":"cbcbb507","PERMIT_TYPEHASH()":"30adf81f","PRECISION()":"aaf5eb68","REVISION()":"dde43cba","REWARDS_VAULT()":"946776cd","REWARD_TOKEN()":"99248ea7","STAKED_TOKEN()":"312f6b83","UNSTAKE_WINDOW()":"359c4a96","_aaveGovernance()":"c3863ada","_nonces(address)":"b9844d8d","_votingSnapshots(address,uint256)":"5b3cc0cf","_votingSnapshotsCounts(address)":"7bb73c97","allowance(address,address)":"dd62ed3e","approve(address,uint256)":"095ea7b3","assets(address)":"f11b8188","balanceOf(address)":"70a08231","claimRewards(address,uint256)":"9a99b4f0","configureAssets((uint128,uint256,address)[])":"b2a5dbfa","cooldown()":"787a08a6","decimals()":"313ce567","decreaseAllowance(address,uint256)":"a457c2d7","delegate(address)":"5c19a95c","delegateBySig(address,uint256,uint256,uint8,bytes32,bytes32)":"c3cda520","delegateByType(address,uint8)":"dc937e1c","delegateByTypeBySig(address,uint8,uint256,uint256,uint8,bytes32,bytes32)":"f713d8a8","getDelegateeByType(address,uint8)":"6f50458d","getNextCooldownTimestamp(uint256,uint256,address,uint256)":"f1cc432a","getPowerAtBlock(address,uint256,uint8)":"c2ffbb91","getPowerCurrent(address,uint8)":"b2f4201d","getTotalRewardsBalance(address)":"8dbefee2","getUserAssetData(address,address)":"3373ee4c","increaseAllowance(address,uint256)":"39509351","initialize()":"8129fc1c","name()":"06fdde03","permit(address,address,uint256,uint256,uint8,bytes32,bytes32)":"d505accf","redeem(address,uint256)":"1e9a6950","stake(address,uint256)":"adc9772e","stakerRewardsToClaim(address)":"7e90d7ef","stakersCooldowns(address)":"091030c3","symbol()":"95d89b41","totalSupply()":"18160ddd","totalSupplyAt(uint256)":"981b24d0","transfer(address,uint256)":"a9059cbb","transferFrom(address,address,uint256)":"23b872dd"}},"storageLayout":{"storage":[{"astId":263,"contract":"@aave/safety-module/contracts/stake/StakedAaveV2.sol:StakedAaveV2","label":"_balances","offset":0,"slot":"0","type":"t_mapping(t_address,t_uint256)"},{"astId":269,"contract":"@aave/safety-module/contracts/stake/StakedAaveV2.sol:StakedAaveV2","label":"_allowances","offset":0,"slot":"1","type":"t_mapping(t_address,t_mapping(t_address,t_uint256))"},{"astId":271,"contract":"@aave/safety-module/contracts/stake/StakedAaveV2.sol:StakedAaveV2","label":"_totalSupply","offset":0,"slot":"2","type":"t_uint256"},{"astId":273,"contract":"@aave/safety-module/contracts/stake/StakedAaveV2.sol:StakedAaveV2","label":"_name","offset":0,"slot":"3","type":"t_string_storage"},{"astId":275,"contract":"@aave/safety-module/contracts/stake/StakedAaveV2.sol:StakedAaveV2","label":"_symbol","offset":0,"slot":"4","type":"t_string_storage"},{"astId":277,"contract":"@aave/safety-module/contracts/stake/StakedAaveV2.sol:StakedAaveV2","label":"_decimals","offset":0,"slot":"5","type":"t_uint8"},{"astId":2687,"contract":"@aave/safety-module/contracts/stake/StakedAaveV2.sol:StakedAaveV2","label":"_votingSnapshots","offset":0,"slot":"6","type":"t_mapping(t_address,t_mapping(t_uint256,t_struct(Snapshot)977_storage))"},{"astId":2691,"contract":"@aave/safety-module/contracts/stake/StakedAaveV2.sol:StakedAaveV2","label":"_votingSnapshotsCounts","offset":0,"slot":"7","type":"t_mapping(t_address,t_uint256)"},{"astId":2694,"contract":"@aave/safety-module/contracts/stake/StakedAaveV2.sol:StakedAaveV2","label":"_aaveGovernance","offset":0,"slot":"8","type":"t_contract(ITransferHook)1786"},{"astId":5701,"contract":"@aave/safety-module/contracts/stake/StakedAaveV2.sol:StakedAaveV2","label":"lastInitializedRevision","offset":0,"slot":"9","type":"t_uint256"},{"astId":5732,"contract":"@aave/safety-module/contracts/stake/StakedAaveV2.sol:StakedAaveV2","label":"______gap","offset":0,"slot":"10","type":"t_array(t_uint256)50_storage"},{"astId":3095,"contract":"@aave/safety-module/contracts/stake/StakedAaveV2.sol:StakedAaveV2","label":"assets","offset":0,"slot":"60","type":"t_mapping(t_address,t_struct(AssetData)3084_storage)"},{"astId":4508,"contract":"@aave/safety-module/contracts/stake/StakedAaveV2.sol:StakedAaveV2","label":"stakerRewardsToClaim","offset":0,"slot":"61","type":"t_mapping(t_address,t_uint256)"},{"astId":4512,"contract":"@aave/safety-module/contracts/stake/StakedAaveV2.sol:StakedAaveV2","label":"stakersCooldowns","offset":0,"slot":"62","type":"t_mapping(t_address,t_uint256)"},{"astId":4517,"contract":"@aave/safety-module/contracts/stake/StakedAaveV2.sol:StakedAaveV2","label":"_votingDelegates","offset":0,"slot":"63","type":"t_mapping(t_address,t_address)"},{"astId":4523,"contract":"@aave/safety-module/contracts/stake/StakedAaveV2.sol:StakedAaveV2","label":"_propositionPowerSnapshots","offset":0,"slot":"64","type":"t_mapping(t_address,t_mapping(t_uint256,t_struct(Snapshot)977_storage))"},{"astId":4527,"contract":"@aave/safety-module/contracts/stake/StakedAaveV2.sol:StakedAaveV2","label":"_propositionPowerSnapshotsCounts","offset":0,"slot":"65","type":"t_mapping(t_address,t_uint256)"},{"astId":4531,"contract":"@aave/safety-module/contracts/stake/StakedAaveV2.sol:StakedAaveV2","label":"_propositionPowerDelegates","offset":0,"slot":"66","type":"t_mapping(t_address,t_address)"},{"astId":4533,"contract":"@aave/safety-module/contracts/stake/StakedAaveV2.sol:StakedAaveV2","label":"DOMAIN_SEPARATOR","offset":0,"slot":"67","type":"t_bytes32"},{"astId":4554,"contract":"@aave/safety-module/contracts/stake/StakedAaveV2.sol:StakedAaveV2","label":"_nonces","offset":0,"slot":"68","type":"t_mapping(t_address,t_uint256)"}],"types":{"t_address":{"encoding":"inplace","label":"address","numberOfBytes":"20"},"t_array(t_uint256)50_storage":{"base":"t_uint256","encoding":"inplace","label":"uint256[50]","numberOfBytes":"1600"},"t_bytes32":{"encoding":"inplace","label":"bytes32","numberOfBytes":"32"},"t_contract(ITransferHook)1786":{"encoding":"inplace","label":"contract ITransferHook","numberOfBytes":"20"},"t_mapping(t_address,t_address)":{"encoding":"mapping","key":"t_address","label":"mapping(address => address)","numberOfBytes":"32","value":"t_address"},"t_mapping(t_address,t_mapping(t_address,t_uint256))":{"encoding":"mapping","key":"t_address","label":"mapping(address => mapping(address => uint256))","numberOfBytes":"32","value":"t_mapping(t_address,t_uint256)"},"t_mapping(t_address,t_mapping(t_uint256,t_struct(Snapshot)977_storage))":{"encoding":"mapping","key":"t_address","label":"mapping(address => mapping(uint256 => struct GovernancePowerDelegationERC20.Snapshot))","numberOfBytes":"32","value":"t_mapping(t_uint256,t_struct(Snapshot)977_storage)"},"t_mapping(t_address,t_struct(AssetData)3084_storage)":{"encoding":"mapping","key":"t_address","label":"mapping(address => struct AaveDistributionManager.AssetData)","numberOfBytes":"32","value":"t_struct(AssetData)3084_storage"},"t_mapping(t_address,t_uint256)":{"encoding":"mapping","key":"t_address","label":"mapping(address => uint256)","numberOfBytes":"32","value":"t_uint256"},"t_mapping(t_uint256,t_struct(Snapshot)977_storage)":{"encoding":"mapping","key":"t_uint256","label":"mapping(uint256 => struct GovernancePowerDelegationERC20.Snapshot)","numberOfBytes":"32","value":"t_struct(Snapshot)977_storage"},"t_string_storage":{"encoding":"bytes","label":"string","numberOfBytes":"32"},"t_struct(AssetData)3084_storage":{"encoding":"inplace","label":"struct AaveDistributionManager.AssetData","members":[{"astId":3075,"contract":"@aave/safety-module/contracts/stake/StakedAaveV2.sol:StakedAaveV2","label":"emissionPerSecond","offset":0,"slot":"0","type":"t_uint128"},{"astId":3077,"contract":"@aave/safety-module/contracts/stake/StakedAaveV2.sol:StakedAaveV2","label":"lastUpdateTimestamp","offset":16,"slot":"0","type":"t_uint128"},{"astId":3079,"contract":"@aave/safety-module/contracts/stake/StakedAaveV2.sol:StakedAaveV2","label":"index","offset":0,"slot":"1","type":"t_uint256"},{"astId":3083,"contract":"@aave/safety-module/contracts/stake/StakedAaveV2.sol:StakedAaveV2","label":"users","offset":0,"slot":"2","type":"t_mapping(t_address,t_uint256)"}],"numberOfBytes":"96"},"t_struct(Snapshot)977_storage":{"encoding":"inplace","label":"struct GovernancePowerDelegationERC20.Snapshot","members":[{"astId":974,"contract":"@aave/safety-module/contracts/stake/StakedAaveV2.sol:StakedAaveV2","label":"blockNumber","offset":0,"slot":"0","type":"t_uint128"},{"astId":976,"contract":"@aave/safety-module/contracts/stake/StakedAaveV2.sol:StakedAaveV2","label":"value","offset":16,"slot":"0","type":"t_uint128"}],"numberOfBytes":"32"},"t_uint128":{"encoding":"inplace","label":"uint128","numberOfBytes":"16"},"t_uint256":{"encoding":"inplace","label":"uint256","numberOfBytes":"32"},"t_uint8":{"encoding":"inplace","label":"uint8","numberOfBytes":"1"}}},"userdoc":{"kind":"user","methods":{"DELEGATE_BY_TYPE_TYPEHASH()":{"notice":"The EIP-712 typehash for the delegation struct used by the contract"},"REWARDS_VAULT()":{"notice":"Address to pull from the rewards, needs to have approved this contract"},"UNSTAKE_WINDOW()":{"notice":"Seconds available to redeem once the cooldown period is fullfilled"}},"notice":"StakedTokenV2 with AAVE token as staked token","version":1}}}}