{"@aave/safety-module/contracts/proposals/extend-stkaave-distribution/StakedTokenV2Rev3.sol":{"AaveDistributionManager":{"abi":[{"inputs":[{"internalType":"address","name":"emissionManager","type":"address"},{"internalType":"uint256","name":"distributionDuration","type":"uint256"}],"stateMutability":"nonpayable","type":"constructor"},{"anonymous":false,"inputs":[{"indexed":true,"internalType":"address","name":"asset","type":"address"},{"indexed":false,"internalType":"uint256","name":"emission","type":"uint256"}],"name":"AssetConfigUpdated","type":"event"},{"anonymous":false,"inputs":[{"indexed":true,"internalType":"address","name":"asset","type":"address"},{"indexed":false,"internalType":"uint256","name":"index","type":"uint256"}],"name":"AssetIndexUpdated","type":"event"},{"anonymous":false,"inputs":[{"indexed":true,"internalType":"address","name":"user","type":"address"},{"indexed":true,"internalType":"address","name":"asset","type":"address"},{"indexed":false,"internalType":"uint256","name":"index","type":"uint256"}],"name":"UserIndexUpdated","type":"event"},{"inputs":[],"name":"DISTRIBUTION_END","outputs":[{"internalType":"uint256","name":"","type":"uint256"}],"stateMutability":"view","type":"function"},{"inputs":[],"name":"EMISSION_MANAGER","outputs":[{"internalType":"address","name":"","type":"address"}],"stateMutability":"view","type":"function"},{"inputs":[],"name":"PRECISION","outputs":[{"internalType":"uint8","name":"","type":"uint8"}],"stateMutability":"view","type":"function"},{"inputs":[{"internalType":"address","name":"","type":"address"}],"name":"assets","outputs":[{"internalType":"uint128","name":"emissionPerSecond","type":"uint128"},{"internalType":"uint128","name":"lastUpdateTimestamp","type":"uint128"},{"internalType":"uint256","name":"index","type":"uint256"}],"stateMutability":"view","type":"function"},{"inputs":[{"components":[{"internalType":"uint128","name":"emissionPerSecond","type":"uint128"},{"internalType":"uint256","name":"totalStaked","type":"uint256"},{"internalType":"address","name":"underlyingAsset","type":"address"}],"internalType":"struct DistributionTypes.AssetConfigInput[]","name":"assetsConfigInput","type":"tuple[]"}],"name":"configureAssets","outputs":[],"stateMutability":"nonpayable","type":"function"},{"inputs":[{"internalType":"address","name":"user","type":"address"},{"internalType":"address","name":"asset","type":"address"}],"name":"getUserAssetData","outputs":[{"internalType":"uint256","name":"","type":"uint256"}],"stateMutability":"view","type":"function"}],"devdoc":{"author":"Aave*","kind":"dev","methods":{"configureAssets((uint128,uint256,address)[])":{"details":"Configures the distribution of rewards for a list of assets","params":{"assetsConfigInput":"The list of configurations to apply*"}},"getUserAssetData(address,address)":{"details":"Returns the data of an user on a distribution","params":{"asset":"The address of the reference asset of the distribution","user":"Address of the user"},"returns":{"_0":"The new index*"}}},"title":"AaveDistributionManager","version":1},"evm":{"bytecode":{"linkReferences":{},"object":"60c060405234801561001057600080fd5b50604051610c1c380380610c1c83398101604081905261002f91610094565b610046814261005f60201b6104001790919060201c565b6080525060601b6001600160601b03191660a052610103565b60008282018381101561008d5760405162461bcd60e51b8152600401610084906100cc565b60405180910390fd5b9392505050565b600080604083850312156100a6578182fd5b82516001600160a01b03811681146100bc578283fd5b6020939093015192949293505050565b6020808252601b908201527f536166654d6174683a206164646974696f6e206f766572666c6f770000000000604082015260600190565b60805160a05160601c610adf61013d60003980610186528061039a525080610147528061057652806105bb52806105e85250610adf6000f3fe608060405234801561001057600080fd5b50600436106100725760003560e01c8063b2a5dbfa11610050578063b2a5dbfa146100bd578063cbcbb507146100d2578063f11b8188146100e757610072565b80633373ee4c14610077578063919cd40f146100a0578063aaf5eb68146100a8575b600080fd5b61008a610085366004610819565b610109565b6040516100979190610a92565b60405180910390f35b61008a610145565b6100b0610169565b6040516100979190610a9b565b6100d06100cb36600461084b565b61016e565b005b6100da610398565b60405161009791906108eb565b6100fa6100f53660046107ff565b6103bc565b60405161009793929190610a65565b73ffffffffffffffffffffffffffffffffffffffff80821660009081526020818152604080832093861683526002909301905220545b92915050565b7f000000000000000000000000000000000000000000000000000000000000000081565b601281565b3373ffffffffffffffffffffffffffffffffffffffff7f000000000000000000000000000000000000000000000000000000000000000016146101e6576040517f08c379a00000000000000000000000000000000000000000000000000000000081526004016101dd90610a11565b60405180910390fd5b60005b8181101561039357600080600085858581811061020257fe5b905060600201604001602081019061021a91906107ff565b73ffffffffffffffffffffffffffffffffffffffff1673ffffffffffffffffffffffffffffffffffffffff168152602001908152602001600020905061029984848481811061026557fe5b905060600201604001602081019061027d91906107ff565b8286868681811061028a57fe5b90506060020160200135610446565b508383838181106102a657fe5b6102bc92602060609092020190810191506108bb565b81547fffffffffffffffffffffffffffffffff00000000000000000000000000000000166fffffffffffffffffffffffffffffffff9190911617815583838381811061030457fe5b905060600201604001602081019061031c91906107ff565b73ffffffffffffffffffffffffffffffffffffffff167f87fa03892a0556cb6b8f97e6d533a150d4d55fcbf275fff5fa003fa636bcc7fa85858581811061035f57fe5b61037592602060609092020190810191506108bb565b6040516103829190610a48565b60405180910390a2506001016101e9565b505050565b7f000000000000000000000000000000000000000000000000000000000000000081565b600060208190529081526040902080546001909101546fffffffffffffffffffffffffffffffff808316927001000000000000000000000000000000009004169083565b60008282018381101561043f576040517f08c379a00000000000000000000000000000000000000000000000000000000081526004016101dd9061097d565b9392505050565b600182015482546000919070010000000000000000000000000000000090046fffffffffffffffffffffffffffffffff16428114156104875750905061043f565b84546000906104ab9084906fffffffffffffffffffffffffffffffff168488610545565b905082811461050c578086600101819055508673ffffffffffffffffffffffffffffffffffffffff167f5777ca300dfe5bead41006fbce4389794dbc0ed8d6cccebfaf94630aa04184bc826040516105039190610a92565b60405180910390a25b85546fffffffffffffffffffffffffffffffff428116700100000000000000000000000000000000029116178655925050509392505050565b6000831580610552575081155b8061056e575042836fffffffffffffffffffffffffffffffff16145b806105ab57507f0000000000000000000000000000000000000000000000000000000000000000836fffffffffffffffffffffffffffffffff1610155b156105b757508361065f565b60007f000000000000000000000000000000000000000000000000000000000000000042116105e65742610608565b7f00000000000000000000000000000000000000000000000000000000000000005b90506000610628826fffffffffffffffffffffffffffffffff8716610667565b905061065a876106548661064e670de0b6b3a76400006106488c886106a9565b906106a9565b906106fd565b90610400565b925050505b949350505050565b600061043f83836040518060400160405280601e81526020017f536166654d6174683a207375627472616374696f6e206f766572666c6f77000081525061073f565b6000826106b85750600061013f565b828202828482816106c557fe5b041461043f576040517f08c379a00000000000000000000000000000000000000000000000000000000081526004016101dd906109b4565b600061043f83836040518060400160405280601a81526020017f536166654d6174683a206469766973696f6e206279207a65726f000000000000815250610785565b6000818484111561077d576040517f08c379a00000000000000000000000000000000000000000000000000000000081526004016101dd919061090c565b505050900390565b600081836107c0576040517f08c379a00000000000000000000000000000000000000000000000000000000081526004016101dd919061090c565b5060008385816107cc57fe5b0495945050505050565b803573ffffffffffffffffffffffffffffffffffffffff811681146107fa57600080fd5b919050565b600060208284031215610810578081fd5b61043f826107d6565b6000806040838503121561082b578081fd5b610834836107d6565b9150610842602084016107d6565b90509250929050565b6000806020838503121561085d578182fd5b823567ffffffffffffffff80821115610874578384fd5b818501915085601f830112610887578384fd5b813581811115610895578485fd5b8660206060830285010111156108a9578485fd5b60209290920196919550909350505050565b6000602082840312156108cc578081fd5b81356fffffffffffffffffffffffffffffffff8116811461043f578182fd5b73ffffffffffffffffffffffffffffffffffffffff91909116815260200190565b6000602080835283518082850152825b818110156109385785810183015185820160400152820161091c565b818111156109495783604083870101525b50601f017fffffffffffffffffffffffffffffffffffffffffffffffffffffffffffffffe016929092016040019392505050565b6020808252601b908201527f536166654d6174683a206164646974696f6e206f766572666c6f770000000000604082015260600190565b60208082526021908201527f536166654d6174683a206d756c7469706c69636174696f6e206f766572666c6f60408201527f7700000000000000000000000000000000000000000000000000000000000000606082015260800190565b60208082526015908201527f4f4e4c595f454d495353494f4e5f4d414e414745520000000000000000000000604082015260600190565b6fffffffffffffffffffffffffffffffff91909116815260200190565b6fffffffffffffffffffffffffffffffff9384168152919092166020820152604081019190915260600190565b90815260200190565b60ff9190911681526020019056fea26469706673582212200c0023b0e8c70f24c19a00b2c2ce0514962ab8ed199cdc4e80b4febdca7a9fec64736f6c63430007050033","opcodes":"PUSH1 0xC0 PUSH1 0x40 MSTORE CALLVALUE DUP1 ISZERO PUSH2 0x10 JUMPI PUSH1 0x0 DUP1 REVERT JUMPDEST POP PUSH1 0x40 MLOAD PUSH2 0xC1C CODESIZE SUB DUP1 PUSH2 0xC1C DUP4 CODECOPY DUP2 ADD PUSH1 0x40 DUP2 SWAP1 MSTORE PUSH2 0x2F SWAP2 PUSH2 0x94 JUMP JUMPDEST PUSH2 0x46 DUP2 TIMESTAMP PUSH2 0x5F PUSH1 0x20 SHL PUSH2 0x400 OR SWAP1 SWAP2 SWAP1 PUSH1 0x20 SHR JUMP JUMPDEST PUSH1 0x80 MSTORE POP PUSH1 0x60 SHL PUSH1 0x1 PUSH1 0x1 PUSH1 0x60 SHL SUB NOT AND PUSH1 0xA0 MSTORE PUSH2 0x103 JUMP JUMPDEST PUSH1 0x0 DUP3 DUP3 ADD DUP4 DUP2 LT ISZERO PUSH2 0x8D JUMPI PUSH1 0x40 MLOAD PUSH3 0x461BCD PUSH1 0xE5 SHL DUP2 MSTORE PUSH1 0x4 ADD PUSH2 0x84 SWAP1 PUSH2 0xCC JUMP JUMPDEST PUSH1 0x40 MLOAD DUP1 SWAP2 SUB SWAP1 REVERT JUMPDEST SWAP4 SWAP3 POP POP POP JUMP JUMPDEST PUSH1 0x0 DUP1 PUSH1 0x40 DUP4 DUP6 SUB SLT ISZERO PUSH2 0xA6 JUMPI DUP2 DUP3 REVERT JUMPDEST DUP3 MLOAD PUSH1 0x1 PUSH1 0x1 PUSH1 0xA0 SHL SUB DUP2 AND DUP2 EQ PUSH2 0xBC JUMPI DUP3 DUP4 REVERT JUMPDEST PUSH1 0x20 SWAP4 SWAP1 SWAP4 ADD MLOAD SWAP3 SWAP5 SWAP3 SWAP4 POP POP POP JUMP JUMPDEST PUSH1 0x20 DUP1 DUP3 MSTORE PUSH1 0x1B SWAP1 DUP3 ADD MSTORE PUSH32 0x536166654D6174683A206164646974696F6E206F766572666C6F770000000000 PUSH1 0x40 DUP3 ADD MSTORE PUSH1 0x60 ADD SWAP1 JUMP JUMPDEST PUSH1 0x80 MLOAD PUSH1 0xA0 MLOAD PUSH1 0x60 SHR PUSH2 0xADF PUSH2 0x13D PUSH1 0x0 CODECOPY DUP1 PUSH2 0x186 MSTORE DUP1 PUSH2 0x39A MSTORE POP DUP1 PUSH2 0x147 MSTORE DUP1 PUSH2 0x576 MSTORE DUP1 PUSH2 0x5BB MSTORE DUP1 PUSH2 0x5E8 MSTORE POP PUSH2 0xADF PUSH1 0x0 RETURN INVALID PUSH1 0x80 PUSH1 0x40 MSTORE CALLVALUE DUP1 ISZERO PUSH2 0x10 JUMPI PUSH1 0x0 DUP1 REVERT JUMPDEST POP PUSH1 0x4 CALLDATASIZE LT PUSH2 0x72 JUMPI PUSH1 0x0 CALLDATALOAD PUSH1 0xE0 SHR DUP1 PUSH4 0xB2A5DBFA GT PUSH2 0x50 JUMPI DUP1 PUSH4 0xB2A5DBFA EQ PUSH2 0xBD JUMPI DUP1 PUSH4 0xCBCBB507 EQ PUSH2 0xD2 JUMPI DUP1 PUSH4 0xF11B8188 EQ PUSH2 0xE7 JUMPI PUSH2 0x72 JUMP JUMPDEST DUP1 PUSH4 0x3373EE4C EQ PUSH2 0x77 JUMPI DUP1 PUSH4 0x919CD40F EQ PUSH2 0xA0 JUMPI DUP1 PUSH4 0xAAF5EB68 EQ PUSH2 0xA8 JUMPI JUMPDEST PUSH1 0x0 DUP1 REVERT JUMPDEST PUSH2 0x8A PUSH2 0x85 CALLDATASIZE PUSH1 0x4 PUSH2 0x819 JUMP JUMPDEST PUSH2 0x109 JUMP JUMPDEST PUSH1 0x40 MLOAD PUSH2 0x97 SWAP2 SWAP1 PUSH2 0xA92 JUMP JUMPDEST PUSH1 0x40 MLOAD DUP1 SWAP2 SUB SWAP1 RETURN JUMPDEST PUSH2 0x8A PUSH2 0x145 JUMP JUMPDEST PUSH2 0xB0 PUSH2 0x169 JUMP JUMPDEST PUSH1 0x40 MLOAD PUSH2 0x97 SWAP2 SWAP1 PUSH2 0xA9B JUMP JUMPDEST PUSH2 0xD0 PUSH2 0xCB CALLDATASIZE PUSH1 0x4 PUSH2 0x84B JUMP JUMPDEST PUSH2 0x16E JUMP JUMPDEST STOP JUMPDEST PUSH2 0xDA PUSH2 0x398 JUMP JUMPDEST PUSH1 0x40 MLOAD PUSH2 0x97 SWAP2 SWAP1 PUSH2 0x8EB JUMP JUMPDEST PUSH2 0xFA PUSH2 0xF5 CALLDATASIZE PUSH1 0x4 PUSH2 0x7FF JUMP JUMPDEST PUSH2 0x3BC JUMP JUMPDEST PUSH1 0x40 MLOAD PUSH2 0x97 SWAP4 SWAP3 SWAP2 SWAP1 PUSH2 0xA65 JUMP JUMPDEST PUSH20 0xFFFFFFFFFFFFFFFFFFFFFFFFFFFFFFFFFFFFFFFF DUP1 DUP3 AND PUSH1 0x0 SWAP1 DUP2 MSTORE PUSH1 0x20 DUP2 DUP2 MSTORE PUSH1 0x40 DUP1 DUP4 KECCAK256 SWAP4 DUP7 AND DUP4 MSTORE PUSH1 0x2 SWAP1 SWAP4 ADD SWAP1 MSTORE KECCAK256 SLOAD JUMPDEST SWAP3 SWAP2 POP POP JUMP JUMPDEST PUSH32 0x0 DUP2 JUMP JUMPDEST PUSH1 0x12 DUP2 JUMP JUMPDEST CALLER PUSH20 0xFFFFFFFFFFFFFFFFFFFFFFFFFFFFFFFFFFFFFFFF PUSH32 0x0 AND EQ PUSH2 0x1E6 JUMPI PUSH1 0x40 MLOAD PUSH32 0x8C379A000000000000000000000000000000000000000000000000000000000 DUP2 MSTORE PUSH1 0x4 ADD PUSH2 0x1DD SWAP1 PUSH2 0xA11 JUMP JUMPDEST PUSH1 0x40 MLOAD DUP1 SWAP2 SUB SWAP1 REVERT JUMPDEST PUSH1 0x0 JUMPDEST DUP2 DUP2 LT ISZERO PUSH2 0x393 JUMPI PUSH1 0x0 DUP1 PUSH1 0x0 DUP6 DUP6 DUP6 DUP2 DUP2 LT PUSH2 0x202 JUMPI INVALID JUMPDEST SWAP1 POP PUSH1 0x60 MUL ADD PUSH1 0x40 ADD PUSH1 0x20 DUP2 ADD SWAP1 PUSH2 0x21A SWAP2 SWAP1 PUSH2 0x7FF JUMP JUMPDEST PUSH20 0xFFFFFFFFFFFFFFFFFFFFFFFFFFFFFFFFFFFFFFFF AND PUSH20 0xFFFFFFFFFFFFFFFFFFFFFFFFFFFFFFFFFFFFFFFF AND DUP2 MSTORE PUSH1 0x20 ADD SWAP1 DUP2 MSTORE PUSH1 0x20 ADD PUSH1 0x0 KECCAK256 SWAP1 POP PUSH2 0x299 DUP5 DUP5 DUP5 DUP2 DUP2 LT PUSH2 0x265 JUMPI INVALID JUMPDEST SWAP1 POP PUSH1 0x60 MUL ADD PUSH1 0x40 ADD PUSH1 0x20 DUP2 ADD SWAP1 PUSH2 0x27D SWAP2 SWAP1 PUSH2 0x7FF JUMP JUMPDEST DUP3 DUP7 DUP7 DUP7 DUP2 DUP2 LT PUSH2 0x28A JUMPI INVALID JUMPDEST SWAP1 POP PUSH1 0x60 MUL ADD PUSH1 0x20 ADD CALLDATALOAD PUSH2 0x446 JUMP JUMPDEST POP DUP4 DUP4 DUP4 DUP2 DUP2 LT PUSH2 0x2A6 JUMPI INVALID JUMPDEST PUSH2 0x2BC SWAP3 PUSH1 0x20 PUSH1 0x60 SWAP1 SWAP3 MUL ADD SWAP1 DUP2 ADD SWAP2 POP PUSH2 0x8BB JUMP JUMPDEST DUP2 SLOAD PUSH32 0xFFFFFFFFFFFFFFFFFFFFFFFFFFFFFFFF00000000000000000000000000000000 AND PUSH16 0xFFFFFFFFFFFFFFFFFFFFFFFFFFFFFFFF SWAP2 SWAP1 SWAP2 AND OR DUP2 SSTORE DUP4 DUP4 DUP4 DUP2 DUP2 LT PUSH2 0x304 JUMPI INVALID JUMPDEST SWAP1 POP PUSH1 0x60 MUL ADD PUSH1 0x40 ADD PUSH1 0x20 DUP2 ADD SWAP1 PUSH2 0x31C SWAP2 SWAP1 PUSH2 0x7FF JUMP JUMPDEST PUSH20 0xFFFFFFFFFFFFFFFFFFFFFFFFFFFFFFFFFFFFFFFF AND PUSH32 0x87FA03892A0556CB6B8F97E6D533A150D4D55FCBF275FFF5FA003FA636BCC7FA DUP6 DUP6 DUP6 DUP2 DUP2 LT PUSH2 0x35F JUMPI INVALID JUMPDEST PUSH2 0x375 SWAP3 PUSH1 0x20 PUSH1 0x60 SWAP1 SWAP3 MUL ADD SWAP1 DUP2 ADD SWAP2 POP PUSH2 0x8BB JUMP JUMPDEST PUSH1 0x40 MLOAD PUSH2 0x382 SWAP2 SWAP1 PUSH2 0xA48 JUMP JUMPDEST PUSH1 0x40 MLOAD DUP1 SWAP2 SUB SWAP1 LOG2 POP PUSH1 0x1 ADD PUSH2 0x1E9 JUMP JUMPDEST POP POP POP JUMP JUMPDEST PUSH32 0x0 DUP2 JUMP JUMPDEST PUSH1 0x0 PUSH1 0x20 DUP2 SWAP1 MSTORE SWAP1 DUP2 MSTORE PUSH1 0x40 SWAP1 KECCAK256 DUP1 SLOAD PUSH1 0x1 SWAP1 SWAP2 ADD SLOAD PUSH16 0xFFFFFFFFFFFFFFFFFFFFFFFFFFFFFFFF DUP1 DUP4 AND SWAP3 PUSH17 0x100000000000000000000000000000000 SWAP1 DIV AND SWAP1 DUP4 JUMP JUMPDEST PUSH1 0x0 DUP3 DUP3 ADD DUP4 DUP2 LT ISZERO PUSH2 0x43F JUMPI PUSH1 0x40 MLOAD PUSH32 0x8C379A000000000000000000000000000000000000000000000000000000000 DUP2 MSTORE PUSH1 0x4 ADD PUSH2 0x1DD SWAP1 PUSH2 0x97D JUMP JUMPDEST SWAP4 SWAP3 POP POP POP JUMP JUMPDEST PUSH1 0x1 DUP3 ADD SLOAD DUP3 SLOAD PUSH1 0x0 SWAP2 SWAP1 PUSH17 0x100000000000000000000000000000000 SWAP1 DIV PUSH16 0xFFFFFFFFFFFFFFFFFFFFFFFFFFFFFFFF AND TIMESTAMP DUP2 EQ ISZERO PUSH2 0x487 JUMPI POP SWAP1 POP PUSH2 0x43F JUMP JUMPDEST DUP5 SLOAD PUSH1 0x0 SWAP1 PUSH2 0x4AB SWAP1 DUP5 SWAP1 PUSH16 0xFFFFFFFFFFFFFFFFFFFFFFFFFFFFFFFF AND DUP5 DUP9 PUSH2 0x545 JUMP JUMPDEST SWAP1 POP DUP3 DUP2 EQ PUSH2 0x50C JUMPI DUP1 DUP7 PUSH1 0x1 ADD DUP2 SWAP1 SSTORE POP DUP7 PUSH20 0xFFFFFFFFFFFFFFFFFFFFFFFFFFFFFFFFFFFFFFFF AND PUSH32 0x5777CA300DFE5BEAD41006FBCE4389794DBC0ED8D6CCCEBFAF94630AA04184BC DUP3 PUSH1 0x40 MLOAD PUSH2 0x503 SWAP2 SWAP1 PUSH2 0xA92 JUMP JUMPDEST PUSH1 0x40 MLOAD DUP1 SWAP2 SUB SWAP1 LOG2 JUMPDEST DUP6 SLOAD PUSH16 0xFFFFFFFFFFFFFFFFFFFFFFFFFFFFFFFF TIMESTAMP DUP2 AND PUSH17 0x100000000000000000000000000000000 MUL SWAP2 AND OR DUP7 SSTORE SWAP3 POP POP POP SWAP4 SWAP3 POP POP POP JUMP JUMPDEST PUSH1 0x0 DUP4 ISZERO DUP1 PUSH2 0x552 JUMPI POP DUP2 ISZERO JUMPDEST DUP1 PUSH2 0x56E JUMPI POP TIMESTAMP DUP4 PUSH16 0xFFFFFFFFFFFFFFFFFFFFFFFFFFFFFFFF AND EQ JUMPDEST DUP1 PUSH2 0x5AB JUMPI POP PUSH32 0x0 DUP4 PUSH16 0xFFFFFFFFFFFFFFFFFFFFFFFFFFFFFFFF AND LT ISZERO JUMPDEST ISZERO PUSH2 0x5B7 JUMPI POP DUP4 PUSH2 0x65F JUMP JUMPDEST PUSH1 0x0 PUSH32 0x0 TIMESTAMP GT PUSH2 0x5E6 JUMPI TIMESTAMP PUSH2 0x608 JUMP JUMPDEST PUSH32 0x0 JUMPDEST SWAP1 POP PUSH1 0x0 PUSH2 0x628 DUP3 PUSH16 0xFFFFFFFFFFFFFFFFFFFFFFFFFFFFFFFF DUP8 AND PUSH2 0x667 JUMP JUMPDEST SWAP1 POP PUSH2 0x65A DUP8 PUSH2 0x654 DUP7 PUSH2 0x64E PUSH8 0xDE0B6B3A7640000 PUSH2 0x648 DUP13 DUP9 PUSH2 0x6A9 JUMP JUMPDEST SWAP1 PUSH2 0x6A9 JUMP JUMPDEST SWAP1 PUSH2 0x6FD JUMP JUMPDEST SWAP1 PUSH2 0x400 JUMP JUMPDEST SWAP3 POP POP POP JUMPDEST SWAP5 SWAP4 POP POP POP POP JUMP JUMPDEST PUSH1 0x0 PUSH2 0x43F DUP4 DUP4 PUSH1 0x40 MLOAD DUP1 PUSH1 0x40 ADD PUSH1 0x40 MSTORE DUP1 PUSH1 0x1E DUP2 MSTORE PUSH1 0x20 ADD PUSH32 0x536166654D6174683A207375627472616374696F6E206F766572666C6F770000 DUP2 MSTORE POP PUSH2 0x73F JUMP JUMPDEST PUSH1 0x0 DUP3 PUSH2 0x6B8 JUMPI POP PUSH1 0x0 PUSH2 0x13F JUMP JUMPDEST DUP3 DUP3 MUL DUP3 DUP5 DUP3 DUP2 PUSH2 0x6C5 JUMPI INVALID JUMPDEST DIV EQ PUSH2 0x43F JUMPI PUSH1 0x40 MLOAD PUSH32 0x8C379A000000000000000000000000000000000000000000000000000000000 DUP2 MSTORE PUSH1 0x4 ADD PUSH2 0x1DD SWAP1 PUSH2 0x9B4 JUMP JUMPDEST PUSH1 0x0 PUSH2 0x43F DUP4 DUP4 PUSH1 0x40 MLOAD DUP1 PUSH1 0x40 ADD PUSH1 0x40 MSTORE DUP1 PUSH1 0x1A DUP2 MSTORE PUSH1 0x20 ADD PUSH32 0x536166654D6174683A206469766973696F6E206279207A65726F000000000000 DUP2 MSTORE POP PUSH2 0x785 JUMP JUMPDEST PUSH1 0x0 DUP2 DUP5 DUP5 GT ISZERO PUSH2 0x77D JUMPI PUSH1 0x40 MLOAD PUSH32 0x8C379A000000000000000000000000000000000000000000000000000000000 DUP2 MSTORE PUSH1 0x4 ADD PUSH2 0x1DD SWAP2 SWAP1 PUSH2 0x90C JUMP JUMPDEST POP POP POP SWAP1 SUB SWAP1 JUMP JUMPDEST PUSH1 0x0 DUP2 DUP4 PUSH2 0x7C0 JUMPI PUSH1 0x40 MLOAD PUSH32 0x8C379A000000000000000000000000000000000000000000000000000000000 DUP2 MSTORE PUSH1 0x4 ADD PUSH2 0x1DD SWAP2 SWAP1 PUSH2 0x90C JUMP JUMPDEST POP PUSH1 0x0 DUP4 DUP6 DUP2 PUSH2 0x7CC JUMPI INVALID JUMPDEST DIV SWAP6 SWAP5 POP POP POP POP POP JUMP JUMPDEST DUP1 CALLDATALOAD PUSH20 0xFFFFFFFFFFFFFFFFFFFFFFFFFFFFFFFFFFFFFFFF DUP2 AND DUP2 EQ PUSH2 0x7FA JUMPI PUSH1 0x0 DUP1 REVERT JUMPDEST SWAP2 SWAP1 POP JUMP JUMPDEST PUSH1 0x0 PUSH1 0x20 DUP3 DUP5 SUB SLT ISZERO PUSH2 0x810 JUMPI DUP1 DUP2 REVERT JUMPDEST PUSH2 0x43F DUP3 PUSH2 0x7D6 JUMP JUMPDEST PUSH1 0x0 DUP1 PUSH1 0x40 DUP4 DUP6 SUB SLT ISZERO PUSH2 0x82B JUMPI DUP1 DUP2 REVERT JUMPDEST PUSH2 0x834 DUP4 PUSH2 0x7D6 JUMP JUMPDEST SWAP2 POP PUSH2 0x842 PUSH1 0x20 DUP5 ADD PUSH2 0x7D6 JUMP JUMPDEST SWAP1 POP SWAP3 POP SWAP3 SWAP1 POP JUMP JUMPDEST PUSH1 0x0 DUP1 PUSH1 0x20 DUP4 DUP6 SUB SLT ISZERO PUSH2 0x85D JUMPI DUP2 DUP3 REVERT JUMPDEST DUP3 CALLDATALOAD PUSH8 0xFFFFFFFFFFFFFFFF DUP1 DUP3 GT ISZERO PUSH2 0x874 JUMPI DUP4 DUP5 REVERT JUMPDEST DUP2 DUP6 ADD SWAP2 POP DUP6 PUSH1 0x1F DUP4 ADD SLT PUSH2 0x887 JUMPI DUP4 DUP5 REVERT JUMPDEST DUP2 CALLDATALOAD DUP2 DUP2 GT ISZERO PUSH2 0x895 JUMPI DUP5 DUP6 REVERT JUMPDEST DUP7 PUSH1 0x20 PUSH1 0x60 DUP4 MUL DUP6 ADD ADD GT ISZERO PUSH2 0x8A9 JUMPI DUP5 DUP6 REVERT JUMPDEST PUSH1 0x20 SWAP3 SWAP1 SWAP3 ADD SWAP7 SWAP2 SWAP6 POP SWAP1 SWAP4 POP POP POP POP JUMP JUMPDEST PUSH1 0x0 PUSH1 0x20 DUP3 DUP5 SUB SLT ISZERO PUSH2 0x8CC JUMPI DUP1 DUP2 REVERT JUMPDEST DUP2 CALLDATALOAD PUSH16 0xFFFFFFFFFFFFFFFFFFFFFFFFFFFFFFFF DUP2 AND DUP2 EQ PUSH2 0x43F JUMPI DUP2 DUP3 REVERT JUMPDEST PUSH20 0xFFFFFFFFFFFFFFFFFFFFFFFFFFFFFFFFFFFFFFFF SWAP2 SWAP1 SWAP2 AND DUP2 MSTORE PUSH1 0x20 ADD SWAP1 JUMP JUMPDEST PUSH1 0x0 PUSH1 0x20 DUP1 DUP4 MSTORE DUP4 MLOAD DUP1 DUP3 DUP6 ADD MSTORE DUP3 JUMPDEST DUP2 DUP2 LT ISZERO PUSH2 0x938 JUMPI DUP6 DUP2 ADD DUP4 ADD MLOAD DUP6 DUP3 ADD PUSH1 0x40 ADD MSTORE DUP3 ADD PUSH2 0x91C JUMP JUMPDEST DUP2 DUP2 GT ISZERO PUSH2 0x949 JUMPI DUP4 PUSH1 0x40 DUP4 DUP8 ADD ADD MSTORE JUMPDEST POP PUSH1 0x1F ADD PUSH32 0xFFFFFFFFFFFFFFFFFFFFFFFFFFFFFFFFFFFFFFFFFFFFFFFFFFFFFFFFFFFFFFE0 AND SWAP3 SWAP1 SWAP3 ADD PUSH1 0x40 ADD SWAP4 SWAP3 POP POP POP JUMP JUMPDEST PUSH1 0x20 DUP1 DUP3 MSTORE PUSH1 0x1B SWAP1 DUP3 ADD MSTORE PUSH32 0x536166654D6174683A206164646974696F6E206F766572666C6F770000000000 PUSH1 0x40 DUP3 ADD MSTORE PUSH1 0x60 ADD SWAP1 JUMP JUMPDEST PUSH1 0x20 DUP1 DUP3 MSTORE PUSH1 0x21 SWAP1 DUP3 ADD MSTORE PUSH32 0x536166654D6174683A206D756C7469706C69636174696F6E206F766572666C6F PUSH1 0x40 DUP3 ADD MSTORE PUSH32 0x7700000000000000000000000000000000000000000000000000000000000000 PUSH1 0x60 DUP3 ADD MSTORE PUSH1 0x80 ADD SWAP1 JUMP JUMPDEST PUSH1 0x20 DUP1 DUP3 MSTORE PUSH1 0x15 SWAP1 DUP3 ADD MSTORE PUSH32 0x4F4E4C595F454D495353494F4E5F4D414E414745520000000000000000000000 PUSH1 0x40 DUP3 ADD MSTORE PUSH1 0x60 ADD SWAP1 JUMP JUMPDEST PUSH16 0xFFFFFFFFFFFFFFFFFFFFFFFFFFFFFFFF SWAP2 SWAP1 SWAP2 AND DUP2 MSTORE PUSH1 0x20 ADD SWAP1 JUMP JUMPDEST PUSH16 0xFFFFFFFFFFFFFFFFFFFFFFFFFFFFFFFF SWAP4 DUP5 AND DUP2 MSTORE SWAP2 SWAP1 SWAP3 AND PUSH1 0x20 DUP3 ADD MSTORE PUSH1 0x40 DUP2 ADD SWAP2 SWAP1 SWAP2 MSTORE PUSH1 0x60 ADD SWAP1 JUMP JUMPDEST SWAP1 DUP2 MSTORE PUSH1 0x20 ADD SWAP1 JUMP JUMPDEST PUSH1 0xFF SWAP2 SWAP1 SWAP2 AND DUP2 MSTORE PUSH1 0x20 ADD SWAP1 JUMP INVALID LOG2 PUSH5 0x6970667358 0x22 SLT KECCAK256 0xC STOP 0x23 0xB0 0xE8 0xC7 0xF 0x24 0xC1 SWAP11 STOP 0xB2 0xC2 0xCE SDIV EQ SWAP7 0x2A 0xB8 0xED NOT SWAP13 0xDC 0x4E DUP1 0xB4 INVALID 0xBD 0xCA PUSH27 0x9FEC64736F6C634300070500330000000000000000000000000000 "},"gasEstimates":{"creation":{"codeDepositCost":"556600","executionCost":"infinite","totalCost":"infinite"},"external":{"DISTRIBUTION_END()":"infinite","EMISSION_MANAGER()":"infinite","PRECISION()":"285","assets(address)":"2200","configureAssets((uint128,uint256,address)[])":"infinite","getUserAssetData(address,address)":"infinite"},"internal":{"_claimRewards(address,struct DistributionTypes.UserStakeInput memory[] memory)":"infinite","_getAssetIndex(uint256,uint256,uint128,uint256)":"infinite","_getRewards(uint256,uint256,uint256)":"infinite","_getUnclaimedRewards(address,struct DistributionTypes.UserStakeInput memory[] memory)":"infinite","_updateAssetStateInternal(address,struct AaveDistributionManager.AssetData storage pointer,uint256)":"infinite","_updateUserAssetInternal(address,address,uint256,uint256)":"infinite"}},"methodIdentifiers":{"DISTRIBUTION_END()":"919cd40f","EMISSION_MANAGER()":"cbcbb507","PRECISION()":"aaf5eb68","assets(address)":"f11b8188","configureAssets((uint128,uint256,address)[])":"b2a5dbfa","getUserAssetData(address,address)":"3373ee4c"}},"storageLayout":{"storage":[{"astId":1204,"contract":"@aave/safety-module/contracts/proposals/extend-stkaave-distribution/StakedTokenV2Rev3.sol:AaveDistributionManager","label":"assets","offset":0,"slot":"0","type":"t_mapping(t_address,t_struct(AssetData)1193_storage)"}],"types":{"t_address":{"encoding":"inplace","label":"address","numberOfBytes":"20"},"t_mapping(t_address,t_struct(AssetData)1193_storage)":{"encoding":"mapping","key":"t_address","label":"mapping(address => struct AaveDistributionManager.AssetData)","numberOfBytes":"32","value":"t_struct(AssetData)1193_storage"},"t_mapping(t_address,t_uint256)":{"encoding":"mapping","key":"t_address","label":"mapping(address => uint256)","numberOfBytes":"32","value":"t_uint256"},"t_struct(AssetData)1193_storage":{"encoding":"inplace","label":"struct AaveDistributionManager.AssetData","members":[{"astId":1184,"contract":"@aave/safety-module/contracts/proposals/extend-stkaave-distribution/StakedTokenV2Rev3.sol:AaveDistributionManager","label":"emissionPerSecond","offset":0,"slot":"0","type":"t_uint128"},{"astId":1186,"contract":"@aave/safety-module/contracts/proposals/extend-stkaave-distribution/StakedTokenV2Rev3.sol:AaveDistributionManager","label":"lastUpdateTimestamp","offset":16,"slot":"0","type":"t_uint128"},{"astId":1188,"contract":"@aave/safety-module/contracts/proposals/extend-stkaave-distribution/StakedTokenV2Rev3.sol:AaveDistributionManager","label":"index","offset":0,"slot":"1","type":"t_uint256"},{"astId":1192,"contract":"@aave/safety-module/contracts/proposals/extend-stkaave-distribution/StakedTokenV2Rev3.sol:AaveDistributionManager","label":"users","offset":0,"slot":"2","type":"t_mapping(t_address,t_uint256)"}],"numberOfBytes":"96"},"t_uint128":{"encoding":"inplace","label":"uint128","numberOfBytes":"16"},"t_uint256":{"encoding":"inplace","label":"uint256","numberOfBytes":"32"}}},"userdoc":{"kind":"user","methods":{},"notice":"Accounting contract to manage multiple staking distributions","version":1}}}}