{"@aave/safety-module/contracts/proposals/extend-stkaave-distribution/StakedTokenV2Rev3.sol":{"StakedTokenV2Rev3":{"abi":[{"inputs":[{"internalType":"contract IERC20","name":"stakedToken","type":"address"},{"internalType":"contract IERC20","name":"rewardToken","type":"address"},{"internalType":"uint256","name":"cooldownSeconds","type":"uint256"},{"internalType":"uint256","name":"unstakeWindow","type":"uint256"},{"internalType":"address","name":"rewardsVault","type":"address"},{"internalType":"address","name":"emissionManager","type":"address"},{"internalType":"uint128","name":"distributionDuration","type":"uint128"},{"internalType":"string","name":"name","type":"string"},{"internalType":"string","name":"symbol","type":"string"},{"internalType":"uint8","name":"decimals","type":"uint8"},{"internalType":"address","name":"governance","type":"address"}],"stateMutability":"nonpayable","type":"constructor"},{"anonymous":false,"inputs":[{"indexed":true,"internalType":"address","name":"owner","type":"address"},{"indexed":true,"internalType":"address","name":"spender","type":"address"},{"indexed":false,"internalType":"uint256","name":"value","type":"uint256"}],"name":"Approval","type":"event"},{"anonymous":false,"inputs":[{"indexed":true,"internalType":"address","name":"asset","type":"address"},{"indexed":false,"internalType":"uint256","name":"emission","type":"uint256"}],"name":"AssetConfigUpdated","type":"event"},{"anonymous":false,"inputs":[{"indexed":true,"internalType":"address","name":"asset","type":"address"},{"indexed":false,"internalType":"uint256","name":"index","type":"uint256"}],"name":"AssetIndexUpdated","type":"event"},{"anonymous":false,"inputs":[{"indexed":true,"internalType":"address","name":"user","type":"address"}],"name":"Cooldown","type":"event"},{"anonymous":false,"inputs":[{"indexed":true,"internalType":"address","name":"delegator","type":"address"},{"indexed":true,"internalType":"address","name":"delegatee","type":"address"},{"indexed":false,"internalType":"enum IGovernancePowerDelegationToken.DelegationType","name":"delegationType","type":"uint8"}],"name":"DelegateChanged","type":"event"},{"anonymous":false,"inputs":[{"indexed":true,"internalType":"address","name":"user","type":"address"},{"indexed":false,"internalType":"uint256","name":"amount","type":"uint256"},{"indexed":false,"internalType":"enum IGovernancePowerDelegationToken.DelegationType","name":"delegationType","type":"uint8"}],"name":"DelegatedPowerChanged","type":"event"},{"anonymous":false,"inputs":[{"indexed":true,"internalType":"address","name":"from","type":"address"},{"indexed":true,"internalType":"address","name":"to","type":"address"},{"indexed":false,"internalType":"uint256","name":"amount","type":"uint256"}],"name":"Redeem","type":"event"},{"anonymous":false,"inputs":[{"indexed":false,"internalType":"address","name":"user","type":"address"},{"indexed":false,"internalType":"uint256","name":"amount","type":"uint256"}],"name":"RewardsAccrued","type":"event"},{"anonymous":false,"inputs":[{"indexed":true,"internalType":"address","name":"from","type":"address"},{"indexed":true,"internalType":"address","name":"to","type":"address"},{"indexed":false,"internalType":"uint256","name":"amount","type":"uint256"}],"name":"RewardsClaimed","type":"event"},{"anonymous":false,"inputs":[{"indexed":true,"internalType":"address","name":"from","type":"address"},{"indexed":true,"internalType":"address","name":"onBehalfOf","type":"address"},{"indexed":false,"internalType":"uint256","name":"amount","type":"uint256"}],"name":"Staked","type":"event"},{"anonymous":false,"inputs":[{"indexed":true,"internalType":"address","name":"from","type":"address"},{"indexed":true,"internalType":"address","name":"to","type":"address"},{"indexed":false,"internalType":"uint256","name":"value","type":"uint256"}],"name":"Transfer","type":"event"},{"anonymous":false,"inputs":[{"indexed":true,"internalType":"address","name":"user","type":"address"},{"indexed":true,"internalType":"address","name":"asset","type":"address"},{"indexed":false,"internalType":"uint256","name":"index","type":"uint256"}],"name":"UserIndexUpdated","type":"event"},{"inputs":[],"name":"COOLDOWN_SECONDS","outputs":[{"internalType":"uint256","name":"","type":"uint256"}],"stateMutability":"view","type":"function"},{"inputs":[],"name":"DELEGATE_BY_TYPE_TYPEHASH","outputs":[{"internalType":"bytes32","name":"","type":"bytes32"}],"stateMutability":"view","type":"function"},{"inputs":[],"name":"DELEGATE_TYPEHASH","outputs":[{"internalType":"bytes32","name":"","type":"bytes32"}],"stateMutability":"view","type":"function"},{"inputs":[],"name":"DISTRIBUTION_END","outputs":[{"internalType":"uint256","name":"","type":"uint256"}],"stateMutability":"view","type":"function"},{"inputs":[],"name":"DOMAIN_SEPARATOR","outputs":[{"internalType":"bytes32","name":"","type":"bytes32"}],"stateMutability":"view","type":"function"},{"inputs":[],"name":"EIP712_REVISION","outputs":[{"internalType":"bytes","name":"","type":"bytes"}],"stateMutability":"view","type":"function"},{"inputs":[],"name":"EMISSION_MANAGER","outputs":[{"internalType":"address","name":"","type":"address"}],"stateMutability":"view","type":"function"},{"inputs":[],"name":"PERMIT_TYPEHASH","outputs":[{"internalType":"bytes32","name":"","type":"bytes32"}],"stateMutability":"view","type":"function"},{"inputs":[],"name":"PRECISION","outputs":[{"internalType":"uint8","name":"","type":"uint8"}],"stateMutability":"view","type":"function"},{"inputs":[],"name":"REVISION","outputs":[{"internalType":"uint256","name":"","type":"uint256"}],"stateMutability":"view","type":"function"},{"inputs":[],"name":"REWARDS_VAULT","outputs":[{"internalType":"address","name":"","type":"address"}],"stateMutability":"view","type":"function"},{"inputs":[],"name":"REWARD_TOKEN","outputs":[{"internalType":"contract IERC20","name":"","type":"address"}],"stateMutability":"view","type":"function"},{"inputs":[],"name":"STAKED_TOKEN","outputs":[{"internalType":"contract IERC20","name":"","type":"address"}],"stateMutability":"view","type":"function"},{"inputs":[],"name":"UNSTAKE_WINDOW","outputs":[{"internalType":"uint256","name":"","type":"uint256"}],"stateMutability":"view","type":"function"},{"inputs":[],"name":"_aaveGovernance","outputs":[{"internalType":"contract ITransferHook","name":"","type":"address"}],"stateMutability":"view","type":"function"},{"inputs":[{"internalType":"address","name":"","type":"address"}],"name":"_nonces","outputs":[{"internalType":"uint256","name":"","type":"uint256"}],"stateMutability":"view","type":"function"},{"inputs":[{"internalType":"address","name":"","type":"address"},{"internalType":"uint256","name":"","type":"uint256"}],"name":"_votingSnapshots","outputs":[{"internalType":"uint128","name":"blockNumber","type":"uint128"},{"internalType":"uint128","name":"value","type":"uint128"}],"stateMutability":"view","type":"function"},{"inputs":[{"internalType":"address","name":"","type":"address"}],"name":"_votingSnapshotsCounts","outputs":[{"internalType":"uint256","name":"","type":"uint256"}],"stateMutability":"view","type":"function"},{"inputs":[{"internalType":"address","name":"owner","type":"address"},{"internalType":"address","name":"spender","type":"address"}],"name":"allowance","outputs":[{"internalType":"uint256","name":"","type":"uint256"}],"stateMutability":"view","type":"function"},{"inputs":[{"internalType":"address","name":"spender","type":"address"},{"internalType":"uint256","name":"amount","type":"uint256"}],"name":"approve","outputs":[{"internalType":"bool","name":"","type":"bool"}],"stateMutability":"nonpayable","type":"function"},{"inputs":[{"internalType":"address","name":"","type":"address"}],"name":"assets","outputs":[{"internalType":"uint128","name":"emissionPerSecond","type":"uint128"},{"internalType":"uint128","name":"lastUpdateTimestamp","type":"uint128"},{"internalType":"uint256","name":"index","type":"uint256"}],"stateMutability":"view","type":"function"},{"inputs":[{"internalType":"address","name":"account","type":"address"}],"name":"balanceOf","outputs":[{"internalType":"uint256","name":"","type":"uint256"}],"stateMutability":"view","type":"function"},{"inputs":[{"internalType":"address","name":"to","type":"address"},{"internalType":"uint256","name":"amount","type":"uint256"}],"name":"claimRewards","outputs":[],"stateMutability":"nonpayable","type":"function"},{"inputs":[{"components":[{"internalType":"uint128","name":"emissionPerSecond","type":"uint128"},{"internalType":"uint256","name":"totalStaked","type":"uint256"},{"internalType":"address","name":"underlyingAsset","type":"address"}],"internalType":"struct DistributionTypes.AssetConfigInput[]","name":"assetsConfigInput","type":"tuple[]"}],"name":"configureAssets","outputs":[],"stateMutability":"nonpayable","type":"function"},{"inputs":[],"name":"cooldown","outputs":[],"stateMutability":"nonpayable","type":"function"},{"inputs":[],"name":"decimals","outputs":[{"internalType":"uint8","name":"","type":"uint8"}],"stateMutability":"view","type":"function"},{"inputs":[{"internalType":"address","name":"spender","type":"address"},{"internalType":"uint256","name":"subtractedValue","type":"uint256"}],"name":"decreaseAllowance","outputs":[{"internalType":"bool","name":"","type":"bool"}],"stateMutability":"nonpayable","type":"function"},{"inputs":[{"internalType":"address","name":"delegatee","type":"address"}],"name":"delegate","outputs":[],"stateMutability":"nonpayable","type":"function"},{"inputs":[{"internalType":"address","name":"delegatee","type":"address"},{"internalType":"uint256","name":"nonce","type":"uint256"},{"internalType":"uint256","name":"expiry","type":"uint256"},{"internalType":"uint8","name":"v","type":"uint8"},{"internalType":"bytes32","name":"r","type":"bytes32"},{"internalType":"bytes32","name":"s","type":"bytes32"}],"name":"delegateBySig","outputs":[],"stateMutability":"nonpayable","type":"function"},{"inputs":[{"internalType":"address","name":"delegatee","type":"address"},{"internalType":"enum IGovernancePowerDelegationToken.DelegationType","name":"delegationType","type":"uint8"}],"name":"delegateByType","outputs":[],"stateMutability":"nonpayable","type":"function"},{"inputs":[{"internalType":"address","name":"delegatee","type":"address"},{"internalType":"enum IGovernancePowerDelegationToken.DelegationType","name":"delegationType","type":"uint8"},{"internalType":"uint256","name":"nonce","type":"uint256"},{"internalType":"uint256","name":"expiry","type":"uint256"},{"internalType":"uint8","name":"v","type":"uint8"},{"internalType":"bytes32","name":"r","type":"bytes32"},{"internalType":"bytes32","name":"s","type":"bytes32"}],"name":"delegateByTypeBySig","outputs":[],"stateMutability":"nonpayable","type":"function"},{"inputs":[{"internalType":"address","name":"delegator","type":"address"},{"internalType":"enum IGovernancePowerDelegationToken.DelegationType","name":"delegationType","type":"uint8"}],"name":"getDelegateeByType","outputs":[{"internalType":"address","name":"","type":"address"}],"stateMutability":"view","type":"function"},{"inputs":[{"internalType":"uint256","name":"fromCooldownTimestamp","type":"uint256"},{"internalType":"uint256","name":"amountToReceive","type":"uint256"},{"internalType":"address","name":"toAddress","type":"address"},{"internalType":"uint256","name":"toBalance","type":"uint256"}],"name":"getNextCooldownTimestamp","outputs":[{"internalType":"uint256","name":"","type":"uint256"}],"stateMutability":"view","type":"function"},{"inputs":[{"internalType":"address","name":"user","type":"address"},{"internalType":"uint256","name":"blockNumber","type":"uint256"},{"internalType":"enum IGovernancePowerDelegationToken.DelegationType","name":"delegationType","type":"uint8"}],"name":"getPowerAtBlock","outputs":[{"internalType":"uint256","name":"","type":"uint256"}],"stateMutability":"view","type":"function"},{"inputs":[{"internalType":"address","name":"user","type":"address"},{"internalType":"enum IGovernancePowerDelegationToken.DelegationType","name":"delegationType","type":"uint8"}],"name":"getPowerCurrent","outputs":[{"internalType":"uint256","name":"","type":"uint256"}],"stateMutability":"view","type":"function"},{"inputs":[{"internalType":"address","name":"staker","type":"address"}],"name":"getTotalRewardsBalance","outputs":[{"internalType":"uint256","name":"","type":"uint256"}],"stateMutability":"view","type":"function"},{"inputs":[{"internalType":"address","name":"user","type":"address"},{"internalType":"address","name":"asset","type":"address"}],"name":"getUserAssetData","outputs":[{"internalType":"uint256","name":"","type":"uint256"}],"stateMutability":"view","type":"function"},{"inputs":[{"internalType":"address","name":"spender","type":"address"},{"internalType":"uint256","name":"addedValue","type":"uint256"}],"name":"increaseAllowance","outputs":[{"internalType":"bool","name":"","type":"bool"}],"stateMutability":"nonpayable","type":"function"},{"inputs":[],"name":"initialize","outputs":[],"stateMutability":"nonpayable","type":"function"},{"inputs":[],"name":"name","outputs":[{"internalType":"string","name":"","type":"string"}],"stateMutability":"view","type":"function"},{"inputs":[{"internalType":"address","name":"owner","type":"address"},{"internalType":"address","name":"spender","type":"address"},{"internalType":"uint256","name":"value","type":"uint256"},{"internalType":"uint256","name":"deadline","type":"uint256"},{"internalType":"uint8","name":"v","type":"uint8"},{"internalType":"bytes32","name":"r","type":"bytes32"},{"internalType":"bytes32","name":"s","type":"bytes32"}],"name":"permit","outputs":[],"stateMutability":"nonpayable","type":"function"},{"inputs":[{"internalType":"address","name":"to","type":"address"},{"internalType":"uint256","name":"amount","type":"uint256"}],"name":"redeem","outputs":[],"stateMutability":"nonpayable","type":"function"},{"inputs":[{"internalType":"address","name":"onBehalfOf","type":"address"},{"internalType":"uint256","name":"amount","type":"uint256"}],"name":"stake","outputs":[],"stateMutability":"nonpayable","type":"function"},{"inputs":[{"internalType":"address","name":"","type":"address"}],"name":"stakerRewardsToClaim","outputs":[{"internalType":"uint256","name":"","type":"uint256"}],"stateMutability":"view","type":"function"},{"inputs":[{"internalType":"address","name":"","type":"address"}],"name":"stakersCooldowns","outputs":[{"internalType":"uint256","name":"","type":"uint256"}],"stateMutability":"view","type":"function"},{"inputs":[],"name":"symbol","outputs":[{"internalType":"string","name":"","type":"string"}],"stateMutability":"view","type":"function"},{"inputs":[],"name":"totalSupply","outputs":[{"internalType":"uint256","name":"","type":"uint256"}],"stateMutability":"view","type":"function"},{"inputs":[{"internalType":"uint256","name":"blockNumber","type":"uint256"}],"name":"totalSupplyAt","outputs":[{"internalType":"uint256","name":"","type":"uint256"}],"stateMutability":"view","type":"function"},{"inputs":[{"internalType":"address","name":"recipient","type":"address"},{"internalType":"uint256","name":"amount","type":"uint256"}],"name":"transfer","outputs":[{"internalType":"bool","name":"","type":"bool"}],"stateMutability":"nonpayable","type":"function"},{"inputs":[{"internalType":"address","name":"sender","type":"address"},{"internalType":"address","name":"recipient","type":"address"},{"internalType":"uint256","name":"amount","type":"uint256"}],"name":"transferFrom","outputs":[{"internalType":"bool","name":"","type":"bool"}],"stateMutability":"nonpayable","type":"function"}],"devdoc":{"author":"Aave*","kind":"dev","methods":{"allowance(address,address)":{"details":"See {IERC20-allowance}."},"approve(address,uint256)":{"details":"See {IERC20-approve}. Requirements: - `spender` cannot be the zero address."},"balanceOf(address)":{"details":"See {IERC20-balanceOf}."},"claimRewards(address,uint256)":{"details":"Claims an `amount` of `REWARD_TOKEN` to the address `to`","params":{"amount":"Amount to stake*","to":"Address to stake for"}},"configureAssets((uint128,uint256,address)[])":{"details":"Configures the distribution of rewards for a list of assets","params":{"assetsConfigInput":"The list of configurations to apply*"}},"cooldown()":{"details":"Activates the cooldown period to unstake - It can't be called if the user is not staking*"},"decimals()":{"details":"Returns the number of decimals used to get its user representation. For example, if `decimals` equals `2`, a balance of `505` tokens should be displayed to a user as `5,05` (`505 / 10 ** 2`). Tokens usually opt for a value of 18, imitating the relationship between Ether and Wei. This is the value {ERC20} uses, unless {_setupDecimals} is called. NOTE: This information is only used for _display_ purposes: it in no way affects any of the arithmetic of the contract, including {IERC20-balanceOf} and {IERC20-transfer}."},"decreaseAllowance(address,uint256)":{"details":"Atomically decreases the allowance granted to `spender` by the caller. This is an alternative to {approve} that can be used as a mitigation for problems described in {IERC20-approve}. Emits an {Approval} event indicating the updated allowance. Requirements: - `spender` cannot be the zero address. - `spender` must have allowance for the caller of at least `subtractedValue`."},"delegate(address)":{"details":"delegates all the powers to a specific user","params":{"delegatee":"the user to which the power will be delegated*"}},"delegateBySig(address,uint256,uint256,uint8,bytes32,bytes32)":{"details":"Delegates power from signatory to `delegatee`","params":{"delegatee":"The address to delegate votes to","expiry":"The time at which to expire the signature","nonce":"The contract state required to match the signature","r":"Half of the ECDSA signature pair","s":"Half of the ECDSA signature pair","v":"The recovery byte of the signature"}},"delegateByType(address,uint8)":{"details":"delegates one specific power to a delegatee","params":{"delegatee":"the user which delegated power has changed","delegationType":"the type of delegation (VOTING_POWER, PROPOSITION_POWER)*"}},"delegateByTypeBySig(address,uint8,uint256,uint256,uint8,bytes32,bytes32)":{"details":"Delegates power from signatory to `delegatee`","params":{"delegatee":"The address to delegate votes to","delegationType":"the type of delegation (VOTING_POWER, PROPOSITION_POWER)","expiry":"The time at which to expire the signature","nonce":"The contract state required to match the signature","r":"Half of the ECDSA signature pair","s":"Half of the ECDSA signature pair","v":"The recovery byte of the signature"}},"getDelegateeByType(address,uint8)":{"details":"returns the delegatee of an user","params":{"delegator":"the address of the delegator*"}},"getNextCooldownTimestamp(uint256,uint256,address,uint256)":{"details":"Calculates the how is gonna be a new cooldown timestamp depending on the sender/receiver situation  - If the timestamp of the sender is \"better\" or the timestamp of the recipient is 0, we take the one of the recipient  - Weighted average of from/to cooldown timestamps if:    # The sender doesn't have the cooldown activated (timestamp 0).    # The sender timestamp is expired    # The sender has a \"worse\" timestamp  - If the receiver's cooldown timestamp expired (too old), the next is 0","params":{"amountToReceive":"Amount","fromCooldownTimestamp":"Cooldown timestamp of the sender","toAddress":"Address of the recipient","toBalance":"Current balance of the receiver"},"returns":{"_0":"The new cooldown timestamp*"}},"getPowerAtBlock(address,uint256,uint8)":{"details":"returns the delegated power of a user at a certain block","params":{"user":"the user*"}},"getPowerCurrent(address,uint8)":{"details":"returns the current delegated power of a user. The current power is the power delegated at the time of the last snapshot","params":{"user":"the user*"}},"getTotalRewardsBalance(address)":{"details":"Return the total rewards pending to claim by an staker","params":{"staker":"The staker address"},"returns":{"_0":"The rewards"}},"getUserAssetData(address,address)":{"details":"Returns the data of an user on a distribution","params":{"asset":"The address of the reference asset of the distribution","user":"Address of the user"},"returns":{"_0":"The new index*"}},"increaseAllowance(address,uint256)":{"details":"Atomically increases the allowance granted to `spender` by the caller. This is an alternative to {approve} that can be used as a mitigation for problems described in {IERC20-approve}. Emits an {Approval} event indicating the updated allowance. Requirements: - `spender` cannot be the zero address."},"initialize()":{"details":"Called by the proxy contract*"},"name()":{"details":"Returns the name of the token."},"permit(address,address,uint256,uint256,uint8,bytes32,bytes32)":{"details":"implements the permit function as for https://github.com/ethereum/EIPs/blob/8a34d644aacf0f9f8f00815307fd7dd5da07655f/EIPS/eip-2612.md","params":{"deadline":"the deadline timestamp, type(uint256).max for no deadline","owner":"the owner of the funds","r":"signature param","s":"signature param","spender":"the spender","v":"signature param","value":"the amount"}},"redeem(address,uint256)":{"details":"Redeems staked tokens, and stop earning rewards","params":{"amount":"Amount to redeem*","to":"Address to redeem to"}},"symbol()":{"details":"Returns the symbol of the token, usually a shorter version of the name."},"totalSupply()":{"details":"See {IERC20-totalSupply}."},"totalSupplyAt(uint256)":{"details":"returns the total supply at a certain block number used by the voting strategy contracts to calculate the total votes needed for threshold/quorum In this initial implementation with no AAVE minting, simply returns the current supply A snapshots mapping will need to be added in case a mint function is added to the AAVE token in the future*"},"transfer(address,uint256)":{"details":"See {IERC20-transfer}. Requirements: - `recipient` cannot be the zero address. - the caller must have a balance of at least `amount`."},"transferFrom(address,address,uint256)":{"details":"See {IERC20-transferFrom}. Emits an {Approval} event indicating the updated allowance. This is not required by the EIP. See the note at the beginning of {ERC20}; Requirements: - `sender` and `recipient` cannot be the zero address. - `sender` must have a balance of at least `amount`. - the caller must have allowance for ``sender``'s tokens of at least `amount`."}},"stateVariables":{"REVISION":{"details":"Start of Storage layout from StakedToken v1"},"_nonces":{"details":"owner => next valid nonce to submit with permit()"},"_votingDelegates":{"details":"To see the voting mappings, go to GovernancePowerWithSnapshot.sol"}},"title":"StakedToken","version":1},"evm":{"bytecode":{"linkReferences":{},"object":"61016060405260006009553480156200001757600080fd5b5060405162004aec38038062004aec8339810160408190526200003a9162000303565b85856001600160801b0316858581600390805190602001906200005f9291906200016d565b508051620000759060049060208401906200016d565b505060058054601260ff19909116179055506200009f42826200011f602090811b62001ea117901c565b60805250606090811b6001600160601b031990811660a0528c821b811660c0528b821b811660e0526101008b90526101208a90529088901b1661014052600880546001600160a01b0319166001600160a01b0383161790556200010e8262000157602090811b62001ee017901c565b505050505050505050505062000441565b600082820183811015620001505760405162461bcd60e51b815260040162000147906200040a565b60405180910390fd5b9392505050565b6005805460ff191660ff92909216919091179055565b828054600181600116156101000203166002900490600052602060002090601f016020900481019282620001a55760008555620001f0565b82601f10620001c057805160ff1916838001178555620001f0565b82800160010185558215620001f0579182015b82811115620001f0578251825591602001919060010190620001d3565b50620001fe92915062000202565b5090565b5b80821115620001fe576000815560010162000203565b80516001600160a01b03811681146200023157600080fd5b919050565b600082601f83011262000247578081fd5b81516001600160401b03808211156200025c57fe5b6040516020601f8401601f19168201810183811183821017156200027c57fe5b806040525081945083825286818588010111156200029957600080fd5b600092505b83831015620002bd57858301810151828401820152918201916200029e565b83831115620002cf5760008185840101525b5050505092915050565b80516001600160801b03811681146200023157600080fd5b805160ff811681146200023157600080fd5b60008060008060008060008060008060006101608c8e03121562000325578687fd5b620003308c62000219565b9a506200034060208d0162000219565b995060408c0151985060608c015197506200035e60808d0162000219565b96506200036e60a08d0162000219565b95506200037e60c08d01620002d9565b60e08d01519095506001600160401b038111156200039a578485fd5b620003a88e828f0162000236565b6101008e015190955090506001600160401b03811115620003c7578384fd5b620003d58e828f0162000236565b935050620003e76101208d01620002f1565b9150620003f86101408d0162000219565b90509295989b509295989b9093969950565b6020808252601b908201527f536166654d6174683a206164646974696f6e206f766572666c6f770000000000604082015260600190565b60805160a05160601c60c05160601c60e05160601c61010051610120516101405160601c61460a620004e260003980610f6952806111195250806108115280610ad15280611bd85250806107b352806108395280610c2a5280611bfd52508061101652806110e252508061090c5280610a6752806113a452508061144152806118ce525080610f455280613531528061357652806135a3525061460a6000f3fe608060405234801561001057600080fd5b50600436106103365760003560e01c8063919cd40f116101b2578063b2f4201d116100f9578063d505accf116100a2578063dde43cba1161007c578063dde43cba14610623578063f11b81881461062b578063f1cc432a1461064d578063f713d8a81461066057610336565b8063d505accf146105ea578063dc937e1c146105fd578063dd62ed3e1461061057610336565b8063c3863ada116100d3578063c3863ada146105c7578063c3cda520146105cf578063cbcbb507146105e257610336565b8063b2f4201d1461058e578063b9844d8d146105a1578063c2ffbb91146105b457610336565b8063a457c2d71161015b578063aaf5eb6811610135578063aaf5eb6814610560578063adc9772e14610568578063b2a5dbfa1461057b57610336565b8063a457c2d714610532578063a9059cbb14610545578063aa9fbe021461055857610336565b8063981b24d01161018c578063981b24d01461050457806399248ea7146105175780639a99b4f01461051f57610336565b8063919cd40f146104ec578063946776cd146104f457806395d89b41146104fc57610336565b8063395093511161028157806372b49d631161022a5780637bb73c97116102045780637bb73c97146104ab5780637e90d7ef146104be5780638129fc1c146104d15780638dbefee2146104d957610336565b806372b49d6314610493578063781603761461049b578063787a08a6146104a357610336565b80635c19a95c1161025b5780635c19a95c1461045a5780636f50458d1461046d57806370a082311461048057610336565b8063395093511461041e57806341cbf54a146104315780635b3cc0cf1461043957610336565b806330adf81f116102e35780633373ee4c116102bd5780633373ee4c146103fb578063359c4a961461040e5780633644e5151461041657610336565b806330adf81f146103c9578063312f6b83146103d1578063313ce567146103e657610336565b806318160ddd1161031457806318160ddd146103995780631e9a6950146103a157806323b872dd146103b657610336565b806306fdde031461033b578063091030c314610359578063095ea7b314610379575b600080fd5b610343610673565b6040516103509190613e44565b60405180910390f35b61036c6103673660046138f3565b610727565b6040516103509190613d39565b61038c610387366004613a3d565b610739565b6040516103509190613d2e565b61036c610757565b6103b46103af366004613a3d565b61075d565b005b61038c6103c436600461393f565b61099f565b61036c610a41565b6103d9610a65565b6040516103509190613cb6565b6103ee610a89565b6040516103509190614505565b61036c61040936600461390d565b610a92565b61036c610acf565b61036c610af3565b61038c61042c366004613a3d565b610af9565b61036c610b54565b61044c610447366004613a3d565b610b78565b6040516103509291906144a1565b6103b46104683660046138f3565b610bbf565b6103d961047b3660046139e3565b610bda565b61036c61048e3660046138f3565b610bfc565b61036c610c28565b610343610c4c565b6103b4610c85565b61036c6104b93660046138f3565b610cfe565b61036c6104cc3660046138f3565b610d10565b6103b4610d22565b61036c6104e73660046138f3565b610e7a565b61036c610f43565b6103d9610f67565b610343610f8b565b61036c610512366004613bb8565b61100a565b6103d9611014565b6103b461052d366004613a3d565b611038565b61038c610540366004613a3d565b6111aa565b61038c610553366004613a3d565b61121f565b61036c611233565b6103ee611257565b6103b4610576366004613a3d565b61125c565b6103b4610589366004613af8565b611429565b61036c61059c3660046139e3565b61164b565b61036c6105af3660046138f3565b611673565b61036c6105c2366004613a66565b611685565b6103d96116ae565b6103b46105dd366004613aa1565b6116ca565b6103d96118cc565b6103b46105f836600461397a565b6118f0565b6103b461060b3660046139e3565b611b0c565b61036c61061e36600461390d565b611b1b565b61036c611b53565b61063e6106393660046138f3565b611b58565b604051610350939291906144c4565b61036c61065b366004613bd0565b611b9c565b6103b461066e366004613a0c565b611c9e565b60038054604080516020601f60027fffffffffffffffffffffffffffffffffffffffffffffffffffffffffffffffff61010060018816150201909516949094049384018190048102820181019092528281526060939092909183018282801561071d5780601f106106f25761010080835404028352916020019161071d565b820191906000526020600020905b81548152906001019060200180831161070057829003601f168201915b5050505050905090565b603e6020526000908152604090205481565b600061074d610746611f14565b8484611f18565b5060015b92915050565b60025490565b8061079d576040517f08c379a000000000000000000000000000000000000000000000000000000000815260040161079490613f56565b60405180910390fd5b336000908152603e60205260409020546107d7817f0000000000000000000000000000000000000000000000000000000000000000611ea1565b421161080f576040517f08c379a000000000000000000000000000000000000000000000000000000000815260040161079490613ff9565b7f000000000000000000000000000000000000000000000000000000000000000061086461085d837f0000000000000000000000000000000000000000000000000000000000000000611ea1565b4290612027565b111561089c576040517f08c379a000000000000000000000000000000000000000000000000000000000815260040161079490614280565b60006108a733610bfc565b905060008184116108b857836108ba565b815b90506108c833836001612069565b506108d33382612127565b6108dd8282612027565b6108f257336000908152603e60205260408120555b61093373ffffffffffffffffffffffffffffffffffffffff7f0000000000000000000000000000000000000000000000000000000000000000168683612257565b8473ffffffffffffffffffffffffffffffffffffffff163373ffffffffffffffffffffffffffffffffffffffff167fd12200efa34901b99367694174c3b0d32c99585fdf37c7c26892136ddd0836d9836040516109909190613d39565b60405180910390a35050505050565b60006109ac8484846122f8565b610a36846109b8611f14565b610a31856040518060600160405280602881526020016145886028913973ffffffffffffffffffffffffffffffffffffffff8a16600090815260016020526040812090610a03611f14565b73ffffffffffffffffffffffffffffffffffffffff1681526020810191909152604001600020549190612405565b611f18565b5060015b9392505050565b7f6e71edae12b1b97f4d1f60370fef10105fa2faae0126114a169c64845d6126c981565b7f000000000000000000000000000000000000000000000000000000000000000081565b60055460ff1690565b73ffffffffffffffffffffffffffffffffffffffff8082166000908152603c60209081526040808320938616835260029093019052205492915050565b7f000000000000000000000000000000000000000000000000000000000000000081565b60435481565b600061074d610b06611f14565b84610a318560016000610b17611f14565b73ffffffffffffffffffffffffffffffffffffffff908116825260208083019390935260409182016000908120918c168152925290205490611ea1565b7f9a9a49b990ba9bb39f8048c490a40ab25c18f55d208d5fbcf958261a9b48716d81565b60066020908152600092835260408084209091529082529020546fffffffffffffffffffffffffffffffff8082169170010000000000000000000000000000000090041682565b610bcb3382600061244b565b610bd73382600161244b565b50565b600080610be68361258e565b92505050610bf484826125c8565b949350505050565b73ffffffffffffffffffffffffffffffffffffffff81166000908152602081905260409020545b919050565b7f000000000000000000000000000000000000000000000000000000000000000081565b6040518060400160405280600181526020017f310000000000000000000000000000000000000000000000000000000000000081525081565b610c8e33610bfc565b610cc4576040517f08c379a0000000000000000000000000000000000000000000000000000000008152600401610794906143a8565b336000818152603e6020526040808220429055517ff52f50426b32362d3e6bb8cb36b7074756b224622def6352a59eac7f66ebe6e89190a2565b60076020526000908152604090205481565b603d6020526000908152604090205481565b6000610d2c612600565b90506009548111610d69576040517f08c379a00000000000000000000000000000000000000000000000000000000081526004016107949061408d565b6009819055467f8b73c3c69bb8fe3d512ecc4cf759cc79239f7b179b0ffacaa9a75d522b39400f610d98610673565b8051602091820120604080518082018252600181527f31000000000000000000000000000000000000000000000000000000000000009084015251610e0493927fc89efdaa54c0f20c7adf612882df0950f5a951637e0307cdcb4c672f298b8bc6918691309101613ded565b604080518083037fffffffffffffffffffffffffffffffffffffffffffffffffffffffffffffffe00181529181528151602092830120604355306000908152603c909252902080546fffffffffffffffffffffffffffffffff167360985020000000000000000000000000000000001790555050565b60408051600180825281830190925260009160609190816020015b610e9d613861565b815260200190600190039081610e9557905050905060405180606001604052803073ffffffffffffffffffffffffffffffffffffffff168152602001610ee285610bfc565b8152602001610eef610757565b81525081600081518110610eff57fe5b6020026020010181905250610a3a610f178483612605565b73ffffffffffffffffffffffffffffffffffffffff85166000908152603d602052604090205490611ea1565b7f000000000000000000000000000000000000000000000000000000000000000081565b7f000000000000000000000000000000000000000000000000000000000000000081565b60048054604080516020601f60027fffffffffffffffffffffffffffffffffffffffffffffffffffffffffffffffff61010060018816150201909516949094049384018190048102820181019092528281526060939092909183018282801561071d5780601f106106f25761010080835404028352916020019161071d565b6000610751610757565b7f000000000000000000000000000000000000000000000000000000000000000081565b600061104e3361104733610bfc565b6000612069565b905060007fffffffffffffffffffffffffffffffffffffffffffffffffffffffffffffffff831461107f5782611081565b815b90506110cd816040518060400160405280600e81526020017f494e56414c49445f414d4f554e54000000000000000000000000000000000000815250846124059092919063ffffffff16565b336000908152603d602052604090205561113f7f000000000000000000000000000000000000000000000000000000000000000073ffffffffffffffffffffffffffffffffffffffff167f00000000000000000000000000000000000000000000000000000000000000008684612733565b8373ffffffffffffffffffffffffffffffffffffffff163373ffffffffffffffffffffffffffffffffffffffff167f9310ccfcb8de723f578a9e4282ea9f521f05ae40dc08f3068dfad528a65ee3c78360405161119c9190613d39565b60405180910390a350505050565b600061074d6111b7611f14565b84610a31856040518060600160405280602581526020016145b060259139600160006111e1611f14565b73ffffffffffffffffffffffffffffffffffffffff908116825260208083019390935260409182016000908120918d16815292529020549190612405565b600061074d61122c611f14565b84846122f8565b7f10d8d059343739efce7dad10d09f0806da52b252b3e6a7951920d2d6ec4102e581565b601281565b80611293576040517f08c379a000000000000000000000000000000000000000000000000000000000815260040161079490613f56565b600061129e83610bfc565b905060006112b58430846112b0610757565b612754565b9050801561134d577f2468f9268c60ad90e2d49edb0032c8a001e733ae888b3ab8e982edf535be1a7684826040516112ee929190613d08565b60405180910390a173ffffffffffffffffffffffffffffffffffffffff84166000908152603d60205260409020546113269082611ea1565b73ffffffffffffffffffffffffffffffffffffffff85166000908152603d60205260409020555b61135a6000848685611b9c565b73ffffffffffffffffffffffffffffffffffffffff85166000908152603e602052604090205561138a848461282d565b6113cc73ffffffffffffffffffffffffffffffffffffffff7f000000000000000000000000000000000000000000000000000000000000000016333086612733565b8373ffffffffffffffffffffffffffffffffffffffff163373ffffffffffffffffffffffffffffffffffffffff167f5dac0c1b1112564a045ba943c9d50270893e8e826c49be8e7073adc713ab7bd78560405161119c9190613d39565b3373ffffffffffffffffffffffffffffffffffffffff7f00000000000000000000000000000000000000000000000000000000000000001614611498576040517f08c379a000000000000000000000000000000000000000000000000000000000815260040161079490614158565b60005b81811015611646576000603c60008585858181106114b557fe5b90506060020160400160208101906114cd91906138f3565b73ffffffffffffffffffffffffffffffffffffffff1673ffffffffffffffffffffffffffffffffffffffff168152602001908152602001600020905061154c84848481811061151857fe5b905060600201604001602081019061153091906138f3565b8286868681811061153d57fe5b90506060020160200135612922565b5083838381811061155957fe5b61156f9260206060909202019081019150613b88565b81547fffffffffffffffffffffffffffffffff00000000000000000000000000000000166fffffffffffffffffffffffffffffffff919091161781558383838181106115b757fe5b90506060020160400160208101906115cf91906138f3565b73ffffffffffffffffffffffffffffffffffffffff167f87fa03892a0556cb6b8f97e6d533a150d4d55fcbf275fff5fa003fa636bcc7fa85858581811061161257fe5b6116289260206060909202019081019150613b88565b6040516116359190614484565b60405180910390a25060010161149b565b505050565b60008060006116598461258e565b509150915061166a82828743612a21565b95945050505050565b60446020526000908152604090205481565b60008060006116938461258e565b50915091506116a482828888612a21565b9695505050505050565b60085473ffffffffffffffffffffffffffffffffffffffff1681565b60007f9a9a49b990ba9bb39f8048c490a40ab25c18f55d208d5fbcf958261a9b48716d8787876040516020016117039493929190613d83565b604051602081830303815290604052805190602001209050600060435482604051602001611732929190613c80565b60405160208183030381529060405280519060200120905060006001828787876040516000815260200160405260405161176f9493929190613e26565b6020604051602081039080840390855afa158015611791573d6000803e3d6000fd5b50506040517fffffffffffffffffffffffffffffffffffffffffffffffffffffffffffffffe0015191505073ffffffffffffffffffffffffffffffffffffffff8116611809576040517f08c379a000000000000000000000000000000000000000000000000000000000815260040161079490613fc2565b73ffffffffffffffffffffffffffffffffffffffff81166000908152604460205260409020805460018101909155881461186f576040517f08c379a000000000000000000000000000000000000000000000000000000000815260040161079490614121565b864211156118a9576040517f08c379a0000000000000000000000000000000000000000000000000000000008152600401610794906140ea565b6118b5818a600061244b565b6118c1818a600161244b565b505050505050505050565b7f000000000000000000000000000000000000000000000000000000000000000081565b73ffffffffffffffffffffffffffffffffffffffff871661193d576040517f08c379a00000000000000000000000000000000000000000000000000000000081526004016107949061418f565b83421115611977576040517f08c379a0000000000000000000000000000000000000000000000000000000008152600401610794906140ea565b73ffffffffffffffffffffffffffffffffffffffff871660009081526044602090815260408083205460435491519093926119de917f6e71edae12b1b97f4d1f60370fef10105fa2faae0126114a169c64845d6126c9918d918d918d9189918e9101613d42565b60405160208183030381529060405280519060200120604051602001611a05929190613c80565b60405160208183030381529060405280519060200120905060018186868660405160008152602001604052604051611a409493929190613e26565b6020604051602081039080840390855afa158015611a62573d6000803e3d6000fd5b5050506020604051035173ffffffffffffffffffffffffffffffffffffffff168973ffffffffffffffffffffffffffffffffffffffff1614611ad0576040517f08c379a000000000000000000000000000000000000000000000000000000000815260040161079490613fc2565b611adb826001611ea1565b73ffffffffffffffffffffffffffffffffffffffff8a166000908152604460205260409020556118c1898989611f18565b611b1733838361244b565b5050565b73ffffffffffffffffffffffffffffffffffffffff918216600090815260016020908152604080832093909416825291909152205490565b600381565b603c60205260009081526040902080546001909101546fffffffffffffffffffffffffffffffff808316927001000000000000000000000000000000009004169083565b73ffffffffffffffffffffffffffffffffffffffff82166000908152603e602052604081205480611bd1576000915050610bf4565b6000611c277f0000000000000000000000000000000000000000000000000000000000000000611c21427f0000000000000000000000000000000000000000000000000000000000000000612027565b90612027565b905081811115611c3a5760009150611c94565b6000878211611c495787611c4b565b425b905082811015611c6057829350505050610bf4565b611c90611c6d8887611ea1565b611c8a611c7a8887612d39565b611c848b86612d39565b90611ea1565b90612d8d565b9250505b5095945050505050565b60007f10d8d059343739efce7dad10d09f0806da52b252b3e6a7951920d2d6ec4102e588886001811115611cce57fe5b8888604051602001611ce4959493929190613db4565b604051602081830303815290604052805190602001209050600060435482604051602001611d13929190613c80565b604051602081830303815290604052805190602001209050600060018287878760405160008152602001604052604051611d509493929190613e26565b6020604051602081039080840390855afa158015611d72573d6000803e3d6000fd5b50506040517fffffffffffffffffffffffffffffffffffffffffffffffffffffffffffffffe0015191505073ffffffffffffffffffffffffffffffffffffffff8116611dea576040517f08c379a000000000000000000000000000000000000000000000000000000000815260040161079490613fc2565b73ffffffffffffffffffffffffffffffffffffffff811660009081526044602052604090208054600181019091558814611e50576040517f08c379a000000000000000000000000000000000000000000000000000000000815260040161079490614121565b86421115611e8a576040517f08c379a0000000000000000000000000000000000000000000000000000000008152600401610794906140ea565b611e95818b8b61244b565b50505050505050505050565b600082820183811015610a3a576040517f08c379a000000000000000000000000000000000000000000000000000000000815260040161079490613f1f565b600580547fffffffffffffffffffffffffffffffffffffffffffffffffffffffffffffff001660ff92909216919091179055565b3390565b73ffffffffffffffffffffffffffffffffffffffff8316611f65576040517f08c379a0000000000000000000000000000000000000000000000000000000008152600401610794906142b7565b73ffffffffffffffffffffffffffffffffffffffff8216611fb2576040517f08c379a000000000000000000000000000000000000000000000000000000000815260040161079490613ec2565b73ffffffffffffffffffffffffffffffffffffffff80841660008181526001602090815260408083209487168084529490915290819020849055517f8c5be1e5ebec7d5bd14f71427d1e84f3dd0314c0f7b2291e5b200ac8c7c3b9259061201a908590613d39565b60405180910390a3505050565b6000610a3a83836040518060400160405280601e81526020017f536166654d6174683a207375627472616374696f6e206f766572666c6f770000815250612405565b60008061207a8530866112b0610757565b73ffffffffffffffffffffffffffffffffffffffff86166000908152603d6020526040812054919250906120ae9083611ea1565b9050811561166a5783156120e55773ffffffffffffffffffffffffffffffffffffffff86166000908152603d602052604090208190555b7f2468f9268c60ad90e2d49edb0032c8a001e733ae888b3ab8e982edf535be1a768683604051612116929190613d08565b60405180910390a195945050505050565b73ffffffffffffffffffffffffffffffffffffffff8216612174576040517f08c379a0000000000000000000000000000000000000000000000000000000008152600401610794906141c6565b61218082600083612dcf565b6121ca816040518060600160405280602281526020016145406022913973ffffffffffffffffffffffffffffffffffffffff85166000908152602081905260409020549190612405565b73ffffffffffffffffffffffffffffffffffffffff83166000908152602081905260409020556002546121fd9082612027565b60025560405160009073ffffffffffffffffffffffffffffffffffffffff8416907fddf252ad1be2c89b69c2b068fc378daa952ba7f163c4a11628f55a4df523b3ef9061224b908590613d39565b60405180910390a35050565b6116468363a9059cbb60e01b8484604051602401612276929190613d08565b604080517fffffffffffffffffffffffffffffffffffffffffffffffffffffffffffffffe08184030181529190526020810180517bffffffffffffffffffffffffffffffffffffffffffffffffffffffff167fffffffff0000000000000000000000000000000000000000000000000000000090931692909217909152612f53565b600061230384610bfc565b905061231184826001612069565b508273ffffffffffffffffffffffffffffffffffffffff168473ffffffffffffffffffffffffffffffffffffffff16146123f457600061235084610bfc565b905061235e84826001612069565b5073ffffffffffffffffffffffffffffffffffffffff85166000908152603e602052604090205461239181858785611b9c565b73ffffffffffffffffffffffffffffffffffffffff86166000908152603e602052604090205582841480156123c557508015155b156123f15773ffffffffffffffffffffffffffffffffffffffff86166000908152603e60205260408120555b50505b6123ff8484846130a0565b50505050565b60008184841115612443576040517f08c379a00000000000000000000000000000000000000000000000000000000081526004016107949190613e44565b505050900390565b73ffffffffffffffffffffffffffffffffffffffff8216612498576040517f08c379a0000000000000000000000000000000000000000000000000000000008152600401610794906143df565b60006124a38261258e565b9250505060006124b285610bfc565b905060006124c086846125c8565b73ffffffffffffffffffffffffffffffffffffffff878116600090815260208690526040902080547fffffffffffffffffffffffff00000000000000000000000000000000000000001691881691909117905590506125218186848761322a565b8473ffffffffffffffffffffffffffffffffffffffff168673ffffffffffffffffffffffffffffffffffffffff167fe8d51c8e11bd570db1734c8ec775785330e77007feed45c43b608ef33ff914bd8660405161257e9190613e57565b60405180910390a3505050505050565b600080808084600181111561259f57fe5b14156125b557506006915060079050603f6125c1565b50604091506041905060425b9193909250565b73ffffffffffffffffffffffffffffffffffffffff80831660009081526020839052604081205490911680610a3a5783915050610751565b600390565b600080805b835181101561272b576000603c600086848151811061262557fe5b6020908102919091018101515173ffffffffffffffffffffffffffffffffffffffff16825281019190915260400160009081206001810154815488519294506126b0926fffffffffffffffffffffffffffffffff80831692700100000000000000000000000000000000900416908a908890811061269f57fe5b602002602001015160400151613500565b905061271f6127188785815181106126c457fe5b602002602001015160200151838560020160008c73ffffffffffffffffffffffffffffffffffffffff1673ffffffffffffffffffffffffffffffffffffffff16815260200190815260200160002054613614565b8590611ea1565b9350505060010161260a565b509392505050565b6123ff846323b872dd60e01b85858560405160240161227693929190613cd7565b73ffffffffffffffffffffffffffffffffffffffff8084166000908152603c60209081526040808320938816835260028401909152812054909190828061279c888588612922565b90508083146128215786156127b9576127b6878285613614565b91505b73ffffffffffffffffffffffffffffffffffffffff808a1660008181526002870160205260409081902084905551918a16917fbb123b5c06d5408bbea3c4fef481578175cfb432e3b482c6186f02ed9086585b90612818908590613d39565b60405180910390a35b50979650505050505050565b73ffffffffffffffffffffffffffffffffffffffff821661287a576040517f08c379a00000000000000000000000000000000000000000000000000000000081526004016107949061444d565b61288660008383612dcf565b6002546128939082611ea1565b60025573ffffffffffffffffffffffffffffffffffffffff82166000908152602081905260409020546128c69082611ea1565b73ffffffffffffffffffffffffffffffffffffffff83166000818152602081905260408082209390935591519091907fddf252ad1be2c89b69c2b068fc378daa952ba7f163c4a11628f55a4df523b3ef9061224b908590613d39565b600182015482546000919070010000000000000000000000000000000090046fffffffffffffffffffffffffffffffff164281141561296357509050610a3a565b84546000906129879084906fffffffffffffffffffffffffffffffff168488613500565b90508281146129e8578086600101819055508673ffffffffffffffffffffffffffffffffffffffff167f5777ca300dfe5bead41006fbce4389794dbc0ed8d6cccebfaf94630aa04184bc826040516129df9190613d39565b60405180910390a25b85546fffffffffffffffffffffffffffffffff428116700100000000000000000000000000000000029116178655925050509392505050565b600043821115612a5d576040517f08c379a000000000000000000000000000000000000000000000000000000000815260040161079490614314565b73ffffffffffffffffffffffffffffffffffffffff831660009081526020859052604090205480612a9957612a9184610bfc565b915050610bf4565b73ffffffffffffffffffffffffffffffffffffffff84166000908152602087815260408083207fffffffffffffffffffffffffffffffffffffffffffffffffffffffffffffffff850184529091529020546fffffffffffffffffffffffffffffffff168310612b815773ffffffffffffffffffffffffffffffffffffffff84166000908152602087815260408083207fffffffffffffffffffffffffffffffffffffffffffffffffffffffffffffffff909401835292905220546fffffffffffffffffffffffffffffffff700100000000000000000000000000000000909104169050610bf4565b73ffffffffffffffffffffffffffffffffffffffff84166000908152602087815260408083208380529091529020546fffffffffffffffffffffffffffffffff16831015612bd3576000915050610bf4565b60007fffffffffffffffffffffffffffffffffffffffffffffffffffffffffffffffff82015b81811115612cd8576002828203048103612c11613898565b5073ffffffffffffffffffffffffffffffffffffffff8716600090815260208a815260408083208484528252918290208251808401909352546fffffffffffffffffffffffffffffffff8082168085527001000000000000000000000000000000009092041691830191909152871415612ca757602001516fffffffffffffffffffffffffffffffff169450610bf49350505050565b80516fffffffffffffffffffffffffffffffff16871115612cca57819350612cd1565b6001820392505b5050612bf9565b5073ffffffffffffffffffffffffffffffffffffffff851660009081526020888152604080832093835292905220546fffffffffffffffffffffffffffffffff70010000000000000000000000000000000090910416915050949350505050565b600082612d4857506000610751565b82820282848281612d5557fe5b0414610a3a576040517f08c379a000000000000000000000000000000000000000000000000000000000815260040161079490614030565b6000610a3a83836040518060400160405280601a81526020017f536166654d6174683a206469766973696f6e206279207a65726f000000000000815250613636565b73ffffffffffffffffffffffffffffffffffffffff8084166000908152603f6020526040808220548584168352912054908216911681612e0d578491505b73ffffffffffffffffffffffffffffffffffffffff8116612e2b5750825b612e38828285600061322a565b73ffffffffffffffffffffffffffffffffffffffff808616600090815260426020526040808220548784168352912054908216911681612e76578691505b73ffffffffffffffffffffffffffffffffffffffff8116612e945750845b612ea1828287600161322a565b60085473ffffffffffffffffffffffffffffffffffffffff168015612f49576040517f4a39314900000000000000000000000000000000000000000000000000000000815273ffffffffffffffffffffffffffffffffffffffff821690634a39314990612f16908b908b908b90600401613cd7565b600060405180830381600087803b158015612f3057600080fd5b505af1158015612f44573d6000803e3d6000fd5b505050505b5050505050505050565b612f728273ffffffffffffffffffffffffffffffffffffffff16613687565b612fa8576040517f08c379a000000000000000000000000000000000000000000000000000000000815260040161079490614416565b600060608373ffffffffffffffffffffffffffffffffffffffff1683604051612fd19190613c64565b6000604051808303816000865af19150503d806000811461300e576040519150601f19603f3d011682016040523d82523d6000602084013e613013565b606091505b50915091508161304f576040517f08c379a000000000000000000000000000000000000000000000000000000000815260040161079490613f8d565b8051156123ff578080602001905181019061306a9190613b68565b6123ff576040517f08c379a00000000000000000000000000000000000000000000000000000000081526004016107949061434b565b73ffffffffffffffffffffffffffffffffffffffff83166130ed576040517f08c379a000000000000000000000000000000000000000000000000000000000815260040161079490614223565b73ffffffffffffffffffffffffffffffffffffffff821661313a576040517f08c379a000000000000000000000000000000000000000000000000000000000815260040161079490613e65565b613145838383612dcf565b61318f816040518060600160405280602681526020016145626026913973ffffffffffffffffffffffffffffffffffffffff86166000908152602081905260409020549190612405565b73ffffffffffffffffffffffffffffffffffffffff80851660009081526020819052604080822093909355908416815220546131cb9082611ea1565b73ffffffffffffffffffffffffffffffffffffffff80841660008181526020819052604090819020939093559151908516907fddf252ad1be2c89b69c2b068fc378daa952ba7f163c4a11628f55a4df523b3ef9061201a908590613d39565b8273ffffffffffffffffffffffffffffffffffffffff168473ffffffffffffffffffffffffffffffffffffffff161415613263576123ff565b60008061326f8361258e565b50909250905073ffffffffffffffffffffffffffffffffffffffff8616156133b95773ffffffffffffffffffffffffffffffffffffffff8616600090815260208290526040812054801561333b5773ffffffffffffffffffffffffffffffffffffffff88166000908152602085815260408083207fffffffffffffffffffffffffffffffffffffffffffffffffffffffffffffffff8501845290915290205470010000000000000000000000000000000090046fffffffffffffffffffffffffffffffff169150613347565b61334488610bfc565b91505b61335d84848a85613358818c612027565b6136c0565b73ffffffffffffffffffffffffffffffffffffffff88167fa0a19463ee116110c9b282012d9b65cc5522dc38a9520340cbaf3142e550127f61339f8489612027565b876040516133ae9291906144f1565b60405180910390a250505b73ffffffffffffffffffffffffffffffffffffffff8516156134f85773ffffffffffffffffffffffffffffffffffffffff8516600090815260208290526040812054801561347f5773ffffffffffffffffffffffffffffffffffffffff87166000908152602085815260408083207fffffffffffffffffffffffffffffffffffffffffffffffffffffffffffffffff8501845290915290205470010000000000000000000000000000000090046fffffffffffffffffffffffffffffffff16915061348b565b61348887610bfc565b91505b61349c84848985613358818c611ea1565b73ffffffffffffffffffffffffffffffffffffffff87167fa0a19463ee116110c9b282012d9b65cc5522dc38a9520340cbaf3142e550127f6134de8489611ea1565b876040516134ed9291906144f1565b60405180910390a250505b505050505050565b600083158061350d575081155b80613529575042836fffffffffffffffffffffffffffffffff16145b8061356657507f0000000000000000000000000000000000000000000000000000000000000000836fffffffffffffffffffffffffffffffff1610155b15613572575083610bf4565b60007f000000000000000000000000000000000000000000000000000000000000000042116135a157426135c3565b7f00000000000000000000000000000000000000000000000000000000000000005b905060006135e3826fffffffffffffffffffffffffffffffff8716612027565b905061360987611c8486611c8a670de0b6b3a76400006136038c88612d39565b90612d39565b979650505050505050565b6000610bf4670de0b6b3a7640000611c8a61362f8686612027565b8790612d39565b60008183613671576040517f08c379a00000000000000000000000000000000000000000000000000000000081526004016107949190613e44565b50600083858161367d57fe5b0495945050505050565b6000813f7fc5d2460186f7233c927e7db2dcc703c0e500b653ca82273b7bfad8045d85a470818114801590610bf4575050151592915050565b73ffffffffffffffffffffffffffffffffffffffff83166000908152602085815260408083205491889052909120439190811580159061374557507fffffffffffffffffffffffffffffffffffffffffffffffffffffffffffffffff82016000908152602082905260409020546fffffffffffffffffffffffffffffffff8481169116145b156137ae577fffffffffffffffffffffffffffffffffffffffffffffffffffffffffffffffff8201600090815260208290526040902080546fffffffffffffffffffffffffffffffff808716700100000000000000000000000000000000029116179055612f49565b6040805180820182526fffffffffffffffffffffffffffffffff8086168252868116602080840191825260008781528682528581209451855493518516700100000000000000000000000000000000029085167fffffffffffffffffffffffffffffffff00000000000000000000000000000000909416939093179093169190911790925573ffffffffffffffffffffffffffffffffffffffff8916815290899052206001830190555050505050505050565b6040518060600160405280600073ffffffffffffffffffffffffffffffffffffffff16815260200160008152602001600081525090565b604080518082019091526000808252602082015290565b803573ffffffffffffffffffffffffffffffffffffffff81168114610c2357600080fd5b803560028110610c2357600080fd5b803560ff81168114610c2357600080fd5b600060208284031215613904578081fd5b610a3a826138af565b6000806040838503121561391f578081fd5b613928836138af565b9150613936602084016138af565b90509250929050565b600080600060608486031215613953578081fd5b61395c846138af565b925061396a602085016138af565b9150604084013590509250925092565b600080600080600080600060e0888a031215613994578283fd5b61399d886138af565b96506139ab602089016138af565b955060408801359450606088013593506139c7608089016138e2565b925060a0880135915060c0880135905092959891949750929550565b600080604083850312156139f5578182fd5b6139fe836138af565b9150613936602084016138d3565b600080600080600080600060e0888a031215613a26578283fd5b613a2f886138af565b96506139ab602089016138d3565b60008060408385031215613a4f578182fd5b613a58836138af565b946020939093013593505050565b600080600060608486031215613a7a578283fd5b613a83846138af565b925060208401359150613a98604085016138d3565b90509250925092565b60008060008060008060c08789031215613ab9578182fd5b613ac2876138af565b95506020870135945060408701359350613ade606088016138e2565b92506080870135915060a087013590509295509295509295565b60008060208385031215613b0a578182fd5b823567ffffffffffffffff80821115613b21578384fd5b818501915085601f830112613b34578384fd5b813581811115613b42578485fd5b866020606083028501011115613b56578485fd5b60209290920196919550909350505050565b600060208284031215613b79578081fd5b81518015158114610a3a578182fd5b600060208284031215613b99578081fd5b81356fffffffffffffffffffffffffffffffff81168114610a3a578182fd5b600060208284031215613bc9578081fd5b5035919050565b60008060008060808587031215613be5578182fd5b8435935060208501359250613bfc604086016138af565b9396929550929360600135925050565b60008151808452613c24816020860160208601614513565b601f017fffffffffffffffffffffffffffffffffffffffffffffffffffffffffffffffe0169290920160200192915050565b60028110613c6057fe5b9052565b60008251613c76818460208701614513565b9190910192915050565b7f190100000000000000000000000000000000000000000000000000000000000081526002810192909252602282015260420190565b73ffffffffffffffffffffffffffffffffffffffff91909116815260200190565b73ffffffffffffffffffffffffffffffffffffffff9384168152919092166020820152604081019190915260600190565b73ffffffffffffffffffffffffffffffffffffffff929092168252602082015260400190565b901515815260200190565b90815260200190565b95865273ffffffffffffffffffffffffffffffffffffffff94851660208701529290931660408501526060840152608083019190915260a082015260c00190565b93845273ffffffffffffffffffffffffffffffffffffffff9290921660208401526040830152606082015260800190565b94855273ffffffffffffffffffffffffffffffffffffffff93909316602085015260408401919091526060830152608082015260a00190565b94855260208501939093526040840191909152606083015273ffffffffffffffffffffffffffffffffffffffff16608082015260a00190565b93845260ff9290921660208401526040830152606082015260800190565b600060208252610a3a6020830184613c0c565b602081016107518284613c56565b60208082526023908201527f45524332303a207472616e7366657220746f20746865207a65726f206164647260408201527f6573730000000000000000000000000000000000000000000000000000000000606082015260800190565b60208082526022908201527f45524332303a20617070726f766520746f20746865207a65726f20616464726560408201527f7373000000000000000000000000000000000000000000000000000000000000606082015260800190565b6020808252601b908201527f536166654d6174683a206164646974696f6e206f766572666c6f770000000000604082015260600190565b60208082526013908201527f494e56414c49445f5a45524f5f414d4f554e5400000000000000000000000000604082015260600190565b6020808252818101527f5361666545524332303a206c6f772d6c6576656c2063616c6c206661696c6564604082015260600190565b60208082526011908201527f494e56414c49445f5349474e4154555245000000000000000000000000000000604082015260600190565b60208082526015908201527f494e53554646494349454e545f434f4f4c444f574e0000000000000000000000604082015260600190565b60208082526021908201527f536166654d6174683a206d756c7469706c69636174696f6e206f766572666c6f60408201527f7700000000000000000000000000000000000000000000000000000000000000606082015260800190565b6020808252602e908201527f436f6e747261637420696e7374616e63652068617320616c726561647920626560408201527f656e20696e697469616c697a6564000000000000000000000000000000000000606082015260800190565b60208082526012908201527f494e56414c49445f45585049524154494f4e0000000000000000000000000000604082015260600190565b6020808252600d908201527f494e56414c49445f4e4f4e434500000000000000000000000000000000000000604082015260600190565b60208082526015908201527f4f4e4c595f454d495353494f4e5f4d414e414745520000000000000000000000604082015260600190565b6020808252600d908201527f494e56414c49445f4f574e455200000000000000000000000000000000000000604082015260600190565b60208082526021908201527f45524332303a206275726e2066726f6d20746865207a65726f2061646472657360408201527f7300000000000000000000000000000000000000000000000000000000000000606082015260800190565b60208082526025908201527f45524332303a207472616e736665722066726f6d20746865207a65726f20616460408201527f6472657373000000000000000000000000000000000000000000000000000000606082015260800190565b60208082526017908201527f554e5354414b455f57494e444f575f46494e4953484544000000000000000000604082015260600190565b60208082526024908201527f45524332303a20617070726f76652066726f6d20746865207a65726f2061646460408201527f7265737300000000000000000000000000000000000000000000000000000000606082015260800190565b60208082526014908201527f494e56414c49445f424c4f434b5f4e554d424552000000000000000000000000604082015260600190565b6020808252602a908201527f5361666545524332303a204552433230206f7065726174696f6e20646964206e60408201527f6f74207375636365656400000000000000000000000000000000000000000000606082015260800190565b6020808252601b908201527f494e56414c49445f42414c414e43455f4f4e5f434f4f4c444f574e0000000000604082015260600190565b60208082526011908201527f494e56414c49445f44454c454741544545000000000000000000000000000000604082015260600190565b6020808252601f908201527f5361666545524332303a2063616c6c20746f206e6f6e2d636f6e747261637400604082015260600190565b6020808252601f908201527f45524332303a206d696e7420746f20746865207a65726f206164647265737300604082015260600190565b6fffffffffffffffffffffffffffffffff91909116815260200190565b6fffffffffffffffffffffffffffffffff92831681529116602082015260400190565b6fffffffffffffffffffffffffffffffff9384168152919092166020820152604081019190915260600190565b82815260408101610a3a6020830184613c56565b60ff91909116815260200190565b60005b8381101561452e578181015183820152602001614516565b838111156123ff575050600091015256fe45524332303a206275726e20616d6f756e7420657863656564732062616c616e636545524332303a207472616e7366657220616d6f756e7420657863656564732062616c616e636545524332303a207472616e7366657220616d6f756e74206578636565647320616c6c6f77616e636545524332303a2064656372656173656420616c6c6f77616e63652062656c6f77207a65726fa2646970667358221220d9afcb6de361626b27fc92962c175da28aa67a46f2ee48ab626d5a4a8f4d156664736f6c63430007050033","opcodes":"PUSH2 0x160 PUSH1 0x40 MSTORE PUSH1 0x0 PUSH1 0x9 SSTORE CALLVALUE DUP1 ISZERO PUSH3 0x17 JUMPI PUSH1 0x0 DUP1 REVERT JUMPDEST POP PUSH1 0x40 MLOAD PUSH3 0x4AEC CODESIZE SUB DUP1 PUSH3 0x4AEC DUP4 CODECOPY DUP2 ADD PUSH1 0x40 DUP2 SWAP1 MSTORE PUSH3 0x3A SWAP2 PUSH3 0x303 JUMP JUMPDEST DUP6 DUP6 PUSH1 0x1 PUSH1 0x1 PUSH1 0x80 SHL SUB AND DUP6 DUP6 DUP2 PUSH1 0x3 SWAP1 DUP1 MLOAD SWAP1 PUSH1 0x20 ADD SWAP1 PUSH3 0x5F SWAP3 SWAP2 SWAP1 PUSH3 0x16D JUMP JUMPDEST POP DUP1 MLOAD PUSH3 0x75 SWAP1 PUSH1 0x4 SWAP1 PUSH1 0x20 DUP5 ADD SWAP1 PUSH3 0x16D JUMP JUMPDEST POP POP PUSH1 0x5 DUP1 SLOAD PUSH1 0x12 PUSH1 0xFF NOT SWAP1 SWAP2 AND OR SWAP1 SSTORE POP PUSH3 0x9F TIMESTAMP DUP3 PUSH3 0x11F PUSH1 0x20 SWAP1 DUP2 SHL PUSH3 0x1EA1 OR SWAP1 SHR JUMP JUMPDEST PUSH1 0x80 MSTORE POP PUSH1 0x60 SWAP1 DUP2 SHL PUSH1 0x1 PUSH1 0x1 PUSH1 0x60 SHL SUB NOT SWAP1 DUP2 AND PUSH1 0xA0 MSTORE DUP13 DUP3 SHL DUP2 AND PUSH1 0xC0 MSTORE DUP12 DUP3 SHL DUP2 AND PUSH1 0xE0 MSTORE PUSH2 0x100 DUP12 SWAP1 MSTORE PUSH2 0x120 DUP11 SWAP1 MSTORE SWAP1 DUP9 SWAP1 SHL AND PUSH2 0x140 MSTORE PUSH1 0x8 DUP1 SLOAD PUSH1 0x1 PUSH1 0x1 PUSH1 0xA0 SHL SUB NOT AND PUSH1 0x1 PUSH1 0x1 PUSH1 0xA0 SHL SUB DUP4 AND OR SWAP1 SSTORE PUSH3 0x10E DUP3 PUSH3 0x157 PUSH1 0x20 SWAP1 DUP2 SHL PUSH3 0x1EE0 OR SWAP1 SHR JUMP JUMPDEST POP POP POP POP POP POP POP POP POP POP POP PUSH3 0x441 JUMP JUMPDEST PUSH1 0x0 DUP3 DUP3 ADD DUP4 DUP2 LT ISZERO PUSH3 0x150 JUMPI PUSH1 0x40 MLOAD PUSH3 0x461BCD PUSH1 0xE5 SHL DUP2 MSTORE PUSH1 0x4 ADD PUSH3 0x147 SWAP1 PUSH3 0x40A JUMP JUMPDEST PUSH1 0x40 MLOAD DUP1 SWAP2 SUB SWAP1 REVERT JUMPDEST SWAP4 SWAP3 POP POP POP JUMP JUMPDEST PUSH1 0x5 DUP1 SLOAD PUSH1 0xFF NOT AND PUSH1 0xFF SWAP3 SWAP1 SWAP3 AND SWAP2 SWAP1 SWAP2 OR SWAP1 SSTORE JUMP JUMPDEST DUP3 DUP1 SLOAD PUSH1 0x1 DUP2 PUSH1 0x1 AND ISZERO PUSH2 0x100 MUL SUB AND PUSH1 0x2 SWAP1 DIV SWAP1 PUSH1 0x0 MSTORE PUSH1 0x20 PUSH1 0x0 KECCAK256 SWAP1 PUSH1 0x1F ADD PUSH1 0x20 SWAP1 DIV DUP2 ADD SWAP3 DUP3 PUSH3 0x1A5 JUMPI PUSH1 0x0 DUP6 SSTORE PUSH3 0x1F0 JUMP JUMPDEST DUP3 PUSH1 0x1F LT PUSH3 0x1C0 JUMPI DUP1 MLOAD PUSH1 0xFF NOT AND DUP4 DUP1 ADD OR DUP6 SSTORE PUSH3 0x1F0 JUMP JUMPDEST DUP3 DUP1 ADD PUSH1 0x1 ADD DUP6 SSTORE DUP3 ISZERO PUSH3 0x1F0 JUMPI SWAP2 DUP3 ADD JUMPDEST DUP3 DUP2 GT ISZERO PUSH3 0x1F0 JUMPI DUP3 MLOAD DUP3 SSTORE SWAP2 PUSH1 0x20 ADD SWAP2 SWAP1 PUSH1 0x1 ADD SWAP1 PUSH3 0x1D3 JUMP JUMPDEST POP PUSH3 0x1FE SWAP3 SWAP2 POP PUSH3 0x202 JUMP JUMPDEST POP SWAP1 JUMP JUMPDEST JUMPDEST DUP1 DUP3 GT ISZERO PUSH3 0x1FE JUMPI PUSH1 0x0 DUP2 SSTORE PUSH1 0x1 ADD PUSH3 0x203 JUMP JUMPDEST DUP1 MLOAD PUSH1 0x1 PUSH1 0x1 PUSH1 0xA0 SHL SUB DUP2 AND DUP2 EQ PUSH3 0x231 JUMPI PUSH1 0x0 DUP1 REVERT JUMPDEST SWAP2 SWAP1 POP JUMP JUMPDEST PUSH1 0x0 DUP3 PUSH1 0x1F DUP4 ADD SLT PUSH3 0x247 JUMPI DUP1 DUP2 REVERT JUMPDEST DUP2 MLOAD PUSH1 0x1 PUSH1 0x1 PUSH1 0x40 SHL SUB DUP1 DUP3 GT ISZERO PUSH3 0x25C JUMPI INVALID JUMPDEST PUSH1 0x40 MLOAD PUSH1 0x20 PUSH1 0x1F DUP5 ADD PUSH1 0x1F NOT AND DUP3 ADD DUP2 ADD DUP4 DUP2 GT DUP4 DUP3 LT OR ISZERO PUSH3 0x27C JUMPI INVALID JUMPDEST DUP1 PUSH1 0x40 MSTORE POP DUP2 SWAP5 POP DUP4 DUP3 MSTORE DUP7 DUP2 DUP6 DUP9 ADD ADD GT ISZERO PUSH3 0x299 JUMPI PUSH1 0x0 DUP1 REVERT JUMPDEST PUSH1 0x0 SWAP3 POP JUMPDEST DUP4 DUP4 LT ISZERO PUSH3 0x2BD JUMPI DUP6 DUP4 ADD DUP2 ADD MLOAD DUP3 DUP5 ADD DUP3 ADD MSTORE SWAP2 DUP3 ADD SWAP2 PUSH3 0x29E JUMP JUMPDEST DUP4 DUP4 GT ISZERO PUSH3 0x2CF JUMPI PUSH1 0x0 DUP2 DUP6 DUP5 ADD ADD MSTORE JUMPDEST POP POP POP POP SWAP3 SWAP2 POP POP JUMP JUMPDEST DUP1 MLOAD PUSH1 0x1 PUSH1 0x1 PUSH1 0x80 SHL SUB DUP2 AND DUP2 EQ PUSH3 0x231 JUMPI PUSH1 0x0 DUP1 REVERT JUMPDEST DUP1 MLOAD PUSH1 0xFF DUP2 AND DUP2 EQ PUSH3 0x231 JUMPI PUSH1 0x0 DUP1 REVERT JUMPDEST PUSH1 0x0 DUP1 PUSH1 0x0 DUP1 PUSH1 0x0 DUP1 PUSH1 0x0 DUP1 PUSH1 0x0 DUP1 PUSH1 0x0 PUSH2 0x160 DUP13 DUP15 SUB SLT ISZERO PUSH3 0x325 JUMPI DUP7 DUP8 REVERT JUMPDEST PUSH3 0x330 DUP13 PUSH3 0x219 JUMP JUMPDEST SWAP11 POP PUSH3 0x340 PUSH1 0x20 DUP14 ADD PUSH3 0x219 JUMP JUMPDEST SWAP10 POP PUSH1 0x40 DUP13 ADD MLOAD SWAP9 POP PUSH1 0x60 DUP13 ADD MLOAD SWAP8 POP PUSH3 0x35E PUSH1 0x80 DUP14 ADD PUSH3 0x219 JUMP JUMPDEST SWAP7 POP PUSH3 0x36E PUSH1 0xA0 DUP14 ADD PUSH3 0x219 JUMP JUMPDEST SWAP6 POP PUSH3 0x37E PUSH1 0xC0 DUP14 ADD PUSH3 0x2D9 JUMP JUMPDEST PUSH1 0xE0 DUP14 ADD MLOAD SWAP1 SWAP6 POP PUSH1 0x1 PUSH1 0x1 PUSH1 0x40 SHL SUB DUP2 GT ISZERO PUSH3 0x39A JUMPI DUP5 DUP6 REVERT JUMPDEST PUSH3 0x3A8 DUP15 DUP3 DUP16 ADD PUSH3 0x236 JUMP JUMPDEST PUSH2 0x100 DUP15 ADD MLOAD SWAP1 SWAP6 POP SWAP1 POP PUSH1 0x1 PUSH1 0x1 PUSH1 0x40 SHL SUB DUP2 GT ISZERO PUSH3 0x3C7 JUMPI DUP4 DUP5 REVERT JUMPDEST PUSH3 0x3D5 DUP15 DUP3 DUP16 ADD PUSH3 0x236 JUMP JUMPDEST SWAP4 POP POP PUSH3 0x3E7 PUSH2 0x120 DUP14 ADD PUSH3 0x2F1 JUMP JUMPDEST SWAP2 POP PUSH3 0x3F8 PUSH2 0x140 DUP14 ADD PUSH3 0x219 JUMP JUMPDEST SWAP1 POP SWAP3 SWAP6 SWAP9 SWAP12 POP SWAP3 SWAP6 SWAP9 SWAP12 SWAP1 SWAP4 SWAP7 SWAP10 POP JUMP JUMPDEST PUSH1 0x20 DUP1 DUP3 MSTORE PUSH1 0x1B SWAP1 DUP3 ADD MSTORE PUSH32 0x536166654D6174683A206164646974696F6E206F766572666C6F770000000000 PUSH1 0x40 DUP3 ADD MSTORE PUSH1 0x60 ADD SWAP1 JUMP JUMPDEST PUSH1 0x80 MLOAD PUSH1 0xA0 MLOAD PUSH1 0x60 SHR PUSH1 0xC0 MLOAD PUSH1 0x60 SHR PUSH1 0xE0 MLOAD PUSH1 0x60 SHR PUSH2 0x100 MLOAD PUSH2 0x120 MLOAD PUSH2 0x140 MLOAD PUSH1 0x60 SHR PUSH2 0x460A PUSH3 0x4E2 PUSH1 0x0 CODECOPY DUP1 PUSH2 0xF69 MSTORE DUP1 PUSH2 0x1119 MSTORE POP DUP1 PUSH2 0x811 MSTORE DUP1 PUSH2 0xAD1 MSTORE DUP1 PUSH2 0x1BD8 MSTORE POP DUP1 PUSH2 0x7B3 MSTORE DUP1 PUSH2 0x839 MSTORE DUP1 PUSH2 0xC2A MSTORE DUP1 PUSH2 0x1BFD MSTORE POP DUP1 PUSH2 0x1016 MSTORE DUP1 PUSH2 0x10E2 MSTORE POP DUP1 PUSH2 0x90C MSTORE DUP1 PUSH2 0xA67 MSTORE DUP1 PUSH2 0x13A4 MSTORE POP DUP1 PUSH2 0x1441 MSTORE DUP1 PUSH2 0x18CE MSTORE POP DUP1 PUSH2 0xF45 MSTORE DUP1 PUSH2 0x3531 MSTORE DUP1 PUSH2 0x3576 MSTORE DUP1 PUSH2 0x35A3 MSTORE POP PUSH2 0x460A PUSH1 0x0 RETURN INVALID PUSH1 0x80 PUSH1 0x40 MSTORE CALLVALUE DUP1 ISZERO PUSH2 0x10 JUMPI PUSH1 0x0 DUP1 REVERT JUMPDEST POP PUSH1 0x4 CALLDATASIZE LT PUSH2 0x336 JUMPI PUSH1 0x0 CALLDATALOAD PUSH1 0xE0 SHR DUP1 PUSH4 0x919CD40F GT PUSH2 0x1B2 JUMPI DUP1 PUSH4 0xB2F4201D GT PUSH2 0xF9 JUMPI DUP1 PUSH4 0xD505ACCF GT PUSH2 0xA2 JUMPI DUP1 PUSH4 0xDDE43CBA GT PUSH2 0x7C JUMPI DUP1 PUSH4 0xDDE43CBA EQ PUSH2 0x623 JUMPI DUP1 PUSH4 0xF11B8188 EQ PUSH2 0x62B JUMPI DUP1 PUSH4 0xF1CC432A EQ PUSH2 0x64D JUMPI DUP1 PUSH4 0xF713D8A8 EQ PUSH2 0x660 JUMPI PUSH2 0x336 JUMP JUMPDEST DUP1 PUSH4 0xD505ACCF EQ PUSH2 0x5EA JUMPI DUP1 PUSH4 0xDC937E1C EQ PUSH2 0x5FD JUMPI DUP1 PUSH4 0xDD62ED3E EQ PUSH2 0x610 JUMPI PUSH2 0x336 JUMP JUMPDEST DUP1 PUSH4 0xC3863ADA GT PUSH2 0xD3 JUMPI DUP1 PUSH4 0xC3863ADA EQ PUSH2 0x5C7 JUMPI DUP1 PUSH4 0xC3CDA520 EQ PUSH2 0x5CF JUMPI DUP1 PUSH4 0xCBCBB507 EQ PUSH2 0x5E2 JUMPI PUSH2 0x336 JUMP JUMPDEST DUP1 PUSH4 0xB2F4201D EQ PUSH2 0x58E JUMPI DUP1 PUSH4 0xB9844D8D EQ PUSH2 0x5A1 JUMPI DUP1 PUSH4 0xC2FFBB91 EQ PUSH2 0x5B4 JUMPI PUSH2 0x336 JUMP JUMPDEST DUP1 PUSH4 0xA457C2D7 GT PUSH2 0x15B JUMPI DUP1 PUSH4 0xAAF5EB68 GT PUSH2 0x135 JUMPI DUP1 PUSH4 0xAAF5EB68 EQ PUSH2 0x560 JUMPI DUP1 PUSH4 0xADC9772E EQ PUSH2 0x568 JUMPI DUP1 PUSH4 0xB2A5DBFA EQ PUSH2 0x57B JUMPI PUSH2 0x336 JUMP JUMPDEST DUP1 PUSH4 0xA457C2D7 EQ PUSH2 0x532 JUMPI DUP1 PUSH4 0xA9059CBB EQ PUSH2 0x545 JUMPI DUP1 PUSH4 0xAA9FBE02 EQ PUSH2 0x558 JUMPI PUSH2 0x336 JUMP JUMPDEST DUP1 PUSH4 0x981B24D0 GT PUSH2 0x18C JUMPI DUP1 PUSH4 0x981B24D0 EQ PUSH2 0x504 JUMPI DUP1 PUSH4 0x99248EA7 EQ PUSH2 0x517 JUMPI DUP1 PUSH4 0x9A99B4F0 EQ PUSH2 0x51F JUMPI PUSH2 0x336 JUMP JUMPDEST DUP1 PUSH4 0x919CD40F EQ PUSH2 0x4EC JUMPI DUP1 PUSH4 0x946776CD EQ PUSH2 0x4F4 JUMPI DUP1 PUSH4 0x95D89B41 EQ PUSH2 0x4FC JUMPI PUSH2 0x336 JUMP JUMPDEST DUP1 PUSH4 0x39509351 GT PUSH2 0x281 JUMPI DUP1 PUSH4 0x72B49D63 GT PUSH2 0x22A JUMPI DUP1 PUSH4 0x7BB73C97 GT PUSH2 0x204 JUMPI DUP1 PUSH4 0x7BB73C97 EQ PUSH2 0x4AB JUMPI DUP1 PUSH4 0x7E90D7EF EQ PUSH2 0x4BE JUMPI DUP1 PUSH4 0x8129FC1C EQ PUSH2 0x4D1 JUMPI DUP1 PUSH4 0x8DBEFEE2 EQ PUSH2 0x4D9 JUMPI PUSH2 0x336 JUMP JUMPDEST DUP1 PUSH4 0x72B49D63 EQ PUSH2 0x493 JUMPI DUP1 PUSH4 0x78160376 EQ PUSH2 0x49B JUMPI DUP1 PUSH4 0x787A08A6 EQ PUSH2 0x4A3 JUMPI PUSH2 0x336 JUMP JUMPDEST DUP1 PUSH4 0x5C19A95C GT PUSH2 0x25B JUMPI DUP1 PUSH4 0x5C19A95C EQ PUSH2 0x45A JUMPI DUP1 PUSH4 0x6F50458D EQ PUSH2 0x46D JUMPI DUP1 PUSH4 0x70A08231 EQ PUSH2 0x480 JUMPI PUSH2 0x336 JUMP JUMPDEST DUP1 PUSH4 0x39509351 EQ PUSH2 0x41E JUMPI DUP1 PUSH4 0x41CBF54A EQ PUSH2 0x431 JUMPI DUP1 PUSH4 0x5B3CC0CF EQ PUSH2 0x439 JUMPI PUSH2 0x336 JUMP JUMPDEST DUP1 PUSH4 0x30ADF81F GT PUSH2 0x2E3 JUMPI DUP1 PUSH4 0x3373EE4C GT PUSH2 0x2BD JUMPI DUP1 PUSH4 0x3373EE4C EQ PUSH2 0x3FB JUMPI DUP1 PUSH4 0x359C4A96 EQ PUSH2 0x40E JUMPI DUP1 PUSH4 0x3644E515 EQ PUSH2 0x416 JUMPI PUSH2 0x336 JUMP JUMPDEST DUP1 PUSH4 0x30ADF81F EQ PUSH2 0x3C9 JUMPI DUP1 PUSH4 0x312F6B83 EQ PUSH2 0x3D1 JUMPI DUP1 PUSH4 0x313CE567 EQ PUSH2 0x3E6 JUMPI PUSH2 0x336 JUMP JUMPDEST DUP1 PUSH4 0x18160DDD GT PUSH2 0x314 JUMPI DUP1 PUSH4 0x18160DDD EQ PUSH2 0x399 JUMPI DUP1 PUSH4 0x1E9A6950 EQ PUSH2 0x3A1 JUMPI DUP1 PUSH4 0x23B872DD EQ PUSH2 0x3B6 JUMPI PUSH2 0x336 JUMP JUMPDEST DUP1 PUSH4 0x6FDDE03 EQ PUSH2 0x33B JUMPI DUP1 PUSH4 0x91030C3 EQ PUSH2 0x359 JUMPI DUP1 PUSH4 0x95EA7B3 EQ PUSH2 0x379 JUMPI JUMPDEST PUSH1 0x0 DUP1 REVERT JUMPDEST PUSH2 0x343 PUSH2 0x673 JUMP JUMPDEST PUSH1 0x40 MLOAD PUSH2 0x350 SWAP2 SWAP1 PUSH2 0x3E44 JUMP JUMPDEST PUSH1 0x40 MLOAD DUP1 SWAP2 SUB SWAP1 RETURN JUMPDEST PUSH2 0x36C PUSH2 0x367 CALLDATASIZE PUSH1 0x4 PUSH2 0x38F3 JUMP JUMPDEST PUSH2 0x727 JUMP JUMPDEST PUSH1 0x40 MLOAD PUSH2 0x350 SWAP2 SWAP1 PUSH2 0x3D39 JUMP JUMPDEST PUSH2 0x38C PUSH2 0x387 CALLDATASIZE PUSH1 0x4 PUSH2 0x3A3D JUMP JUMPDEST PUSH2 0x739 JUMP JUMPDEST PUSH1 0x40 MLOAD PUSH2 0x350 SWAP2 SWAP1 PUSH2 0x3D2E JUMP JUMPDEST PUSH2 0x36C PUSH2 0x757 JUMP JUMPDEST PUSH2 0x3B4 PUSH2 0x3AF CALLDATASIZE PUSH1 0x4 PUSH2 0x3A3D JUMP JUMPDEST PUSH2 0x75D JUMP JUMPDEST STOP JUMPDEST PUSH2 0x38C PUSH2 0x3C4 CALLDATASIZE PUSH1 0x4 PUSH2 0x393F JUMP JUMPDEST PUSH2 0x99F JUMP JUMPDEST PUSH2 0x36C PUSH2 0xA41 JUMP JUMPDEST PUSH2 0x3D9 PUSH2 0xA65 JUMP JUMPDEST PUSH1 0x40 MLOAD PUSH2 0x350 SWAP2 SWAP1 PUSH2 0x3CB6 JUMP JUMPDEST PUSH2 0x3EE PUSH2 0xA89 JUMP JUMPDEST PUSH1 0x40 MLOAD PUSH2 0x350 SWAP2 SWAP1 PUSH2 0x4505 JUMP JUMPDEST PUSH2 0x36C PUSH2 0x409 CALLDATASIZE PUSH1 0x4 PUSH2 0x390D JUMP JUMPDEST PUSH2 0xA92 JUMP JUMPDEST PUSH2 0x36C PUSH2 0xACF JUMP JUMPDEST PUSH2 0x36C PUSH2 0xAF3 JUMP JUMPDEST PUSH2 0x38C PUSH2 0x42C CALLDATASIZE PUSH1 0x4 PUSH2 0x3A3D JUMP JUMPDEST PUSH2 0xAF9 JUMP JUMPDEST PUSH2 0x36C PUSH2 0xB54 JUMP JUMPDEST PUSH2 0x44C PUSH2 0x447 CALLDATASIZE PUSH1 0x4 PUSH2 0x3A3D JUMP JUMPDEST PUSH2 0xB78 JUMP JUMPDEST PUSH1 0x40 MLOAD PUSH2 0x350 SWAP3 SWAP2 SWAP1 PUSH2 0x44A1 JUMP JUMPDEST PUSH2 0x3B4 PUSH2 0x468 CALLDATASIZE PUSH1 0x4 PUSH2 0x38F3 JUMP JUMPDEST PUSH2 0xBBF JUMP JUMPDEST PUSH2 0x3D9 PUSH2 0x47B CALLDATASIZE PUSH1 0x4 PUSH2 0x39E3 JUMP JUMPDEST PUSH2 0xBDA JUMP JUMPDEST PUSH2 0x36C PUSH2 0x48E CALLDATASIZE PUSH1 0x4 PUSH2 0x38F3 JUMP JUMPDEST PUSH2 0xBFC JUMP JUMPDEST PUSH2 0x36C PUSH2 0xC28 JUMP JUMPDEST PUSH2 0x343 PUSH2 0xC4C JUMP JUMPDEST PUSH2 0x3B4 PUSH2 0xC85 JUMP JUMPDEST PUSH2 0x36C PUSH2 0x4B9 CALLDATASIZE PUSH1 0x4 PUSH2 0x38F3 JUMP JUMPDEST PUSH2 0xCFE JUMP JUMPDEST PUSH2 0x36C PUSH2 0x4CC CALLDATASIZE PUSH1 0x4 PUSH2 0x38F3 JUMP JUMPDEST PUSH2 0xD10 JUMP JUMPDEST PUSH2 0x3B4 PUSH2 0xD22 JUMP JUMPDEST PUSH2 0x36C PUSH2 0x4E7 CALLDATASIZE PUSH1 0x4 PUSH2 0x38F3 JUMP JUMPDEST PUSH2 0xE7A JUMP JUMPDEST PUSH2 0x36C PUSH2 0xF43 JUMP JUMPDEST PUSH2 0x3D9 PUSH2 0xF67 JUMP JUMPDEST PUSH2 0x343 PUSH2 0xF8B JUMP JUMPDEST PUSH2 0x36C PUSH2 0x512 CALLDATASIZE PUSH1 0x4 PUSH2 0x3BB8 JUMP JUMPDEST PUSH2 0x100A JUMP JUMPDEST PUSH2 0x3D9 PUSH2 0x1014 JUMP JUMPDEST PUSH2 0x3B4 PUSH2 0x52D CALLDATASIZE PUSH1 0x4 PUSH2 0x3A3D JUMP JUMPDEST PUSH2 0x1038 JUMP JUMPDEST PUSH2 0x38C PUSH2 0x540 CALLDATASIZE PUSH1 0x4 PUSH2 0x3A3D JUMP JUMPDEST PUSH2 0x11AA JUMP JUMPDEST PUSH2 0x38C PUSH2 0x553 CALLDATASIZE PUSH1 0x4 PUSH2 0x3A3D JUMP JUMPDEST PUSH2 0x121F JUMP JUMPDEST PUSH2 0x36C PUSH2 0x1233 JUMP JUMPDEST PUSH2 0x3EE PUSH2 0x1257 JUMP JUMPDEST PUSH2 0x3B4 PUSH2 0x576 CALLDATASIZE PUSH1 0x4 PUSH2 0x3A3D JUMP JUMPDEST PUSH2 0x125C JUMP JUMPDEST PUSH2 0x3B4 PUSH2 0x589 CALLDATASIZE PUSH1 0x4 PUSH2 0x3AF8 JUMP JUMPDEST PUSH2 0x1429 JUMP JUMPDEST PUSH2 0x36C PUSH2 0x59C CALLDATASIZE PUSH1 0x4 PUSH2 0x39E3 JUMP JUMPDEST PUSH2 0x164B JUMP JUMPDEST PUSH2 0x36C PUSH2 0x5AF CALLDATASIZE PUSH1 0x4 PUSH2 0x38F3 JUMP JUMPDEST PUSH2 0x1673 JUMP JUMPDEST PUSH2 0x36C PUSH2 0x5C2 CALLDATASIZE PUSH1 0x4 PUSH2 0x3A66 JUMP JUMPDEST PUSH2 0x1685 JUMP JUMPDEST PUSH2 0x3D9 PUSH2 0x16AE JUMP JUMPDEST PUSH2 0x3B4 PUSH2 0x5DD CALLDATASIZE PUSH1 0x4 PUSH2 0x3AA1 JUMP JUMPDEST PUSH2 0x16CA JUMP JUMPDEST PUSH2 0x3D9 PUSH2 0x18CC JUMP JUMPDEST PUSH2 0x3B4 PUSH2 0x5F8 CALLDATASIZE PUSH1 0x4 PUSH2 0x397A JUMP JUMPDEST PUSH2 0x18F0 JUMP JUMPDEST PUSH2 0x3B4 PUSH2 0x60B CALLDATASIZE PUSH1 0x4 PUSH2 0x39E3 JUMP JUMPDEST PUSH2 0x1B0C JUMP JUMPDEST PUSH2 0x36C PUSH2 0x61E CALLDATASIZE PUSH1 0x4 PUSH2 0x390D JUMP JUMPDEST PUSH2 0x1B1B JUMP JUMPDEST PUSH2 0x36C PUSH2 0x1B53 JUMP JUMPDEST PUSH2 0x63E PUSH2 0x639 CALLDATASIZE PUSH1 0x4 PUSH2 0x38F3 JUMP JUMPDEST PUSH2 0x1B58 JUMP JUMPDEST PUSH1 0x40 MLOAD PUSH2 0x350 SWAP4 SWAP3 SWAP2 SWAP1 PUSH2 0x44C4 JUMP JUMPDEST PUSH2 0x36C PUSH2 0x65B CALLDATASIZE PUSH1 0x4 PUSH2 0x3BD0 JUMP JUMPDEST PUSH2 0x1B9C JUMP JUMPDEST PUSH2 0x3B4 PUSH2 0x66E CALLDATASIZE PUSH1 0x4 PUSH2 0x3A0C JUMP JUMPDEST PUSH2 0x1C9E JUMP JUMPDEST PUSH1 0x3 DUP1 SLOAD PUSH1 0x40 DUP1 MLOAD PUSH1 0x20 PUSH1 0x1F PUSH1 0x2 PUSH32 0xFFFFFFFFFFFFFFFFFFFFFFFFFFFFFFFFFFFFFFFFFFFFFFFFFFFFFFFFFFFFFFFF PUSH2 0x100 PUSH1 0x1 DUP9 AND ISZERO MUL ADD SWAP1 SWAP6 AND SWAP5 SWAP1 SWAP5 DIV SWAP4 DUP5 ADD DUP2 SWAP1 DIV DUP2 MUL DUP3 ADD DUP2 ADD SWAP1 SWAP3 MSTORE DUP3 DUP2 MSTORE PUSH1 0x60 SWAP4 SWAP1 SWAP3 SWAP1 SWAP2 DUP4 ADD DUP3 DUP3 DUP1 ISZERO PUSH2 0x71D JUMPI DUP1 PUSH1 0x1F LT PUSH2 0x6F2 JUMPI PUSH2 0x100 DUP1 DUP4 SLOAD DIV MUL DUP4 MSTORE SWAP2 PUSH1 0x20 ADD SWAP2 PUSH2 0x71D JUMP JUMPDEST DUP3 ADD SWAP2 SWAP1 PUSH1 0x0 MSTORE PUSH1 0x20 PUSH1 0x0 KECCAK256 SWAP1 JUMPDEST DUP2 SLOAD DUP2 MSTORE SWAP1 PUSH1 0x1 ADD SWAP1 PUSH1 0x20 ADD DUP1 DUP4 GT PUSH2 0x700 JUMPI DUP3 SWAP1 SUB PUSH1 0x1F AND DUP3 ADD SWAP2 JUMPDEST POP POP POP POP POP SWAP1 POP SWAP1 JUMP JUMPDEST PUSH1 0x3E PUSH1 0x20 MSTORE PUSH1 0x0 SWAP1 DUP2 MSTORE PUSH1 0x40 SWAP1 KECCAK256 SLOAD DUP2 JUMP JUMPDEST PUSH1 0x0 PUSH2 0x74D PUSH2 0x746 PUSH2 0x1F14 JUMP JUMPDEST DUP5 DUP5 PUSH2 0x1F18 JUMP JUMPDEST POP PUSH1 0x1 JUMPDEST SWAP3 SWAP2 POP POP JUMP JUMPDEST PUSH1 0x2 SLOAD SWAP1 JUMP JUMPDEST DUP1 PUSH2 0x79D JUMPI PUSH1 0x40 MLOAD PUSH32 0x8C379A000000000000000000000000000000000000000000000000000000000 DUP2 MSTORE PUSH1 0x4 ADD PUSH2 0x794 SWAP1 PUSH2 0x3F56 JUMP JUMPDEST PUSH1 0x40 MLOAD DUP1 SWAP2 SUB SWAP1 REVERT JUMPDEST CALLER PUSH1 0x0 SWAP1 DUP2 MSTORE PUSH1 0x3E PUSH1 0x20 MSTORE PUSH1 0x40 SWAP1 KECCAK256 SLOAD PUSH2 0x7D7 DUP2 PUSH32 0x0 PUSH2 0x1EA1 JUMP JUMPDEST TIMESTAMP GT PUSH2 0x80F JUMPI PUSH1 0x40 MLOAD PUSH32 0x8C379A000000000000000000000000000000000000000000000000000000000 DUP2 MSTORE PUSH1 0x4 ADD PUSH2 0x794 SWAP1 PUSH2 0x3FF9 JUMP JUMPDEST PUSH32 0x0 PUSH2 0x864 PUSH2 0x85D DUP4 PUSH32 0x0 PUSH2 0x1EA1 JUMP JUMPDEST TIMESTAMP SWAP1 PUSH2 0x2027 JUMP JUMPDEST GT ISZERO PUSH2 0x89C JUMPI PUSH1 0x40 MLOAD PUSH32 0x8C379A000000000000000000000000000000000000000000000000000000000 DUP2 MSTORE PUSH1 0x4 ADD PUSH2 0x794 SWAP1 PUSH2 0x4280 JUMP JUMPDEST PUSH1 0x0 PUSH2 0x8A7 CALLER PUSH2 0xBFC JUMP JUMPDEST SWAP1 POP PUSH1 0x0 DUP2 DUP5 GT PUSH2 0x8B8 JUMPI DUP4 PUSH2 0x8BA JUMP JUMPDEST DUP2 JUMPDEST SWAP1 POP PUSH2 0x8C8 CALLER DUP4 PUSH1 0x1 PUSH2 0x2069 JUMP JUMPDEST POP PUSH2 0x8D3 CALLER DUP3 PUSH2 0x2127 JUMP JUMPDEST PUSH2 0x8DD DUP3 DUP3 PUSH2 0x2027 JUMP JUMPDEST PUSH2 0x8F2 JUMPI CALLER PUSH1 0x0 SWAP1 DUP2 MSTORE PUSH1 0x3E PUSH1 0x20 MSTORE PUSH1 0x40 DUP2 KECCAK256 SSTORE JUMPDEST PUSH2 0x933 PUSH20 0xFFFFFFFFFFFFFFFFFFFFFFFFFFFFFFFFFFFFFFFF PUSH32 0x0 AND DUP7 DUP4 PUSH2 0x2257 JUMP JUMPDEST DUP5 PUSH20 0xFFFFFFFFFFFFFFFFFFFFFFFFFFFFFFFFFFFFFFFF AND CALLER PUSH20 0xFFFFFFFFFFFFFFFFFFFFFFFFFFFFFFFFFFFFFFFF AND PUSH32 0xD12200EFA34901B99367694174C3B0D32C99585FDF37C7C26892136DDD0836D9 DUP4 PUSH1 0x40 MLOAD PUSH2 0x990 SWAP2 SWAP1 PUSH2 0x3D39 JUMP JUMPDEST PUSH1 0x40 MLOAD DUP1 SWAP2 SUB SWAP1 LOG3 POP POP POP POP POP JUMP JUMPDEST PUSH1 0x0 PUSH2 0x9AC DUP5 DUP5 DUP5 PUSH2 0x22F8 JUMP JUMPDEST PUSH2 0xA36 DUP5 PUSH2 0x9B8 PUSH2 0x1F14 JUMP JUMPDEST PUSH2 0xA31 DUP6 PUSH1 0x40 MLOAD DUP1 PUSH1 0x60 ADD PUSH1 0x40 MSTORE DUP1 PUSH1 0x28 DUP2 MSTORE PUSH1 0x20 ADD PUSH2 0x4588 PUSH1 0x28 SWAP2 CODECOPY PUSH20 0xFFFFFFFFFFFFFFFFFFFFFFFFFFFFFFFFFFFFFFFF DUP11 AND PUSH1 0x0 SWAP1 DUP2 MSTORE PUSH1 0x1 PUSH1 0x20 MSTORE PUSH1 0x40 DUP2 KECCAK256 SWAP1 PUSH2 0xA03 PUSH2 0x1F14 JUMP JUMPDEST PUSH20 0xFFFFFFFFFFFFFFFFFFFFFFFFFFFFFFFFFFFFFFFF AND DUP2 MSTORE PUSH1 0x20 DUP2 ADD SWAP2 SWAP1 SWAP2 MSTORE PUSH1 0x40 ADD PUSH1 0x0 KECCAK256 SLOAD SWAP2 SWAP1 PUSH2 0x2405 JUMP JUMPDEST PUSH2 0x1F18 JUMP JUMPDEST POP PUSH1 0x1 JUMPDEST SWAP4 SWAP3 POP POP POP JUMP JUMPDEST PUSH32 0x6E71EDAE12B1B97F4D1F60370FEF10105FA2FAAE0126114A169C64845D6126C9 DUP2 JUMP JUMPDEST PUSH32 0x0 DUP2 JUMP JUMPDEST PUSH1 0x5 SLOAD PUSH1 0xFF AND SWAP1 JUMP JUMPDEST PUSH20 0xFFFFFFFFFFFFFFFFFFFFFFFFFFFFFFFFFFFFFFFF DUP1 DUP3 AND PUSH1 0x0 SWAP1 DUP2 MSTORE PUSH1 0x3C PUSH1 0x20 SWAP1 DUP2 MSTORE PUSH1 0x40 DUP1 DUP4 KECCAK256 SWAP4 DUP7 AND DUP4 MSTORE PUSH1 0x2 SWAP1 SWAP4 ADD SWAP1 MSTORE KECCAK256 SLOAD SWAP3 SWAP2 POP POP JUMP JUMPDEST PUSH32 0x0 DUP2 JUMP JUMPDEST PUSH1 0x43 SLOAD DUP2 JUMP JUMPDEST PUSH1 0x0 PUSH2 0x74D PUSH2 0xB06 PUSH2 0x1F14 JUMP JUMPDEST DUP5 PUSH2 0xA31 DUP6 PUSH1 0x1 PUSH1 0x0 PUSH2 0xB17 PUSH2 0x1F14 JUMP JUMPDEST PUSH20 0xFFFFFFFFFFFFFFFFFFFFFFFFFFFFFFFFFFFFFFFF SWAP1 DUP2 AND DUP3 MSTORE PUSH1 0x20 DUP1 DUP4 ADD SWAP4 SWAP1 SWAP4 MSTORE PUSH1 0x40 SWAP2 DUP3 ADD PUSH1 0x0 SWAP1 DUP2 KECCAK256 SWAP2 DUP13 AND DUP2 MSTORE SWAP3 MSTORE SWAP1 KECCAK256 SLOAD SWAP1 PUSH2 0x1EA1 JUMP JUMPDEST PUSH32 0x9A9A49B990BA9BB39F8048C490A40AB25C18F55D208D5FBCF958261A9B48716D DUP2 JUMP JUMPDEST PUSH1 0x6 PUSH1 0x20 SWAP1 DUP2 MSTORE PUSH1 0x0 SWAP3 DUP4 MSTORE PUSH1 0x40 DUP1 DUP5 KECCAK256 SWAP1 SWAP2 MSTORE SWAP1 DUP3 MSTORE SWAP1 KECCAK256 SLOAD PUSH16 0xFFFFFFFFFFFFFFFFFFFFFFFFFFFFFFFF DUP1 DUP3 AND SWAP2 PUSH17 0x100000000000000000000000000000000 SWAP1 DIV AND DUP3 JUMP JUMPDEST PUSH2 0xBCB CALLER DUP3 PUSH1 0x0 PUSH2 0x244B JUMP JUMPDEST PUSH2 0xBD7 CALLER DUP3 PUSH1 0x1 PUSH2 0x244B JUMP JUMPDEST POP JUMP JUMPDEST PUSH1 0x0 DUP1 PUSH2 0xBE6 DUP4 PUSH2 0x258E JUMP JUMPDEST SWAP3 POP POP POP PUSH2 0xBF4 DUP5 DUP3 PUSH2 0x25C8 JUMP JUMPDEST SWAP5 SWAP4 POP POP POP POP JUMP JUMPDEST PUSH20 0xFFFFFFFFFFFFFFFFFFFFFFFFFFFFFFFFFFFFFFFF DUP2 AND PUSH1 0x0 SWAP1 DUP2 MSTORE PUSH1 0x20 DUP2 SWAP1 MSTORE PUSH1 0x40 SWAP1 KECCAK256 SLOAD JUMPDEST SWAP2 SWAP1 POP JUMP JUMPDEST PUSH32 0x0 DUP2 JUMP JUMPDEST PUSH1 0x40 MLOAD DUP1 PUSH1 0x40 ADD PUSH1 0x40 MSTORE DUP1 PUSH1 0x1 DUP2 MSTORE PUSH1 0x20 ADD PUSH32 0x3100000000000000000000000000000000000000000000000000000000000000 DUP2 MSTORE POP DUP2 JUMP JUMPDEST PUSH2 0xC8E CALLER PUSH2 0xBFC JUMP JUMPDEST PUSH2 0xCC4 JUMPI PUSH1 0x40 MLOAD PUSH32 0x8C379A000000000000000000000000000000000000000000000000000000000 DUP2 MSTORE PUSH1 0x4 ADD PUSH2 0x794 SWAP1 PUSH2 0x43A8 JUMP JUMPDEST CALLER PUSH1 0x0 DUP2 DUP2 MSTORE PUSH1 0x3E PUSH1 0x20 MSTORE PUSH1 0x40 DUP1 DUP3 KECCAK256 TIMESTAMP SWAP1 SSTORE MLOAD PUSH32 0xF52F50426B32362D3E6BB8CB36B7074756B224622DEF6352A59EAC7F66EBE6E8 SWAP2 SWAP1 LOG2 JUMP JUMPDEST PUSH1 0x7 PUSH1 0x20 MSTORE PUSH1 0x0 SWAP1 DUP2 MSTORE PUSH1 0x40 SWAP1 KECCAK256 SLOAD DUP2 JUMP JUMPDEST PUSH1 0x3D PUSH1 0x20 MSTORE PUSH1 0x0 SWAP1 DUP2 MSTORE PUSH1 0x40 SWAP1 KECCAK256 SLOAD DUP2 JUMP JUMPDEST PUSH1 0x0 PUSH2 0xD2C PUSH2 0x2600 JUMP JUMPDEST SWAP1 POP PUSH1 0x9 SLOAD DUP2 GT PUSH2 0xD69 JUMPI PUSH1 0x40 MLOAD PUSH32 0x8C379A000000000000000000000000000000000000000000000000000000000 DUP2 MSTORE PUSH1 0x4 ADD PUSH2 0x794 SWAP1 PUSH2 0x408D JUMP JUMPDEST PUSH1 0x9 DUP2 SWAP1 SSTORE CHAINID PUSH32 0x8B73C3C69BB8FE3D512ECC4CF759CC79239F7B179B0FFACAA9A75D522B39400F PUSH2 0xD98 PUSH2 0x673 JUMP JUMPDEST DUP1 MLOAD PUSH1 0x20 SWAP2 DUP3 ADD KECCAK256 PUSH1 0x40 DUP1 MLOAD DUP1 DUP3 ADD DUP3 MSTORE PUSH1 0x1 DUP2 MSTORE PUSH32 0x3100000000000000000000000000000000000000000000000000000000000000 SWAP1 DUP5 ADD MSTORE MLOAD PUSH2 0xE04 SWAP4 SWAP3 PUSH32 0xC89EFDAA54C0F20C7ADF612882DF0950F5A951637E0307CDCB4C672F298B8BC6 SWAP2 DUP7 SWAP2 ADDRESS SWAP2 ADD PUSH2 0x3DED JUMP JUMPDEST PUSH1 0x40 DUP1 MLOAD DUP1 DUP4 SUB PUSH32 0xFFFFFFFFFFFFFFFFFFFFFFFFFFFFFFFFFFFFFFFFFFFFFFFFFFFFFFFFFFFFFFE0 ADD DUP2 MSTORE SWAP2 DUP2 MSTORE DUP2 MLOAD PUSH1 0x20 SWAP3 DUP4 ADD KECCAK256 PUSH1 0x43 SSTORE ADDRESS PUSH1 0x0 SWAP1 DUP2 MSTORE PUSH1 0x3C SWAP1 SWAP3 MSTORE SWAP1 KECCAK256 DUP1 SLOAD PUSH16 0xFFFFFFFFFFFFFFFFFFFFFFFFFFFFFFFF AND PUSH20 0x6098502000000000000000000000000000000000 OR SWAP1 SSTORE POP POP JUMP JUMPDEST PUSH1 0x40 DUP1 MLOAD PUSH1 0x1 DUP1 DUP3 MSTORE DUP2 DUP4 ADD SWAP1 SWAP3 MSTORE PUSH1 0x0 SWAP2 PUSH1 0x60 SWAP2 SWAP1 DUP2 PUSH1 0x20 ADD JUMPDEST PUSH2 0xE9D PUSH2 0x3861 JUMP JUMPDEST DUP2 MSTORE PUSH1 0x20 ADD SWAP1 PUSH1 0x1 SWAP1 SUB SWAP1 DUP2 PUSH2 0xE95 JUMPI SWAP1 POP POP SWAP1 POP PUSH1 0x40 MLOAD DUP1 PUSH1 0x60 ADD PUSH1 0x40 MSTORE DUP1 ADDRESS PUSH20 0xFFFFFFFFFFFFFFFFFFFFFFFFFFFFFFFFFFFFFFFF AND DUP2 MSTORE PUSH1 0x20 ADD PUSH2 0xEE2 DUP6 PUSH2 0xBFC JUMP JUMPDEST DUP2 MSTORE PUSH1 0x20 ADD PUSH2 0xEEF PUSH2 0x757 JUMP JUMPDEST DUP2 MSTORE POP DUP2 PUSH1 0x0 DUP2 MLOAD DUP2 LT PUSH2 0xEFF JUMPI INVALID JUMPDEST PUSH1 0x20 MUL PUSH1 0x20 ADD ADD DUP2 SWAP1 MSTORE POP PUSH2 0xA3A PUSH2 0xF17 DUP5 DUP4 PUSH2 0x2605 JUMP JUMPDEST PUSH20 0xFFFFFFFFFFFFFFFFFFFFFFFFFFFFFFFFFFFFFFFF DUP6 AND PUSH1 0x0 SWAP1 DUP2 MSTORE PUSH1 0x3D PUSH1 0x20 MSTORE PUSH1 0x40 SWAP1 KECCAK256 SLOAD SWAP1 PUSH2 0x1EA1 JUMP JUMPDEST PUSH32 0x0 DUP2 JUMP JUMPDEST PUSH32 0x0 DUP2 JUMP JUMPDEST PUSH1 0x4 DUP1 SLOAD PUSH1 0x40 DUP1 MLOAD PUSH1 0x20 PUSH1 0x1F PUSH1 0x2 PUSH32 0xFFFFFFFFFFFFFFFFFFFFFFFFFFFFFFFFFFFFFFFFFFFFFFFFFFFFFFFFFFFFFFFF PUSH2 0x100 PUSH1 0x1 DUP9 AND ISZERO MUL ADD SWAP1 SWAP6 AND SWAP5 SWAP1 SWAP5 DIV SWAP4 DUP5 ADD DUP2 SWAP1 DIV DUP2 MUL DUP3 ADD DUP2 ADD SWAP1 SWAP3 MSTORE DUP3 DUP2 MSTORE PUSH1 0x60 SWAP4 SWAP1 SWAP3 SWAP1 SWAP2 DUP4 ADD DUP3 DUP3 DUP1 ISZERO PUSH2 0x71D JUMPI DUP1 PUSH1 0x1F LT PUSH2 0x6F2 JUMPI PUSH2 0x100 DUP1 DUP4 SLOAD DIV MUL DUP4 MSTORE SWAP2 PUSH1 0x20 ADD SWAP2 PUSH2 0x71D JUMP JUMPDEST PUSH1 0x0 PUSH2 0x751 PUSH2 0x757 JUMP JUMPDEST PUSH32 0x0 DUP2 JUMP JUMPDEST PUSH1 0x0 PUSH2 0x104E CALLER PUSH2 0x1047 CALLER PUSH2 0xBFC JUMP JUMPDEST PUSH1 0x0 PUSH2 0x2069 JUMP JUMPDEST SWAP1 POP PUSH1 0x0 PUSH32 0xFFFFFFFFFFFFFFFFFFFFFFFFFFFFFFFFFFFFFFFFFFFFFFFFFFFFFFFFFFFFFFFF DUP4 EQ PUSH2 0x107F JUMPI DUP3 PUSH2 0x1081 JUMP JUMPDEST DUP2 JUMPDEST SWAP1 POP PUSH2 0x10CD DUP2 PUSH1 0x40 MLOAD DUP1 PUSH1 0x40 ADD PUSH1 0x40 MSTORE DUP1 PUSH1 0xE DUP2 MSTORE PUSH1 0x20 ADD PUSH32 0x494E56414C49445F414D4F554E54000000000000000000000000000000000000 DUP2 MSTORE POP DUP5 PUSH2 0x2405 SWAP1 SWAP3 SWAP2 SWAP1 PUSH4 0xFFFFFFFF AND JUMP JUMPDEST CALLER PUSH1 0x0 SWAP1 DUP2 MSTORE PUSH1 0x3D PUSH1 0x20 MSTORE PUSH1 0x40 SWAP1 KECCAK256 SSTORE PUSH2 0x113F PUSH32 0x0 PUSH20 0xFFFFFFFFFFFFFFFFFFFFFFFFFFFFFFFFFFFFFFFF AND PUSH32 0x0 DUP7 DUP5 PUSH2 0x2733 JUMP JUMPDEST DUP4 PUSH20 0xFFFFFFFFFFFFFFFFFFFFFFFFFFFFFFFFFFFFFFFF AND CALLER PUSH20 0xFFFFFFFFFFFFFFFFFFFFFFFFFFFFFFFFFFFFFFFF AND PUSH32 0x9310CCFCB8DE723F578A9E4282EA9F521F05AE40DC08F3068DFAD528A65EE3C7 DUP4 PUSH1 0x40 MLOAD PUSH2 0x119C SWAP2 SWAP1 PUSH2 0x3D39 JUMP JUMPDEST PUSH1 0x40 MLOAD DUP1 SWAP2 SUB SWAP1 LOG3 POP POP POP POP JUMP JUMPDEST PUSH1 0x0 PUSH2 0x74D PUSH2 0x11B7 PUSH2 0x1F14 JUMP JUMPDEST DUP5 PUSH2 0xA31 DUP6 PUSH1 0x40 MLOAD DUP1 PUSH1 0x60 ADD PUSH1 0x40 MSTORE DUP1 PUSH1 0x25 DUP2 MSTORE PUSH1 0x20 ADD PUSH2 0x45B0 PUSH1 0x25 SWAP2 CODECOPY PUSH1 0x1 PUSH1 0x0 PUSH2 0x11E1 PUSH2 0x1F14 JUMP JUMPDEST PUSH20 0xFFFFFFFFFFFFFFFFFFFFFFFFFFFFFFFFFFFFFFFF SWAP1 DUP2 AND DUP3 MSTORE PUSH1 0x20 DUP1 DUP4 ADD SWAP4 SWAP1 SWAP4 MSTORE PUSH1 0x40 SWAP2 DUP3 ADD PUSH1 0x0 SWAP1 DUP2 KECCAK256 SWAP2 DUP14 AND DUP2 MSTORE SWAP3 MSTORE SWAP1 KECCAK256 SLOAD SWAP2 SWAP1 PUSH2 0x2405 JUMP JUMPDEST PUSH1 0x0 PUSH2 0x74D PUSH2 0x122C PUSH2 0x1F14 JUMP JUMPDEST DUP5 DUP5 PUSH2 0x22F8 JUMP JUMPDEST PUSH32 0x10D8D059343739EFCE7DAD10D09F0806DA52B252B3E6A7951920D2D6EC4102E5 DUP2 JUMP JUMPDEST PUSH1 0x12 DUP2 JUMP JUMPDEST DUP1 PUSH2 0x1293 JUMPI PUSH1 0x40 MLOAD PUSH32 0x8C379A000000000000000000000000000000000000000000000000000000000 DUP2 MSTORE PUSH1 0x4 ADD PUSH2 0x794 SWAP1 PUSH2 0x3F56 JUMP JUMPDEST PUSH1 0x0 PUSH2 0x129E DUP4 PUSH2 0xBFC JUMP JUMPDEST SWAP1 POP PUSH1 0x0 PUSH2 0x12B5 DUP5 ADDRESS DUP5 PUSH2 0x12B0 PUSH2 0x757 JUMP JUMPDEST PUSH2 0x2754 JUMP JUMPDEST SWAP1 POP DUP1 ISZERO PUSH2 0x134D JUMPI PUSH32 0x2468F9268C60AD90E2D49EDB0032C8A001E733AE888B3AB8E982EDF535BE1A76 DUP5 DUP3 PUSH1 0x40 MLOAD PUSH2 0x12EE SWAP3 SWAP2 SWAP1 PUSH2 0x3D08 JUMP JUMPDEST PUSH1 0x40 MLOAD DUP1 SWAP2 SUB SWAP1 LOG1 PUSH20 0xFFFFFFFFFFFFFFFFFFFFFFFFFFFFFFFFFFFFFFFF DUP5 AND PUSH1 0x0 SWAP1 DUP2 MSTORE PUSH1 0x3D PUSH1 0x20 MSTORE PUSH1 0x40 SWAP1 KECCAK256 SLOAD PUSH2 0x1326 SWAP1 DUP3 PUSH2 0x1EA1 JUMP JUMPDEST PUSH20 0xFFFFFFFFFFFFFFFFFFFFFFFFFFFFFFFFFFFFFFFF DUP6 AND PUSH1 0x0 SWAP1 DUP2 MSTORE PUSH1 0x3D PUSH1 0x20 MSTORE PUSH1 0x40 SWAP1 KECCAK256 SSTORE JUMPDEST PUSH2 0x135A PUSH1 0x0 DUP5 DUP7 DUP6 PUSH2 0x1B9C JUMP JUMPDEST PUSH20 0xFFFFFFFFFFFFFFFFFFFFFFFFFFFFFFFFFFFFFFFF DUP6 AND PUSH1 0x0 SWAP1 DUP2 MSTORE PUSH1 0x3E PUSH1 0x20 MSTORE PUSH1 0x40 SWAP1 KECCAK256 SSTORE PUSH2 0x138A DUP5 DUP5 PUSH2 0x282D JUMP JUMPDEST PUSH2 0x13CC PUSH20 0xFFFFFFFFFFFFFFFFFFFFFFFFFFFFFFFFFFFFFFFF PUSH32 0x0 AND CALLER ADDRESS DUP7 PUSH2 0x2733 JUMP JUMPDEST DUP4 PUSH20 0xFFFFFFFFFFFFFFFFFFFFFFFFFFFFFFFFFFFFFFFF AND CALLER PUSH20 0xFFFFFFFFFFFFFFFFFFFFFFFFFFFFFFFFFFFFFFFF AND PUSH32 0x5DAC0C1B1112564A045BA943C9D50270893E8E826C49BE8E7073ADC713AB7BD7 DUP6 PUSH1 0x40 MLOAD PUSH2 0x119C SWAP2 SWAP1 PUSH2 0x3D39 JUMP JUMPDEST CALLER PUSH20 0xFFFFFFFFFFFFFFFFFFFFFFFFFFFFFFFFFFFFFFFF PUSH32 0x0 AND EQ PUSH2 0x1498 JUMPI PUSH1 0x40 MLOAD PUSH32 0x8C379A000000000000000000000000000000000000000000000000000000000 DUP2 MSTORE PUSH1 0x4 ADD PUSH2 0x794 SWAP1 PUSH2 0x4158 JUMP JUMPDEST PUSH1 0x0 JUMPDEST DUP2 DUP2 LT ISZERO PUSH2 0x1646 JUMPI PUSH1 0x0 PUSH1 0x3C PUSH1 0x0 DUP6 DUP6 DUP6 DUP2 DUP2 LT PUSH2 0x14B5 JUMPI INVALID JUMPDEST SWAP1 POP PUSH1 0x60 MUL ADD PUSH1 0x40 ADD PUSH1 0x20 DUP2 ADD SWAP1 PUSH2 0x14CD SWAP2 SWAP1 PUSH2 0x38F3 JUMP JUMPDEST PUSH20 0xFFFFFFFFFFFFFFFFFFFFFFFFFFFFFFFFFFFFFFFF AND PUSH20 0xFFFFFFFFFFFFFFFFFFFFFFFFFFFFFFFFFFFFFFFF AND DUP2 MSTORE PUSH1 0x20 ADD SWAP1 DUP2 MSTORE PUSH1 0x20 ADD PUSH1 0x0 KECCAK256 SWAP1 POP PUSH2 0x154C DUP5 DUP5 DUP5 DUP2 DUP2 LT PUSH2 0x1518 JUMPI INVALID JUMPDEST SWAP1 POP PUSH1 0x60 MUL ADD PUSH1 0x40 ADD PUSH1 0x20 DUP2 ADD SWAP1 PUSH2 0x1530 SWAP2 SWAP1 PUSH2 0x38F3 JUMP JUMPDEST DUP3 DUP7 DUP7 DUP7 DUP2 DUP2 LT PUSH2 0x153D JUMPI INVALID JUMPDEST SWAP1 POP PUSH1 0x60 MUL ADD PUSH1 0x20 ADD CALLDATALOAD PUSH2 0x2922 JUMP JUMPDEST POP DUP4 DUP4 DUP4 DUP2 DUP2 LT PUSH2 0x1559 JUMPI INVALID JUMPDEST PUSH2 0x156F SWAP3 PUSH1 0x20 PUSH1 0x60 SWAP1 SWAP3 MUL ADD SWAP1 DUP2 ADD SWAP2 POP PUSH2 0x3B88 JUMP JUMPDEST DUP2 SLOAD PUSH32 0xFFFFFFFFFFFFFFFFFFFFFFFFFFFFFFFF00000000000000000000000000000000 AND PUSH16 0xFFFFFFFFFFFFFFFFFFFFFFFFFFFFFFFF SWAP2 SWAP1 SWAP2 AND OR DUP2 SSTORE DUP4 DUP4 DUP4 DUP2 DUP2 LT PUSH2 0x15B7 JUMPI INVALID JUMPDEST SWAP1 POP PUSH1 0x60 MUL ADD PUSH1 0x40 ADD PUSH1 0x20 DUP2 ADD SWAP1 PUSH2 0x15CF SWAP2 SWAP1 PUSH2 0x38F3 JUMP JUMPDEST PUSH20 0xFFFFFFFFFFFFFFFFFFFFFFFFFFFFFFFFFFFFFFFF AND PUSH32 0x87FA03892A0556CB6B8F97E6D533A150D4D55FCBF275FFF5FA003FA636BCC7FA DUP6 DUP6 DUP6 DUP2 DUP2 LT PUSH2 0x1612 JUMPI INVALID JUMPDEST PUSH2 0x1628 SWAP3 PUSH1 0x20 PUSH1 0x60 SWAP1 SWAP3 MUL ADD SWAP1 DUP2 ADD SWAP2 POP PUSH2 0x3B88 JUMP JUMPDEST PUSH1 0x40 MLOAD PUSH2 0x1635 SWAP2 SWAP1 PUSH2 0x4484 JUMP JUMPDEST PUSH1 0x40 MLOAD DUP1 SWAP2 SUB SWAP1 LOG2 POP PUSH1 0x1 ADD PUSH2 0x149B JUMP JUMPDEST POP POP POP JUMP JUMPDEST PUSH1 0x0 DUP1 PUSH1 0x0 PUSH2 0x1659 DUP5 PUSH2 0x258E JUMP JUMPDEST POP SWAP2 POP SWAP2 POP PUSH2 0x166A DUP3 DUP3 DUP8 NUMBER PUSH2 0x2A21 JUMP JUMPDEST SWAP6 SWAP5 POP POP POP POP POP JUMP JUMPDEST PUSH1 0x44 PUSH1 0x20 MSTORE PUSH1 0x0 SWAP1 DUP2 MSTORE PUSH1 0x40 SWAP1 KECCAK256 SLOAD DUP2 JUMP JUMPDEST PUSH1 0x0 DUP1 PUSH1 0x0 PUSH2 0x1693 DUP5 PUSH2 0x258E JUMP JUMPDEST POP SWAP2 POP SWAP2 POP PUSH2 0x16A4 DUP3 DUP3 DUP9 DUP9 PUSH2 0x2A21 JUMP JUMPDEST SWAP7 SWAP6 POP POP POP POP POP POP JUMP JUMPDEST PUSH1 0x8 SLOAD PUSH20 0xFFFFFFFFFFFFFFFFFFFFFFFFFFFFFFFFFFFFFFFF AND DUP2 JUMP JUMPDEST PUSH1 0x0 PUSH32 0x9A9A49B990BA9BB39F8048C490A40AB25C18F55D208D5FBCF958261A9B48716D DUP8 DUP8 DUP8 PUSH1 0x40 MLOAD PUSH1 0x20 ADD PUSH2 0x1703 SWAP5 SWAP4 SWAP3 SWAP2 SWAP1 PUSH2 0x3D83 JUMP JUMPDEST PUSH1 0x40 MLOAD PUSH1 0x20 DUP2 DUP4 SUB SUB DUP2 MSTORE SWAP1 PUSH1 0x40 MSTORE DUP1 MLOAD SWAP1 PUSH1 0x20 ADD KECCAK256 SWAP1 POP PUSH1 0x0 PUSH1 0x43 SLOAD DUP3 PUSH1 0x40 MLOAD PUSH1 0x20 ADD PUSH2 0x1732 SWAP3 SWAP2 SWAP1 PUSH2 0x3C80 JUMP JUMPDEST PUSH1 0x40 MLOAD PUSH1 0x20 DUP2 DUP4 SUB SUB DUP2 MSTORE SWAP1 PUSH1 0x40 MSTORE DUP1 MLOAD SWAP1 PUSH1 0x20 ADD KECCAK256 SWAP1 POP PUSH1 0x0 PUSH1 0x1 DUP3 DUP8 DUP8 DUP8 PUSH1 0x40 MLOAD PUSH1 0x0 DUP2 MSTORE PUSH1 0x20 ADD PUSH1 0x40 MSTORE PUSH1 0x40 MLOAD PUSH2 0x176F SWAP5 SWAP4 SWAP3 SWAP2 SWAP1 PUSH2 0x3E26 JUMP JUMPDEST PUSH1 0x20 PUSH1 0x40 MLOAD PUSH1 0x20 DUP2 SUB SWAP1 DUP1 DUP5 SUB SWAP1 DUP6 GAS STATICCALL ISZERO DUP1 ISZERO PUSH2 0x1791 JUMPI RETURNDATASIZE PUSH1 0x0 DUP1 RETURNDATACOPY RETURNDATASIZE PUSH1 0x0 REVERT JUMPDEST POP POP PUSH1 0x40 MLOAD PUSH32 0xFFFFFFFFFFFFFFFFFFFFFFFFFFFFFFFFFFFFFFFFFFFFFFFFFFFFFFFFFFFFFFE0 ADD MLOAD SWAP2 POP POP PUSH20 0xFFFFFFFFFFFFFFFFFFFFFFFFFFFFFFFFFFFFFFFF DUP2 AND PUSH2 0x1809 JUMPI PUSH1 0x40 MLOAD PUSH32 0x8C379A000000000000000000000000000000000000000000000000000000000 DUP2 MSTORE PUSH1 0x4 ADD PUSH2 0x794 SWAP1 PUSH2 0x3FC2 JUMP JUMPDEST PUSH20 0xFFFFFFFFFFFFFFFFFFFFFFFFFFFFFFFFFFFFFFFF DUP2 AND PUSH1 0x0 SWAP1 DUP2 MSTORE PUSH1 0x44 PUSH1 0x20 MSTORE PUSH1 0x40 SWAP1 KECCAK256 DUP1 SLOAD PUSH1 0x1 DUP2 ADD SWAP1 SWAP2 SSTORE DUP9 EQ PUSH2 0x186F JUMPI PUSH1 0x40 MLOAD PUSH32 0x8C379A000000000000000000000000000000000000000000000000000000000 DUP2 MSTORE PUSH1 0x4 ADD PUSH2 0x794 SWAP1 PUSH2 0x4121 JUMP JUMPDEST DUP7 TIMESTAMP GT ISZERO PUSH2 0x18A9 JUMPI PUSH1 0x40 MLOAD PUSH32 0x8C379A000000000000000000000000000000000000000000000000000000000 DUP2 MSTORE PUSH1 0x4 ADD PUSH2 0x794 SWAP1 PUSH2 0x40EA JUMP JUMPDEST PUSH2 0x18B5 DUP2 DUP11 PUSH1 0x0 PUSH2 0x244B JUMP JUMPDEST PUSH2 0x18C1 DUP2 DUP11 PUSH1 0x1 PUSH2 0x244B JUMP JUMPDEST POP POP POP POP POP POP POP POP POP JUMP JUMPDEST PUSH32 0x0 DUP2 JUMP JUMPDEST PUSH20 0xFFFFFFFFFFFFFFFFFFFFFFFFFFFFFFFFFFFFFFFF DUP8 AND PUSH2 0x193D JUMPI PUSH1 0x40 MLOAD PUSH32 0x8C379A000000000000000000000000000000000000000000000000000000000 DUP2 MSTORE PUSH1 0x4 ADD PUSH2 0x794 SWAP1 PUSH2 0x418F JUMP JUMPDEST DUP4 TIMESTAMP GT ISZERO PUSH2 0x1977 JUMPI PUSH1 0x40 MLOAD PUSH32 0x8C379A000000000000000000000000000000000000000000000000000000000 DUP2 MSTORE PUSH1 0x4 ADD PUSH2 0x794 SWAP1 PUSH2 0x40EA JUMP JUMPDEST PUSH20 0xFFFFFFFFFFFFFFFFFFFFFFFFFFFFFFFFFFFFFFFF DUP8 AND PUSH1 0x0 SWAP1 DUP2 MSTORE PUSH1 0x44 PUSH1 0x20 SWAP1 DUP2 MSTORE PUSH1 0x40 DUP1 DUP4 KECCAK256 SLOAD PUSH1 0x43 SLOAD SWAP2 MLOAD SWAP1 SWAP4 SWAP3 PUSH2 0x19DE SWAP2 PUSH32 0x6E71EDAE12B1B97F4D1F60370FEF10105FA2FAAE0126114A169C64845D6126C9 SWAP2 DUP14 SWAP2 DUP14 SWAP2 DUP14 SWAP2 DUP10 SWAP2 DUP15 SWAP2 ADD PUSH2 0x3D42 JUMP JUMPDEST PUSH1 0x40 MLOAD PUSH1 0x20 DUP2 DUP4 SUB SUB DUP2 MSTORE SWAP1 PUSH1 0x40 MSTORE DUP1 MLOAD SWAP1 PUSH1 0x20 ADD KECCAK256 PUSH1 0x40 MLOAD PUSH1 0x20 ADD PUSH2 0x1A05 SWAP3 SWAP2 SWAP1 PUSH2 0x3C80 JUMP JUMPDEST PUSH1 0x40 MLOAD PUSH1 0x20 DUP2 DUP4 SUB SUB DUP2 MSTORE SWAP1 PUSH1 0x40 MSTORE DUP1 MLOAD SWAP1 PUSH1 0x20 ADD KECCAK256 SWAP1 POP PUSH1 0x1 DUP2 DUP7 DUP7 DUP7 PUSH1 0x40 MLOAD PUSH1 0x0 DUP2 MSTORE PUSH1 0x20 ADD PUSH1 0x40 MSTORE PUSH1 0x40 MLOAD PUSH2 0x1A40 SWAP5 SWAP4 SWAP3 SWAP2 SWAP1 PUSH2 0x3E26 JUMP JUMPDEST PUSH1 0x20 PUSH1 0x40 MLOAD PUSH1 0x20 DUP2 SUB SWAP1 DUP1 DUP5 SUB SWAP1 DUP6 GAS STATICCALL ISZERO DUP1 ISZERO PUSH2 0x1A62 JUMPI RETURNDATASIZE PUSH1 0x0 DUP1 RETURNDATACOPY RETURNDATASIZE PUSH1 0x0 REVERT JUMPDEST POP POP POP PUSH1 0x20 PUSH1 0x40 MLOAD SUB MLOAD PUSH20 0xFFFFFFFFFFFFFFFFFFFFFFFFFFFFFFFFFFFFFFFF AND DUP10 PUSH20 0xFFFFFFFFFFFFFFFFFFFFFFFFFFFFFFFFFFFFFFFF AND EQ PUSH2 0x1AD0 JUMPI PUSH1 0x40 MLOAD PUSH32 0x8C379A000000000000000000000000000000000000000000000000000000000 DUP2 MSTORE PUSH1 0x4 ADD PUSH2 0x794 SWAP1 PUSH2 0x3FC2 JUMP JUMPDEST PUSH2 0x1ADB DUP3 PUSH1 0x1 PUSH2 0x1EA1 JUMP JUMPDEST PUSH20 0xFFFFFFFFFFFFFFFFFFFFFFFFFFFFFFFFFFFFFFFF DUP11 AND PUSH1 0x0 SWAP1 DUP2 MSTORE PUSH1 0x44 PUSH1 0x20 MSTORE PUSH1 0x40 SWAP1 KECCAK256 SSTORE PUSH2 0x18C1 DUP10 DUP10 DUP10 PUSH2 0x1F18 JUMP JUMPDEST PUSH2 0x1B17 CALLER DUP4 DUP4 PUSH2 0x244B JUMP JUMPDEST POP POP JUMP JUMPDEST PUSH20 0xFFFFFFFFFFFFFFFFFFFFFFFFFFFFFFFFFFFFFFFF SWAP2 DUP3 AND PUSH1 0x0 SWAP1 DUP2 MSTORE PUSH1 0x1 PUSH1 0x20 SWAP1 DUP2 MSTORE PUSH1 0x40 DUP1 DUP4 KECCAK256 SWAP4 SWAP1 SWAP5 AND DUP3 MSTORE SWAP2 SWAP1 SWAP2 MSTORE KECCAK256 SLOAD SWAP1 JUMP JUMPDEST PUSH1 0x3 DUP2 JUMP JUMPDEST PUSH1 0x3C PUSH1 0x20 MSTORE PUSH1 0x0 SWAP1 DUP2 MSTORE PUSH1 0x40 SWAP1 KECCAK256 DUP1 SLOAD PUSH1 0x1 SWAP1 SWAP2 ADD SLOAD PUSH16 0xFFFFFFFFFFFFFFFFFFFFFFFFFFFFFFFF DUP1 DUP4 AND SWAP3 PUSH17 0x100000000000000000000000000000000 SWAP1 DIV AND SWAP1 DUP4 JUMP JUMPDEST PUSH20 0xFFFFFFFFFFFFFFFFFFFFFFFFFFFFFFFFFFFFFFFF DUP3 AND PUSH1 0x0 SWAP1 DUP2 MSTORE PUSH1 0x3E PUSH1 0x20 MSTORE PUSH1 0x40 DUP2 KECCAK256 SLOAD DUP1 PUSH2 0x1BD1 JUMPI PUSH1 0x0 SWAP2 POP POP PUSH2 0xBF4 JUMP JUMPDEST PUSH1 0x0 PUSH2 0x1C27 PUSH32 0x0 PUSH2 0x1C21 TIMESTAMP PUSH32 0x0 PUSH2 0x2027 JUMP JUMPDEST SWAP1 PUSH2 0x2027 JUMP JUMPDEST SWAP1 POP DUP2 DUP2 GT ISZERO PUSH2 0x1C3A JUMPI PUSH1 0x0 SWAP2 POP PUSH2 0x1C94 JUMP JUMPDEST PUSH1 0x0 DUP8 DUP3 GT PUSH2 0x1C49 JUMPI DUP8 PUSH2 0x1C4B JUMP JUMPDEST TIMESTAMP JUMPDEST SWAP1 POP DUP3 DUP2 LT ISZERO PUSH2 0x1C60 JUMPI DUP3 SWAP4 POP POP POP POP PUSH2 0xBF4 JUMP JUMPDEST PUSH2 0x1C90 PUSH2 0x1C6D DUP9 DUP8 PUSH2 0x1EA1 JUMP JUMPDEST PUSH2 0x1C8A PUSH2 0x1C7A DUP9 DUP8 PUSH2 0x2D39 JUMP JUMPDEST PUSH2 0x1C84 DUP12 DUP7 PUSH2 0x2D39 JUMP JUMPDEST SWAP1 PUSH2 0x1EA1 JUMP JUMPDEST SWAP1 PUSH2 0x2D8D JUMP JUMPDEST SWAP3 POP POP JUMPDEST POP SWAP6 SWAP5 POP POP POP POP POP JUMP JUMPDEST PUSH1 0x0 PUSH32 0x10D8D059343739EFCE7DAD10D09F0806DA52B252B3E6A7951920D2D6EC4102E5 DUP9 DUP9 PUSH1 0x1 DUP2 GT ISZERO PUSH2 0x1CCE JUMPI INVALID JUMPDEST DUP9 DUP9 PUSH1 0x40 MLOAD PUSH1 0x20 ADD PUSH2 0x1CE4 SWAP6 SWAP5 SWAP4 SWAP3 SWAP2 SWAP1 PUSH2 0x3DB4 JUMP JUMPDEST PUSH1 0x40 MLOAD PUSH1 0x20 DUP2 DUP4 SUB SUB DUP2 MSTORE SWAP1 PUSH1 0x40 MSTORE DUP1 MLOAD SWAP1 PUSH1 0x20 ADD KECCAK256 SWAP1 POP PUSH1 0x0 PUSH1 0x43 SLOAD DUP3 PUSH1 0x40 MLOAD PUSH1 0x20 ADD PUSH2 0x1D13 SWAP3 SWAP2 SWAP1 PUSH2 0x3C80 JUMP JUMPDEST PUSH1 0x40 MLOAD PUSH1 0x20 DUP2 DUP4 SUB SUB DUP2 MSTORE SWAP1 PUSH1 0x40 MSTORE DUP1 MLOAD SWAP1 PUSH1 0x20 ADD KECCAK256 SWAP1 POP PUSH1 0x0 PUSH1 0x1 DUP3 DUP8 DUP8 DUP8 PUSH1 0x40 MLOAD PUSH1 0x0 DUP2 MSTORE PUSH1 0x20 ADD PUSH1 0x40 MSTORE PUSH1 0x40 MLOAD PUSH2 0x1D50 SWAP5 SWAP4 SWAP3 SWAP2 SWAP1 PUSH2 0x3E26 JUMP JUMPDEST PUSH1 0x20 PUSH1 0x40 MLOAD PUSH1 0x20 DUP2 SUB SWAP1 DUP1 DUP5 SUB SWAP1 DUP6 GAS STATICCALL ISZERO DUP1 ISZERO PUSH2 0x1D72 JUMPI RETURNDATASIZE PUSH1 0x0 DUP1 RETURNDATACOPY RETURNDATASIZE PUSH1 0x0 REVERT JUMPDEST POP POP PUSH1 0x40 MLOAD PUSH32 0xFFFFFFFFFFFFFFFFFFFFFFFFFFFFFFFFFFFFFFFFFFFFFFFFFFFFFFFFFFFFFFE0 ADD MLOAD SWAP2 POP POP PUSH20 0xFFFFFFFFFFFFFFFFFFFFFFFFFFFFFFFFFFFFFFFF DUP2 AND PUSH2 0x1DEA JUMPI PUSH1 0x40 MLOAD PUSH32 0x8C379A000000000000000000000000000000000000000000000000000000000 DUP2 MSTORE PUSH1 0x4 ADD PUSH2 0x794 SWAP1 PUSH2 0x3FC2 JUMP JUMPDEST PUSH20 0xFFFFFFFFFFFFFFFFFFFFFFFFFFFFFFFFFFFFFFFF DUP2 AND PUSH1 0x0 SWAP1 DUP2 MSTORE PUSH1 0x44 PUSH1 0x20 MSTORE PUSH1 0x40 SWAP1 KECCAK256 DUP1 SLOAD PUSH1 0x1 DUP2 ADD SWAP1 SWAP2 SSTORE DUP9 EQ PUSH2 0x1E50 JUMPI PUSH1 0x40 MLOAD PUSH32 0x8C379A000000000000000000000000000000000000000000000000000000000 DUP2 MSTORE PUSH1 0x4 ADD PUSH2 0x794 SWAP1 PUSH2 0x4121 JUMP JUMPDEST DUP7 TIMESTAMP GT ISZERO PUSH2 0x1E8A JUMPI PUSH1 0x40 MLOAD PUSH32 0x8C379A000000000000000000000000000000000000000000000000000000000 DUP2 MSTORE PUSH1 0x4 ADD PUSH2 0x794 SWAP1 PUSH2 0x40EA JUMP JUMPDEST PUSH2 0x1E95 DUP2 DUP12 DUP12 PUSH2 0x244B JUMP JUMPDEST POP POP POP POP POP POP POP POP POP POP JUMP JUMPDEST PUSH1 0x0 DUP3 DUP3 ADD DUP4 DUP2 LT ISZERO PUSH2 0xA3A JUMPI PUSH1 0x40 MLOAD PUSH32 0x8C379A000000000000000000000000000000000000000000000000000000000 DUP2 MSTORE PUSH1 0x4 ADD PUSH2 0x794 SWAP1 PUSH2 0x3F1F JUMP JUMPDEST PUSH1 0x5 DUP1 SLOAD PUSH32 0xFFFFFFFFFFFFFFFFFFFFFFFFFFFFFFFFFFFFFFFFFFFFFFFFFFFFFFFFFFFFFF00 AND PUSH1 0xFF SWAP3 SWAP1 SWAP3 AND SWAP2 SWAP1 SWAP2 OR SWAP1 SSTORE JUMP JUMPDEST CALLER SWAP1 JUMP JUMPDEST PUSH20 0xFFFFFFFFFFFFFFFFFFFFFFFFFFFFFFFFFFFFFFFF DUP4 AND PUSH2 0x1F65 JUMPI PUSH1 0x40 MLOAD PUSH32 0x8C379A000000000000000000000000000000000000000000000000000000000 DUP2 MSTORE PUSH1 0x4 ADD PUSH2 0x794 SWAP1 PUSH2 0x42B7 JUMP JUMPDEST PUSH20 0xFFFFFFFFFFFFFFFFFFFFFFFFFFFFFFFFFFFFFFFF DUP3 AND PUSH2 0x1FB2 JUMPI PUSH1 0x40 MLOAD PUSH32 0x8C379A000000000000000000000000000000000000000000000000000000000 DUP2 MSTORE PUSH1 0x4 ADD PUSH2 0x794 SWAP1 PUSH2 0x3EC2 JUMP JUMPDEST PUSH20 0xFFFFFFFFFFFFFFFFFFFFFFFFFFFFFFFFFFFFFFFF DUP1 DUP5 AND PUSH1 0x0 DUP2 DUP2 MSTORE PUSH1 0x1 PUSH1 0x20 SWAP1 DUP2 MSTORE PUSH1 0x40 DUP1 DUP4 KECCAK256 SWAP5 DUP8 AND DUP1 DUP5 MSTORE SWAP5 SWAP1 SWAP2 MSTORE SWAP1 DUP2 SWAP1 KECCAK256 DUP5 SWAP1 SSTORE MLOAD PUSH32 0x8C5BE1E5EBEC7D5BD14F71427D1E84F3DD0314C0F7B2291E5B200AC8C7C3B925 SWAP1 PUSH2 0x201A SWAP1 DUP6 SWAP1 PUSH2 0x3D39 JUMP JUMPDEST PUSH1 0x40 MLOAD DUP1 SWAP2 SUB SWAP1 LOG3 POP POP POP JUMP JUMPDEST PUSH1 0x0 PUSH2 0xA3A DUP4 DUP4 PUSH1 0x40 MLOAD DUP1 PUSH1 0x40 ADD PUSH1 0x40 MSTORE DUP1 PUSH1 0x1E DUP2 MSTORE PUSH1 0x20 ADD PUSH32 0x536166654D6174683A207375627472616374696F6E206F766572666C6F770000 DUP2 MSTORE POP PUSH2 0x2405 JUMP JUMPDEST PUSH1 0x0 DUP1 PUSH2 0x207A DUP6 ADDRESS DUP7 PUSH2 0x12B0 PUSH2 0x757 JUMP JUMPDEST PUSH20 0xFFFFFFFFFFFFFFFFFFFFFFFFFFFFFFFFFFFFFFFF DUP7 AND PUSH1 0x0 SWAP1 DUP2 MSTORE PUSH1 0x3D PUSH1 0x20 MSTORE PUSH1 0x40 DUP2 KECCAK256 SLOAD SWAP2 SWAP3 POP SWAP1 PUSH2 0x20AE SWAP1 DUP4 PUSH2 0x1EA1 JUMP JUMPDEST SWAP1 POP DUP2 ISZERO PUSH2 0x166A JUMPI DUP4 ISZERO PUSH2 0x20E5 JUMPI PUSH20 0xFFFFFFFFFFFFFFFFFFFFFFFFFFFFFFFFFFFFFFFF DUP7 AND PUSH1 0x0 SWAP1 DUP2 MSTORE PUSH1 0x3D PUSH1 0x20 MSTORE PUSH1 0x40 SWAP1 KECCAK256 DUP2 SWAP1 SSTORE JUMPDEST PUSH32 0x2468F9268C60AD90E2D49EDB0032C8A001E733AE888B3AB8E982EDF535BE1A76 DUP7 DUP4 PUSH1 0x40 MLOAD PUSH2 0x2116 SWAP3 SWAP2 SWAP1 PUSH2 0x3D08 JUMP JUMPDEST PUSH1 0x40 MLOAD DUP1 SWAP2 SUB SWAP1 LOG1 SWAP6 SWAP5 POP POP POP POP POP JUMP JUMPDEST PUSH20 0xFFFFFFFFFFFFFFFFFFFFFFFFFFFFFFFFFFFFFFFF DUP3 AND PUSH2 0x2174 JUMPI PUSH1 0x40 MLOAD PUSH32 0x8C379A000000000000000000000000000000000000000000000000000000000 DUP2 MSTORE PUSH1 0x4 ADD PUSH2 0x794 SWAP1 PUSH2 0x41C6 JUMP JUMPDEST PUSH2 0x2180 DUP3 PUSH1 0x0 DUP4 PUSH2 0x2DCF JUMP JUMPDEST PUSH2 0x21CA DUP2 PUSH1 0x40 MLOAD DUP1 PUSH1 0x60 ADD PUSH1 0x40 MSTORE DUP1 PUSH1 0x22 DUP2 MSTORE PUSH1 0x20 ADD PUSH2 0x4540 PUSH1 0x22 SWAP2 CODECOPY PUSH20 0xFFFFFFFFFFFFFFFFFFFFFFFFFFFFFFFFFFFFFFFF DUP6 AND PUSH1 0x0 SWAP1 DUP2 MSTORE PUSH1 0x20 DUP2 SWAP1 MSTORE PUSH1 0x40 SWAP1 KECCAK256 SLOAD SWAP2 SWAP1 PUSH2 0x2405 JUMP JUMPDEST PUSH20 0xFFFFFFFFFFFFFFFFFFFFFFFFFFFFFFFFFFFFFFFF DUP4 AND PUSH1 0x0 SWAP1 DUP2 MSTORE PUSH1 0x20 DUP2 SWAP1 MSTORE PUSH1 0x40 SWAP1 KECCAK256 SSTORE PUSH1 0x2 SLOAD PUSH2 0x21FD SWAP1 DUP3 PUSH2 0x2027 JUMP JUMPDEST PUSH1 0x2 SSTORE PUSH1 0x40 MLOAD PUSH1 0x0 SWAP1 PUSH20 0xFFFFFFFFFFFFFFFFFFFFFFFFFFFFFFFFFFFFFFFF DUP5 AND SWAP1 PUSH32 0xDDF252AD1BE2C89B69C2B068FC378DAA952BA7F163C4A11628F55A4DF523B3EF SWAP1 PUSH2 0x224B SWAP1 DUP6 SWAP1 PUSH2 0x3D39 JUMP JUMPDEST PUSH1 0x40 MLOAD DUP1 SWAP2 SUB SWAP1 LOG3 POP POP JUMP JUMPDEST PUSH2 0x1646 DUP4 PUSH4 0xA9059CBB PUSH1 0xE0 SHL DUP5 DUP5 PUSH1 0x40 MLOAD PUSH1 0x24 ADD PUSH2 0x2276 SWAP3 SWAP2 SWAP1 PUSH2 0x3D08 JUMP JUMPDEST PUSH1 0x40 DUP1 MLOAD PUSH32 0xFFFFFFFFFFFFFFFFFFFFFFFFFFFFFFFFFFFFFFFFFFFFFFFFFFFFFFFFFFFFFFE0 DUP2 DUP5 SUB ADD DUP2 MSTORE SWAP2 SWAP1 MSTORE PUSH1 0x20 DUP2 ADD DUP1 MLOAD PUSH28 0xFFFFFFFFFFFFFFFFFFFFFFFFFFFFFFFFFFFFFFFFFFFFFFFFFFFFFFFF AND PUSH32 0xFFFFFFFF00000000000000000000000000000000000000000000000000000000 SWAP1 SWAP4 AND SWAP3 SWAP1 SWAP3 OR SWAP1 SWAP2 MSTORE PUSH2 0x2F53 JUMP JUMPDEST PUSH1 0x0 PUSH2 0x2303 DUP5 PUSH2 0xBFC JUMP JUMPDEST SWAP1 POP PUSH2 0x2311 DUP5 DUP3 PUSH1 0x1 PUSH2 0x2069 JUMP JUMPDEST POP DUP3 PUSH20 0xFFFFFFFFFFFFFFFFFFFFFFFFFFFFFFFFFFFFFFFF AND DUP5 PUSH20 0xFFFFFFFFFFFFFFFFFFFFFFFFFFFFFFFFFFFFFFFF AND EQ PUSH2 0x23F4 JUMPI PUSH1 0x0 PUSH2 0x2350 DUP5 PUSH2 0xBFC JUMP JUMPDEST SWAP1 POP PUSH2 0x235E DUP5 DUP3 PUSH1 0x1 PUSH2 0x2069 JUMP JUMPDEST POP PUSH20 0xFFFFFFFFFFFFFFFFFFFFFFFFFFFFFFFFFFFFFFFF DUP6 AND PUSH1 0x0 SWAP1 DUP2 MSTORE PUSH1 0x3E PUSH1 0x20 MSTORE PUSH1 0x40 SWAP1 KECCAK256 SLOAD PUSH2 0x2391 DUP2 DUP6 DUP8 DUP6 PUSH2 0x1B9C JUMP JUMPDEST PUSH20 0xFFFFFFFFFFFFFFFFFFFFFFFFFFFFFFFFFFFFFFFF DUP7 AND PUSH1 0x0 SWAP1 DUP2 MSTORE PUSH1 0x3E PUSH1 0x20 MSTORE PUSH1 0x40 SWAP1 KECCAK256 SSTORE DUP3 DUP5 EQ DUP1 ISZERO PUSH2 0x23C5 JUMPI POP DUP1 ISZERO ISZERO JUMPDEST ISZERO PUSH2 0x23F1 JUMPI PUSH20 0xFFFFFFFFFFFFFFFFFFFFFFFFFFFFFFFFFFFFFFFF DUP7 AND PUSH1 0x0 SWAP1 DUP2 MSTORE PUSH1 0x3E PUSH1 0x20 MSTORE PUSH1 0x40 DUP2 KECCAK256 SSTORE JUMPDEST POP POP JUMPDEST PUSH2 0x23FF DUP5 DUP5 DUP5 PUSH2 0x30A0 JUMP JUMPDEST POP POP POP POP JUMP JUMPDEST PUSH1 0x0 DUP2 DUP5 DUP5 GT ISZERO PUSH2 0x2443 JUMPI PUSH1 0x40 MLOAD PUSH32 0x8C379A000000000000000000000000000000000000000000000000000000000 DUP2 MSTORE PUSH1 0x4 ADD PUSH2 0x794 SWAP2 SWAP1 PUSH2 0x3E44 JUMP JUMPDEST POP POP POP SWAP1 SUB SWAP1 JUMP JUMPDEST PUSH20 0xFFFFFFFFFFFFFFFFFFFFFFFFFFFFFFFFFFFFFFFF DUP3 AND PUSH2 0x2498 JUMPI PUSH1 0x40 MLOAD PUSH32 0x8C379A000000000000000000000000000000000000000000000000000000000 DUP2 MSTORE PUSH1 0x4 ADD PUSH2 0x794 SWAP1 PUSH2 0x43DF JUMP JUMPDEST PUSH1 0x0 PUSH2 0x24A3 DUP3 PUSH2 0x258E JUMP JUMPDEST SWAP3 POP POP POP PUSH1 0x0 PUSH2 0x24B2 DUP6 PUSH2 0xBFC JUMP JUMPDEST SWAP1 POP PUSH1 0x0 PUSH2 0x24C0 DUP7 DUP5 PUSH2 0x25C8 JUMP JUMPDEST PUSH20 0xFFFFFFFFFFFFFFFFFFFFFFFFFFFFFFFFFFFFFFFF DUP8 DUP2 AND PUSH1 0x0 SWAP1 DUP2 MSTORE PUSH1 0x20 DUP7 SWAP1 MSTORE PUSH1 0x40 SWAP1 KECCAK256 DUP1 SLOAD PUSH32 0xFFFFFFFFFFFFFFFFFFFFFFFF0000000000000000000000000000000000000000 AND SWAP2 DUP9 AND SWAP2 SWAP1 SWAP2 OR SWAP1 SSTORE SWAP1 POP PUSH2 0x2521 DUP2 DUP7 DUP5 DUP8 PUSH2 0x322A JUMP JUMPDEST DUP5 PUSH20 0xFFFFFFFFFFFFFFFFFFFFFFFFFFFFFFFFFFFFFFFF AND DUP7 PUSH20 0xFFFFFFFFFFFFFFFFFFFFFFFFFFFFFFFFFFFFFFFF AND PUSH32 0xE8D51C8E11BD570DB1734C8EC775785330E77007FEED45C43B608EF33FF914BD DUP7 PUSH1 0x40 MLOAD PUSH2 0x257E SWAP2 SWAP1 PUSH2 0x3E57 JUMP JUMPDEST PUSH1 0x40 MLOAD DUP1 SWAP2 SUB SWAP1 LOG3 POP POP POP POP POP POP JUMP JUMPDEST PUSH1 0x0 DUP1 DUP1 DUP1 DUP5 PUSH1 0x1 DUP2 GT ISZERO PUSH2 0x259F JUMPI INVALID JUMPDEST EQ ISZERO PUSH2 0x25B5 JUMPI POP PUSH1 0x6 SWAP2 POP PUSH1 0x7 SWAP1 POP PUSH1 0x3F PUSH2 0x25C1 JUMP JUMPDEST POP PUSH1 0x40 SWAP2 POP PUSH1 0x41 SWAP1 POP PUSH1 0x42 JUMPDEST SWAP2 SWAP4 SWAP1 SWAP3 POP JUMP JUMPDEST PUSH20 0xFFFFFFFFFFFFFFFFFFFFFFFFFFFFFFFFFFFFFFFF DUP1 DUP4 AND PUSH1 0x0 SWAP1 DUP2 MSTORE PUSH1 0x20 DUP4 SWAP1 MSTORE PUSH1 0x40 DUP2 KECCAK256 SLOAD SWAP1 SWAP2 AND DUP1 PUSH2 0xA3A JUMPI DUP4 SWAP2 POP POP PUSH2 0x751 JUMP JUMPDEST PUSH1 0x3 SWAP1 JUMP JUMPDEST PUSH1 0x0 DUP1 DUP1 JUMPDEST DUP4 MLOAD DUP2 LT ISZERO PUSH2 0x272B JUMPI PUSH1 0x0 PUSH1 0x3C PUSH1 0x0 DUP7 DUP5 DUP2 MLOAD DUP2 LT PUSH2 0x2625 JUMPI INVALID JUMPDEST PUSH1 0x20 SWAP1 DUP2 MUL SWAP2 SWAP1 SWAP2 ADD DUP2 ADD MLOAD MLOAD PUSH20 0xFFFFFFFFFFFFFFFFFFFFFFFFFFFFFFFFFFFFFFFF AND DUP3 MSTORE DUP2 ADD SWAP2 SWAP1 SWAP2 MSTORE PUSH1 0x40 ADD PUSH1 0x0 SWAP1 DUP2 KECCAK256 PUSH1 0x1 DUP2 ADD SLOAD DUP2 SLOAD DUP9 MLOAD SWAP3 SWAP5 POP PUSH2 0x26B0 SWAP3 PUSH16 0xFFFFFFFFFFFFFFFFFFFFFFFFFFFFFFFF DUP1 DUP4 AND SWAP3 PUSH17 0x100000000000000000000000000000000 SWAP1 DIV AND SWAP1 DUP11 SWAP1 DUP9 SWAP1 DUP2 LT PUSH2 0x269F JUMPI INVALID JUMPDEST PUSH1 0x20 MUL PUSH1 0x20 ADD ADD MLOAD PUSH1 0x40 ADD MLOAD PUSH2 0x3500 JUMP JUMPDEST SWAP1 POP PUSH2 0x271F PUSH2 0x2718 DUP8 DUP6 DUP2 MLOAD DUP2 LT PUSH2 0x26C4 JUMPI INVALID JUMPDEST PUSH1 0x20 MUL PUSH1 0x20 ADD ADD MLOAD PUSH1 0x20 ADD MLOAD DUP4 DUP6 PUSH1 0x2 ADD PUSH1 0x0 DUP13 PUSH20 0xFFFFFFFFFFFFFFFFFFFFFFFFFFFFFFFFFFFFFFFF AND PUSH20 0xFFFFFFFFFFFFFFFFFFFFFFFFFFFFFFFFFFFFFFFF AND DUP2 MSTORE PUSH1 0x20 ADD SWAP1 DUP2 MSTORE PUSH1 0x20 ADD PUSH1 0x0 KECCAK256 SLOAD PUSH2 0x3614 JUMP JUMPDEST DUP6 SWAP1 PUSH2 0x1EA1 JUMP JUMPDEST SWAP4 POP POP POP PUSH1 0x1 ADD PUSH2 0x260A JUMP JUMPDEST POP SWAP4 SWAP3 POP POP POP JUMP JUMPDEST PUSH2 0x23FF DUP5 PUSH4 0x23B872DD PUSH1 0xE0 SHL DUP6 DUP6 DUP6 PUSH1 0x40 MLOAD PUSH1 0x24 ADD PUSH2 0x2276 SWAP4 SWAP3 SWAP2 SWAP1 PUSH2 0x3CD7 JUMP JUMPDEST PUSH20 0xFFFFFFFFFFFFFFFFFFFFFFFFFFFFFFFFFFFFFFFF DUP1 DUP5 AND PUSH1 0x0 SWAP1 DUP2 MSTORE PUSH1 0x3C PUSH1 0x20 SWAP1 DUP2 MSTORE PUSH1 0x40 DUP1 DUP4 KECCAK256 SWAP4 DUP9 AND DUP4 MSTORE PUSH1 0x2 DUP5 ADD SWAP1 SWAP2 MSTORE DUP2 KECCAK256 SLOAD SWAP1 SWAP2 SWAP1 DUP3 DUP1 PUSH2 0x279C DUP9 DUP6 DUP9 PUSH2 0x2922 JUMP JUMPDEST SWAP1 POP DUP1 DUP4 EQ PUSH2 0x2821 JUMPI DUP7 ISZERO PUSH2 0x27B9 JUMPI PUSH2 0x27B6 DUP8 DUP3 DUP6 PUSH2 0x3614 JUMP JUMPDEST SWAP2 POP JUMPDEST PUSH20 0xFFFFFFFFFFFFFFFFFFFFFFFFFFFFFFFFFFFFFFFF DUP1 DUP11 AND PUSH1 0x0 DUP2 DUP2 MSTORE PUSH1 0x2 DUP8 ADD PUSH1 0x20 MSTORE PUSH1 0x40 SWAP1 DUP2 SWAP1 KECCAK256 DUP5 SWAP1 SSTORE MLOAD SWAP2 DUP11 AND SWAP2 PUSH32 0xBB123B5C06D5408BBEA3C4FEF481578175CFB432E3B482C6186F02ED9086585B SWAP1 PUSH2 0x2818 SWAP1 DUP6 SWAP1 PUSH2 0x3D39 JUMP JUMPDEST PUSH1 0x40 MLOAD DUP1 SWAP2 SUB SWAP1 LOG3 JUMPDEST POP SWAP8 SWAP7 POP POP POP POP POP POP POP JUMP JUMPDEST PUSH20 0xFFFFFFFFFFFFFFFFFFFFFFFFFFFFFFFFFFFFFFFF DUP3 AND PUSH2 0x287A JUMPI PUSH1 0x40 MLOAD PUSH32 0x8C379A000000000000000000000000000000000000000000000000000000000 DUP2 MSTORE PUSH1 0x4 ADD PUSH2 0x794 SWAP1 PUSH2 0x444D JUMP JUMPDEST PUSH2 0x2886 PUSH1 0x0 DUP4 DUP4 PUSH2 0x2DCF JUMP JUMPDEST PUSH1 0x2 SLOAD PUSH2 0x2893 SWAP1 DUP3 PUSH2 0x1EA1 JUMP JUMPDEST PUSH1 0x2 SSTORE PUSH20 0xFFFFFFFFFFFFFFFFFFFFFFFFFFFFFFFFFFFFFFFF DUP3 AND PUSH1 0x0 SWAP1 DUP2 MSTORE PUSH1 0x20 DUP2 SWAP1 MSTORE PUSH1 0x40 SWAP1 KECCAK256 SLOAD PUSH2 0x28C6 SWAP1 DUP3 PUSH2 0x1EA1 JUMP JUMPDEST PUSH20 0xFFFFFFFFFFFFFFFFFFFFFFFFFFFFFFFFFFFFFFFF DUP4 AND PUSH1 0x0 DUP2 DUP2 MSTORE PUSH1 0x20 DUP2 SWAP1 MSTORE PUSH1 0x40 DUP1 DUP3 KECCAK256 SWAP4 SWAP1 SWAP4 SSTORE SWAP2 MLOAD SWAP1 SWAP2 SWAP1 PUSH32 0xDDF252AD1BE2C89B69C2B068FC378DAA952BA7F163C4A11628F55A4DF523B3EF SWAP1 PUSH2 0x224B SWAP1 DUP6 SWAP1 PUSH2 0x3D39 JUMP JUMPDEST PUSH1 0x1 DUP3 ADD SLOAD DUP3 SLOAD PUSH1 0x0 SWAP2 SWAP1 PUSH17 0x100000000000000000000000000000000 SWAP1 DIV PUSH16 0xFFFFFFFFFFFFFFFFFFFFFFFFFFFFFFFF AND TIMESTAMP DUP2 EQ ISZERO PUSH2 0x2963 JUMPI POP SWAP1 POP PUSH2 0xA3A JUMP JUMPDEST DUP5 SLOAD PUSH1 0x0 SWAP1 PUSH2 0x2987 SWAP1 DUP5 SWAP1 PUSH16 0xFFFFFFFFFFFFFFFFFFFFFFFFFFFFFFFF AND DUP5 DUP9 PUSH2 0x3500 JUMP JUMPDEST SWAP1 POP DUP3 DUP2 EQ PUSH2 0x29E8 JUMPI DUP1 DUP7 PUSH1 0x1 ADD DUP2 SWAP1 SSTORE POP DUP7 PUSH20 0xFFFFFFFFFFFFFFFFFFFFFFFFFFFFFFFFFFFFFFFF AND PUSH32 0x5777CA300DFE5BEAD41006FBCE4389794DBC0ED8D6CCCEBFAF94630AA04184BC DUP3 PUSH1 0x40 MLOAD PUSH2 0x29DF SWAP2 SWAP1 PUSH2 0x3D39 JUMP JUMPDEST PUSH1 0x40 MLOAD DUP1 SWAP2 SUB SWAP1 LOG2 JUMPDEST DUP6 SLOAD PUSH16 0xFFFFFFFFFFFFFFFFFFFFFFFFFFFFFFFF TIMESTAMP DUP2 AND PUSH17 0x100000000000000000000000000000000 MUL SWAP2 AND OR DUP7 SSTORE SWAP3 POP POP POP SWAP4 SWAP3 POP POP POP JUMP JUMPDEST PUSH1 0x0 NUMBER DUP3 GT ISZERO PUSH2 0x2A5D JUMPI PUSH1 0x40 MLOAD PUSH32 0x8C379A000000000000000000000000000000000000000000000000000000000 DUP2 MSTORE PUSH1 0x4 ADD PUSH2 0x794 SWAP1 PUSH2 0x4314 JUMP JUMPDEST PUSH20 0xFFFFFFFFFFFFFFFFFFFFFFFFFFFFFFFFFFFFFFFF DUP4 AND PUSH1 0x0 SWAP1 DUP2 MSTORE PUSH1 0x20 DUP6 SWAP1 MSTORE PUSH1 0x40 SWAP1 KECCAK256 SLOAD DUP1 PUSH2 0x2A99 JUMPI PUSH2 0x2A91 DUP5 PUSH2 0xBFC JUMP JUMPDEST SWAP2 POP POP PUSH2 0xBF4 JUMP JUMPDEST PUSH20 0xFFFFFFFFFFFFFFFFFFFFFFFFFFFFFFFFFFFFFFFF DUP5 AND PUSH1 0x0 SWAP1 DUP2 MSTORE PUSH1 0x20 DUP8 DUP2 MSTORE PUSH1 0x40 DUP1 DUP4 KECCAK256 PUSH32 0xFFFFFFFFFFFFFFFFFFFFFFFFFFFFFFFFFFFFFFFFFFFFFFFFFFFFFFFFFFFFFFFF DUP6 ADD DUP5 MSTORE SWAP1 SWAP2 MSTORE SWAP1 KECCAK256 SLOAD PUSH16 0xFFFFFFFFFFFFFFFFFFFFFFFFFFFFFFFF AND DUP4 LT PUSH2 0x2B81 JUMPI PUSH20 0xFFFFFFFFFFFFFFFFFFFFFFFFFFFFFFFFFFFFFFFF DUP5 AND PUSH1 0x0 SWAP1 DUP2 MSTORE PUSH1 0x20 DUP8 DUP2 MSTORE PUSH1 0x40 DUP1 DUP4 KECCAK256 PUSH32 0xFFFFFFFFFFFFFFFFFFFFFFFFFFFFFFFFFFFFFFFFFFFFFFFFFFFFFFFFFFFFFFFF SWAP1 SWAP5 ADD DUP4 MSTORE SWAP3 SWAP1 MSTORE KECCAK256 SLOAD PUSH16 0xFFFFFFFFFFFFFFFFFFFFFFFFFFFFFFFF PUSH17 0x100000000000000000000000000000000 SWAP1 SWAP2 DIV AND SWAP1 POP PUSH2 0xBF4 JUMP JUMPDEST PUSH20 0xFFFFFFFFFFFFFFFFFFFFFFFFFFFFFFFFFFFFFFFF DUP5 AND PUSH1 0x0 SWAP1 DUP2 MSTORE PUSH1 0x20 DUP8 DUP2 MSTORE PUSH1 0x40 DUP1 DUP4 KECCAK256 DUP4 DUP1 MSTORE SWAP1 SWAP2 MSTORE SWAP1 KECCAK256 SLOAD PUSH16 0xFFFFFFFFFFFFFFFFFFFFFFFFFFFFFFFF AND DUP4 LT ISZERO PUSH2 0x2BD3 JUMPI PUSH1 0x0 SWAP2 POP POP PUSH2 0xBF4 JUMP JUMPDEST PUSH1 0x0 PUSH32 0xFFFFFFFFFFFFFFFFFFFFFFFFFFFFFFFFFFFFFFFFFFFFFFFFFFFFFFFFFFFFFFFF DUP3 ADD JUMPDEST DUP2 DUP2 GT ISZERO PUSH2 0x2CD8 JUMPI PUSH1 0x2 DUP3 DUP3 SUB DIV DUP2 SUB PUSH2 0x2C11 PUSH2 0x3898 JUMP JUMPDEST POP PUSH20 0xFFFFFFFFFFFFFFFFFFFFFFFFFFFFFFFFFFFFFFFF DUP8 AND PUSH1 0x0 SWAP1 DUP2 MSTORE PUSH1 0x20 DUP11 DUP2 MSTORE PUSH1 0x40 DUP1 DUP4 KECCAK256 DUP5 DUP5 MSTORE DUP3 MSTORE SWAP2 DUP3 SWAP1 KECCAK256 DUP3 MLOAD DUP1 DUP5 ADD SWAP1 SWAP4 MSTORE SLOAD PUSH16 0xFFFFFFFFFFFFFFFFFFFFFFFFFFFFFFFF DUP1 DUP3 AND DUP1 DUP6 MSTORE PUSH17 0x100000000000000000000000000000000 SWAP1 SWAP3 DIV AND SWAP2 DUP4 ADD SWAP2 SWAP1 SWAP2 MSTORE DUP8 EQ ISZERO PUSH2 0x2CA7 JUMPI PUSH1 0x20 ADD MLOAD PUSH16 0xFFFFFFFFFFFFFFFFFFFFFFFFFFFFFFFF AND SWAP5 POP PUSH2 0xBF4 SWAP4 POP POP POP POP JUMP JUMPDEST DUP1 MLOAD PUSH16 0xFFFFFFFFFFFFFFFFFFFFFFFFFFFFFFFF AND DUP8 GT ISZERO PUSH2 0x2CCA JUMPI DUP2 SWAP4 POP PUSH2 0x2CD1 JUMP JUMPDEST PUSH1 0x1 DUP3 SUB SWAP3 POP JUMPDEST POP POP PUSH2 0x2BF9 JUMP JUMPDEST POP PUSH20 0xFFFFFFFFFFFFFFFFFFFFFFFFFFFFFFFFFFFFFFFF DUP6 AND PUSH1 0x0 SWAP1 DUP2 MSTORE PUSH1 0x20 DUP9 DUP2 MSTORE PUSH1 0x40 DUP1 DUP4 KECCAK256 SWAP4 DUP4 MSTORE SWAP3 SWAP1 MSTORE KECCAK256 SLOAD PUSH16 0xFFFFFFFFFFFFFFFFFFFFFFFFFFFFFFFF PUSH17 0x100000000000000000000000000000000 SWAP1 SWAP2 DIV AND SWAP2 POP POP SWAP5 SWAP4 POP POP POP POP JUMP JUMPDEST PUSH1 0x0 DUP3 PUSH2 0x2D48 JUMPI POP PUSH1 0x0 PUSH2 0x751 JUMP JUMPDEST DUP3 DUP3 MUL DUP3 DUP5 DUP3 DUP2 PUSH2 0x2D55 JUMPI INVALID JUMPDEST DIV EQ PUSH2 0xA3A JUMPI PUSH1 0x40 MLOAD PUSH32 0x8C379A000000000000000000000000000000000000000000000000000000000 DUP2 MSTORE PUSH1 0x4 ADD PUSH2 0x794 SWAP1 PUSH2 0x4030 JUMP JUMPDEST PUSH1 0x0 PUSH2 0xA3A DUP4 DUP4 PUSH1 0x40 MLOAD DUP1 PUSH1 0x40 ADD PUSH1 0x40 MSTORE DUP1 PUSH1 0x1A DUP2 MSTORE PUSH1 0x20 ADD PUSH32 0x536166654D6174683A206469766973696F6E206279207A65726F000000000000 DUP2 MSTORE POP PUSH2 0x3636 JUMP JUMPDEST PUSH20 0xFFFFFFFFFFFFFFFFFFFFFFFFFFFFFFFFFFFFFFFF DUP1 DUP5 AND PUSH1 0x0 SWAP1 DUP2 MSTORE PUSH1 0x3F PUSH1 0x20 MSTORE PUSH1 0x40 DUP1 DUP3 KECCAK256 SLOAD DUP6 DUP5 AND DUP4 MSTORE SWAP2 KECCAK256 SLOAD SWAP1 DUP3 AND SWAP2 AND DUP2 PUSH2 0x2E0D JUMPI DUP5 SWAP2 POP JUMPDEST PUSH20 0xFFFFFFFFFFFFFFFFFFFFFFFFFFFFFFFFFFFFFFFF DUP2 AND PUSH2 0x2E2B JUMPI POP DUP3 JUMPDEST PUSH2 0x2E38 DUP3 DUP3 DUP6 PUSH1 0x0 PUSH2 0x322A JUMP JUMPDEST PUSH20 0xFFFFFFFFFFFFFFFFFFFFFFFFFFFFFFFFFFFFFFFF DUP1 DUP7 AND PUSH1 0x0 SWAP1 DUP2 MSTORE PUSH1 0x42 PUSH1 0x20 MSTORE PUSH1 0x40 DUP1 DUP3 KECCAK256 SLOAD DUP8 DUP5 AND DUP4 MSTORE SWAP2 KECCAK256 SLOAD SWAP1 DUP3 AND SWAP2 AND DUP2 PUSH2 0x2E76 JUMPI DUP7 SWAP2 POP JUMPDEST PUSH20 0xFFFFFFFFFFFFFFFFFFFFFFFFFFFFFFFFFFFFFFFF DUP2 AND PUSH2 0x2E94 JUMPI POP DUP5 JUMPDEST PUSH2 0x2EA1 DUP3 DUP3 DUP8 PUSH1 0x1 PUSH2 0x322A JUMP JUMPDEST PUSH1 0x8 SLOAD PUSH20 0xFFFFFFFFFFFFFFFFFFFFFFFFFFFFFFFFFFFFFFFF AND DUP1 ISZERO PUSH2 0x2F49 JUMPI PUSH1 0x40 MLOAD PUSH32 0x4A39314900000000000000000000000000000000000000000000000000000000 DUP2 MSTORE PUSH20 0xFFFFFFFFFFFFFFFFFFFFFFFFFFFFFFFFFFFFFFFF DUP3 AND SWAP1 PUSH4 0x4A393149 SWAP1 PUSH2 0x2F16 SWAP1 DUP12 SWAP1 DUP12 SWAP1 DUP12 SWAP1 PUSH1 0x4 ADD PUSH2 0x3CD7 JUMP JUMPDEST PUSH1 0x0 PUSH1 0x40 MLOAD DUP1 DUP4 SUB DUP2 PUSH1 0x0 DUP8 DUP1 EXTCODESIZE ISZERO DUP1 ISZERO PUSH2 0x2F30 JUMPI PUSH1 0x0 DUP1 REVERT JUMPDEST POP GAS CALL ISZERO DUP1 ISZERO PUSH2 0x2F44 JUMPI RETURNDATASIZE PUSH1 0x0 DUP1 RETURNDATACOPY RETURNDATASIZE PUSH1 0x0 REVERT JUMPDEST POP POP POP POP JUMPDEST POP POP POP POP POP POP POP POP JUMP JUMPDEST PUSH2 0x2F72 DUP3 PUSH20 0xFFFFFFFFFFFFFFFFFFFFFFFFFFFFFFFFFFFFFFFF AND PUSH2 0x3687 JUMP JUMPDEST PUSH2 0x2FA8 JUMPI PUSH1 0x40 MLOAD PUSH32 0x8C379A000000000000000000000000000000000000000000000000000000000 DUP2 MSTORE PUSH1 0x4 ADD PUSH2 0x794 SWAP1 PUSH2 0x4416 JUMP JUMPDEST PUSH1 0x0 PUSH1 0x60 DUP4 PUSH20 0xFFFFFFFFFFFFFFFFFFFFFFFFFFFFFFFFFFFFFFFF AND DUP4 PUSH1 0x40 MLOAD PUSH2 0x2FD1 SWAP2 SWAP1 PUSH2 0x3C64 JUMP JUMPDEST PUSH1 0x0 PUSH1 0x40 MLOAD DUP1 DUP4 SUB DUP2 PUSH1 0x0 DUP7 GAS CALL SWAP2 POP POP RETURNDATASIZE DUP1 PUSH1 0x0 DUP2 EQ PUSH2 0x300E JUMPI PUSH1 0x40 MLOAD SWAP2 POP PUSH1 0x1F NOT PUSH1 0x3F RETURNDATASIZE ADD AND DUP3 ADD PUSH1 0x40 MSTORE RETURNDATASIZE DUP3 MSTORE RETURNDATASIZE PUSH1 0x0 PUSH1 0x20 DUP5 ADD RETURNDATACOPY PUSH2 0x3013 JUMP JUMPDEST PUSH1 0x60 SWAP2 POP JUMPDEST POP SWAP2 POP SWAP2 POP DUP2 PUSH2 0x304F JUMPI PUSH1 0x40 MLOAD PUSH32 0x8C379A000000000000000000000000000000000000000000000000000000000 DUP2 MSTORE PUSH1 0x4 ADD PUSH2 0x794 SWAP1 PUSH2 0x3F8D JUMP JUMPDEST DUP1 MLOAD ISZERO PUSH2 0x23FF JUMPI DUP1 DUP1 PUSH1 0x20 ADD SWAP1 MLOAD DUP2 ADD SWAP1 PUSH2 0x306A SWAP2 SWAP1 PUSH2 0x3B68 JUMP JUMPDEST PUSH2 0x23FF JUMPI PUSH1 0x40 MLOAD PUSH32 0x8C379A000000000000000000000000000000000000000000000000000000000 DUP2 MSTORE PUSH1 0x4 ADD PUSH2 0x794 SWAP1 PUSH2 0x434B JUMP JUMPDEST PUSH20 0xFFFFFFFFFFFFFFFFFFFFFFFFFFFFFFFFFFFFFFFF DUP4 AND PUSH2 0x30ED JUMPI PUSH1 0x40 MLOAD PUSH32 0x8C379A000000000000000000000000000000000000000000000000000000000 DUP2 MSTORE PUSH1 0x4 ADD PUSH2 0x794 SWAP1 PUSH2 0x4223 JUMP JUMPDEST PUSH20 0xFFFFFFFFFFFFFFFFFFFFFFFFFFFFFFFFFFFFFFFF DUP3 AND PUSH2 0x313A JUMPI PUSH1 0x40 MLOAD PUSH32 0x8C379A000000000000000000000000000000000000000000000000000000000 DUP2 MSTORE PUSH1 0x4 ADD PUSH2 0x794 SWAP1 PUSH2 0x3E65 JUMP JUMPDEST PUSH2 0x3145 DUP4 DUP4 DUP4 PUSH2 0x2DCF JUMP JUMPDEST PUSH2 0x318F DUP2 PUSH1 0x40 MLOAD DUP1 PUSH1 0x60 ADD PUSH1 0x40 MSTORE DUP1 PUSH1 0x26 DUP2 MSTORE PUSH1 0x20 ADD PUSH2 0x4562 PUSH1 0x26 SWAP2 CODECOPY PUSH20 0xFFFFFFFFFFFFFFFFFFFFFFFFFFFFFFFFFFFFFFFF DUP7 AND PUSH1 0x0 SWAP1 DUP2 MSTORE PUSH1 0x20 DUP2 SWAP1 MSTORE PUSH1 0x40 SWAP1 KECCAK256 SLOAD SWAP2 SWAP1 PUSH2 0x2405 JUMP JUMPDEST PUSH20 0xFFFFFFFFFFFFFFFFFFFFFFFFFFFFFFFFFFFFFFFF DUP1 DUP6 AND PUSH1 0x0 SWAP1 DUP2 MSTORE PUSH1 0x20 DUP2 SWAP1 MSTORE PUSH1 0x40 DUP1 DUP3 KECCAK256 SWAP4 SWAP1 SWAP4 SSTORE SWAP1 DUP5 AND DUP2 MSTORE KECCAK256 SLOAD PUSH2 0x31CB SWAP1 DUP3 PUSH2 0x1EA1 JUMP JUMPDEST PUSH20 0xFFFFFFFFFFFFFFFFFFFFFFFFFFFFFFFFFFFFFFFF DUP1 DUP5 AND PUSH1 0x0 DUP2 DUP2 MSTORE PUSH1 0x20 DUP2 SWAP1 MSTORE PUSH1 0x40 SWAP1 DUP2 SWAP1 KECCAK256 SWAP4 SWAP1 SWAP4 SSTORE SWAP2 MLOAD SWAP1 DUP6 AND SWAP1 PUSH32 0xDDF252AD1BE2C89B69C2B068FC378DAA952BA7F163C4A11628F55A4DF523B3EF SWAP1 PUSH2 0x201A SWAP1 DUP6 SWAP1 PUSH2 0x3D39 JUMP JUMPDEST DUP3 PUSH20 0xFFFFFFFFFFFFFFFFFFFFFFFFFFFFFFFFFFFFFFFF AND DUP5 PUSH20 0xFFFFFFFFFFFFFFFFFFFFFFFFFFFFFFFFFFFFFFFF AND EQ ISZERO PUSH2 0x3263 JUMPI PUSH2 0x23FF JUMP JUMPDEST PUSH1 0x0 DUP1 PUSH2 0x326F DUP4 PUSH2 0x258E JUMP JUMPDEST POP SWAP1 SWAP3 POP SWAP1 POP PUSH20 0xFFFFFFFFFFFFFFFFFFFFFFFFFFFFFFFFFFFFFFFF DUP7 AND ISZERO PUSH2 0x33B9 JUMPI PUSH20 0xFFFFFFFFFFFFFFFFFFFFFFFFFFFFFFFFFFFFFFFF DUP7 AND PUSH1 0x0 SWAP1 DUP2 MSTORE PUSH1 0x20 DUP3 SWAP1 MSTORE PUSH1 0x40 DUP2 KECCAK256 SLOAD DUP1 ISZERO PUSH2 0x333B JUMPI PUSH20 0xFFFFFFFFFFFFFFFFFFFFFFFFFFFFFFFFFFFFFFFF DUP9 AND PUSH1 0x0 SWAP1 DUP2 MSTORE PUSH1 0x20 DUP6 DUP2 MSTORE PUSH1 0x40 DUP1 DUP4 KECCAK256 PUSH32 0xFFFFFFFFFFFFFFFFFFFFFFFFFFFFFFFFFFFFFFFFFFFFFFFFFFFFFFFFFFFFFFFF DUP6 ADD DUP5 MSTORE SWAP1 SWAP2 MSTORE SWAP1 KECCAK256 SLOAD PUSH17 0x100000000000000000000000000000000 SWAP1 DIV PUSH16 0xFFFFFFFFFFFFFFFFFFFFFFFFFFFFFFFF AND SWAP2 POP PUSH2 0x3347 JUMP JUMPDEST PUSH2 0x3344 DUP9 PUSH2 0xBFC JUMP JUMPDEST SWAP2 POP JUMPDEST PUSH2 0x335D DUP5 DUP5 DUP11 DUP6 PUSH2 0x3358 DUP2 DUP13 PUSH2 0x2027 JUMP JUMPDEST PUSH2 0x36C0 JUMP JUMPDEST PUSH20 0xFFFFFFFFFFFFFFFFFFFFFFFFFFFFFFFFFFFFFFFF DUP9 AND PUSH32 0xA0A19463EE116110C9B282012D9B65CC5522DC38A9520340CBAF3142E550127F PUSH2 0x339F DUP5 DUP10 PUSH2 0x2027 JUMP JUMPDEST DUP8 PUSH1 0x40 MLOAD PUSH2 0x33AE SWAP3 SWAP2 SWAP1 PUSH2 0x44F1 JUMP JUMPDEST PUSH1 0x40 MLOAD DUP1 SWAP2 SUB SWAP1 LOG2 POP POP JUMPDEST PUSH20 0xFFFFFFFFFFFFFFFFFFFFFFFFFFFFFFFFFFFFFFFF DUP6 AND ISZERO PUSH2 0x34F8 JUMPI PUSH20 0xFFFFFFFFFFFFFFFFFFFFFFFFFFFFFFFFFFFFFFFF DUP6 AND PUSH1 0x0 SWAP1 DUP2 MSTORE PUSH1 0x20 DUP3 SWAP1 MSTORE PUSH1 0x40 DUP2 KECCAK256 SLOAD DUP1 ISZERO PUSH2 0x347F JUMPI PUSH20 0xFFFFFFFFFFFFFFFFFFFFFFFFFFFFFFFFFFFFFFFF DUP8 AND PUSH1 0x0 SWAP1 DUP2 MSTORE PUSH1 0x20 DUP6 DUP2 MSTORE PUSH1 0x40 DUP1 DUP4 KECCAK256 PUSH32 0xFFFFFFFFFFFFFFFFFFFFFFFFFFFFFFFFFFFFFFFFFFFFFFFFFFFFFFFFFFFFFFFF DUP6 ADD DUP5 MSTORE SWAP1 SWAP2 MSTORE SWAP1 KECCAK256 SLOAD PUSH17 0x100000000000000000000000000000000 SWAP1 DIV PUSH16 0xFFFFFFFFFFFFFFFFFFFFFFFFFFFFFFFF AND SWAP2 POP PUSH2 0x348B JUMP JUMPDEST PUSH2 0x3488 DUP8 PUSH2 0xBFC JUMP JUMPDEST SWAP2 POP JUMPDEST PUSH2 0x349C DUP5 DUP5 DUP10 DUP6 PUSH2 0x3358 DUP2 DUP13 PUSH2 0x1EA1 JUMP JUMPDEST PUSH20 0xFFFFFFFFFFFFFFFFFFFFFFFFFFFFFFFFFFFFFFFF DUP8 AND PUSH32 0xA0A19463EE116110C9B282012D9B65CC5522DC38A9520340CBAF3142E550127F PUSH2 0x34DE DUP5 DUP10 PUSH2 0x1EA1 JUMP JUMPDEST DUP8 PUSH1 0x40 MLOAD PUSH2 0x34ED SWAP3 SWAP2 SWAP1 PUSH2 0x44F1 JUMP JUMPDEST PUSH1 0x40 MLOAD DUP1 SWAP2 SUB SWAP1 LOG2 POP POP JUMPDEST POP POP POP POP POP POP JUMP JUMPDEST PUSH1 0x0 DUP4 ISZERO DUP1 PUSH2 0x350D JUMPI POP DUP2 ISZERO JUMPDEST DUP1 PUSH2 0x3529 JUMPI POP TIMESTAMP DUP4 PUSH16 0xFFFFFFFFFFFFFFFFFFFFFFFFFFFFFFFF AND EQ JUMPDEST DUP1 PUSH2 0x3566 JUMPI POP PUSH32 0x0 DUP4 PUSH16 0xFFFFFFFFFFFFFFFFFFFFFFFFFFFFFFFF AND LT ISZERO JUMPDEST ISZERO PUSH2 0x3572 JUMPI POP DUP4 PUSH2 0xBF4 JUMP JUMPDEST PUSH1 0x0 PUSH32 0x0 TIMESTAMP GT PUSH2 0x35A1 JUMPI TIMESTAMP PUSH2 0x35C3 JUMP JUMPDEST PUSH32 0x0 JUMPDEST SWAP1 POP PUSH1 0x0 PUSH2 0x35E3 DUP3 PUSH16 0xFFFFFFFFFFFFFFFFFFFFFFFFFFFFFFFF DUP8 AND PUSH2 0x2027 JUMP JUMPDEST SWAP1 POP PUSH2 0x3609 DUP8 PUSH2 0x1C84 DUP7 PUSH2 0x1C8A PUSH8 0xDE0B6B3A7640000 PUSH2 0x3603 DUP13 DUP9 PUSH2 0x2D39 JUMP JUMPDEST SWAP1 PUSH2 0x2D39 JUMP JUMPDEST SWAP8 SWAP7 POP POP POP POP POP POP POP JUMP JUMPDEST PUSH1 0x0 PUSH2 0xBF4 PUSH8 0xDE0B6B3A7640000 PUSH2 0x1C8A PUSH2 0x362F DUP7 DUP7 PUSH2 0x2027 JUMP JUMPDEST DUP8 SWAP1 PUSH2 0x2D39 JUMP JUMPDEST PUSH1 0x0 DUP2 DUP4 PUSH2 0x3671 JUMPI PUSH1 0x40 MLOAD PUSH32 0x8C379A000000000000000000000000000000000000000000000000000000000 DUP2 MSTORE PUSH1 0x4 ADD PUSH2 0x794 SWAP2 SWAP1 PUSH2 0x3E44 JUMP JUMPDEST POP PUSH1 0x0 DUP4 DUP6 DUP2 PUSH2 0x367D JUMPI INVALID JUMPDEST DIV SWAP6 SWAP5 POP POP POP POP POP JUMP JUMPDEST PUSH1 0x0 DUP2 EXTCODEHASH PUSH32 0xC5D2460186F7233C927E7DB2DCC703C0E500B653CA82273B7BFAD8045D85A470 DUP2 DUP2 EQ DUP1 ISZERO SWAP1 PUSH2 0xBF4 JUMPI POP POP ISZERO ISZERO SWAP3 SWAP2 POP POP JUMP JUMPDEST PUSH20 0xFFFFFFFFFFFFFFFFFFFFFFFFFFFFFFFFFFFFFFFF DUP4 AND PUSH1 0x0 SWAP1 DUP2 MSTORE PUSH1 0x20 DUP6 DUP2 MSTORE PUSH1 0x40 DUP1 DUP4 KECCAK256 SLOAD SWAP2 DUP9 SWAP1 MSTORE SWAP1 SWAP2 KECCAK256 NUMBER SWAP2 SWAP1 DUP2 ISZERO DUP1 ISZERO SWAP1 PUSH2 0x3745 JUMPI POP PUSH32 0xFFFFFFFFFFFFFFFFFFFFFFFFFFFFFFFFFFFFFFFFFFFFFFFFFFFFFFFFFFFFFFFF DUP3 ADD PUSH1 0x0 SWAP1 DUP2 MSTORE PUSH1 0x20 DUP3 SWAP1 MSTORE PUSH1 0x40 SWAP1 KECCAK256 SLOAD PUSH16 0xFFFFFFFFFFFFFFFFFFFFFFFFFFFFFFFF DUP5 DUP2 AND SWAP2 AND EQ JUMPDEST ISZERO PUSH2 0x37AE JUMPI PUSH32 0xFFFFFFFFFFFFFFFFFFFFFFFFFFFFFFFFFFFFFFFFFFFFFFFFFFFFFFFFFFFFFFFF DUP3 ADD PUSH1 0x0 SWAP1 DUP2 MSTORE PUSH1 0x20 DUP3 SWAP1 MSTORE PUSH1 0x40 SWAP1 KECCAK256 DUP1 SLOAD PUSH16 0xFFFFFFFFFFFFFFFFFFFFFFFFFFFFFFFF DUP1 DUP8 AND PUSH17 0x100000000000000000000000000000000 MUL SWAP2 AND OR SWAP1 SSTORE PUSH2 0x2F49 JUMP JUMPDEST PUSH1 0x40 DUP1 MLOAD DUP1 DUP3 ADD DUP3 MSTORE PUSH16 0xFFFFFFFFFFFFFFFFFFFFFFFFFFFFFFFF DUP1 DUP7 AND DUP3 MSTORE DUP7 DUP2 AND PUSH1 0x20 DUP1 DUP5 ADD SWAP2 DUP3 MSTORE PUSH1 0x0 DUP8 DUP2 MSTORE DUP7 DUP3 MSTORE DUP6 DUP2 KECCAK256 SWAP5 MLOAD DUP6 SLOAD SWAP4 MLOAD DUP6 AND PUSH17 0x100000000000000000000000000000000 MUL SWAP1 DUP6 AND PUSH32 0xFFFFFFFFFFFFFFFFFFFFFFFFFFFFFFFF00000000000000000000000000000000 SWAP1 SWAP5 AND SWAP4 SWAP1 SWAP4 OR SWAP1 SWAP4 AND SWAP2 SWAP1 SWAP2 OR SWAP1 SWAP3 SSTORE PUSH20 0xFFFFFFFFFFFFFFFFFFFFFFFFFFFFFFFFFFFFFFFF DUP10 AND DUP2 MSTORE SWAP1 DUP10 SWAP1 MSTORE KECCAK256 PUSH1 0x1 DUP4 ADD SWAP1 SSTORE POP POP POP POP POP POP POP POP JUMP JUMPDEST PUSH1 0x40 MLOAD DUP1 PUSH1 0x60 ADD PUSH1 0x40 MSTORE DUP1 PUSH1 0x0 PUSH20 0xFFFFFFFFFFFFFFFFFFFFFFFFFFFFFFFFFFFFFFFF AND DUP2 MSTORE PUSH1 0x20 ADD PUSH1 0x0 DUP2 MSTORE PUSH1 0x20 ADD PUSH1 0x0 DUP2 MSTORE POP SWAP1 JUMP JUMPDEST PUSH1 0x40 DUP1 MLOAD DUP1 DUP3 ADD SWAP1 SWAP2 MSTORE PUSH1 0x0 DUP1 DUP3 MSTORE PUSH1 0x20 DUP3 ADD MSTORE SWAP1 JUMP JUMPDEST DUP1 CALLDATALOAD PUSH20 0xFFFFFFFFFFFFFFFFFFFFFFFFFFFFFFFFFFFFFFFF DUP2 AND DUP2 EQ PUSH2 0xC23 JUMPI PUSH1 0x0 DUP1 REVERT JUMPDEST DUP1 CALLDATALOAD PUSH1 0x2 DUP2 LT PUSH2 0xC23 JUMPI PUSH1 0x0 DUP1 REVERT JUMPDEST DUP1 CALLDATALOAD PUSH1 0xFF DUP2 AND DUP2 EQ PUSH2 0xC23 JUMPI PUSH1 0x0 DUP1 REVERT JUMPDEST PUSH1 0x0 PUSH1 0x20 DUP3 DUP5 SUB SLT ISZERO PUSH2 0x3904 JUMPI DUP1 DUP2 REVERT JUMPDEST PUSH2 0xA3A DUP3 PUSH2 0x38AF JUMP JUMPDEST PUSH1 0x0 DUP1 PUSH1 0x40 DUP4 DUP6 SUB SLT ISZERO PUSH2 0x391F JUMPI DUP1 DUP2 REVERT JUMPDEST PUSH2 0x3928 DUP4 PUSH2 0x38AF JUMP JUMPDEST SWAP2 POP PUSH2 0x3936 PUSH1 0x20 DUP5 ADD PUSH2 0x38AF JUMP JUMPDEST SWAP1 POP SWAP3 POP SWAP3 SWAP1 POP JUMP JUMPDEST PUSH1 0x0 DUP1 PUSH1 0x0 PUSH1 0x60 DUP5 DUP7 SUB SLT ISZERO PUSH2 0x3953 JUMPI DUP1 DUP2 REVERT JUMPDEST PUSH2 0x395C DUP5 PUSH2 0x38AF JUMP JUMPDEST SWAP3 POP PUSH2 0x396A PUSH1 0x20 DUP6 ADD PUSH2 0x38AF JUMP JUMPDEST SWAP2 POP PUSH1 0x40 DUP5 ADD CALLDATALOAD SWAP1 POP SWAP3 POP SWAP3 POP SWAP3 JUMP JUMPDEST PUSH1 0x0 DUP1 PUSH1 0x0 DUP1 PUSH1 0x0 DUP1 PUSH1 0x0 PUSH1 0xE0 DUP9 DUP11 SUB SLT ISZERO PUSH2 0x3994 JUMPI DUP3 DUP4 REVERT JUMPDEST PUSH2 0x399D DUP9 PUSH2 0x38AF JUMP JUMPDEST SWAP7 POP PUSH2 0x39AB PUSH1 0x20 DUP10 ADD PUSH2 0x38AF JUMP JUMPDEST SWAP6 POP PUSH1 0x40 DUP9 ADD CALLDATALOAD SWAP5 POP PUSH1 0x60 DUP9 ADD CALLDATALOAD SWAP4 POP PUSH2 0x39C7 PUSH1 0x80 DUP10 ADD PUSH2 0x38E2 JUMP JUMPDEST SWAP3 POP PUSH1 0xA0 DUP9 ADD CALLDATALOAD SWAP2 POP PUSH1 0xC0 DUP9 ADD CALLDATALOAD SWAP1 POP SWAP3 SWAP6 SWAP9 SWAP2 SWAP5 SWAP8 POP SWAP3 SWAP6 POP JUMP JUMPDEST PUSH1 0x0 DUP1 PUSH1 0x40 DUP4 DUP6 SUB SLT ISZERO PUSH2 0x39F5 JUMPI DUP2 DUP3 REVERT JUMPDEST PUSH2 0x39FE DUP4 PUSH2 0x38AF JUMP JUMPDEST SWAP2 POP PUSH2 0x3936 PUSH1 0x20 DUP5 ADD PUSH2 0x38D3 JUMP JUMPDEST PUSH1 0x0 DUP1 PUSH1 0x0 DUP1 PUSH1 0x0 DUP1 PUSH1 0x0 PUSH1 0xE0 DUP9 DUP11 SUB SLT ISZERO PUSH2 0x3A26 JUMPI DUP3 DUP4 REVERT JUMPDEST PUSH2 0x3A2F DUP9 PUSH2 0x38AF JUMP JUMPDEST SWAP7 POP PUSH2 0x39AB PUSH1 0x20 DUP10 ADD PUSH2 0x38D3 JUMP JUMPDEST PUSH1 0x0 DUP1 PUSH1 0x40 DUP4 DUP6 SUB SLT ISZERO PUSH2 0x3A4F JUMPI DUP2 DUP3 REVERT JUMPDEST PUSH2 0x3A58 DUP4 PUSH2 0x38AF JUMP JUMPDEST SWAP5 PUSH1 0x20 SWAP4 SWAP1 SWAP4 ADD CALLDATALOAD SWAP4 POP POP POP JUMP JUMPDEST PUSH1 0x0 DUP1 PUSH1 0x0 PUSH1 0x60 DUP5 DUP7 SUB SLT ISZERO PUSH2 0x3A7A JUMPI DUP3 DUP4 REVERT JUMPDEST PUSH2 0x3A83 DUP5 PUSH2 0x38AF JUMP JUMPDEST SWAP3 POP PUSH1 0x20 DUP5 ADD CALLDATALOAD SWAP2 POP PUSH2 0x3A98 PUSH1 0x40 DUP6 ADD PUSH2 0x38D3 JUMP JUMPDEST SWAP1 POP SWAP3 POP SWAP3 POP SWAP3 JUMP JUMPDEST PUSH1 0x0 DUP1 PUSH1 0x0 DUP1 PUSH1 0x0 DUP1 PUSH1 0xC0 DUP8 DUP10 SUB SLT ISZERO PUSH2 0x3AB9 JUMPI DUP2 DUP3 REVERT JUMPDEST PUSH2 0x3AC2 DUP8 PUSH2 0x38AF JUMP JUMPDEST SWAP6 POP PUSH1 0x20 DUP8 ADD CALLDATALOAD SWAP5 POP PUSH1 0x40 DUP8 ADD CALLDATALOAD SWAP4 POP PUSH2 0x3ADE PUSH1 0x60 DUP9 ADD PUSH2 0x38E2 JUMP JUMPDEST SWAP3 POP PUSH1 0x80 DUP8 ADD CALLDATALOAD SWAP2 POP PUSH1 0xA0 DUP8 ADD CALLDATALOAD SWAP1 POP SWAP3 SWAP6 POP SWAP3 SWAP6 POP SWAP3 SWAP6 JUMP JUMPDEST PUSH1 0x0 DUP1 PUSH1 0x20 DUP4 DUP6 SUB SLT ISZERO PUSH2 0x3B0A JUMPI DUP2 DUP3 REVERT JUMPDEST DUP3 CALLDATALOAD PUSH8 0xFFFFFFFFFFFFFFFF DUP1 DUP3 GT ISZERO PUSH2 0x3B21 JUMPI DUP4 DUP5 REVERT JUMPDEST DUP2 DUP6 ADD SWAP2 POP DUP6 PUSH1 0x1F DUP4 ADD SLT PUSH2 0x3B34 JUMPI DUP4 DUP5 REVERT JUMPDEST DUP2 CALLDATALOAD DUP2 DUP2 GT ISZERO PUSH2 0x3B42 JUMPI DUP5 DUP6 REVERT JUMPDEST DUP7 PUSH1 0x20 PUSH1 0x60 DUP4 MUL DUP6 ADD ADD GT ISZERO PUSH2 0x3B56 JUMPI DUP5 DUP6 REVERT JUMPDEST PUSH1 0x20 SWAP3 SWAP1 SWAP3 ADD SWAP7 SWAP2 SWAP6 POP SWAP1 SWAP4 POP POP POP POP JUMP JUMPDEST PUSH1 0x0 PUSH1 0x20 DUP3 DUP5 SUB SLT ISZERO PUSH2 0x3B79 JUMPI DUP1 DUP2 REVERT JUMPDEST DUP2 MLOAD DUP1 ISZERO ISZERO DUP2 EQ PUSH2 0xA3A JUMPI DUP2 DUP3 REVERT JUMPDEST PUSH1 0x0 PUSH1 0x20 DUP3 DUP5 SUB SLT ISZERO PUSH2 0x3B99 JUMPI DUP1 DUP2 REVERT JUMPDEST DUP2 CALLDATALOAD PUSH16 0xFFFFFFFFFFFFFFFFFFFFFFFFFFFFFFFF DUP2 AND DUP2 EQ PUSH2 0xA3A JUMPI DUP2 DUP3 REVERT JUMPDEST PUSH1 0x0 PUSH1 0x20 DUP3 DUP5 SUB SLT ISZERO PUSH2 0x3BC9 JUMPI DUP1 DUP2 REVERT JUMPDEST POP CALLDATALOAD SWAP2 SWAP1 POP JUMP JUMPDEST PUSH1 0x0 DUP1 PUSH1 0x0 DUP1 PUSH1 0x80 DUP6 DUP8 SUB SLT ISZERO PUSH2 0x3BE5 JUMPI DUP2 DUP3 REVERT JUMPDEST DUP5 CALLDATALOAD SWAP4 POP PUSH1 0x20 DUP6 ADD CALLDATALOAD SWAP3 POP PUSH2 0x3BFC PUSH1 0x40 DUP7 ADD PUSH2 0x38AF JUMP JUMPDEST SWAP4 SWAP7 SWAP3 SWAP6 POP SWAP3 SWAP4 PUSH1 0x60 ADD CALLDATALOAD SWAP3 POP POP JUMP JUMPDEST PUSH1 0x0 DUP2 MLOAD DUP1 DUP5 MSTORE PUSH2 0x3C24 DUP2 PUSH1 0x20 DUP7 ADD PUSH1 0x20 DUP7 ADD PUSH2 0x4513 JUMP JUMPDEST PUSH1 0x1F ADD PUSH32 0xFFFFFFFFFFFFFFFFFFFFFFFFFFFFFFFFFFFFFFFFFFFFFFFFFFFFFFFFFFFFFFE0 AND SWAP3 SWAP1 SWAP3 ADD PUSH1 0x20 ADD SWAP3 SWAP2 POP POP JUMP JUMPDEST PUSH1 0x2 DUP2 LT PUSH2 0x3C60 JUMPI INVALID JUMPDEST SWAP1 MSTORE JUMP JUMPDEST PUSH1 0x0 DUP3 MLOAD PUSH2 0x3C76 DUP2 DUP5 PUSH1 0x20 DUP8 ADD PUSH2 0x4513 JUMP JUMPDEST SWAP2 SWAP1 SWAP2 ADD SWAP3 SWAP2 POP POP JUMP JUMPDEST PUSH32 0x1901000000000000000000000000000000000000000000000000000000000000 DUP2 MSTORE PUSH1 0x2 DUP2 ADD SWAP3 SWAP1 SWAP3 MSTORE PUSH1 0x22 DUP3 ADD MSTORE PUSH1 0x42 ADD SWAP1 JUMP JUMPDEST PUSH20 0xFFFFFFFFFFFFFFFFFFFFFFFFFFFFFFFFFFFFFFFF SWAP2 SWAP1 SWAP2 AND DUP2 MSTORE PUSH1 0x20 ADD SWAP1 JUMP JUMPDEST PUSH20 0xFFFFFFFFFFFFFFFFFFFFFFFFFFFFFFFFFFFFFFFF SWAP4 DUP5 AND DUP2 MSTORE SWAP2 SWAP1 SWAP3 AND PUSH1 0x20 DUP3 ADD MSTORE PUSH1 0x40 DUP2 ADD SWAP2 SWAP1 SWAP2 MSTORE PUSH1 0x60 ADD SWAP1 JUMP JUMPDEST PUSH20 0xFFFFFFFFFFFFFFFFFFFFFFFFFFFFFFFFFFFFFFFF SWAP3 SWAP1 SWAP3 AND DUP3 MSTORE PUSH1 0x20 DUP3 ADD MSTORE PUSH1 0x40 ADD SWAP1 JUMP JUMPDEST SWAP1 ISZERO ISZERO DUP2 MSTORE PUSH1 0x20 ADD SWAP1 JUMP JUMPDEST SWAP1 DUP2 MSTORE PUSH1 0x20 ADD SWAP1 JUMP JUMPDEST SWAP6 DUP7 MSTORE PUSH20 0xFFFFFFFFFFFFFFFFFFFFFFFFFFFFFFFFFFFFFFFF SWAP5 DUP6 AND PUSH1 0x20 DUP8 ADD MSTORE SWAP3 SWAP1 SWAP4 AND PUSH1 0x40 DUP6 ADD MSTORE PUSH1 0x60 DUP5 ADD MSTORE PUSH1 0x80 DUP4 ADD SWAP2 SWAP1 SWAP2 MSTORE PUSH1 0xA0 DUP3 ADD MSTORE PUSH1 0xC0 ADD SWAP1 JUMP JUMPDEST SWAP4 DUP5 MSTORE PUSH20 0xFFFFFFFFFFFFFFFFFFFFFFFFFFFFFFFFFFFFFFFF SWAP3 SWAP1 SWAP3 AND PUSH1 0x20 DUP5 ADD MSTORE PUSH1 0x40 DUP4 ADD MSTORE PUSH1 0x60 DUP3 ADD MSTORE PUSH1 0x80 ADD SWAP1 JUMP JUMPDEST SWAP5 DUP6 MSTORE PUSH20 0xFFFFFFFFFFFFFFFFFFFFFFFFFFFFFFFFFFFFFFFF SWAP4 SWAP1 SWAP4 AND PUSH1 0x20 DUP6 ADD MSTORE PUSH1 0x40 DUP5 ADD SWAP2 SWAP1 SWAP2 MSTORE PUSH1 0x60 DUP4 ADD MSTORE PUSH1 0x80 DUP3 ADD MSTORE PUSH1 0xA0 ADD SWAP1 JUMP JUMPDEST SWAP5 DUP6 MSTORE PUSH1 0x20 DUP6 ADD SWAP4 SWAP1 SWAP4 MSTORE PUSH1 0x40 DUP5 ADD SWAP2 SWAP1 SWAP2 MSTORE PUSH1 0x60 DUP4 ADD MSTORE PUSH20 0xFFFFFFFFFFFFFFFFFFFFFFFFFFFFFFFFFFFFFFFF AND PUSH1 0x80 DUP3 ADD MSTORE PUSH1 0xA0 ADD SWAP1 JUMP JUMPDEST SWAP4 DUP5 MSTORE PUSH1 0xFF SWAP3 SWAP1 SWAP3 AND PUSH1 0x20 DUP5 ADD MSTORE PUSH1 0x40 DUP4 ADD MSTORE PUSH1 0x60 DUP3 ADD MSTORE PUSH1 0x80 ADD SWAP1 JUMP JUMPDEST PUSH1 0x0 PUSH1 0x20 DUP3 MSTORE PUSH2 0xA3A PUSH1 0x20 DUP4 ADD DUP5 PUSH2 0x3C0C JUMP JUMPDEST PUSH1 0x20 DUP2 ADD PUSH2 0x751 DUP3 DUP5 PUSH2 0x3C56 JUMP JUMPDEST PUSH1 0x20 DUP1 DUP3 MSTORE PUSH1 0x23 SWAP1 DUP3 ADD MSTORE PUSH32 0x45524332303A207472616E7366657220746F20746865207A65726F2061646472 PUSH1 0x40 DUP3 ADD MSTORE PUSH32 0x6573730000000000000000000000000000000000000000000000000000000000 PUSH1 0x60 DUP3 ADD MSTORE PUSH1 0x80 ADD SWAP1 JUMP JUMPDEST PUSH1 0x20 DUP1 DUP3 MSTORE PUSH1 0x22 SWAP1 DUP3 ADD MSTORE PUSH32 0x45524332303A20617070726F766520746F20746865207A65726F206164647265 PUSH1 0x40 DUP3 ADD MSTORE PUSH32 0x7373000000000000000000000000000000000000000000000000000000000000 PUSH1 0x60 DUP3 ADD MSTORE PUSH1 0x80 ADD SWAP1 JUMP JUMPDEST PUSH1 0x20 DUP1 DUP3 MSTORE PUSH1 0x1B SWAP1 DUP3 ADD MSTORE PUSH32 0x536166654D6174683A206164646974696F6E206F766572666C6F770000000000 PUSH1 0x40 DUP3 ADD MSTORE PUSH1 0x60 ADD SWAP1 JUMP JUMPDEST PUSH1 0x20 DUP1 DUP3 MSTORE PUSH1 0x13 SWAP1 DUP3 ADD MSTORE PUSH32 0x494E56414C49445F5A45524F5F414D4F554E5400000000000000000000000000 PUSH1 0x40 DUP3 ADD MSTORE PUSH1 0x60 ADD SWAP1 JUMP JUMPDEST PUSH1 0x20 DUP1 DUP3 MSTORE DUP2 DUP2 ADD MSTORE PUSH32 0x5361666545524332303A206C6F772D6C6576656C2063616C6C206661696C6564 PUSH1 0x40 DUP3 ADD MSTORE PUSH1 0x60 ADD SWAP1 JUMP JUMPDEST PUSH1 0x20 DUP1 DUP3 MSTORE PUSH1 0x11 SWAP1 DUP3 ADD MSTORE PUSH32 0x494E56414C49445F5349474E4154555245000000000000000000000000000000 PUSH1 0x40 DUP3 ADD MSTORE PUSH1 0x60 ADD SWAP1 JUMP JUMPDEST PUSH1 0x20 DUP1 DUP3 MSTORE PUSH1 0x15 SWAP1 DUP3 ADD MSTORE PUSH32 0x494E53554646494349454E545F434F4F4C444F574E0000000000000000000000 PUSH1 0x40 DUP3 ADD MSTORE PUSH1 0x60 ADD SWAP1 JUMP JUMPDEST PUSH1 0x20 DUP1 DUP3 MSTORE PUSH1 0x21 SWAP1 DUP3 ADD MSTORE PUSH32 0x536166654D6174683A206D756C7469706C69636174696F6E206F766572666C6F PUSH1 0x40 DUP3 ADD MSTORE PUSH32 0x7700000000000000000000000000000000000000000000000000000000000000 PUSH1 0x60 DUP3 ADD MSTORE PUSH1 0x80 ADD SWAP1 JUMP JUMPDEST PUSH1 0x20 DUP1 DUP3 MSTORE PUSH1 0x2E SWAP1 DUP3 ADD MSTORE PUSH32 0x436F6E747261637420696E7374616E63652068617320616C7265616479206265 PUSH1 0x40 DUP3 ADD MSTORE PUSH32 0x656E20696E697469616C697A6564000000000000000000000000000000000000 PUSH1 0x60 DUP3 ADD MSTORE PUSH1 0x80 ADD SWAP1 JUMP JUMPDEST PUSH1 0x20 DUP1 DUP3 MSTORE PUSH1 0x12 SWAP1 DUP3 ADD MSTORE PUSH32 0x494E56414C49445F45585049524154494F4E0000000000000000000000000000 PUSH1 0x40 DUP3 ADD MSTORE PUSH1 0x60 ADD SWAP1 JUMP JUMPDEST PUSH1 0x20 DUP1 DUP3 MSTORE PUSH1 0xD SWAP1 DUP3 ADD MSTORE PUSH32 0x494E56414C49445F4E4F4E434500000000000000000000000000000000000000 PUSH1 0x40 DUP3 ADD MSTORE PUSH1 0x60 ADD SWAP1 JUMP JUMPDEST PUSH1 0x20 DUP1 DUP3 MSTORE PUSH1 0x15 SWAP1 DUP3 ADD MSTORE PUSH32 0x4F4E4C595F454D495353494F4E5F4D414E414745520000000000000000000000 PUSH1 0x40 DUP3 ADD MSTORE PUSH1 0x60 ADD SWAP1 JUMP JUMPDEST PUSH1 0x20 DUP1 DUP3 MSTORE PUSH1 0xD SWAP1 DUP3 ADD MSTORE PUSH32 0x494E56414C49445F4F574E455200000000000000000000000000000000000000 PUSH1 0x40 DUP3 ADD MSTORE PUSH1 0x60 ADD SWAP1 JUMP JUMPDEST PUSH1 0x20 DUP1 DUP3 MSTORE PUSH1 0x21 SWAP1 DUP3 ADD MSTORE PUSH32 0x45524332303A206275726E2066726F6D20746865207A65726F20616464726573 PUSH1 0x40 DUP3 ADD MSTORE PUSH32 0x7300000000000000000000000000000000000000000000000000000000000000 PUSH1 0x60 DUP3 ADD MSTORE PUSH1 0x80 ADD SWAP1 JUMP JUMPDEST PUSH1 0x20 DUP1 DUP3 MSTORE PUSH1 0x25 SWAP1 DUP3 ADD MSTORE PUSH32 0x45524332303A207472616E736665722066726F6D20746865207A65726F206164 PUSH1 0x40 DUP3 ADD MSTORE PUSH32 0x6472657373000000000000000000000000000000000000000000000000000000 PUSH1 0x60 DUP3 ADD MSTORE PUSH1 0x80 ADD SWAP1 JUMP JUMPDEST PUSH1 0x20 DUP1 DUP3 MSTORE PUSH1 0x17 SWAP1 DUP3 ADD MSTORE PUSH32 0x554E5354414B455F57494E444F575F46494E4953484544000000000000000000 PUSH1 0x40 DUP3 ADD MSTORE PUSH1 0x60 ADD SWAP1 JUMP JUMPDEST PUSH1 0x20 DUP1 DUP3 MSTORE PUSH1 0x24 SWAP1 DUP3 ADD MSTORE PUSH32 0x45524332303A20617070726F76652066726F6D20746865207A65726F20616464 PUSH1 0x40 DUP3 ADD MSTORE PUSH32 0x7265737300000000000000000000000000000000000000000000000000000000 PUSH1 0x60 DUP3 ADD MSTORE PUSH1 0x80 ADD SWAP1 JUMP JUMPDEST PUSH1 0x20 DUP1 DUP3 MSTORE PUSH1 0x14 SWAP1 DUP3 ADD MSTORE PUSH32 0x494E56414C49445F424C4F434B5F4E554D424552000000000000000000000000 PUSH1 0x40 DUP3 ADD MSTORE PUSH1 0x60 ADD SWAP1 JUMP JUMPDEST PUSH1 0x20 DUP1 DUP3 MSTORE PUSH1 0x2A SWAP1 DUP3 ADD MSTORE PUSH32 0x5361666545524332303A204552433230206F7065726174696F6E20646964206E PUSH1 0x40 DUP3 ADD MSTORE PUSH32 0x6F74207375636365656400000000000000000000000000000000000000000000 PUSH1 0x60 DUP3 ADD MSTORE PUSH1 0x80 ADD SWAP1 JUMP JUMPDEST PUSH1 0x20 DUP1 DUP3 MSTORE PUSH1 0x1B SWAP1 DUP3 ADD MSTORE PUSH32 0x494E56414C49445F42414C414E43455F4F4E5F434F4F4C444F574E0000000000 PUSH1 0x40 DUP3 ADD MSTORE PUSH1 0x60 ADD SWAP1 JUMP JUMPDEST PUSH1 0x20 DUP1 DUP3 MSTORE PUSH1 0x11 SWAP1 DUP3 ADD MSTORE PUSH32 0x494E56414C49445F44454C454741544545000000000000000000000000000000 PUSH1 0x40 DUP3 ADD MSTORE PUSH1 0x60 ADD SWAP1 JUMP JUMPDEST PUSH1 0x20 DUP1 DUP3 MSTORE PUSH1 0x1F SWAP1 DUP3 ADD MSTORE PUSH32 0x5361666545524332303A2063616C6C20746F206E6F6E2D636F6E747261637400 PUSH1 0x40 DUP3 ADD MSTORE PUSH1 0x60 ADD SWAP1 JUMP JUMPDEST PUSH1 0x20 DUP1 DUP3 MSTORE PUSH1 0x1F SWAP1 DUP3 ADD MSTORE PUSH32 0x45524332303A206D696E7420746F20746865207A65726F206164647265737300 PUSH1 0x40 DUP3 ADD MSTORE PUSH1 0x60 ADD SWAP1 JUMP JUMPDEST PUSH16 0xFFFFFFFFFFFFFFFFFFFFFFFFFFFFFFFF SWAP2 SWAP1 SWAP2 AND DUP2 MSTORE PUSH1 0x20 ADD SWAP1 JUMP JUMPDEST PUSH16 0xFFFFFFFFFFFFFFFFFFFFFFFFFFFFFFFF SWAP3 DUP4 AND DUP2 MSTORE SWAP2 AND PUSH1 0x20 DUP3 ADD MSTORE PUSH1 0x40 ADD SWAP1 JUMP JUMPDEST PUSH16 0xFFFFFFFFFFFFFFFFFFFFFFFFFFFFFFFF SWAP4 DUP5 AND DUP2 MSTORE SWAP2 SWAP1 SWAP3 AND PUSH1 0x20 DUP3 ADD MSTORE PUSH1 0x40 DUP2 ADD SWAP2 SWAP1 SWAP2 MSTORE PUSH1 0x60 ADD SWAP1 JUMP JUMPDEST DUP3 DUP2 MSTORE PUSH1 0x40 DUP2 ADD PUSH2 0xA3A PUSH1 0x20 DUP4 ADD DUP5 PUSH2 0x3C56 JUMP JUMPDEST PUSH1 0xFF SWAP2 SWAP1 SWAP2 AND DUP2 MSTORE PUSH1 0x20 ADD SWAP1 JUMP JUMPDEST PUSH1 0x0 JUMPDEST DUP4 DUP2 LT ISZERO PUSH2 0x452E JUMPI DUP2 DUP2 ADD MLOAD DUP4 DUP3 ADD MSTORE PUSH1 0x20 ADD PUSH2 0x4516 JUMP JUMPDEST DUP4 DUP2 GT ISZERO PUSH2 0x23FF JUMPI POP POP PUSH1 0x0 SWAP2 ADD MSTORE JUMP INVALID GASLIMIT MSTORE NUMBER ORIGIN ADDRESS GASPRICE KECCAK256 PUSH3 0x75726E KECCAK256 PUSH2 0x6D6F PUSH22 0x6E7420657863656564732062616C616E636545524332 ADDRESS GASPRICE KECCAK256 PUSH21 0x72616E7366657220616D6F756E7420657863656564 PUSH20 0x2062616C616E636545524332303A207472616E73 PUSH7 0x657220616D6F75 PUSH15 0x74206578636565647320616C6C6F77 PUSH2 0x6E63 PUSH6 0x45524332303A KECCAK256 PUSH5 0x6563726561 PUSH20 0x656420616C6C6F77616E63652062656C6F77207A PUSH6 0x726FA2646970 PUSH7 0x7358221220D9AF 0xCB PUSH14 0xE361626B27FC92962C175DA28AA6 PUSH27 0x46F2EE48AB626D5A4A8F4D156664736F6C63430007050033000000 "},"gasEstimates":{"creation":{"codeDepositCost":"3586000","executionCost":"infinite","totalCost":"infinite"},"external":{"COOLDOWN_SECONDS()":"infinite","DELEGATE_BY_TYPE_TYPEHASH()":"340","DELEGATE_TYPEHASH()":"319","DISTRIBUTION_END()":"infinite","DOMAIN_SEPARATOR()":"1140","EIP712_REVISION()":"infinite","EMISSION_MANAGER()":"infinite","PERMIT_TYPEHASH()":"297","PRECISION()":"307","REVISION()":"294","REWARDS_VAULT()":"infinite","REWARD_TOKEN()":"infinite","STAKED_TOKEN()":"infinite","UNSTAKE_WINDOW()":"infinite","_aaveGovernance()":"1113","_nonces(address)":"1330","_votingSnapshots(address,uint256)":"1508","_votingSnapshotsCounts(address)":"1307","allowance(address,address)":"infinite","approve(address,uint256)":"22650","assets(address)":"2241","balanceOf(address)":"infinite","claimRewards(address,uint256)":"infinite","configureAssets((uint128,uint256,address)[])":"infinite","cooldown()":"22402","decimals()":"1159","decreaseAllowance(address,uint256)":"infinite","delegate(address)":"infinite","delegateBySig(address,uint256,uint256,uint8,bytes32,bytes32)":"infinite","delegateByType(address,uint8)":"infinite","delegateByTypeBySig(address,uint8,uint256,uint256,uint8,bytes32,bytes32)":"infinite","getDelegateeByType(address,uint8)":"infinite","getNextCooldownTimestamp(uint256,uint256,address,uint256)":"infinite","getPowerAtBlock(address,uint256,uint8)":"infinite","getPowerCurrent(address,uint8)":"infinite","getTotalRewardsBalance(address)":"infinite","getUserAssetData(address,address)":"infinite","increaseAllowance(address,uint256)":"infinite","initialize()":"infinite","name()":"infinite","permit(address,address,uint256,uint256,uint8,bytes32,bytes32)":"infinite","redeem(address,uint256)":"infinite","stake(address,uint256)":"infinite","stakerRewardsToClaim(address)":"1329","stakersCooldowns(address)":"1332","symbol()":"infinite","totalSupply()":"1097","totalSupplyAt(uint256)":"1210","transfer(address,uint256)":"infinite","transferFrom(address,address,uint256)":"infinite"},"internal":{"_beforeTokenTransfer(address,address,uint256)":"infinite","_getDelegationDataByType(enum IGovernancePowerDelegationToken.DelegationType)":"116","_transfer(address,address,uint256)":"infinite","_updateCurrentUnclaimedRewards(address,uint256,bool)":"infinite","getRevision()":"15"}},"methodIdentifiers":{"COOLDOWN_SECONDS()":"72b49d63","DELEGATE_BY_TYPE_TYPEHASH()":"aa9fbe02","DELEGATE_TYPEHASH()":"41cbf54a","DISTRIBUTION_END()":"919cd40f","DOMAIN_SEPARATOR()":"3644e515","EIP712_REVISION()":"78160376","EMISSION_MANAGER()":"cbcbb507","PERMIT_TYPEHASH()":"30adf81f","PRECISION()":"aaf5eb68","REVISION()":"dde43cba","REWARDS_VAULT()":"946776cd","REWARD_TOKEN()":"99248ea7","STAKED_TOKEN()":"312f6b83","UNSTAKE_WINDOW()":"359c4a96","_aaveGovernance()":"c3863ada","_nonces(address)":"b9844d8d","_votingSnapshots(address,uint256)":"5b3cc0cf","_votingSnapshotsCounts(address)":"7bb73c97","allowance(address,address)":"dd62ed3e","approve(address,uint256)":"095ea7b3","assets(address)":"f11b8188","balanceOf(address)":"70a08231","claimRewards(address,uint256)":"9a99b4f0","configureAssets((uint128,uint256,address)[])":"b2a5dbfa","cooldown()":"787a08a6","decimals()":"313ce567","decreaseAllowance(address,uint256)":"a457c2d7","delegate(address)":"5c19a95c","delegateBySig(address,uint256,uint256,uint8,bytes32,bytes32)":"c3cda520","delegateByType(address,uint8)":"dc937e1c","delegateByTypeBySig(address,uint8,uint256,uint256,uint8,bytes32,bytes32)":"f713d8a8","getDelegateeByType(address,uint8)":"6f50458d","getNextCooldownTimestamp(uint256,uint256,address,uint256)":"f1cc432a","getPowerAtBlock(address,uint256,uint8)":"c2ffbb91","getPowerCurrent(address,uint8)":"b2f4201d","getTotalRewardsBalance(address)":"8dbefee2","getUserAssetData(address,address)":"3373ee4c","increaseAllowance(address,uint256)":"39509351","initialize()":"8129fc1c","name()":"06fdde03","permit(address,address,uint256,uint256,uint8,bytes32,bytes32)":"d505accf","redeem(address,uint256)":"1e9a6950","stake(address,uint256)":"adc9772e","stakerRewardsToClaim(address)":"7e90d7ef","stakersCooldowns(address)":"091030c3","symbol()":"95d89b41","totalSupply()":"18160ddd","totalSupplyAt(uint256)":"981b24d0","transfer(address,uint256)":"a9059cbb","transferFrom(address,address,uint256)":"23b872dd"}},"storageLayout":{"storage":[{"astId":447,"contract":"@aave/safety-module/contracts/proposals/extend-stkaave-distribution/StakedTokenV2Rev3.sol:StakedTokenV2Rev3","label":"_balances","offset":0,"slot":"0","type":"t_mapping(t_address,t_uint256)"},{"astId":453,"contract":"@aave/safety-module/contracts/proposals/extend-stkaave-distribution/StakedTokenV2Rev3.sol:StakedTokenV2Rev3","label":"_allowances","offset":0,"slot":"1","type":"t_mapping(t_address,t_mapping(t_address,t_uint256))"},{"astId":455,"contract":"@aave/safety-module/contracts/proposals/extend-stkaave-distribution/StakedTokenV2Rev3.sol:StakedTokenV2Rev3","label":"_totalSupply","offset":0,"slot":"2","type":"t_uint256"},{"astId":457,"contract":"@aave/safety-module/contracts/proposals/extend-stkaave-distribution/StakedTokenV2Rev3.sol:StakedTokenV2Rev3","label":"_name","offset":0,"slot":"3","type":"t_string_storage"},{"astId":459,"contract":"@aave/safety-module/contracts/proposals/extend-stkaave-distribution/StakedTokenV2Rev3.sol:StakedTokenV2Rev3","label":"_symbol","offset":0,"slot":"4","type":"t_string_storage"},{"astId":461,"contract":"@aave/safety-module/contracts/proposals/extend-stkaave-distribution/StakedTokenV2Rev3.sol:StakedTokenV2Rev3","label":"_decimals","offset":0,"slot":"5","type":"t_uint8"},{"astId":2396,"contract":"@aave/safety-module/contracts/proposals/extend-stkaave-distribution/StakedTokenV2Rev3.sol:StakedTokenV2Rev3","label":"_votingSnapshots","offset":0,"slot":"6","type":"t_mapping(t_address,t_mapping(t_uint256,t_struct(Snapshot)1726_storage))"},{"astId":2400,"contract":"@aave/safety-module/contracts/proposals/extend-stkaave-distribution/StakedTokenV2Rev3.sol:StakedTokenV2Rev3","label":"_votingSnapshotsCounts","offset":0,"slot":"7","type":"t_mapping(t_address,t_uint256)"},{"astId":2403,"contract":"@aave/safety-module/contracts/proposals/extend-stkaave-distribution/StakedTokenV2Rev3.sol:StakedTokenV2Rev3","label":"_aaveGovernance","offset":0,"slot":"8","type":"t_contract(ITransferHook)968"},{"astId":1137,"contract":"@aave/safety-module/contracts/proposals/extend-stkaave-distribution/StakedTokenV2Rev3.sol:StakedTokenV2Rev3","label":"lastInitializedRevision","offset":0,"slot":"9","type":"t_uint256"},{"astId":1168,"contract":"@aave/safety-module/contracts/proposals/extend-stkaave-distribution/StakedTokenV2Rev3.sol:StakedTokenV2Rev3","label":"______gap","offset":0,"slot":"10","type":"t_array(t_uint256)50_storage"},{"astId":1204,"contract":"@aave/safety-module/contracts/proposals/extend-stkaave-distribution/StakedTokenV2Rev3.sol:StakedTokenV2Rev3","label":"assets","offset":0,"slot":"60","type":"t_mapping(t_address,t_struct(AssetData)1193_storage)"},{"astId":2449,"contract":"@aave/safety-module/contracts/proposals/extend-stkaave-distribution/StakedTokenV2Rev3.sol:StakedTokenV2Rev3","label":"stakerRewardsToClaim","offset":0,"slot":"61","type":"t_mapping(t_address,t_uint256)"},{"astId":2453,"contract":"@aave/safety-module/contracts/proposals/extend-stkaave-distribution/StakedTokenV2Rev3.sol:StakedTokenV2Rev3","label":"stakersCooldowns","offset":0,"slot":"62","type":"t_mapping(t_address,t_uint256)"},{"astId":2458,"contract":"@aave/safety-module/contracts/proposals/extend-stkaave-distribution/StakedTokenV2Rev3.sol:StakedTokenV2Rev3","label":"_votingDelegates","offset":0,"slot":"63","type":"t_mapping(t_address,t_address)"},{"astId":2464,"contract":"@aave/safety-module/contracts/proposals/extend-stkaave-distribution/StakedTokenV2Rev3.sol:StakedTokenV2Rev3","label":"_propositionPowerSnapshots","offset":0,"slot":"64","type":"t_mapping(t_address,t_mapping(t_uint256,t_struct(Snapshot)1726_storage))"},{"astId":2468,"contract":"@aave/safety-module/contracts/proposals/extend-stkaave-distribution/StakedTokenV2Rev3.sol:StakedTokenV2Rev3","label":"_propositionPowerSnapshotsCounts","offset":0,"slot":"65","type":"t_mapping(t_address,t_uint256)"},{"astId":2472,"contract":"@aave/safety-module/contracts/proposals/extend-stkaave-distribution/StakedTokenV2Rev3.sol:StakedTokenV2Rev3","label":"_propositionPowerDelegates","offset":0,"slot":"66","type":"t_mapping(t_address,t_address)"},{"astId":2474,"contract":"@aave/safety-module/contracts/proposals/extend-stkaave-distribution/StakedTokenV2Rev3.sol:StakedTokenV2Rev3","label":"DOMAIN_SEPARATOR","offset":0,"slot":"67","type":"t_bytes32"},{"astId":2495,"contract":"@aave/safety-module/contracts/proposals/extend-stkaave-distribution/StakedTokenV2Rev3.sol:StakedTokenV2Rev3","label":"_nonces","offset":0,"slot":"68","type":"t_mapping(t_address,t_uint256)"}],"types":{"t_address":{"encoding":"inplace","label":"address","numberOfBytes":"20"},"t_array(t_uint256)50_storage":{"base":"t_uint256","encoding":"inplace","label":"uint256[50]","numberOfBytes":"1600"},"t_bytes32":{"encoding":"inplace","label":"bytes32","numberOfBytes":"32"},"t_contract(ITransferHook)968":{"encoding":"inplace","label":"contract ITransferHook","numberOfBytes":"20"},"t_mapping(t_address,t_address)":{"encoding":"mapping","key":"t_address","label":"mapping(address => address)","numberOfBytes":"32","value":"t_address"},"t_mapping(t_address,t_mapping(t_address,t_uint256))":{"encoding":"mapping","key":"t_address","label":"mapping(address => mapping(address => uint256))","numberOfBytes":"32","value":"t_mapping(t_address,t_uint256)"},"t_mapping(t_address,t_mapping(t_uint256,t_struct(Snapshot)1726_storage))":{"encoding":"mapping","key":"t_address","label":"mapping(address => mapping(uint256 => struct GovernancePowerDelegationERC20.Snapshot))","numberOfBytes":"32","value":"t_mapping(t_uint256,t_struct(Snapshot)1726_storage)"},"t_mapping(t_address,t_struct(AssetData)1193_storage)":{"encoding":"mapping","key":"t_address","label":"mapping(address => struct AaveDistributionManager.AssetData)","numberOfBytes":"32","value":"t_struct(AssetData)1193_storage"},"t_mapping(t_address,t_uint256)":{"encoding":"mapping","key":"t_address","label":"mapping(address => uint256)","numberOfBytes":"32","value":"t_uint256"},"t_mapping(t_uint256,t_struct(Snapshot)1726_storage)":{"encoding":"mapping","key":"t_uint256","label":"mapping(uint256 => struct GovernancePowerDelegationERC20.Snapshot)","numberOfBytes":"32","value":"t_struct(Snapshot)1726_storage"},"t_string_storage":{"encoding":"bytes","label":"string","numberOfBytes":"32"},"t_struct(AssetData)1193_storage":{"encoding":"inplace","label":"struct AaveDistributionManager.AssetData","members":[{"astId":1184,"contract":"@aave/safety-module/contracts/proposals/extend-stkaave-distribution/StakedTokenV2Rev3.sol:StakedTokenV2Rev3","label":"emissionPerSecond","offset":0,"slot":"0","type":"t_uint128"},{"astId":1186,"contract":"@aave/safety-module/contracts/proposals/extend-stkaave-distribution/StakedTokenV2Rev3.sol:StakedTokenV2Rev3","label":"lastUpdateTimestamp","offset":16,"slot":"0","type":"t_uint128"},{"astId":1188,"contract":"@aave/safety-module/contracts/proposals/extend-stkaave-distribution/StakedTokenV2Rev3.sol:StakedTokenV2Rev3","label":"index","offset":0,"slot":"1","type":"t_uint256"},{"astId":1192,"contract":"@aave/safety-module/contracts/proposals/extend-stkaave-distribution/StakedTokenV2Rev3.sol:StakedTokenV2Rev3","label":"users","offset":0,"slot":"2","type":"t_mapping(t_address,t_uint256)"}],"numberOfBytes":"96"},"t_struct(Snapshot)1726_storage":{"encoding":"inplace","label":"struct GovernancePowerDelegationERC20.Snapshot","members":[{"astId":1723,"contract":"@aave/safety-module/contracts/proposals/extend-stkaave-distribution/StakedTokenV2Rev3.sol:StakedTokenV2Rev3","label":"blockNumber","offset":0,"slot":"0","type":"t_uint128"},{"astId":1725,"contract":"@aave/safety-module/contracts/proposals/extend-stkaave-distribution/StakedTokenV2Rev3.sol:StakedTokenV2Rev3","label":"value","offset":16,"slot":"0","type":"t_uint128"}],"numberOfBytes":"32"},"t_uint128":{"encoding":"inplace","label":"uint128","numberOfBytes":"16"},"t_uint256":{"encoding":"inplace","label":"uint256","numberOfBytes":"32"},"t_uint8":{"encoding":"inplace","label":"uint8","numberOfBytes":"1"}}},"userdoc":{"kind":"user","methods":{"DELEGATE_BY_TYPE_TYPEHASH()":{"notice":"The EIP-712 typehash for the delegation struct used by the contract"},"REWARDS_VAULT()":{"notice":"Address to pull from the rewards, needs to have approved this contract"},"UNSTAKE_WINDOW()":{"notice":"Seconds available to redeem once the cooldown period is fullfilled"}},"notice":"Contract to stake Aave token, tokenize the position and get rewards, inheriting from a distribution manager contract","version":1}}}}