{
  "_format": "hh-sol-artifact-1",
  "contractName": "ERC20Faucet",
  "sourceName": "contracts/testnet-helpers/ERC20Faucet.sol",
  "abi": [
    {
      "inputs": [
        {
          "internalType": "address",
          "name": "_token",
          "type": "address"
        },
        {
          "internalType": "uint256",
          "name": "_amount",
          "type": "uint256"
        }
      ],
      "name": "mint",
      "outputs": [
        {
          "internalType": "uint256",
          "name": "",
          "type": "uint256"
        }
      ],
      "stateMutability": "nonpayable",
      "type": "function"
    }
  ],
  "bytecode": "0x608060405234801561001057600080fd5b5061019b806100206000396000f3fe608060405234801561001057600080fd5b506004361061002b5760003560e01c806340c10f1914610030575b600080fd5b61004361003e3660046100f7565b610055565b60405190815260200160405180910390f35b6040517f40c10f190000000000000000000000000000000000000000000000000000000081523360048201526024810182905260009073ffffffffffffffffffffffffffffffffffffffff8416906340c10f19906044016020604051808303816000875af11580156100cb573d6000803e3d6000fd5b505050506040513d601f19601f820116820180604052508101906100ef919061013c565b509092915050565b6000806040838503121561010a57600080fd5b823573ffffffffffffffffffffffffffffffffffffffff8116811461012e57600080fd5b946020939093013593505050565b60006020828403121561014e57600080fd5b8151801515811461015e57600080fd5b939250505056fea264697066735822122052d99bc8e63b218e680cec8bb2d19a9b98f0b209d6161b37977072b4a0dec4b464736f6c634300080a0033",
  "linkReferences": {},
  "deployedLinkReferences": {}
}