{
  "_format": "hh-sol-artifact-1",
  "contractName": "MockPoolInherited",
  "sourceName": "@mahalend/core-v3/contracts/mocks/helpers/MockPool.sol",
  "abi": [
    {
      "inputs": [
        {
          "internalType": "contract IPoolAddressesProvider",
          "name": "provider",
          "type": "address"
        }
      ],
      "stateMutability": "nonpayable",
      "type": "constructor"
    },
    {
      "anonymous": false,
      "inputs": [
        {
          "indexed": true,
          "internalType": "address",
          "name": "reserve",
          "type": "address"
        },
        {
          "indexed": true,
          "internalType": "address",
          "name": "backer",
          "type": "address"
        },
        {
          "indexed": false,
          "internalType": "uint256",
          "name": "amount",
          "type": "uint256"
        },
        {
          "indexed": false,
          "internalType": "uint256",
          "name": "fee",
          "type": "uint256"
        }
      ],
      "name": "BackUnbacked",
      "type": "event"
    },
    {
      "anonymous": false,
      "inputs": [
        {
          "indexed": true,
          "internalType": "address",
          "name": "reserve",
          "type": "address"
        },
        {
          "indexed": false,
          "internalType": "address",
          "name": "user",
          "type": "address"
        },
        {
          "indexed": true,
          "internalType": "address",
          "name": "onBehalfOf",
          "type": "address"
        },
        {
          "indexed": false,
          "internalType": "uint256",
          "name": "amount",
          "type": "uint256"
        },
        {
          "indexed": false,
          "internalType": "enum DataTypes.InterestRateMode",
          "name": "interestRateMode",
          "type": "uint8"
        },
        {
          "indexed": false,
          "internalType": "uint256",
          "name": "borrowRate",
          "type": "uint256"
        },
        {
          "indexed": true,
          "internalType": "uint16",
          "name": "referralCode",
          "type": "uint16"
        }
      ],
      "name": "Borrow",
      "type": "event"
    },
    {
      "anonymous": false,
      "inputs": [
        {
          "indexed": true,
          "internalType": "address",
          "name": "target",
          "type": "address"
        },
        {
          "indexed": false,
          "internalType": "address",
          "name": "initiator",
          "type": "address"
        },
        {
          "indexed": true,
          "internalType": "address",
          "name": "asset",
          "type": "address"
        },
        {
          "indexed": false,
          "internalType": "uint256",
          "name": "amount",
          "type": "uint256"
        },
        {
          "indexed": false,
          "internalType": "enum DataTypes.InterestRateMode",
          "name": "interestRateMode",
          "type": "uint8"
        },
        {
          "indexed": false,
          "internalType": "uint256",
          "name": "premium",
          "type": "uint256"
        },
        {
          "indexed": true,
          "internalType": "uint16",
          "name": "referralCode",
          "type": "uint16"
        }
      ],
      "name": "FlashLoan",
      "type": "event"
    },
    {
      "anonymous": false,
      "inputs": [
        {
          "indexed": true,
          "internalType": "address",
          "name": "asset",
          "type": "address"
        },
        {
          "indexed": false,
          "internalType": "uint256",
          "name": "totalDebt",
          "type": "uint256"
        }
      ],
      "name": "IsolationModeTotalDebtUpdated",
      "type": "event"
    },
    {
      "anonymous": false,
      "inputs": [
        {
          "indexed": true,
          "internalType": "address",
          "name": "collateralAsset",
          "type": "address"
        },
        {
          "indexed": true,
          "internalType": "address",
          "name": "debtAsset",
          "type": "address"
        },
        {
          "indexed": true,
          "internalType": "address",
          "name": "user",
          "type": "address"
        },
        {
          "indexed": false,
          "internalType": "uint256",
          "name": "debtToCover",
          "type": "uint256"
        },
        {
          "indexed": false,
          "internalType": "uint256",
          "name": "liquidatedCollateralAmount",
          "type": "uint256"
        },
        {
          "indexed": false,
          "internalType": "address",
          "name": "liquidator",
          "type": "address"
        },
        {
          "indexed": false,
          "internalType": "bool",
          "name": "receiveAToken",
          "type": "bool"
        }
      ],
      "name": "LiquidationCall",
      "type": "event"
    },
    {
      "anonymous": false,
      "inputs": [
        {
          "indexed": true,
          "internalType": "address",
          "name": "reserve",
          "type": "address"
        },
        {
          "indexed": false,
          "internalType": "address",
          "name": "user",
          "type": "address"
        },
        {
          "indexed": true,
          "internalType": "address",
          "name": "onBehalfOf",
          "type": "address"
        },
        {
          "indexed": false,
          "internalType": "uint256",
          "name": "amount",
          "type": "uint256"
        },
        {
          "indexed": true,
          "internalType": "uint16",
          "name": "referralCode",
          "type": "uint16"
        }
      ],
      "name": "MintUnbacked",
      "type": "event"
    },
    {
      "anonymous": false,
      "inputs": [
        {
          "indexed": true,
          "internalType": "address",
          "name": "reserve",
          "type": "address"
        },
        {
          "indexed": false,
          "internalType": "uint256",
          "name": "amountMinted",
          "type": "uint256"
        }
      ],
      "name": "MintedToTreasury",
      "type": "event"
    },
    {
      "anonymous": false,
      "inputs": [
        {
          "indexed": true,
          "internalType": "address",
          "name": "reserve",
          "type": "address"
        },
        {
          "indexed": true,
          "internalType": "address",
          "name": "user",
          "type": "address"
        }
      ],
      "name": "RebalanceStableBorrowRate",
      "type": "event"
    },
    {
      "anonymous": false,
      "inputs": [
        {
          "indexed": true,
          "internalType": "address",
          "name": "reserve",
          "type": "address"
        },
        {
          "indexed": true,
          "internalType": "address",
          "name": "user",
          "type": "address"
        },
        {
          "indexed": true,
          "internalType": "address",
          "name": "repayer",
          "type": "address"
        },
        {
          "indexed": false,
          "internalType": "uint256",
          "name": "amount",
          "type": "uint256"
        },
        {
          "indexed": false,
          "internalType": "bool",
          "name": "useATokens",
          "type": "bool"
        }
      ],
      "name": "Repay",
      "type": "event"
    },
    {
      "anonymous": false,
      "inputs": [
        {
          "indexed": true,
          "internalType": "address",
          "name": "reserve",
          "type": "address"
        },
        {
          "indexed": false,
          "internalType": "uint256",
          "name": "liquidityRate",
          "type": "uint256"
        },
        {
          "indexed": false,
          "internalType": "uint256",
          "name": "stableBorrowRate",
          "type": "uint256"
        },
        {
          "indexed": false,
          "internalType": "uint256",
          "name": "variableBorrowRate",
          "type": "uint256"
        },
        {
          "indexed": false,
          "internalType": "uint256",
          "name": "liquidityIndex",
          "type": "uint256"
        },
        {
          "indexed": false,
          "internalType": "uint256",
          "name": "variableBorrowIndex",
          "type": "uint256"
        }
      ],
      "name": "ReserveDataUpdated",
      "type": "event"
    },
    {
      "anonymous": false,
      "inputs": [
        {
          "indexed": true,
          "internalType": "address",
          "name": "reserve",
          "type": "address"
        },
        {
          "indexed": true,
          "internalType": "address",
          "name": "user",
          "type": "address"
        }
      ],
      "name": "ReserveUsedAsCollateralDisabled",
      "type": "event"
    },
    {
      "anonymous": false,
      "inputs": [
        {
          "indexed": true,
          "internalType": "address",
          "name": "reserve",
          "type": "address"
        },
        {
          "indexed": true,
          "internalType": "address",
          "name": "user",
          "type": "address"
        }
      ],
      "name": "ReserveUsedAsCollateralEnabled",
      "type": "event"
    },
    {
      "anonymous": false,
      "inputs": [
        {
          "indexed": true,
          "internalType": "address",
          "name": "reserve",
          "type": "address"
        },
        {
          "indexed": false,
          "internalType": "address",
          "name": "user",
          "type": "address"
        },
        {
          "indexed": true,
          "internalType": "address",
          "name": "onBehalfOf",
          "type": "address"
        },
        {
          "indexed": false,
          "internalType": "uint256",
          "name": "amount",
          "type": "uint256"
        },
        {
          "indexed": true,
          "internalType": "uint16",
          "name": "referralCode",
          "type": "uint16"
        }
      ],
      "name": "Supply",
      "type": "event"
    },
    {
      "anonymous": false,
      "inputs": [
        {
          "indexed": true,
          "internalType": "address",
          "name": "reserve",
          "type": "address"
        },
        {
          "indexed": true,
          "internalType": "address",
          "name": "user",
          "type": "address"
        },
        {
          "indexed": false,
          "internalType": "enum DataTypes.InterestRateMode",
          "name": "interestRateMode",
          "type": "uint8"
        }
      ],
      "name": "SwapBorrowRateMode",
      "type": "event"
    },
    {
      "anonymous": false,
      "inputs": [
        {
          "indexed": true,
          "internalType": "address",
          "name": "user",
          "type": "address"
        },
        {
          "indexed": false,
          "internalType": "uint8",
          "name": "categoryId",
          "type": "uint8"
        }
      ],
      "name": "UserEModeSet",
      "type": "event"
    },
    {
      "anonymous": false,
      "inputs": [
        {
          "indexed": true,
          "internalType": "address",
          "name": "reserve",
          "type": "address"
        },
        {
          "indexed": true,
          "internalType": "address",
          "name": "user",
          "type": "address"
        },
        {
          "indexed": true,
          "internalType": "address",
          "name": "to",
          "type": "address"
        },
        {
          "indexed": false,
          "internalType": "uint256",
          "name": "amount",
          "type": "uint256"
        }
      ],
      "name": "Withdraw",
      "type": "event"
    },
    {
      "inputs": [],
      "name": "ADDRESSES_PROVIDER",
      "outputs": [
        {
          "internalType": "contract IPoolAddressesProvider",
          "name": "",
          "type": "address"
        }
      ],
      "stateMutability": "view",
      "type": "function"
    },
    {
      "inputs": [],
      "name": "BRIDGE_PROTOCOL_FEE",
      "outputs": [
        {
          "internalType": "uint256",
          "name": "",
          "type": "uint256"
        }
      ],
      "stateMutability": "view",
      "type": "function"
    },
    {
      "inputs": [],
      "name": "FLASHLOAN_PREMIUM_TOTAL",
      "outputs": [
        {
          "internalType": "uint128",
          "name": "",
          "type": "uint128"
        }
      ],
      "stateMutability": "view",
      "type": "function"
    },
    {
      "inputs": [],
      "name": "FLASHLOAN_PREMIUM_TO_PROTOCOL",
      "outputs": [
        {
          "internalType": "uint128",
          "name": "",
          "type": "uint128"
        }
      ],
      "stateMutability": "view",
      "type": "function"
    },
    {
      "inputs": [],
      "name": "MAX_NUMBER_RESERVES",
      "outputs": [
        {
          "internalType": "uint16",
          "name": "",
          "type": "uint16"
        }
      ],
      "stateMutability": "view",
      "type": "function"
    },
    {
      "inputs": [],
      "name": "MAX_STABLE_RATE_BORROW_SIZE_PERCENT",
      "outputs": [
        {
          "internalType": "uint256",
          "name": "",
          "type": "uint256"
        }
      ],
      "stateMutability": "view",
      "type": "function"
    },
    {
      "inputs": [],
      "name": "POOL_REVISION",
      "outputs": [
        {
          "internalType": "uint256",
          "name": "",
          "type": "uint256"
        }
      ],
      "stateMutability": "view",
      "type": "function"
    },
    {
      "inputs": [
        {
          "internalType": "address",
          "name": "asset",
          "type": "address"
        },
        {
          "internalType": "uint256",
          "name": "amount",
          "type": "uint256"
        },
        {
          "internalType": "uint256",
          "name": "fee",
          "type": "uint256"
        }
      ],
      "name": "backUnbacked",
      "outputs": [],
      "stateMutability": "nonpayable",
      "type": "function"
    },
    {
      "inputs": [
        {
          "internalType": "address",
          "name": "asset",
          "type": "address"
        },
        {
          "internalType": "uint256",
          "name": "amount",
          "type": "uint256"
        },
        {
          "internalType": "uint256",
          "name": "interestRateMode",
          "type": "uint256"
        },
        {
          "internalType": "uint16",
          "name": "referralCode",
          "type": "uint16"
        },
        {
          "internalType": "address",
          "name": "onBehalfOf",
          "type": "address"
        }
      ],
      "name": "borrow",
      "outputs": [],
      "stateMutability": "nonpayable",
      "type": "function"
    },
    {
      "inputs": [
        {
          "internalType": "uint8",
          "name": "id",
          "type": "uint8"
        },
        {
          "components": [
            {
              "internalType": "uint16",
              "name": "ltv",
              "type": "uint16"
            },
            {
              "internalType": "uint16",
              "name": "liquidationThreshold",
              "type": "uint16"
            },
            {
              "internalType": "uint16",
              "name": "liquidationBonus",
              "type": "uint16"
            },
            {
              "internalType": "address",
              "name": "priceSource",
              "type": "address"
            },
            {
              "internalType": "string",
              "name": "label",
              "type": "string"
            }
          ],
          "internalType": "struct DataTypes.EModeCategory",
          "name": "category",
          "type": "tuple"
        }
      ],
      "name": "configureEModeCategory",
      "outputs": [],
      "stateMutability": "nonpayable",
      "type": "function"
    },
    {
      "inputs": [
        {
          "internalType": "address",
          "name": "asset",
          "type": "address"
        },
        {
          "internalType": "uint256",
          "name": "amount",
          "type": "uint256"
        },
        {
          "internalType": "address",
          "name": "onBehalfOf",
          "type": "address"
        },
        {
          "internalType": "uint16",
          "name": "referralCode",
          "type": "uint16"
        }
      ],
      "name": "deposit",
      "outputs": [],
      "stateMutability": "nonpayable",
      "type": "function"
    },
    {
      "inputs": [
        {
          "internalType": "address",
          "name": "asset",
          "type": "address"
        }
      ],
      "name": "dropReserve",
      "outputs": [],
      "stateMutability": "nonpayable",
      "type": "function"
    },
    {
      "inputs": [
        {
          "internalType": "address",
          "name": "asset",
          "type": "address"
        },
        {
          "internalType": "address",
          "name": "from",
          "type": "address"
        },
        {
          "internalType": "address",
          "name": "to",
          "type": "address"
        },
        {
          "internalType": "uint256",
          "name": "amount",
          "type": "uint256"
        },
        {
          "internalType": "uint256",
          "name": "balanceFromBefore",
          "type": "uint256"
        },
        {
          "internalType": "uint256",
          "name": "balanceToBefore",
          "type": "uint256"
        }
      ],
      "name": "finalizeTransfer",
      "outputs": [],
      "stateMutability": "nonpayable",
      "type": "function"
    },
    {
      "inputs": [
        {
          "internalType": "address",
          "name": "receiverAddress",
          "type": "address"
        },
        {
          "internalType": "address[]",
          "name": "assets",
          "type": "address[]"
        },
        {
          "internalType": "uint256[]",
          "name": "amounts",
          "type": "uint256[]"
        },
        {
          "internalType": "uint256[]",
          "name": "interestRateModes",
          "type": "uint256[]"
        },
        {
          "internalType": "address",
          "name": "onBehalfOf",
          "type": "address"
        },
        {
          "internalType": "bytes",
          "name": "params",
          "type": "bytes"
        },
        {
          "internalType": "uint16",
          "name": "referralCode",
          "type": "uint16"
        }
      ],
      "name": "flashLoan",
      "outputs": [],
      "stateMutability": "nonpayable",
      "type": "function"
    },
    {
      "inputs": [
        {
          "internalType": "address",
          "name": "receiverAddress",
          "type": "address"
        },
        {
          "internalType": "address",
          "name": "asset",
          "type": "address"
        },
        {
          "internalType": "uint256",
          "name": "amount",
          "type": "uint256"
        },
        {
          "internalType": "bytes",
          "name": "params",
          "type": "bytes"
        },
        {
          "internalType": "uint16",
          "name": "referralCode",
          "type": "uint16"
        }
      ],
      "name": "flashLoanSimple",
      "outputs": [],
      "stateMutability": "nonpayable",
      "type": "function"
    },
    {
      "inputs": [
        {
          "internalType": "address",
          "name": "asset",
          "type": "address"
        }
      ],
      "name": "getConfiguration",
      "outputs": [
        {
          "components": [
            {
              "internalType": "uint256",
              "name": "data",
              "type": "uint256"
            }
          ],
          "internalType": "struct DataTypes.ReserveConfigurationMap",
          "name": "",
          "type": "tuple"
        }
      ],
      "stateMutability": "view",
      "type": "function"
    },
    {
      "inputs": [
        {
          "internalType": "uint8",
          "name": "id",
          "type": "uint8"
        }
      ],
      "name": "getEModeCategoryData",
      "outputs": [
        {
          "components": [
            {
              "internalType": "uint16",
              "name": "ltv",
              "type": "uint16"
            },
            {
              "internalType": "uint16",
              "name": "liquidationThreshold",
              "type": "uint16"
            },
            {
              "internalType": "uint16",
              "name": "liquidationBonus",
              "type": "uint16"
            },
            {
              "internalType": "address",
              "name": "priceSource",
              "type": "address"
            },
            {
              "internalType": "string",
              "name": "label",
              "type": "string"
            }
          ],
          "internalType": "struct DataTypes.EModeCategory",
          "name": "",
          "type": "tuple"
        }
      ],
      "stateMutability": "view",
      "type": "function"
    },
    {
      "inputs": [
        {
          "internalType": "uint16",
          "name": "id",
          "type": "uint16"
        }
      ],
      "name": "getReserveAddressById",
      "outputs": [
        {
          "internalType": "address",
          "name": "",
          "type": "address"
        }
      ],
      "stateMutability": "view",
      "type": "function"
    },
    {
      "inputs": [
        {
          "internalType": "address",
          "name": "asset",
          "type": "address"
        }
      ],
      "name": "getReserveData",
      "outputs": [
        {
          "components": [
            {
              "components": [
                {
                  "internalType": "uint256",
                  "name": "data",
                  "type": "uint256"
                }
              ],
              "internalType": "struct DataTypes.ReserveConfigurationMap",
              "name": "configuration",
              "type": "tuple"
            },
            {
              "internalType": "uint128",
              "name": "liquidityIndex",
              "type": "uint128"
            },
            {
              "internalType": "uint128",
              "name": "currentLiquidityRate",
              "type": "uint128"
            },
            {
              "internalType": "uint128",
              "name": "variableBorrowIndex",
              "type": "uint128"
            },
            {
              "internalType": "uint128",
              "name": "currentVariableBorrowRate",
              "type": "uint128"
            },
            {
              "internalType": "uint128",
              "name": "currentStableBorrowRate",
              "type": "uint128"
            },
            {
              "internalType": "uint40",
              "name": "lastUpdateTimestamp",
              "type": "uint40"
            },
            {
              "internalType": "uint16",
              "name": "id",
              "type": "uint16"
            },
            {
              "internalType": "address",
              "name": "aTokenAddress",
              "type": "address"
            },
            {
              "internalType": "address",
              "name": "stableDebtTokenAddress",
              "type": "address"
            },
            {
              "internalType": "address",
              "name": "variableDebtTokenAddress",
              "type": "address"
            },
            {
              "internalType": "address",
              "name": "interestRateStrategyAddress",
              "type": "address"
            },
            {
              "internalType": "uint128",
              "name": "accruedToTreasury",
              "type": "uint128"
            },
            {
              "internalType": "uint128",
              "name": "unbacked",
              "type": "uint128"
            },
            {
              "internalType": "uint128",
              "name": "isolationModeTotalDebt",
              "type": "uint128"
            }
          ],
          "internalType": "struct DataTypes.ReserveData",
          "name": "",
          "type": "tuple"
        }
      ],
      "stateMutability": "view",
      "type": "function"
    },
    {
      "inputs": [
        {
          "internalType": "address",
          "name": "asset",
          "type": "address"
        }
      ],
      "name": "getReserveNormalizedIncome",
      "outputs": [
        {
          "internalType": "uint256",
          "name": "",
          "type": "uint256"
        }
      ],
      "stateMutability": "view",
      "type": "function"
    },
    {
      "inputs": [
        {
          "internalType": "address",
          "name": "asset",
          "type": "address"
        }
      ],
      "name": "getReserveNormalizedVariableDebt",
      "outputs": [
        {
          "internalType": "uint256",
          "name": "",
          "type": "uint256"
        }
      ],
      "stateMutability": "view",
      "type": "function"
    },
    {
      "inputs": [],
      "name": "getReservesList",
      "outputs": [
        {
          "internalType": "address[]",
          "name": "",
          "type": "address[]"
        }
      ],
      "stateMutability": "view",
      "type": "function"
    },
    {
      "inputs": [
        {
          "internalType": "address",
          "name": "user",
          "type": "address"
        }
      ],
      "name": "getUserAccountData",
      "outputs": [
        {
          "internalType": "uint256",
          "name": "totalCollateralBase",
          "type": "uint256"
        },
        {
          "internalType": "uint256",
          "name": "totalDebtBase",
          "type": "uint256"
        },
        {
          "internalType": "uint256",
          "name": "availableBorrowsBase",
          "type": "uint256"
        },
        {
          "internalType": "uint256",
          "name": "currentLiquidationThreshold",
          "type": "uint256"
        },
        {
          "internalType": "uint256",
          "name": "ltv",
          "type": "uint256"
        },
        {
          "internalType": "uint256",
          "name": "healthFactor",
          "type": "uint256"
        }
      ],
      "stateMutability": "view",
      "type": "function"
    },
    {
      "inputs": [
        {
          "internalType": "address",
          "name": "user",
          "type": "address"
        }
      ],
      "name": "getUserConfiguration",
      "outputs": [
        {
          "components": [
            {
              "internalType": "uint256",
              "name": "data",
              "type": "uint256"
            }
          ],
          "internalType": "struct DataTypes.UserConfigurationMap",
          "name": "",
          "type": "tuple"
        }
      ],
      "stateMutability": "view",
      "type": "function"
    },
    {
      "inputs": [
        {
          "internalType": "address",
          "name": "user",
          "type": "address"
        }
      ],
      "name": "getUserEMode",
      "outputs": [
        {
          "internalType": "uint256",
          "name": "",
          "type": "uint256"
        }
      ],
      "stateMutability": "view",
      "type": "function"
    },
    {
      "inputs": [
        {
          "internalType": "address",
          "name": "asset",
          "type": "address"
        },
        {
          "internalType": "address",
          "name": "aTokenAddress",
          "type": "address"
        },
        {
          "internalType": "address",
          "name": "stableDebtAddress",
          "type": "address"
        },
        {
          "internalType": "address",
          "name": "variableDebtAddress",
          "type": "address"
        },
        {
          "internalType": "address",
          "name": "interestRateStrategyAddress",
          "type": "address"
        }
      ],
      "name": "initReserve",
      "outputs": [],
      "stateMutability": "nonpayable",
      "type": "function"
    },
    {
      "inputs": [
        {
          "internalType": "contract IPoolAddressesProvider",
          "name": "provider",
          "type": "address"
        }
      ],
      "name": "initialize",
      "outputs": [],
      "stateMutability": "nonpayable",
      "type": "function"
    },
    {
      "inputs": [
        {
          "internalType": "address",
          "name": "collateralAsset",
          "type": "address"
        },
        {
          "internalType": "address",
          "name": "debtAsset",
          "type": "address"
        },
        {
          "internalType": "address",
          "name": "user",
          "type": "address"
        },
        {
          "internalType": "uint256",
          "name": "debtToCover",
          "type": "uint256"
        },
        {
          "internalType": "bool",
          "name": "receiveAToken",
          "type": "bool"
        }
      ],
      "name": "liquidationCall",
      "outputs": [],
      "stateMutability": "nonpayable",
      "type": "function"
    },
    {
      "inputs": [
        {
          "internalType": "address[]",
          "name": "assets",
          "type": "address[]"
        }
      ],
      "name": "mintToTreasury",
      "outputs": [],
      "stateMutability": "nonpayable",
      "type": "function"
    },
    {
      "inputs": [
        {
          "internalType": "address",
          "name": "asset",
          "type": "address"
        },
        {
          "internalType": "uint256",
          "name": "amount",
          "type": "uint256"
        },
        {
          "internalType": "address",
          "name": "onBehalfOf",
          "type": "address"
        },
        {
          "internalType": "uint16",
          "name": "referralCode",
          "type": "uint16"
        }
      ],
      "name": "mintUnbacked",
      "outputs": [],
      "stateMutability": "nonpayable",
      "type": "function"
    },
    {
      "inputs": [
        {
          "internalType": "address",
          "name": "asset",
          "type": "address"
        },
        {
          "internalType": "address",
          "name": "user",
          "type": "address"
        }
      ],
      "name": "rebalanceStableBorrowRate",
      "outputs": [],
      "stateMutability": "nonpayable",
      "type": "function"
    },
    {
      "inputs": [
        {
          "internalType": "address",
          "name": "asset",
          "type": "address"
        },
        {
          "internalType": "uint256",
          "name": "amount",
          "type": "uint256"
        },
        {
          "internalType": "uint256",
          "name": "interestRateMode",
          "type": "uint256"
        },
        {
          "internalType": "address",
          "name": "onBehalfOf",
          "type": "address"
        }
      ],
      "name": "repay",
      "outputs": [
        {
          "internalType": "uint256",
          "name": "",
          "type": "uint256"
        }
      ],
      "stateMutability": "nonpayable",
      "type": "function"
    },
    {
      "inputs": [
        {
          "internalType": "address",
          "name": "asset",
          "type": "address"
        },
        {
          "internalType": "uint256",
          "name": "amount",
          "type": "uint256"
        },
        {
          "internalType": "uint256",
          "name": "interestRateMode",
          "type": "uint256"
        }
      ],
      "name": "repayWithATokens",
      "outputs": [
        {
          "internalType": "uint256",
          "name": "",
          "type": "uint256"
        }
      ],
      "stateMutability": "nonpayable",
      "type": "function"
    },
    {
      "inputs": [
        {
          "internalType": "address",
          "name": "asset",
          "type": "address"
        },
        {
          "internalType": "uint256",
          "name": "amount",
          "type": "uint256"
        },
        {
          "internalType": "uint256",
          "name": "interestRateMode",
          "type": "uint256"
        },
        {
          "internalType": "address",
          "name": "onBehalfOf",
          "type": "address"
        },
        {
          "internalType": "uint256",
          "name": "deadline",
          "type": "uint256"
        },
        {
          "internalType": "uint8",
          "name": "permitV",
          "type": "uint8"
        },
        {
          "internalType": "bytes32",
          "name": "permitR",
          "type": "bytes32"
        },
        {
          "internalType": "bytes32",
          "name": "permitS",
          "type": "bytes32"
        }
      ],
      "name": "repayWithPermit",
      "outputs": [
        {
          "internalType": "uint256",
          "name": "",
          "type": "uint256"
        }
      ],
      "stateMutability": "nonpayable",
      "type": "function"
    },
    {
      "inputs": [
        {
          "internalType": "address",
          "name": "token",
          "type": "address"
        },
        {
          "internalType": "address",
          "name": "to",
          "type": "address"
        },
        {
          "internalType": "uint256",
          "name": "amount",
          "type": "uint256"
        }
      ],
      "name": "rescueTokens",
      "outputs": [],
      "stateMutability": "nonpayable",
      "type": "function"
    },
    {
      "inputs": [
        {
          "internalType": "address",
          "name": "asset",
          "type": "address"
        }
      ],
      "name": "resetIsolationModeTotalDebt",
      "outputs": [],
      "stateMutability": "nonpayable",
      "type": "function"
    },
    {
      "inputs": [
        {
          "internalType": "address",
          "name": "asset",
          "type": "address"
        },
        {
          "components": [
            {
              "internalType": "uint256",
              "name": "data",
              "type": "uint256"
            }
          ],
          "internalType": "struct DataTypes.ReserveConfigurationMap",
          "name": "configuration",
          "type": "tuple"
        }
      ],
      "name": "setConfiguration",
      "outputs": [],
      "stateMutability": "nonpayable",
      "type": "function"
    },
    {
      "inputs": [
        {
          "internalType": "uint16",
          "name": "newMaxNumberOfReserves",
          "type": "uint16"
        }
      ],
      "name": "setMaxNumberOfReserves",
      "outputs": [],
      "stateMutability": "nonpayable",
      "type": "function"
    },
    {
      "inputs": [
        {
          "internalType": "address",
          "name": "asset",
          "type": "address"
        },
        {
          "internalType": "address",
          "name": "rateStrategyAddress",
          "type": "address"
        }
      ],
      "name": "setReserveInterestRateStrategyAddress",
      "outputs": [],
      "stateMutability": "nonpayable",
      "type": "function"
    },
    {
      "inputs": [
        {
          "internalType": "uint8",
          "name": "categoryId",
          "type": "uint8"
        }
      ],
      "name": "setUserEMode",
      "outputs": [],
      "stateMutability": "nonpayable",
      "type": "function"
    },
    {
      "inputs": [
        {
          "internalType": "address",
          "name": "asset",
          "type": "address"
        },
        {
          "internalType": "bool",
          "name": "useAsCollateral",
          "type": "bool"
        }
      ],
      "name": "setUserUseReserveAsCollateral",
      "outputs": [],
      "stateMutability": "nonpayable",
      "type": "function"
    },
    {
      "inputs": [
        {
          "internalType": "address",
          "name": "asset",
          "type": "address"
        },
        {
          "internalType": "uint256",
          "name": "amount",
          "type": "uint256"
        },
        {
          "internalType": "address",
          "name": "onBehalfOf",
          "type": "address"
        },
        {
          "internalType": "uint16",
          "name": "referralCode",
          "type": "uint16"
        }
      ],
      "name": "supply",
      "outputs": [],
      "stateMutability": "nonpayable",
      "type": "function"
    },
    {
      "inputs": [
        {
          "internalType": "address",
          "name": "asset",
          "type": "address"
        },
        {
          "internalType": "uint256",
          "name": "amount",
          "type": "uint256"
        },
        {
          "internalType": "address",
          "name": "onBehalfOf",
          "type": "address"
        },
        {
          "internalType": "uint16",
          "name": "referralCode",
          "type": "uint16"
        },
        {
          "internalType": "uint256",
          "name": "deadline",
          "type": "uint256"
        },
        {
          "internalType": "uint8",
          "name": "permitV",
          "type": "uint8"
        },
        {
          "internalType": "bytes32",
          "name": "permitR",
          "type": "bytes32"
        },
        {
          "internalType": "bytes32",
          "name": "permitS",
          "type": "bytes32"
        }
      ],
      "name": "supplyWithPermit",
      "outputs": [],
      "stateMutability": "nonpayable",
      "type": "function"
    },
    {
      "inputs": [
        {
          "internalType": "address",
          "name": "asset",
          "type": "address"
        },
        {
          "internalType": "uint256",
          "name": "interestRateMode",
          "type": "uint256"
        }
      ],
      "name": "swapBorrowRateMode",
      "outputs": [],
      "stateMutability": "nonpayable",
      "type": "function"
    },
    {
      "inputs": [
        {
          "internalType": "uint256",
          "name": "protocolFee",
          "type": "uint256"
        }
      ],
      "name": "updateBridgeProtocolFee",
      "outputs": [],
      "stateMutability": "nonpayable",
      "type": "function"
    },
    {
      "inputs": [
        {
          "internalType": "uint128",
          "name": "flashLoanPremiumTotal",
          "type": "uint128"
        },
        {
          "internalType": "uint128",
          "name": "flashLoanPremiumToProtocol",
          "type": "uint128"
        }
      ],
      "name": "updateFlashloanPremiums",
      "outputs": [],
      "stateMutability": "nonpayable",
      "type": "function"
    },
    {
      "inputs": [
        {
          "internalType": "address",
          "name": "asset",
          "type": "address"
        },
        {
          "internalType": "uint256",
          "name": "amount",
          "type": "uint256"
        },
        {
          "internalType": "address",
          "name": "to",
          "type": "address"
        }
      ],
      "name": "withdraw",
      "outputs": [
        {
          "internalType": "uint256",
          "name": "",
          "type": "uint256"
        }
      ],
      "stateMutability": "nonpayable",
      "type": "function"
    }
  ],
  "bytecode": "0x60a060405260008055603b805461ffff60501b19166a80000000000000000000001790553480156200003057600080fd5b506040516200509438038062005094833981016040819052620000539162000065565b6001600160a01b031660805262000097565b6000602082840312156200007857600080fd5b81516001600160a01b03811681146200009057600080fd5b9392505050565b608051614f7f620001156000396000818161036101528181610b5001528181610c28015281816110b601528181611609015281816118d801528181611f2d01528181611ff101528181612210015281816124e40152818161273801528181612cff0152818161325e015281816133eb015261355e0152614f7f6000f3fe608060405234801561001057600080fd5b50600436106103145760003560e01c80636c6f6ae1116101a7578063d15e0053116100ee578063e82fec2f11610097578063ee3e210b11610071578063ee3e210b14610a7d578063f51e435b14610a90578063f8119d5114610aa357600080fd5b8063e82fec2f14610a3f578063e8eda9df14610702578063eddf1b7914610a5157600080fd5b8063d5ed3933116100c8578063d5ed393314610a06578063d65dc7a114610a19578063e43e88a114610a2c57600080fd5b8063d15e0053146109cb578063d1946dbc146109de578063d579ea7d146109f357600080fd5b8063bcb6e52211610150578063c4d66de81161012a578063c4d66de814610992578063cd112382146109a5578063cea9d26f146109b857600080fd5b8063bcb6e522146108fd578063bf92857c14610910578063c44b11f71461095057600080fd5b80639cd19996116101815780639cd19996146108c4578063a415bcad146108d7578063ab9c4b5d146108ea57600080fd5b80636c6f6ae11461087e5780637a708e921461089e57806394ba89a2146108b157600080fd5b8063386497fd1161026b5780635a3b74b91161021457806369328dec116101ee57806369328dec1461082a57806369a933a51461083d5780636a99c0361461085057600080fd5b80635a3b74b9146106ef578063617ba0371461070257806363c9b8601461071557600080fd5b80635275179711610245578063527517971461065e578063573ade811461068b57806357c68dc41461069e57600080fd5b8063386497fd146105e757806342b0b77c146105fa5780634417a5831461060d57600080fd5b80631d2118f9116102cd5780632dad97d4116102a75780632dad97d4146104005780633036b4391461041357806335ea6a751461042657600080fd5b80631d2118f9146103d2578063272d9072146103e557806328530a47146103ed57600080fd5b806302c205f0116102fe57806302c205f0146103495780630542975c1461035c578063074b2e431461039b57600080fd5b8062a718a9146103195780630148170e1461032e575b600080fd5b61032c610327366004613a0f565b610acb565b005b610336600181565b6040519081526020015b60405180910390f35b61032c610357366004613a9a565b610cf8565b6103837f000000000000000000000000000000000000000000000000000000000000000081565b6040516001600160a01b039091168152602001610340565b603a546fffffffffffffffffffffffffffffffff165b6040516fffffffffffffffffffffffffffffffff9091168152602001610340565b61032c6103e0366004613b19565b610e8e565b603954610336565b61032c6103fb366004613b52565b611048565b61033661040e366004613b6d565b6111e6565b61032c610421366004613ba2565b611303565b6105da610434366004613bbb565b604080516102008101825260006101e08201818152825260208201819052918101829052606081018290526080810182905260a0810182905260c0810182905260e08101829052610100810182905261012081018290526101408101829052610160810182905261018081018290526101a081018290526101c0810191909152506001600160a01b0390811660009081526034602090815260409182902082516102008101845281546101e08201908152815260018201546fffffffffffffffffffffffffffffffff80821694830194909452700100000000000000000000000000000000908190048416948201949094526002820154808416606083015284900483166080820152600382015480841660a083015284810464ffffffffff1660c08301527501000000000000000000000000000000000000000000900461ffff1660e0820152600482015485166101008201526005820154851661012082015260068201548516610140820152600782015490941661016085015260088101548083166101808601529290920481166101a0840152600990910154166101c082015290565b6040516103409190613bd8565b6103366105f5366004613bbb565b611310565b61032c610608366004613d91565b611337565b61064f61061b366004613bbb565b60408051602080820183526000918290526001600160a01b0393909316815260358352819020815192830190915254815290565b60405190518152602001610340565b61038361066c366004613e13565b61ffff166000908152603660205260409020546001600160a01b031690565b610336610699366004613e2e565b61148a565b61032c6106ac366004613e13565b603b805461ffff9092166a0100000000000000000000027fffffffffffffffffffffffffffffffffffffffff0000ffffffffffffffffffff909216919091179055565b61032c6106fd366004613e78565b6115af565b61032c610710366004613ea6565b611750565b61032c610723366004613bbb565b6001600160a01b031660008181526034602081815260408084206003810180547501000000000000000000000000000000000000000000900461ffff1686526036845291852080547fffffffffffffffffffffffff000000000000000000000000000000000000000090811690915595855292909152828255600182018390556002820183905580547fffffffffffffffffff0000000000000000000000000000000000000000000000169055600481018054841690556005810180548416905560068101805484169055600781018054909316909255600882015560090180547fffffffffffffffffffffffffffffffff00000000000000000000000000000000169055565b610336610838366004613ef7565b611846565b61032c61084b366004613ea6565b611a17565b603a5470010000000000000000000000000000000090046fffffffffffffffffffffffffffffffff166103b1565b61089161088c366004613b52565b611ab7565b6040516103409190613fa4565b61032c6108ac366004613ffa565b611be4565b61032c6108bf36600461405d565b611d43565b61032c6108d23660046140ce565b611db7565b61032c6108e5366004614110565b611e0c565b61032c6108f836600461414f565b61208a565b61032c61090b366004614269565b612402565b61092361091e366004613bbb565b612439565b604080519687526020870195909552938501929092526060840152608083015260a082015260c001610340565b61064f61095e366004613bbb565b60408051602080820183526000918290526001600160a01b0393909316815260348352819020815192830190915254815290565b61032c6109a0366004613bbb565b61264e565b61032c6109b3366004613b19565b61283f565b61032c6109c636600461429c565b6128bb565b6103366109d9366004613bbb565b61295c565b6109e661297d565b60405161034091906142dd565b61032c610a013660046143d1565b612a85565b61032c610a14366004614509565b612be4565b61032c610a27366004613b6d565b612e1d565b61032c610a3a366004613bbb565b612eae565b603b5467ffffffffffffffff16610336565b610336610a5f366004613bbb565b6001600160a01b031660009081526038602052604090205460ff1690565b610336610a8b36600461456e565b612f16565b61032c610a9e3660046145b4565b6130ca565b603b546a0100000000000000000000900461ffff1660405161ffff9091168152602001610340565b73__$88d97cbfcbe7267a67abcac493af9762ad$__6383c1087d6034603660356037604051806101200160405280603b60089054906101000a900461ffff1661ffff1681526020018981526020018c6001600160a01b031681526020018b6001600160a01b031681526020018a6001600160a01b0316815260200188151581526020017f00000000000000000000000000000000000000000000000000000000000000006001600160a01b031663fca513a86040518163ffffffff1660e01b8152600401602060405180830381865afa158015610bac573d6000803e3d6000fd5b505050506040513d601f19601f82011682018060405250810190610bd09190614613565b6001600160a01b0390811682528b81166000908152603860209081526040918290205460ff168185015281517f5eb88d3d000000000000000000000000000000000000000000000000000000008152825192909401937f000000000000000000000000000000000000000000000000000000000000000090931692635eb88d3d92600480830193928290030181865afa158015610c71573d6000803e3d6000fd5b505050506040513d601f19601f82011682018060405250810190610c959190614613565b6001600160a01b03168152506040518663ffffffff1660e01b8152600401610cc1959493929190614630565b60006040518083038186803b158015610cd957600080fd5b505af4158015610ced573d6000803e3d6000fd5b505050505050505050565b6040517fd505accf000000000000000000000000000000000000000000000000000000008152336004820152306024820152604481018890526064810185905260ff8416608482015260a4810183905260c481018290526001600160a01b0389169063d505accf9060e401600060405180830381600087803b158015610d7d57600080fd5b505af1158015610d91573d6000803e3d6000fd5b505050506001600160a01b0386811660008181526035602090815260409182902082516080810184528d861681529182018c815282840194855261ffff8b81166060850190815294517f1913f16100000000000000000000000000000000000000000000000000000000815260346004820152603660248201526044810193909352925186166064830152516084820152925190931660a48301525190911660c482015273__$74d960f05651b5bc55d688f34949adfc72$__90631913f1619060e40160006040518083038186803b158015610e6c57600080fd5b505af4158015610e80573d6000803e3d6000fd5b505050505050505050505050565b610e96613252565b60408051808201909152600281527f373700000000000000000000000000000000000000000000000000000000000060208201526001600160a01b038316610f14576040517f08c379a0000000000000000000000000000000000000000000000000000000008152600401610f0b91906146ea565b60405180910390fd5b506001600160a01b0382166000908152603460205260409020600301547501000000000000000000000000000000000000000000900461ffff16151580610f9057506000805260366020527f4cb2b152c1b54ce671907a93c300fd5aa72383a9d4ec19a81e3333632ae92e00546001600160a01b038381169116145b6040518060400160405280600281526020017f383200000000000000000000000000000000000000000000000000000000000081525090610ffe576040517f08c379a0000000000000000000000000000000000000000000000000000000008152600401610f0b91906146ea565b506001600160a01b03918216600090815260346020526040902060070180547fffffffffffffffffffffffff00000000000000000000000000000000000000001691909216179055565b73__$16a2d43c8cfe70aa08e52e869fb1f7c64b$__635d5dc313603460366037603860356000336001600160a01b03166001600160a01b031681526020019081526020016000206040518060600160405280603b60089054906101000a900461ffff1661ffff1681526020017f00000000000000000000000000000000000000000000000000000000000000006001600160a01b031663fca513a86040518163ffffffff1660e01b8152600401602060405180830381865afa158015611112573d6000803e3d6000fd5b505050506040513d601f19601f820116820180604052508101906111369190614613565b6001600160a01b031681526020018960ff168152506040518763ffffffff1660e01b81526004016111b39695949392919095865260208087019590955260408087019490945260608601929092526080850152805160a0850152918201516001600160a01b031660c0840152015160ff1660e08201526101000190565b60006040518083038186803b1580156111cb57600080fd5b505af41580156111df573d6000803e3d6000fd5b5050505050565b600073__$5ea960667ee7e4e23cd692aeb56f111df2$__6340e95de66034603660356000336001600160a01b03166001600160a01b031681526020019081526020016000206040518060a001604052808a6001600160a01b0316815260200189815260200188600281111561125d5761125d6146fd565b600281111561126e5761126e6146fd565b81523360208201526001604091820152517fffffffff0000000000000000000000000000000000000000000000000000000060e087901b1681526112b89493929190600401614767565b602060405180830381865af41580156112d5573d6000803e3d6000fd5b505050506040513d601f19601f820116820180604052508101906112f991906147cd565b90505b9392505050565b61130b613252565b603955565b6001600160a01b038116600090815260346020526040812061133190613359565b92915050565b60006040518060e00160405280886001600160a01b03168152602001876001600160a01b0316815260200186815260200185858080601f016020809104026020016040519081016040528093929190818152602001838380828437600092018290525093855250505061ffff8516602080840191909152603a546fffffffffffffffffffffffffffffffff7001000000000000000000000000000000008204811660408087019190915291166060909401939093526001600160a01b038a1682526034905281902090517fa1fe0e8d00000000000000000000000000000000000000000000000000000000815291925073__$4f44554b1390c1bfd654dd4d99e849b537$__9163a1fe0e8d916114519185906004016147e6565b60006040518083038186803b15801561146957600080fd5b505af415801561147d573d6000803e3d6000fd5b5050505050505050505050565b600073__$5ea960667ee7e4e23cd692aeb56f111df2$__6340e95de66034603660356000876001600160a01b03166001600160a01b031681526020019081526020016000206040518060a001604052808b6001600160a01b031681526020018a8152602001896002811115611501576115016146fd565b6002811115611512576115126146fd565b81526001600160a01b03891660208201526000604091820152517fffffffff0000000000000000000000000000000000000000000000000000000060e087901b1681526115659493929190600401614767565b602060405180830381865af4158015611582573d6000803e3d6000fd5b505050506040513d601f19601f820116820180604052508101906115a691906147cd565b95945050505050565b73__$74d960f05651b5bc55d688f34949adfc72$__63bf697a2660346036603760356000336001600160a01b03166001600160a01b031681526020019081526020016000208787603b60089054906101000a900461ffff167f00000000000000000000000000000000000000000000000000000000000000006001600160a01b031663fca513a86040518163ffffffff1660e01b8152600401602060405180830381865afa158015611665573d6000803e3d6000fd5b505050506040513d601f19601f820116820180604052508101906116899190614613565b336000908152603860205260409081902054905160e08b901b7fffffffff0000000000000000000000000000000000000000000000000000000016815260048101999099526024890197909752604488019590955260648701939093526001600160a01b039182166084870152151560a486015261ffff90911660c48501521660e483015260ff16610104820152610124015b60006040518083038186803b15801561173457600080fd5b505af4158015611748573d6000803e3d6000fd5b505050505050565b6001600160a01b038281166000818152603560209081526040918290208251608081018452898616815291820188815282840194855261ffff8781166060850190815294517f1913f16100000000000000000000000000000000000000000000000000000000815260346004820152603660248201526044810193909352925186166064830152516084820152925190931660a48301525190911660c482015273__$74d960f05651b5bc55d688f34949adfc72$__90631913f1619060e4015b60006040518083038186803b15801561182857600080fd5b505af415801561183c573d6000803e3d6000fd5b5050505050505050565b600073__$74d960f05651b5bc55d688f34949adfc72$__63186dea4460346036603760356000336001600160a01b03166001600160a01b031681526020019081526020016000206040518060c001604052808b6001600160a01b031681526020018a8152602001896001600160a01b03168152602001603b60089054906101000a900461ffff1661ffff1681526020017f00000000000000000000000000000000000000000000000000000000000000006001600160a01b031663fca513a86040518163ffffffff1660e01b8152600401602060405180830381865afa158015611934573d6000803e3d6000fd5b505050506040513d601f19601f820116820180604052508101906119589190614613565b6001600160a01b039081168252336000908152603860209081526040918290205460ff90811694820194909452815160e08b901b7fffffffff0000000000000000000000000000000000000000000000000000000016815260048101999099526024890197909752604488019590955260648701939093528151831660848701529381015160a486015291820151811660c4850152606082015160e485015260808201511661010484015260a0015116610124820152610144016112b8565b611a1f6133e9565b6001600160a01b038281166000818152603560205260409081902090517f0413c86f0000000000000000000000000000000000000000000000000000000081526034600482015260366024820152604481019190915291861660648301526084820185905260a482015261ffff821660c482015273__$63d13bd1f7e7a0ab47fe2c59da08a2cacc$__90630413c86f9060e401611810565b6040805160a081018252600080825260208201819052918101829052606080820192909252608081019190915260ff8216600090815260376020908152604091829020825160a081018452815461ffff808216835262010000820481169483019490945264010000000081049093169381019390935266010000000000009091046001600160a01b03166060830152600181018054608084019190611b5b90614864565b80601f0160208091040260200160405190810160405280929190818152602001828054611b8790614864565b8015611bd45780601f10611ba957610100808354040283529160200191611bd4565b820191906000526020600020905b815481529060010190602001808311611bb757829003601f168201915b5050505050815250509050919050565b611bec613252565b73__$0de23ea210d7134877a59c3e2ddad15b59$__6369fc1bdf603460366040518060e001604052808a6001600160a01b03168152602001896001600160a01b03168152602001886001600160a01b03168152602001876001600160a01b03168152602001866001600160a01b03168152602001603b60089054906101000a900461ffff1661ffff168152602001611c96603b5461ffff6a01000000000000000000009091041690565b61ffff168152506040518463ffffffff1660e01b8152600401611cbb939291906148b2565b602060405180830381865af4158015611cd8573d6000803e3d6000fd5b505050506040513d601f19601f82011682018060405250810190611cfc9190614935565b156111df57603b805468010000000000000000900461ffff16906008611d2183614981565b91906101000a81548161ffff021916908361ffff160217905550505050505050565b6001600160a01b0382166000908152603460209081526040808320338452603590925290912073__$5ea960667ee7e4e23cd692aeb56f111df2$__9163eac4d7039185856002811115611d9857611d986146fd565b6040518563ffffffff1660e01b815260040161171c94939291906149a3565b6040517f48c2ca8c00000000000000000000000000000000000000000000000000000000815273__$0de23ea210d7134877a59c3e2ddad15b59$__906348c2ca8c9061171c90603490869086906004016149cd565b73__$5ea960667ee7e4e23cd692aeb56f111df2$__631e6473f960346036603760356000876001600160a01b03166001600160a01b031681526020019081526020016000206040518061018001604052808c6001600160a01b03168152602001336001600160a01b03168152602001886001600160a01b031681526020018b81526020018a6002811115611ea257611ea26146fd565b6002811115611eb357611eb36146fd565b815261ffff808b166020808401919091526001604080850191909152603b5467ffffffffffffffff81166060860152680100000000000000009004909216608084015281517ffca513a8000000000000000000000000000000000000000000000000000000008152915160a0909301926001600160a01b037f0000000000000000000000000000000000000000000000000000000000000000169263fca513a89260048083019391928290030181865afa158015611f75573d6000803e3d6000fd5b505050506040513d601f19601f82011682018060405250810190611f999190614613565b6001600160a01b0390811682528981166000908152603860209081526040918290205460ff168185015281517f5eb88d3d000000000000000000000000000000000000000000000000000000008152825192909401937f000000000000000000000000000000000000000000000000000000000000000090931692635eb88d3d92600480830193928290030181865afa15801561203a573d6000803e3d6000fd5b505050506040513d601f19601f8201168201806040525081019061205e9190614613565b6001600160a01b03168152506040518663ffffffff1660e01b8152600401610cc1959493929190614a25565b6000604051806101c001604052808d6001600160a01b031681526020018c8c808060200260200160405190810160405280939291908181526020018383602002808284376000920191909152505050908252506040805160208c810282810182019093528c82529283019290918d918d9182918501908490808284376000920191909152505050908252506040805160208a810282810182019093528a82529283019290918b918b9182918501908490808284376000920191909152505050908252506001600160a01b03871660208083019190915260408051601f88018390048302810183018252878152920191908790879081908401838280828437600092018290525093855250505061ffff808616602080850191909152603a546fffffffffffffffffffffffffffffffff7001000000000000000000000000000000008204811660408088019190915291166060860152603b5467ffffffffffffffff8116608087015268010000000000000000900490921660a08501526001600160a01b037f0000000000000000000000000000000000000000000000000000000000000000811660c08601819052908b16845260388252928290205460ff1660e085015281517f707cd71600000000000000000000000000000000000000000000000000000000815291516101009094019363707cd7169260048082019392918290030181865afa1580156122a3573d6000803e3d6000fd5b505050506040513d601f19601f820116820180604052508101906122c79190614613565b6040517ffa50f2970000000000000000000000000000000000000000000000000000000081523360048201526001600160a01b03919091169063fa50f29790602401602060405180830381865afa158015612326573d6000803e3d6000fd5b505050506040513d601f19601f8201168201806040525081019061234a9190614935565b151590526001600160a01b0386166000908152603560205260409081902090517f2e7263ea00000000000000000000000000000000000000000000000000000000815291925073__$4f44554b1390c1bfd654dd4d99e849b537$__91632e7263ea916123c491603491603691603791908890600401614b8d565b60006040518083038186803b1580156123dc57600080fd5b505af41580156123f0573d6000803e3d6000fd5b50505050505050505050505050505050565b61240a613252565b6fffffffffffffffffffffffffffffffff90811670010000000000000000000000000000000002911617603a55565b604080516001600160a01b0383811660008181526035602090815285822060c0860187525460a086019081528552603b5468010000000000000000900461ffff16818601528486019290925284517ffca513a8000000000000000000000000000000000000000000000000000000008152945190948594859485948594859473__$0de23ea210d7134877a59c3e2ddad15b59$__946326ec273f9460349460369460379460608501937f0000000000000000000000000000000000000000000000000000000000000000169263fca513a8926004808401938290030181865afa15801561252a573d6000803e3d6000fd5b505050506040513d601f19601f8201168201806040525081019061254e9190614613565b6001600160a01b0390811682528e81166000908152603860209081526040918290205460ff90811694820194909452815160e08a901b7fffffffff00000000000000000000000000000000000000000000000000000000168152600481019890985260248801969096526044870194909452825151606487015293820151608486015291810151831660a4850152606081015190921660c48401526080909101511660e48201526101040160c060405180830381865af4158015612616573d6000803e3d6000fd5b505050506040513d601f19601f8201168201806040525081019061263a9190614d0c565b949c939b5091995097509550909350915050565b60015460039060ff16806126615750303b155b8061266d575060005481115b6126f9576040517f08c379a000000000000000000000000000000000000000000000000000000000815260206004820152602e60248201527f436f6e747261637420696e7374616e63652068617320616c726561647920626560448201527f656e20696e697469616c697a65640000000000000000000000000000000000006064820152608401610f0b565b60015460ff1615801561273657600180547fffffffffffffffffffffffffffffffffffffffffffffffffffffffffffffff00168117905560008290555b7f00000000000000000000000000000000000000000000000000000000000000006001600160a01b0316836001600160a01b0316146040518060400160405280600281526020017f3132000000000000000000000000000000000000000000000000000000000000815250906127d9576040517f08c379a0000000000000000000000000000000000000000000000000000000008152600401610f0b91906146ea565b50603b80547fffffffffffffffffffffffffffffffffffffffffffffffff0000000000000000166109c41790556009603a55801561283a57600180547fffffffffffffffffffffffffffffffffffffffffffffffffffffffffffffff001690555b505050565b6001600160a01b038281166000818152603460205260409081902090517f6973f74400000000000000000000000000000000000000000000000000000000815260048101919091526024810191909152908216604482015273__$5ea960667ee7e4e23cd692aeb56f111df2$__90636973f7449060640161171c565b6128c361355c565b6040517f87b322b20000000000000000000000000000000000000000000000000000000081526001600160a01b038085166004830152831660248201526044810182905273__$0de23ea210d7134877a59c3e2ddad15b59$__906387b322b2906064015b60006040518083038186803b15801561293f57600080fd5b505af4158015612953573d6000803e3d6000fd5b50505050505050565b6001600160a01b0381166000908152603460205260408120611331906136cf565b603b5460609068010000000000000000900461ffff166000808267ffffffffffffffff8111156129af576129af61432a565b6040519080825280602002602001820160405280156129d8578160200160208202803683370190505b50905060005b83811015612a7b576000818152603660205260409020546001600160a01b031615612a5b576000818152603660205260409020546001600160a01b031682612a268584614d56565b81518110612a3657612a36614d6d565b60200260200101906001600160a01b031690816001600160a01b031681525050612a69565b82612a6581614d9c565b9350505b80612a7381614d9c565b9150506129de565b5091038152919050565b612a8d613252565b60408051808201909152600281527f3136000000000000000000000000000000000000000000000000000000000000602082015260ff8316612afc576040517f08c379a0000000000000000000000000000000000000000000000000000000008152600401610f0b91906146ea565b5060ff821660009081526037602090815260409182902083518154838601519486015160608701516001600160a01b03166601000000000000027fffffffffffff0000000000000000000000000000000000000000ffffffffffff61ffff92831664010000000002167fffffffffffff00000000000000000000000000000000000000000000ffffffff97831662010000027fffffffffffffffffffffffffffffffffffffffffffffffffffffffff000000009094169290941691909117919091179490941617929092178255608083015180518493926111df926001850192910190613943565b6001600160a01b03868116600090815260346020908152604091829020600401548251808401909352600283527f3131000000000000000000000000000000000000000000000000000000000000918301919091529091163314612c75576040517f08c379a0000000000000000000000000000000000000000000000000000000008152600401610f0b91906146ea565b5073__$74d960f05651b5bc55d688f34949adfc72$__638a5dadd160346036603760356040518061012001604052808d6001600160a01b031681526020018c6001600160a01b031681526020018b6001600160a01b031681526020018a8152602001898152602001888152602001603b60089054906101000a900461ffff1661ffff1681526020017f00000000000000000000000000000000000000000000000000000000000000006001600160a01b031663fca513a86040518163ffffffff1660e01b8152600401602060405180830381865afa158015612d5b573d6000803e3d6000fd5b505050506040513d601f19601f82011682018060405250810190612d7f9190614613565b6001600160a01b0390811682528d166000908152603860209081526040918290205460ff16920191909152517fffffffff0000000000000000000000000000000000000000000000000000000060e088901b168152612de5959493929190600401614dd5565b60006040518083038186803b158015612dfd57600080fd5b505af4158015612e11573d6000803e3d6000fd5b50505050505050505050565b612e256133e9565b6001600160a01b0383166000818152603460205260409081902060395491517f8e743248000000000000000000000000000000000000000000000000000000008152600481019190915260248101929092526044820184905260648201839052608482015273__$63d13bd1f7e7a0ab47fe2c59da08a2cacc$__90638e7432489060a401612927565b612eb6613252565b6040517f1e3b4145000000000000000000000000000000000000000000000000000000008152603460048201526001600160a01b038216602482015273__$0de23ea210d7134877a59c3e2ddad15b59$__90631e3b4145906044016111b3565b6040517fd505accf000000000000000000000000000000000000000000000000000000008152336004820152306024820152604481018890526064810185905260ff8416608482015260a4810183905260c481018290526000906001600160a01b038a169063d505accf9060e401600060405180830381600087803b158015612f9e57600080fd5b505af1158015612fb2573d6000803e3d6000fd5b5050505060006040518060a001604052808b6001600160a01b031681526020018a8152602001896002811115612fea57612fea6146fd565b6002811115612ffb57612ffb6146fd565b81526001600160a01b0389166020808301829052600060409384018190529182526035905281902090517f40e95de600000000000000000000000000000000000000000000000000000000815291925073__$5ea960667ee7e4e23cd692aeb56f111df2$__916340e95de69161307b916034916036918790600401614767565b602060405180830381865af4158015613098573d6000803e3d6000fd5b505050506040513d601f19601f820116820180604052508101906130bc91906147cd565b9a9950505050505050505050565b6130d2613252565b60408051808201909152600281527f373700000000000000000000000000000000000000000000000000000000000060208201526001600160a01b038316613147576040517f08c379a0000000000000000000000000000000000000000000000000000000008152600401610f0b91906146ea565b506001600160a01b0382166000908152603460205260409020600301547501000000000000000000000000000000000000000000900461ffff161515806131c357506000805260366020527f4cb2b152c1b54ce671907a93c300fd5aa72383a9d4ec19a81e3333632ae92e00546001600160a01b038381169116145b6040518060400160405280600281526020017f383200000000000000000000000000000000000000000000000000000000000081525090613231576040517f08c379a0000000000000000000000000000000000000000000000000000000008152600401610f0b91906146ea565b506001600160a01b0391909116600090815260346020526040902090359055565b336001600160a01b03167f00000000000000000000000000000000000000000000000000000000000000006001600160a01b031663631adfca6040518163ffffffff1660e01b8152600401602060405180830381865afa1580156132ba573d6000803e3d6000fd5b505050506040513d601f19601f820116820180604052508101906132de9190614613565b6001600160a01b0316146040518060400160405280600281526020017f313000000000000000000000000000000000000000000000000000000000000081525090613356576040517f08c379a0000000000000000000000000000000000000000000000000000000008152600401610f0b91906146ea565b50565b6003810154600090700100000000000000000000000000000000900464ffffffffff164281141561339f575050600201546fffffffffffffffffffffffffffffffff1690565b60028301546112fc906fffffffffffffffffffffffffffffffff808216916133dd917001000000000000000000000000000000009091041684613753565b90613760565b50919050565b7f00000000000000000000000000000000000000000000000000000000000000006001600160a01b031663707cd7166040518163ffffffff1660e01b8152600401602060405180830381865afa158015613447573d6000803e3d6000fd5b505050506040513d601f19601f8201168201806040525081019061346b9190614613565b6040517f726600ce0000000000000000000000000000000000000000000000000000000081523360048201526001600160a01b03919091169063726600ce90602401602060405180830381865afa1580156134ca573d6000803e3d6000fd5b505050506040513d601f19601f820116820180604052508101906134ee9190614935565b6040518060400160405280600181526020017f360000000000000000000000000000000000000000000000000000000000000081525090613356576040517f08c379a0000000000000000000000000000000000000000000000000000000008152600401610f0b91906146ea565b7f00000000000000000000000000000000000000000000000000000000000000006001600160a01b031663707cd7166040518163ffffffff1660e01b8152600401602060405180830381865afa1580156135ba573d6000803e3d6000fd5b505050506040513d601f19601f820116820180604052508101906135de9190614613565b6040517f7be53ca10000000000000000000000000000000000000000000000000000000081523360048201526001600160a01b039190911690637be53ca190602401602060405180830381865afa15801561363d573d6000803e3d6000fd5b505050506040513d601f19601f820116820180604052508101906136619190614935565b6040518060400160405280600181526020017f310000000000000000000000000000000000000000000000000000000000000081525090613356576040517f08c379a0000000000000000000000000000000000000000000000000000000008152600401610f0b91906146ea565b6003810154600090700100000000000000000000000000000000900464ffffffffff1642811415613715575050600101546fffffffffffffffffffffffffffffffff1690565b60018301546112fc906fffffffffffffffffffffffffffffffff808216916133dd9170010000000000000000000000000000000090910416846137b7565b60006112fc8383426137fc565b600081157ffffffffffffffffffffffffffffffffffffffffffe6268e1b017bfe18bffffff8390048411151761379557600080fd5b506b033b2e3c9fd0803ce800000091026b019d971e4fe8401e74000000010490565b6000806137cb64ffffffffff841642614d56565b6137d59085614e8a565b6301e13380900490506137f4816b033b2e3c9fd0803ce8000000614ef6565b949350505050565b60008061381064ffffffffff851684614d56565b90508061382c576b033b2e3c9fd0803ce80000009150506112fc565b7fffffffffffffffffffffffffffffffffffffffffffffffffffffffffffffffff81016000808060028511613862576000613867565b600285035b925066038882915c400061387b8a80613760565b8161388857613888614ec7565b0491506301e1338061389a838b613760565b816138a7576138a7614ec7565b0490506000826138b78688614e8a565b6138c19190614e8a565b600290049050600082856138d5888a614e8a565b6138df9190614e8a565b6138e99190614e8a565b60069004905080826301e133806139008a8f614e8a565b61390a9190614f0e565b613920906b033b2e3c9fd0803ce8000000614ef6565b61392a9190614ef6565b6139349190614ef6565b9b9a5050505050505050505050565b82805461394f90614864565b90600052602060002090601f01602090048101928261397157600085556139b7565b82601f1061398a57805160ff19168380011785556139b7565b828001600101855582156139b7579182015b828111156139b757825182559160200191906001019061399c565b506139c39291506139c7565b5090565b5b808211156139c357600081556001016139c8565b6001600160a01b038116811461335657600080fd5b80356139fc816139dc565b919050565b801515811461335657600080fd5b600080600080600060a08688031215613a2757600080fd5b8535613a32816139dc565b94506020860135613a42816139dc565b93506040860135613a52816139dc565b9250606086013591506080860135613a6981613a01565b809150509295509295909350565b803561ffff811681146139fc57600080fd5b803560ff811681146139fc57600080fd5b600080600080600080600080610100898b031215613ab757600080fd5b8835613ac2816139dc565b9750602089013596506040890135613ad9816139dc565b9550613ae760608a01613a77565b945060808901359350613afc60a08a01613a89565b925060c0890135915060e089013590509295985092959890939650565b60008060408385031215613b2c57600080fd5b8235613b37816139dc565b91506020830135613b47816139dc565b809150509250929050565b600060208284031215613b6457600080fd5b6112fc82613a89565b600080600060608486031215613b8257600080fd5b8335613b8d816139dc565b95602085013595506040909401359392505050565b600060208284031215613bb457600080fd5b5035919050565b600060208284031215613bcd57600080fd5b81356112fc816139dc565b81515181526101e081016020830151613c0560208401826fffffffffffffffffffffffffffffffff169052565b506040830151613c2960408401826fffffffffffffffffffffffffffffffff169052565b506060830151613c4d60608401826fffffffffffffffffffffffffffffffff169052565b506080830151613c7160808401826fffffffffffffffffffffffffffffffff169052565b5060a0830151613c9560a08401826fffffffffffffffffffffffffffffffff169052565b5060c0830151613cae60c084018264ffffffffff169052565b5060e0830151613cc460e084018261ffff169052565b50610100838101516001600160a01b039081169184019190915261012080850151821690840152610140808501518216908401526101608085015190911690830152610180808401516fffffffffffffffffffffffffffffffff908116918401919091526101a0808501518216908401526101c09384015116929091019190915290565b60008083601f840112613d5a57600080fd5b50813567ffffffffffffffff811115613d7257600080fd5b602083019150836020828501011115613d8a57600080fd5b9250929050565b60008060008060008060a08789031215613daa57600080fd5b8635613db5816139dc565b95506020870135613dc5816139dc565b945060408701359350606087013567ffffffffffffffff811115613de857600080fd5b613df489828a01613d48565b9094509250613e07905060808801613a77565b90509295509295509295565b600060208284031215613e2557600080fd5b6112fc82613a77565b60008060008060808587031215613e4457600080fd5b8435613e4f816139dc565b935060208501359250604085013591506060850135613e6d816139dc565b939692955090935050565b60008060408385031215613e8b57600080fd5b8235613e96816139dc565b91506020830135613b4781613a01565b60008060008060808587031215613ebc57600080fd5b8435613ec7816139dc565b9350602085013592506040850135613ede816139dc565b9150613eec60608601613a77565b905092959194509250565b600080600060608486031215613f0c57600080fd5b8335613f17816139dc565b9250602084013591506040840135613f2e816139dc565b809150509250925092565b6000815180845260005b81811015613f5f57602081850181015186830182015201613f43565b81811115613f71576000602083870101525b50601f017fffffffffffffffffffffffffffffffffffffffffffffffffffffffffffffffe0169290920160200192915050565b60208152600061ffff808451166020840152806020850151166040840152806040850151166060840152506001600160a01b036060840151166080830152608083015160a0808401526137f460c0840182613f39565b600080600080600060a0868803121561401257600080fd5b853561401d816139dc565b9450602086013561402d816139dc565b9350604086013561403d816139dc565b9250606086013561404d816139dc565b91506080860135613a69816139dc565b6000806040838503121561407057600080fd5b823561407b816139dc565b946020939093013593505050565b60008083601f84011261409b57600080fd5b50813567ffffffffffffffff8111156140b357600080fd5b6020830191508360208260051b8501011115613d8a57600080fd5b600080602083850312156140e157600080fd5b823567ffffffffffffffff8111156140f857600080fd5b61410485828601614089565b90969095509350505050565b600080600080600060a0868803121561412857600080fd5b8535614133816139dc565b9450602086013593506040860135925061404d60608701613a77565b600080600080600080600080600080600060e08c8e03121561417057600080fd5b6141798c6139f1565b9a5067ffffffffffffffff8060208e0135111561419557600080fd5b6141a58e60208f01358f01614089565b909b50995060408d01358110156141bb57600080fd5b6141cb8e60408f01358f01614089565b909950975060608d01358110156141e157600080fd5b6141f18e60608f01358f01614089565b909750955061420260808e016139f1565b94508060a08e0135111561421557600080fd5b506142268d60a08e01358e01613d48565b909350915061423760c08d01613a77565b90509295989b509295989b9093969950565b80356fffffffffffffffffffffffffffffffff811681146139fc57600080fd5b6000806040838503121561427c57600080fd5b61428583614249565b915061429360208401614249565b90509250929050565b6000806000606084860312156142b157600080fd5b83356142bc816139dc565b925060208401356142cc816139dc565b929592945050506040919091013590565b6020808252825182820181905260009190848201906040850190845b8181101561431e5783516001600160a01b0316835292840192918401916001016142f9565b50909695505050505050565b7f4e487b7100000000000000000000000000000000000000000000000000000000600052604160045260246000fd5b60405160a0810167ffffffffffffffff8111828210171561437c5761437c61432a565b60405290565b604051601f82017fffffffffffffffffffffffffffffffffffffffffffffffffffffffffffffffe016810167ffffffffffffffff811182821017156143c9576143c961432a565b604052919050565b600080604083850312156143e457600080fd5b6143ed83613a89565b915060208084013567ffffffffffffffff8082111561440b57600080fd5b9085019060a0828803121561441f57600080fd5b614427614359565b61443083613a77565b815261443d848401613a77565b8482015261444d60408401613a77565b60408201526060830135614460816139dc565b606082015260808301358281111561447757600080fd5b80840193505087601f84011261448c57600080fd5b82358281111561449e5761449e61432a565b6144ce857fffffffffffffffffffffffffffffffffffffffffffffffffffffffffffffffe0601f84011601614382565b925080835288858286010111156144e457600080fd5b8085850186850137600085828501015250816080820152809450505050509250929050565b60008060008060008060c0878903121561452257600080fd5b863561452d816139dc565b9550602087013561453d816139dc565b9450604087013561454d816139dc565b959894975094956060810135955060808101359460a0909101359350915050565b600080600080600080600080610100898b03121561458b57600080fd5b8835614596816139dc565b975060208901359650604089013595506060890135613ae7816139dc565b60008082840360408112156145c857600080fd5b83356145d3816139dc565b925060207fffffffffffffffffffffffffffffffffffffffffffffffffffffffffffffffe08201121561460557600080fd5b506020830190509250929050565b60006020828403121561462557600080fd5b81516112fc816139dc565b60006101a08201905086825285602083015284604083015283606083015282516080830152602083015160a083015260408301516001600160a01b0380821660c08501528060608601511660e08501525050608083015161010061469e818501836001600160a01b03169052565b60a0850151151561012085015260c08501516001600160a01b0390811661014086015260e086015160ff166101608601529085015190811661018085015290505b509695505050505050565b6020815260006112fc6020830184613f39565b7f4e487b7100000000000000000000000000000000000000000000000000000000600052602160045260246000fd5b60038110614763577f4e487b7100000000000000000000000000000000000000000000000000000000600052602160045260246000fd5b9052565b6000610100820190508582528460208301528360408301526001600160a01b038084511660608401526020840151608084015260408401516147ac60a085018261472c565b5060608401511660c0830152608090920151151560e0909101529392505050565b6000602082840312156147df57600080fd5b5051919050565b8281526040602082015260006001600160a01b038084511660408401528060208501511660608401525060408301516080830152606083015160e060a0840152614834610120840182613f39565b905061ffff60808501511660c084015260a084015160e084015260c0840151610100840152809150509392505050565b600181811c9082168061487857607f821691505b602082108114156133e3577f4e487b7100000000000000000000000000000000000000000000000000000000600052602260045260246000fd5b6000610120820190508482528360208301526001600160a01b038084511660408401528060208501511660608401528060408501511660808401528060608501511660a08401528060808501511660c08401525060a083015161491b60e084018261ffff169052565b5060c083015161ffff811661010084015250949350505050565b60006020828403121561494757600080fd5b81516112fc81613a01565b7f4e487b7100000000000000000000000000000000000000000000000000000000600052601160045260246000fd5b600061ffff8083168181141561499957614999614952565b6001019392505050565b848152602081018490526001600160a01b0383166040820152608081016115a6606083018461472c565b83815260406020808301829052908201839052600090849060608401835b86811015614a195783356149fe816139dc565b6001600160a01b0316825292820192908201906001016149eb565b50979650505050505050565b85815260208101859052604081018490526060810183905281516001600160a01b03166080820152610200810160208301516001600160a01b03811660a08401525060408301516001600160a01b03811660c084015250606083015160e08301526080830151610100614a9a8185018361472c565b60a08501519150610120614ab38186018461ffff169052565b60c08601519250610140614aca8187018515159052565b60e08701516101608781019190915292870151610180870152908601516001600160a01b039081166101a08701529086015160ff166101c0860152908501519081166101e085015290506146df565b600081518084526020808501945080840160005b83811015614b525781516001600160a01b031687529582019590820190600101614b2d565b509495945050505050565b600081518084526020808501945080840160005b83811015614b5257815187529582019590820190600101614b71565b85815284602082015283604082015282606082015260a06080820152614bbf60a0820183516001600160a01b03169052565b600060208301516101c08060c0850152614bdd610260850183614b19565b915060408501517fffffffffffffffffffffffffffffffffffffffffffffffffffffffffffffff60808685030160e0870152614c198483614b5d565b935060608701519150610100818786030181880152614c388584614b5d565b945060808801519250610120614c58818901856001600160a01b03169052565b60a089015193506101408389880301818a0152614c758786613f39565b965060c08a015194506101609350614c92848a018661ffff169052565b60e08a0151945061018085818b0152838b015195506101a0935085848b0152828b0151878b0152818b01516101e08b0152848b01519650614cdf6102008b01886001600160a01b03169052565b8a015160ff81166102208b01529550614cf6915050565b8701518015156102408801529250614a19915050565b60008060008060008060c08789031215614d2557600080fd5b865195506020870151945060408701519350606087015192506080870151915060a087015190509295509295509295565b600082821015614d6857614d68614952565b500390565b7f4e487b7100000000000000000000000000000000000000000000000000000000600052603260045260246000fd5b60007fffffffffffffffffffffffffffffffffffffffffffffffffffffffffffffffff821415614dce57614dce614952565b5060010190565b60006101a0820190508682528560208301528460408301528360608301526001600160a01b038084511660808401528060208501511660a0840152506040830151614e2b60c08401826001600160a01b03169052565b50606083015160e08301526080830151610100818185015260a085015161012085015260c085015161014085015260e08501519150614e766101608501836001600160a01b03169052565b84015160ff811661018085015290506146df565b6000817fffffffffffffffffffffffffffffffffffffffffffffffffffffffffffffffff0483118215151615614ec257614ec2614952565b500290565b7f4e487b7100000000000000000000000000000000000000000000000000000000600052601260045260246000fd5b60008219821115614f0957614f09614952565b500190565b600082614f44577f4e487b7100000000000000000000000000000000000000000000000000000000600052601260045260246000fd5b50049056fea2646970667358221220c22af06c60c2490b774f42d86f459db1f986b2da858f9a145c267a9455d052d264736f6c634300080a0033",
  "linkReferences": {
    "@mahalend/core-v3/contracts/protocol/libraries/logic/BorrowLogic.sol": {
      "BorrowLogic": [
        {
          "length": 20,
          "start": 4863
        },
        {
          "length": 20,
          "start": 5539
        },
        {
          "length": 20,
          "start": 7808
        },
        {
          "length": 20,
          "start": 7971
        },
        {
          "length": 20,
          "start": 10670
        },
        {
          "length": 20,
          "start": 12642
        }
      ]
    },
    "@mahalend/core-v3/contracts/protocol/libraries/logic/BridgeLogic.sol": {
      "BridgeLogic": [
        {
          "length": 20,
          "start": 7082
        },
        {
          "length": 20,
          "start": 12193
        }
      ]
    },
    "@mahalend/core-v3/contracts/protocol/libraries/logic/EModeLogic.sol": {
      "EModeLogic": [
        {
          "length": 20,
          "start": 4447
        }
      ]
    },
    "@mahalend/core-v3/contracts/protocol/libraries/logic/FlashLoanLogic.sol": {
      "FlashLoanLogic": [
        {
          "length": 20,
          "start": 5438
        },
        {
          "length": 20,
          "start": 9383
        }
      ]
    },
    "@mahalend/core-v3/contracts/protocol/libraries/logic/LiquidationLogic.sol": {
      "LiquidationLogic": [
        {
          "length": 20,
          "start": 3042
        }
      ]
    },
    "@mahalend/core-v3/contracts/protocol/libraries/logic/PoolLogic.sol": {
      "PoolLogic": [
        {
          "length": 20,
          "start": 7427
        },
        {
          "length": 20,
          "start": 7924
        },
        {
          "length": 20,
          "start": 9679
        },
        {
          "length": 20,
          "start": 10782
        },
        {
          "length": 20,
          "start": 12297
        }
      ]
    },
    "@mahalend/core-v3/contracts/protocol/libraries/logic/SupplyLogic.sol": {
      "SupplyLogic": [
        {
          "length": 20,
          "start": 3916
        },
        {
          "length": 20,
          "start": 5830
        },
        {
          "length": 20,
          "start": 6407
        },
        {
          "length": 20,
          "start": 6495
        },
        {
          "length": 20,
          "start": 11661
        }
      ]
    }
  },
  "deployedLinkReferences": {
    "@mahalend/core-v3/contracts/protocol/libraries/logic/BorrowLogic.sol": {
      "BorrowLogic": [
        {
          "length": 20,
          "start": 4586
        },
        {
          "length": 20,
          "start": 5262
        },
        {
          "length": 20,
          "start": 7531
        },
        {
          "length": 20,
          "start": 7694
        },
        {
          "length": 20,
          "start": 10393
        },
        {
          "length": 20,
          "start": 12365
        }
      ]
    },
    "@mahalend/core-v3/contracts/protocol/libraries/logic/BridgeLogic.sol": {
      "BridgeLogic": [
        {
          "length": 20,
          "start": 6805
        },
        {
          "length": 20,
          "start": 11916
        }
      ]
    },
    "@mahalend/core-v3/contracts/protocol/libraries/logic/EModeLogic.sol": {
      "EModeLogic": [
        {
          "length": 20,
          "start": 4170
        }
      ]
    },
    "@mahalend/core-v3/contracts/protocol/libraries/logic/FlashLoanLogic.sol": {
      "FlashLoanLogic": [
        {
          "length": 20,
          "start": 5161
        },
        {
          "length": 20,
          "start": 9106
        }
      ]
    },
    "@mahalend/core-v3/contracts/protocol/libraries/logic/LiquidationLogic.sol": {
      "LiquidationLogic": [
        {
          "length": 20,
          "start": 2765
        }
      ]
    },
    "@mahalend/core-v3/contracts/protocol/libraries/logic/PoolLogic.sol": {
      "PoolLogic": [
        {
          "length": 20,
          "start": 7150
        },
        {
          "length": 20,
          "start": 7647
        },
        {
          "length": 20,
          "start": 9402
        },
        {
          "length": 20,
          "start": 10505
        },
        {
          "length": 20,
          "start": 12020
        }
      ]
    },
    "@mahalend/core-v3/contracts/protocol/libraries/logic/SupplyLogic.sol": {
      "SupplyLogic": [
        {
          "length": 20,
          "start": 3639
        },
        {
          "length": 20,
          "start": 5553
        },
        {
          "length": 20,
          "start": 6130
        },
        {
          "length": 20,
          "start": 6218
        },
        {
          "length": 20,
          "start": 11384
        }
      ]
    }
  }
}