{
  "_format": "hh-sol-artifact-1",
  "contractName": "Pool",
  "sourceName": "@mahalend/core-v3/contracts/protocol/pool/Pool.sol",
  "abi": [
    {
      "inputs": [
        {
          "internalType": "contract IPoolAddressesProvider",
          "name": "provider",
          "type": "address"
        }
      ],
      "stateMutability": "nonpayable",
      "type": "constructor"
    },
    {
      "anonymous": false,
      "inputs": [
        {
          "indexed": true,
          "internalType": "address",
          "name": "reserve",
          "type": "address"
        },
        {
          "indexed": true,
          "internalType": "address",
          "name": "backer",
          "type": "address"
        },
        {
          "indexed": false,
          "internalType": "uint256",
          "name": "amount",
          "type": "uint256"
        },
        {
          "indexed": false,
          "internalType": "uint256",
          "name": "fee",
          "type": "uint256"
        }
      ],
      "name": "BackUnbacked",
      "type": "event"
    },
    {
      "anonymous": false,
      "inputs": [
        {
          "indexed": true,
          "internalType": "address",
          "name": "reserve",
          "type": "address"
        },
        {
          "indexed": false,
          "internalType": "address",
          "name": "user",
          "type": "address"
        },
        {
          "indexed": true,
          "internalType": "address",
          "name": "onBehalfOf",
          "type": "address"
        },
        {
          "indexed": false,
          "internalType": "uint256",
          "name": "amount",
          "type": "uint256"
        },
        {
          "indexed": false,
          "internalType": "enum DataTypes.InterestRateMode",
          "name": "interestRateMode",
          "type": "uint8"
        },
        {
          "indexed": false,
          "internalType": "uint256",
          "name": "borrowRate",
          "type": "uint256"
        },
        {
          "indexed": true,
          "internalType": "uint16",
          "name": "referralCode",
          "type": "uint16"
        }
      ],
      "name": "Borrow",
      "type": "event"
    },
    {
      "anonymous": false,
      "inputs": [
        {
          "indexed": true,
          "internalType": "address",
          "name": "target",
          "type": "address"
        },
        {
          "indexed": false,
          "internalType": "address",
          "name": "initiator",
          "type": "address"
        },
        {
          "indexed": true,
          "internalType": "address",
          "name": "asset",
          "type": "address"
        },
        {
          "indexed": false,
          "internalType": "uint256",
          "name": "amount",
          "type": "uint256"
        },
        {
          "indexed": false,
          "internalType": "enum DataTypes.InterestRateMode",
          "name": "interestRateMode",
          "type": "uint8"
        },
        {
          "indexed": false,
          "internalType": "uint256",
          "name": "premium",
          "type": "uint256"
        },
        {
          "indexed": true,
          "internalType": "uint16",
          "name": "referralCode",
          "type": "uint16"
        }
      ],
      "name": "FlashLoan",
      "type": "event"
    },
    {
      "anonymous": false,
      "inputs": [
        {
          "indexed": true,
          "internalType": "address",
          "name": "asset",
          "type": "address"
        },
        {
          "indexed": false,
          "internalType": "uint256",
          "name": "totalDebt",
          "type": "uint256"
        }
      ],
      "name": "IsolationModeTotalDebtUpdated",
      "type": "event"
    },
    {
      "anonymous": false,
      "inputs": [
        {
          "indexed": true,
          "internalType": "address",
          "name": "collateralAsset",
          "type": "address"
        },
        {
          "indexed": true,
          "internalType": "address",
          "name": "debtAsset",
          "type": "address"
        },
        {
          "indexed": true,
          "internalType": "address",
          "name": "user",
          "type": "address"
        },
        {
          "indexed": false,
          "internalType": "uint256",
          "name": "debtToCover",
          "type": "uint256"
        },
        {
          "indexed": false,
          "internalType": "uint256",
          "name": "liquidatedCollateralAmount",
          "type": "uint256"
        },
        {
          "indexed": false,
          "internalType": "address",
          "name": "liquidator",
          "type": "address"
        },
        {
          "indexed": false,
          "internalType": "bool",
          "name": "receiveAToken",
          "type": "bool"
        }
      ],
      "name": "LiquidationCall",
      "type": "event"
    },
    {
      "anonymous": false,
      "inputs": [
        {
          "indexed": true,
          "internalType": "address",
          "name": "reserve",
          "type": "address"
        },
        {
          "indexed": false,
          "internalType": "address",
          "name": "user",
          "type": "address"
        },
        {
          "indexed": true,
          "internalType": "address",
          "name": "onBehalfOf",
          "type": "address"
        },
        {
          "indexed": false,
          "internalType": "uint256",
          "name": "amount",
          "type": "uint256"
        },
        {
          "indexed": true,
          "internalType": "uint16",
          "name": "referralCode",
          "type": "uint16"
        }
      ],
      "name": "MintUnbacked",
      "type": "event"
    },
    {
      "anonymous": false,
      "inputs": [
        {
          "indexed": true,
          "internalType": "address",
          "name": "reserve",
          "type": "address"
        },
        {
          "indexed": false,
          "internalType": "uint256",
          "name": "amountMinted",
          "type": "uint256"
        }
      ],
      "name": "MintedToTreasury",
      "type": "event"
    },
    {
      "anonymous": false,
      "inputs": [
        {
          "indexed": true,
          "internalType": "address",
          "name": "reserve",
          "type": "address"
        },
        {
          "indexed": true,
          "internalType": "address",
          "name": "user",
          "type": "address"
        }
      ],
      "name": "RebalanceStableBorrowRate",
      "type": "event"
    },
    {
      "anonymous": false,
      "inputs": [
        {
          "indexed": true,
          "internalType": "address",
          "name": "reserve",
          "type": "address"
        },
        {
          "indexed": true,
          "internalType": "address",
          "name": "user",
          "type": "address"
        },
        {
          "indexed": true,
          "internalType": "address",
          "name": "repayer",
          "type": "address"
        },
        {
          "indexed": false,
          "internalType": "uint256",
          "name": "amount",
          "type": "uint256"
        },
        {
          "indexed": false,
          "internalType": "bool",
          "name": "useATokens",
          "type": "bool"
        }
      ],
      "name": "Repay",
      "type": "event"
    },
    {
      "anonymous": false,
      "inputs": [
        {
          "indexed": true,
          "internalType": "address",
          "name": "reserve",
          "type": "address"
        },
        {
          "indexed": false,
          "internalType": "uint256",
          "name": "liquidityRate",
          "type": "uint256"
        },
        {
          "indexed": false,
          "internalType": "uint256",
          "name": "stableBorrowRate",
          "type": "uint256"
        },
        {
          "indexed": false,
          "internalType": "uint256",
          "name": "variableBorrowRate",
          "type": "uint256"
        },
        {
          "indexed": false,
          "internalType": "uint256",
          "name": "liquidityIndex",
          "type": "uint256"
        },
        {
          "indexed": false,
          "internalType": "uint256",
          "name": "variableBorrowIndex",
          "type": "uint256"
        }
      ],
      "name": "ReserveDataUpdated",
      "type": "event"
    },
    {
      "anonymous": false,
      "inputs": [
        {
          "indexed": true,
          "internalType": "address",
          "name": "reserve",
          "type": "address"
        },
        {
          "indexed": true,
          "internalType": "address",
          "name": "user",
          "type": "address"
        }
      ],
      "name": "ReserveUsedAsCollateralDisabled",
      "type": "event"
    },
    {
      "anonymous": false,
      "inputs": [
        {
          "indexed": true,
          "internalType": "address",
          "name": "reserve",
          "type": "address"
        },
        {
          "indexed": true,
          "internalType": "address",
          "name": "user",
          "type": "address"
        }
      ],
      "name": "ReserveUsedAsCollateralEnabled",
      "type": "event"
    },
    {
      "anonymous": false,
      "inputs": [
        {
          "indexed": true,
          "internalType": "address",
          "name": "reserve",
          "type": "address"
        },
        {
          "indexed": false,
          "internalType": "address",
          "name": "user",
          "type": "address"
        },
        {
          "indexed": true,
          "internalType": "address",
          "name": "onBehalfOf",
          "type": "address"
        },
        {
          "indexed": false,
          "internalType": "uint256",
          "name": "amount",
          "type": "uint256"
        },
        {
          "indexed": true,
          "internalType": "uint16",
          "name": "referralCode",
          "type": "uint16"
        }
      ],
      "name": "Supply",
      "type": "event"
    },
    {
      "anonymous": false,
      "inputs": [
        {
          "indexed": true,
          "internalType": "address",
          "name": "reserve",
          "type": "address"
        },
        {
          "indexed": true,
          "internalType": "address",
          "name": "user",
          "type": "address"
        },
        {
          "indexed": false,
          "internalType": "enum DataTypes.InterestRateMode",
          "name": "interestRateMode",
          "type": "uint8"
        }
      ],
      "name": "SwapBorrowRateMode",
      "type": "event"
    },
    {
      "anonymous": false,
      "inputs": [
        {
          "indexed": true,
          "internalType": "address",
          "name": "user",
          "type": "address"
        },
        {
          "indexed": false,
          "internalType": "uint8",
          "name": "categoryId",
          "type": "uint8"
        }
      ],
      "name": "UserEModeSet",
      "type": "event"
    },
    {
      "anonymous": false,
      "inputs": [
        {
          "indexed": true,
          "internalType": "address",
          "name": "reserve",
          "type": "address"
        },
        {
          "indexed": true,
          "internalType": "address",
          "name": "user",
          "type": "address"
        },
        {
          "indexed": true,
          "internalType": "address",
          "name": "to",
          "type": "address"
        },
        {
          "indexed": false,
          "internalType": "uint256",
          "name": "amount",
          "type": "uint256"
        }
      ],
      "name": "Withdraw",
      "type": "event"
    },
    {
      "inputs": [],
      "name": "ADDRESSES_PROVIDER",
      "outputs": [
        {
          "internalType": "contract IPoolAddressesProvider",
          "name": "",
          "type": "address"
        }
      ],
      "stateMutability": "view",
      "type": "function"
    },
    {
      "inputs": [],
      "name": "BRIDGE_PROTOCOL_FEE",
      "outputs": [
        {
          "internalType": "uint256",
          "name": "",
          "type": "uint256"
        }
      ],
      "stateMutability": "view",
      "type": "function"
    },
    {
      "inputs": [],
      "name": "FLASHLOAN_PREMIUM_TOTAL",
      "outputs": [
        {
          "internalType": "uint128",
          "name": "",
          "type": "uint128"
        }
      ],
      "stateMutability": "view",
      "type": "function"
    },
    {
      "inputs": [],
      "name": "FLASHLOAN_PREMIUM_TO_PROTOCOL",
      "outputs": [
        {
          "internalType": "uint128",
          "name": "",
          "type": "uint128"
        }
      ],
      "stateMutability": "view",
      "type": "function"
    },
    {
      "inputs": [],
      "name": "MAX_NUMBER_RESERVES",
      "outputs": [
        {
          "internalType": "uint16",
          "name": "",
          "type": "uint16"
        }
      ],
      "stateMutability": "view",
      "type": "function"
    },
    {
      "inputs": [],
      "name": "MAX_STABLE_RATE_BORROW_SIZE_PERCENT",
      "outputs": [
        {
          "internalType": "uint256",
          "name": "",
          "type": "uint256"
        }
      ],
      "stateMutability": "view",
      "type": "function"
    },
    {
      "inputs": [],
      "name": "POOL_REVISION",
      "outputs": [
        {
          "internalType": "uint256",
          "name": "",
          "type": "uint256"
        }
      ],
      "stateMutability": "view",
      "type": "function"
    },
    {
      "inputs": [
        {
          "internalType": "address",
          "name": "asset",
          "type": "address"
        },
        {
          "internalType": "uint256",
          "name": "amount",
          "type": "uint256"
        },
        {
          "internalType": "uint256",
          "name": "fee",
          "type": "uint256"
        }
      ],
      "name": "backUnbacked",
      "outputs": [],
      "stateMutability": "nonpayable",
      "type": "function"
    },
    {
      "inputs": [
        {
          "internalType": "address",
          "name": "asset",
          "type": "address"
        },
        {
          "internalType": "uint256",
          "name": "amount",
          "type": "uint256"
        },
        {
          "internalType": "uint256",
          "name": "interestRateMode",
          "type": "uint256"
        },
        {
          "internalType": "uint16",
          "name": "referralCode",
          "type": "uint16"
        },
        {
          "internalType": "address",
          "name": "onBehalfOf",
          "type": "address"
        }
      ],
      "name": "borrow",
      "outputs": [],
      "stateMutability": "nonpayable",
      "type": "function"
    },
    {
      "inputs": [
        {
          "internalType": "uint8",
          "name": "id",
          "type": "uint8"
        },
        {
          "components": [
            {
              "internalType": "uint16",
              "name": "ltv",
              "type": "uint16"
            },
            {
              "internalType": "uint16",
              "name": "liquidationThreshold",
              "type": "uint16"
            },
            {
              "internalType": "uint16",
              "name": "liquidationBonus",
              "type": "uint16"
            },
            {
              "internalType": "address",
              "name": "priceSource",
              "type": "address"
            },
            {
              "internalType": "string",
              "name": "label",
              "type": "string"
            }
          ],
          "internalType": "struct DataTypes.EModeCategory",
          "name": "category",
          "type": "tuple"
        }
      ],
      "name": "configureEModeCategory",
      "outputs": [],
      "stateMutability": "nonpayable",
      "type": "function"
    },
    {
      "inputs": [
        {
          "internalType": "address",
          "name": "asset",
          "type": "address"
        },
        {
          "internalType": "uint256",
          "name": "amount",
          "type": "uint256"
        },
        {
          "internalType": "address",
          "name": "onBehalfOf",
          "type": "address"
        },
        {
          "internalType": "uint16",
          "name": "referralCode",
          "type": "uint16"
        }
      ],
      "name": "deposit",
      "outputs": [],
      "stateMutability": "nonpayable",
      "type": "function"
    },
    {
      "inputs": [
        {
          "internalType": "address",
          "name": "asset",
          "type": "address"
        }
      ],
      "name": "dropReserve",
      "outputs": [],
      "stateMutability": "nonpayable",
      "type": "function"
    },
    {
      "inputs": [
        {
          "internalType": "address",
          "name": "asset",
          "type": "address"
        },
        {
          "internalType": "address",
          "name": "from",
          "type": "address"
        },
        {
          "internalType": "address",
          "name": "to",
          "type": "address"
        },
        {
          "internalType": "uint256",
          "name": "amount",
          "type": "uint256"
        },
        {
          "internalType": "uint256",
          "name": "balanceFromBefore",
          "type": "uint256"
        },
        {
          "internalType": "uint256",
          "name": "balanceToBefore",
          "type": "uint256"
        }
      ],
      "name": "finalizeTransfer",
      "outputs": [],
      "stateMutability": "nonpayable",
      "type": "function"
    },
    {
      "inputs": [
        {
          "internalType": "address",
          "name": "receiverAddress",
          "type": "address"
        },
        {
          "internalType": "address[]",
          "name": "assets",
          "type": "address[]"
        },
        {
          "internalType": "uint256[]",
          "name": "amounts",
          "type": "uint256[]"
        },
        {
          "internalType": "uint256[]",
          "name": "interestRateModes",
          "type": "uint256[]"
        },
        {
          "internalType": "address",
          "name": "onBehalfOf",
          "type": "address"
        },
        {
          "internalType": "bytes",
          "name": "params",
          "type": "bytes"
        },
        {
          "internalType": "uint16",
          "name": "referralCode",
          "type": "uint16"
        }
      ],
      "name": "flashLoan",
      "outputs": [],
      "stateMutability": "nonpayable",
      "type": "function"
    },
    {
      "inputs": [
        {
          "internalType": "address",
          "name": "receiverAddress",
          "type": "address"
        },
        {
          "internalType": "address",
          "name": "asset",
          "type": "address"
        },
        {
          "internalType": "uint256",
          "name": "amount",
          "type": "uint256"
        },
        {
          "internalType": "bytes",
          "name": "params",
          "type": "bytes"
        },
        {
          "internalType": "uint16",
          "name": "referralCode",
          "type": "uint16"
        }
      ],
      "name": "flashLoanSimple",
      "outputs": [],
      "stateMutability": "nonpayable",
      "type": "function"
    },
    {
      "inputs": [
        {
          "internalType": "address",
          "name": "asset",
          "type": "address"
        }
      ],
      "name": "getConfiguration",
      "outputs": [
        {
          "components": [
            {
              "internalType": "uint256",
              "name": "data",
              "type": "uint256"
            }
          ],
          "internalType": "struct DataTypes.ReserveConfigurationMap",
          "name": "",
          "type": "tuple"
        }
      ],
      "stateMutability": "view",
      "type": "function"
    },
    {
      "inputs": [
        {
          "internalType": "uint8",
          "name": "id",
          "type": "uint8"
        }
      ],
      "name": "getEModeCategoryData",
      "outputs": [
        {
          "components": [
            {
              "internalType": "uint16",
              "name": "ltv",
              "type": "uint16"
            },
            {
              "internalType": "uint16",
              "name": "liquidationThreshold",
              "type": "uint16"
            },
            {
              "internalType": "uint16",
              "name": "liquidationBonus",
              "type": "uint16"
            },
            {
              "internalType": "address",
              "name": "priceSource",
              "type": "address"
            },
            {
              "internalType": "string",
              "name": "label",
              "type": "string"
            }
          ],
          "internalType": "struct DataTypes.EModeCategory",
          "name": "",
          "type": "tuple"
        }
      ],
      "stateMutability": "view",
      "type": "function"
    },
    {
      "inputs": [
        {
          "internalType": "uint16",
          "name": "id",
          "type": "uint16"
        }
      ],
      "name": "getReserveAddressById",
      "outputs": [
        {
          "internalType": "address",
          "name": "",
          "type": "address"
        }
      ],
      "stateMutability": "view",
      "type": "function"
    },
    {
      "inputs": [
        {
          "internalType": "address",
          "name": "asset",
          "type": "address"
        }
      ],
      "name": "getReserveData",
      "outputs": [
        {
          "components": [
            {
              "components": [
                {
                  "internalType": "uint256",
                  "name": "data",
                  "type": "uint256"
                }
              ],
              "internalType": "struct DataTypes.ReserveConfigurationMap",
              "name": "configuration",
              "type": "tuple"
            },
            {
              "internalType": "uint128",
              "name": "liquidityIndex",
              "type": "uint128"
            },
            {
              "internalType": "uint128",
              "name": "currentLiquidityRate",
              "type": "uint128"
            },
            {
              "internalType": "uint128",
              "name": "variableBorrowIndex",
              "type": "uint128"
            },
            {
              "internalType": "uint128",
              "name": "currentVariableBorrowRate",
              "type": "uint128"
            },
            {
              "internalType": "uint128",
              "name": "currentStableBorrowRate",
              "type": "uint128"
            },
            {
              "internalType": "uint40",
              "name": "lastUpdateTimestamp",
              "type": "uint40"
            },
            {
              "internalType": "uint16",
              "name": "id",
              "type": "uint16"
            },
            {
              "internalType": "address",
              "name": "aTokenAddress",
              "type": "address"
            },
            {
              "internalType": "address",
              "name": "stableDebtTokenAddress",
              "type": "address"
            },
            {
              "internalType": "address",
              "name": "variableDebtTokenAddress",
              "type": "address"
            },
            {
              "internalType": "address",
              "name": "interestRateStrategyAddress",
              "type": "address"
            },
            {
              "internalType": "uint128",
              "name": "accruedToTreasury",
              "type": "uint128"
            },
            {
              "internalType": "uint128",
              "name": "unbacked",
              "type": "uint128"
            },
            {
              "internalType": "uint128",
              "name": "isolationModeTotalDebt",
              "type": "uint128"
            }
          ],
          "internalType": "struct DataTypes.ReserveData",
          "name": "",
          "type": "tuple"
        }
      ],
      "stateMutability": "view",
      "type": "function"
    },
    {
      "inputs": [
        {
          "internalType": "address",
          "name": "asset",
          "type": "address"
        }
      ],
      "name": "getReserveNormalizedIncome",
      "outputs": [
        {
          "internalType": "uint256",
          "name": "",
          "type": "uint256"
        }
      ],
      "stateMutability": "view",
      "type": "function"
    },
    {
      "inputs": [
        {
          "internalType": "address",
          "name": "asset",
          "type": "address"
        }
      ],
      "name": "getReserveNormalizedVariableDebt",
      "outputs": [
        {
          "internalType": "uint256",
          "name": "",
          "type": "uint256"
        }
      ],
      "stateMutability": "view",
      "type": "function"
    },
    {
      "inputs": [],
      "name": "getReservesList",
      "outputs": [
        {
          "internalType": "address[]",
          "name": "",
          "type": "address[]"
        }
      ],
      "stateMutability": "view",
      "type": "function"
    },
    {
      "inputs": [
        {
          "internalType": "address",
          "name": "user",
          "type": "address"
        }
      ],
      "name": "getUserAccountData",
      "outputs": [
        {
          "internalType": "uint256",
          "name": "totalCollateralBase",
          "type": "uint256"
        },
        {
          "internalType": "uint256",
          "name": "totalDebtBase",
          "type": "uint256"
        },
        {
          "internalType": "uint256",
          "name": "availableBorrowsBase",
          "type": "uint256"
        },
        {
          "internalType": "uint256",
          "name": "currentLiquidationThreshold",
          "type": "uint256"
        },
        {
          "internalType": "uint256",
          "name": "ltv",
          "type": "uint256"
        },
        {
          "internalType": "uint256",
          "name": "healthFactor",
          "type": "uint256"
        }
      ],
      "stateMutability": "view",
      "type": "function"
    },
    {
      "inputs": [
        {
          "internalType": "address",
          "name": "user",
          "type": "address"
        }
      ],
      "name": "getUserConfiguration",
      "outputs": [
        {
          "components": [
            {
              "internalType": "uint256",
              "name": "data",
              "type": "uint256"
            }
          ],
          "internalType": "struct DataTypes.UserConfigurationMap",
          "name": "",
          "type": "tuple"
        }
      ],
      "stateMutability": "view",
      "type": "function"
    },
    {
      "inputs": [
        {
          "internalType": "address",
          "name": "user",
          "type": "address"
        }
      ],
      "name": "getUserEMode",
      "outputs": [
        {
          "internalType": "uint256",
          "name": "",
          "type": "uint256"
        }
      ],
      "stateMutability": "view",
      "type": "function"
    },
    {
      "inputs": [
        {
          "internalType": "address",
          "name": "asset",
          "type": "address"
        },
        {
          "internalType": "address",
          "name": "aTokenAddress",
          "type": "address"
        },
        {
          "internalType": "address",
          "name": "stableDebtAddress",
          "type": "address"
        },
        {
          "internalType": "address",
          "name": "variableDebtAddress",
          "type": "address"
        },
        {
          "internalType": "address",
          "name": "interestRateStrategyAddress",
          "type": "address"
        }
      ],
      "name": "initReserve",
      "outputs": [],
      "stateMutability": "nonpayable",
      "type": "function"
    },
    {
      "inputs": [
        {
          "internalType": "contract IPoolAddressesProvider",
          "name": "provider",
          "type": "address"
        }
      ],
      "name": "initialize",
      "outputs": [],
      "stateMutability": "nonpayable",
      "type": "function"
    },
    {
      "inputs": [
        {
          "internalType": "address",
          "name": "collateralAsset",
          "type": "address"
        },
        {
          "internalType": "address",
          "name": "debtAsset",
          "type": "address"
        },
        {
          "internalType": "address",
          "name": "user",
          "type": "address"
        },
        {
          "internalType": "uint256",
          "name": "debtToCover",
          "type": "uint256"
        },
        {
          "internalType": "bool",
          "name": "receiveAToken",
          "type": "bool"
        }
      ],
      "name": "liquidationCall",
      "outputs": [],
      "stateMutability": "nonpayable",
      "type": "function"
    },
    {
      "inputs": [
        {
          "internalType": "address[]",
          "name": "assets",
          "type": "address[]"
        }
      ],
      "name": "mintToTreasury",
      "outputs": [],
      "stateMutability": "nonpayable",
      "type": "function"
    },
    {
      "inputs": [
        {
          "internalType": "address",
          "name": "asset",
          "type": "address"
        },
        {
          "internalType": "uint256",
          "name": "amount",
          "type": "uint256"
        },
        {
          "internalType": "address",
          "name": "onBehalfOf",
          "type": "address"
        },
        {
          "internalType": "uint16",
          "name": "referralCode",
          "type": "uint16"
        }
      ],
      "name": "mintUnbacked",
      "outputs": [],
      "stateMutability": "nonpayable",
      "type": "function"
    },
    {
      "inputs": [
        {
          "internalType": "address",
          "name": "asset",
          "type": "address"
        },
        {
          "internalType": "address",
          "name": "user",
          "type": "address"
        }
      ],
      "name": "rebalanceStableBorrowRate",
      "outputs": [],
      "stateMutability": "nonpayable",
      "type": "function"
    },
    {
      "inputs": [
        {
          "internalType": "address",
          "name": "asset",
          "type": "address"
        },
        {
          "internalType": "uint256",
          "name": "amount",
          "type": "uint256"
        },
        {
          "internalType": "uint256",
          "name": "interestRateMode",
          "type": "uint256"
        },
        {
          "internalType": "address",
          "name": "onBehalfOf",
          "type": "address"
        }
      ],
      "name": "repay",
      "outputs": [
        {
          "internalType": "uint256",
          "name": "",
          "type": "uint256"
        }
      ],
      "stateMutability": "nonpayable",
      "type": "function"
    },
    {
      "inputs": [
        {
          "internalType": "address",
          "name": "asset",
          "type": "address"
        },
        {
          "internalType": "uint256",
          "name": "amount",
          "type": "uint256"
        },
        {
          "internalType": "uint256",
          "name": "interestRateMode",
          "type": "uint256"
        }
      ],
      "name": "repayWithATokens",
      "outputs": [
        {
          "internalType": "uint256",
          "name": "",
          "type": "uint256"
        }
      ],
      "stateMutability": "nonpayable",
      "type": "function"
    },
    {
      "inputs": [
        {
          "internalType": "address",
          "name": "asset",
          "type": "address"
        },
        {
          "internalType": "uint256",
          "name": "amount",
          "type": "uint256"
        },
        {
          "internalType": "uint256",
          "name": "interestRateMode",
          "type": "uint256"
        },
        {
          "internalType": "address",
          "name": "onBehalfOf",
          "type": "address"
        },
        {
          "internalType": "uint256",
          "name": "deadline",
          "type": "uint256"
        },
        {
          "internalType": "uint8",
          "name": "permitV",
          "type": "uint8"
        },
        {
          "internalType": "bytes32",
          "name": "permitR",
          "type": "bytes32"
        },
        {
          "internalType": "bytes32",
          "name": "permitS",
          "type": "bytes32"
        }
      ],
      "name": "repayWithPermit",
      "outputs": [
        {
          "internalType": "uint256",
          "name": "",
          "type": "uint256"
        }
      ],
      "stateMutability": "nonpayable",
      "type": "function"
    },
    {
      "inputs": [
        {
          "internalType": "address",
          "name": "token",
          "type": "address"
        },
        {
          "internalType": "address",
          "name": "to",
          "type": "address"
        },
        {
          "internalType": "uint256",
          "name": "amount",
          "type": "uint256"
        }
      ],
      "name": "rescueTokens",
      "outputs": [],
      "stateMutability": "nonpayable",
      "type": "function"
    },
    {
      "inputs": [
        {
          "internalType": "address",
          "name": "asset",
          "type": "address"
        }
      ],
      "name": "resetIsolationModeTotalDebt",
      "outputs": [],
      "stateMutability": "nonpayable",
      "type": "function"
    },
    {
      "inputs": [
        {
          "internalType": "address",
          "name": "asset",
          "type": "address"
        },
        {
          "components": [
            {
              "internalType": "uint256",
              "name": "data",
              "type": "uint256"
            }
          ],
          "internalType": "struct DataTypes.ReserveConfigurationMap",
          "name": "configuration",
          "type": "tuple"
        }
      ],
      "name": "setConfiguration",
      "outputs": [],
      "stateMutability": "nonpayable",
      "type": "function"
    },
    {
      "inputs": [
        {
          "internalType": "address",
          "name": "asset",
          "type": "address"
        },
        {
          "internalType": "address",
          "name": "rateStrategyAddress",
          "type": "address"
        }
      ],
      "name": "setReserveInterestRateStrategyAddress",
      "outputs": [],
      "stateMutability": "nonpayable",
      "type": "function"
    },
    {
      "inputs": [
        {
          "internalType": "uint8",
          "name": "categoryId",
          "type": "uint8"
        }
      ],
      "name": "setUserEMode",
      "outputs": [],
      "stateMutability": "nonpayable",
      "type": "function"
    },
    {
      "inputs": [
        {
          "internalType": "address",
          "name": "asset",
          "type": "address"
        },
        {
          "internalType": "bool",
          "name": "useAsCollateral",
          "type": "bool"
        }
      ],
      "name": "setUserUseReserveAsCollateral",
      "outputs": [],
      "stateMutability": "nonpayable",
      "type": "function"
    },
    {
      "inputs": [
        {
          "internalType": "address",
          "name": "asset",
          "type": "address"
        },
        {
          "internalType": "uint256",
          "name": "amount",
          "type": "uint256"
        },
        {
          "internalType": "address",
          "name": "onBehalfOf",
          "type": "address"
        },
        {
          "internalType": "uint16",
          "name": "referralCode",
          "type": "uint16"
        }
      ],
      "name": "supply",
      "outputs": [],
      "stateMutability": "nonpayable",
      "type": "function"
    },
    {
      "inputs": [
        {
          "internalType": "address",
          "name": "asset",
          "type": "address"
        },
        {
          "internalType": "uint256",
          "name": "amount",
          "type": "uint256"
        },
        {
          "internalType": "address",
          "name": "onBehalfOf",
          "type": "address"
        },
        {
          "internalType": "uint16",
          "name": "referralCode",
          "type": "uint16"
        },
        {
          "internalType": "uint256",
          "name": "deadline",
          "type": "uint256"
        },
        {
          "internalType": "uint8",
          "name": "permitV",
          "type": "uint8"
        },
        {
          "internalType": "bytes32",
          "name": "permitR",
          "type": "bytes32"
        },
        {
          "internalType": "bytes32",
          "name": "permitS",
          "type": "bytes32"
        }
      ],
      "name": "supplyWithPermit",
      "outputs": [],
      "stateMutability": "nonpayable",
      "type": "function"
    },
    {
      "inputs": [
        {
          "internalType": "address",
          "name": "asset",
          "type": "address"
        },
        {
          "internalType": "uint256",
          "name": "interestRateMode",
          "type": "uint256"
        }
      ],
      "name": "swapBorrowRateMode",
      "outputs": [],
      "stateMutability": "nonpayable",
      "type": "function"
    },
    {
      "inputs": [
        {
          "internalType": "uint256",
          "name": "protocolFee",
          "type": "uint256"
        }
      ],
      "name": "updateBridgeProtocolFee",
      "outputs": [],
      "stateMutability": "nonpayable",
      "type": "function"
    },
    {
      "inputs": [
        {
          "internalType": "uint128",
          "name": "flashLoanPremiumTotal",
          "type": "uint128"
        },
        {
          "internalType": "uint128",
          "name": "flashLoanPremiumToProtocol",
          "type": "uint128"
        }
      ],
      "name": "updateFlashloanPremiums",
      "outputs": [],
      "stateMutability": "nonpayable",
      "type": "function"
    },
    {
      "inputs": [
        {
          "internalType": "address",
          "name": "asset",
          "type": "address"
        },
        {
          "internalType": "uint256",
          "name": "amount",
          "type": "uint256"
        },
        {
          "internalType": "address",
          "name": "to",
          "type": "address"
        }
      ],
      "name": "withdraw",
      "outputs": [
        {
          "internalType": "uint256",
          "name": "",
          "type": "uint256"
        }
      ],
      "stateMutability": "nonpayable",
      "type": "function"
    }
  ],
  "bytecode": "0x60a0604052600080553480156200001557600080fd5b5060405162004f5b38038062004f5b83398101604081905262000038916200004a565b6001600160a01b03166080526200007c565b6000602082840312156200005d57600080fd5b81516001600160a01b03811681146200007557600080fd5b9392505050565b608051614e61620000fa60003960008181610356015281816109d901528181610ab101528181610f3f01528181611492015281816117d001528181611e1101528181611ed5015281816120f4015281816123c80152818161261a01528181612be101528181613140015281816132cd01526134400152614e616000f3fe608060405234801561001057600080fd5b50600436106103095760003560e01c80637a708e921161019c578063d15e0053116100ee578063e82fec2f11610097578063ee3e210b11610071578063ee3e210b1461091f578063f51e435b14610932578063f8119d511461094557600080fd5b8063e82fec2f146108e1578063e8eda9df146106a6578063eddf1b79146108f357600080fd5b8063d5ed3933116100c8578063d5ed3933146108a8578063d65dc7a1146108bb578063e43e88a1146108ce57600080fd5b8063d15e00531461086d578063d1946dbc14610880578063d579ea7d1461089557600080fd5b8063bcb6e52211610150578063c4d66de81161012a578063c4d66de814610834578063cd11238214610847578063cea9d26f1461085a57600080fd5b8063bcb6e5221461079f578063bf92857c146107b2578063c44b11f7146107f257600080fd5b80639cd19996116101815780639cd1999614610766578063a415bcad14610779578063ab9c4b5d1461078c57600080fd5b80637a708e921461074057806394ba89a21461075357600080fd5b8063386497fd11610260578063617ba0371161020957806369a933a5116101e357806369a933a5146106df5780636a99c036146106f25780636c6f6ae11461072057600080fd5b8063617ba037146106a657806363c9b860146106b957806369328dec146106cc57600080fd5b8063527517971161023a5780635275179714610653578063573ade81146106805780635a3b74b91461069357600080fd5b8063386497fd146105dc57806342b0b77c146105ef5780634417a5831461060257600080fd5b80631d2118f9116102c25780632dad97d41161029c5780632dad97d4146103f55780633036b4391461040857806335ea6a751461041b57600080fd5b80631d2118f9146103c7578063272d9072146103da57806328530a47146103e257600080fd5b806302c205f0116102f357806302c205f01461033e5780630542975c14610351578063074b2e431461039057600080fd5b8062a718a91461030e5780630148170e14610323575b600080fd5b61032161031c3660046138f1565b610954565b005b61032b600181565b6040519081526020015b60405180910390f35b61032161034c36600461397c565b610b81565b6103787f000000000000000000000000000000000000000000000000000000000000000081565b6040516001600160a01b039091168152602001610335565b603a546fffffffffffffffffffffffffffffffff165b6040516fffffffffffffffffffffffffffffffff9091168152602001610335565b6103216103d53660046139fb565b610d17565b60395461032b565b6103216103f0366004613a34565b610ed1565b61032b610403366004613a4f565b61106f565b610321610416366004613a84565b61118c565b6105cf610429366004613a9d565b604080516102008101825260006101e08201818152825260208201819052918101829052606081018290526080810182905260a0810182905260c0810182905260e08101829052610100810182905261012081018290526101408101829052610160810182905261018081018290526101a081018290526101c0810191909152506001600160a01b0390811660009081526034602090815260409182902082516102008101845281546101e08201908152815260018201546fffffffffffffffffffffffffffffffff80821694830194909452700100000000000000000000000000000000908190048416948201949094526002820154808416606083015284900483166080820152600382015480841660a083015284810464ffffffffff1660c08301527501000000000000000000000000000000000000000000900461ffff1660e0820152600482015485166101008201526005820154851661012082015260068201548516610140820152600782015490941661016085015260088101548083166101808601529290920481166101a0840152600990910154166101c082015290565b6040516103359190613aba565b61032b6105ea366004613a9d565b611199565b6103216105fd366004613c73565b6111c0565b610644610610366004613a9d565b60408051602080820183526000918290526001600160a01b0393909316815260358352819020815192830190915254815290565b60405190518152602001610335565b610378610661366004613cf5565b61ffff166000908152603660205260409020546001600160a01b031690565b61032b61068e366004613d10565b611313565b6103216106a1366004613d5a565b611438565b6103216106b4366004613d88565b6115d9565b6103216106c7366004613a9d565b6116cf565b61032b6106da366004613dd9565b61173e565b6103216106ed366004613d88565b61190f565b603a5470010000000000000000000000000000000090046fffffffffffffffffffffffffffffffff166103a6565b61073361072e366004613a34565b6119af565b6040516103359190613e86565b61032161074e366004613edc565b611adc565b610321610761366004613f3f565b611c27565b610321610774366004613fb0565b611c9b565b610321610787366004613ff2565b611cf0565b61032161079a366004614031565b611f6e565b6103216107ad36600461414b565b6122e6565b6107c56107c0366004613a9d565b61231d565b604080519687526020870195909552938501929092526060840152608083015260a082015260c001610335565b610644610800366004613a9d565b60408051602080820183526000918290526001600160a01b0393909316815260348352819020815192830190915254815290565b610321610842366004613a9d565b612532565b6103216108553660046139fb565b612721565b61032161086836600461417e565b61279d565b61032b61087b366004613a9d565b61283e565b61088861285f565b60405161033591906141bf565b6103216108a33660046142b3565b612967565b6103216108b63660046143eb565b612ac6565b6103216108c9366004613a4f565b612cff565b6103216108dc366004613a9d565b612d90565b603b5467ffffffffffffffff1661032b565b61032b610901366004613a9d565b6001600160a01b031660009081526038602052604090205460ff1690565b61032b61092d366004614450565b612df8565b610321610940366004614496565b612fac565b60405160808152602001610335565b73__$88d97cbfcbe7267a67abcac493af9762ad$__6383c1087d6034603660356037604051806101200160405280603b60089054906101000a900461ffff1661ffff1681526020018981526020018c6001600160a01b031681526020018b6001600160a01b031681526020018a6001600160a01b0316815260200188151581526020017f00000000000000000000000000000000000000000000000000000000000000006001600160a01b031663fca513a86040518163ffffffff1660e01b8152600401602060405180830381865afa158015610a35573d6000803e3d6000fd5b505050506040513d601f19601f82011682018060405250810190610a5991906144f5565b6001600160a01b0390811682528b81166000908152603860209081526040918290205460ff168185015281517f5eb88d3d000000000000000000000000000000000000000000000000000000008152825192909401937f000000000000000000000000000000000000000000000000000000000000000090931692635eb88d3d92600480830193928290030181865afa158015610afa573d6000803e3d6000fd5b505050506040513d601f19601f82011682018060405250810190610b1e91906144f5565b6001600160a01b03168152506040518663ffffffff1660e01b8152600401610b4a959493929190614512565b60006040518083038186803b158015610b6257600080fd5b505af4158015610b76573d6000803e3d6000fd5b505050505050505050565b6040517fd505accf000000000000000000000000000000000000000000000000000000008152336004820152306024820152604481018890526064810185905260ff8416608482015260a4810183905260c481018290526001600160a01b0389169063d505accf9060e401600060405180830381600087803b158015610c0657600080fd5b505af1158015610c1a573d6000803e3d6000fd5b505050506001600160a01b0386811660008181526035602090815260409182902082516080810184528d861681529182018c815282840194855261ffff8b81166060850190815294517f1913f16100000000000000000000000000000000000000000000000000000000815260346004820152603660248201526044810193909352925186166064830152516084820152925190931660a48301525190911660c482015273__$74d960f05651b5bc55d688f34949adfc72$__90631913f1619060e40160006040518083038186803b158015610cf557600080fd5b505af4158015610d09573d6000803e3d6000fd5b505050505050505050505050565b610d1f613134565b60408051808201909152600281527f373700000000000000000000000000000000000000000000000000000000000060208201526001600160a01b038316610d9d576040517f08c379a0000000000000000000000000000000000000000000000000000000008152600401610d9491906145cc565b60405180910390fd5b506001600160a01b0382166000908152603460205260409020600301547501000000000000000000000000000000000000000000900461ffff16151580610e1957506000805260366020527f4cb2b152c1b54ce671907a93c300fd5aa72383a9d4ec19a81e3333632ae92e00546001600160a01b038381169116145b6040518060400160405280600281526020017f383200000000000000000000000000000000000000000000000000000000000081525090610e87576040517f08c379a0000000000000000000000000000000000000000000000000000000008152600401610d9491906145cc565b506001600160a01b03918216600090815260346020526040902060070180547fffffffffffffffffffffffff00000000000000000000000000000000000000001691909216179055565b73__$16a2d43c8cfe70aa08e52e869fb1f7c64b$__635d5dc313603460366037603860356000336001600160a01b03166001600160a01b031681526020019081526020016000206040518060600160405280603b60089054906101000a900461ffff1661ffff1681526020017f00000000000000000000000000000000000000000000000000000000000000006001600160a01b031663fca513a86040518163ffffffff1660e01b8152600401602060405180830381865afa158015610f9b573d6000803e3d6000fd5b505050506040513d601f19601f82011682018060405250810190610fbf91906144f5565b6001600160a01b031681526020018960ff168152506040518763ffffffff1660e01b815260040161103c9695949392919095865260208087019590955260408087019490945260608601929092526080850152805160a0850152918201516001600160a01b031660c0840152015160ff1660e08201526101000190565b60006040518083038186803b15801561105457600080fd5b505af4158015611068573d6000803e3d6000fd5b5050505050565b600073__$5ea960667ee7e4e23cd692aeb56f111df2$__6340e95de66034603660356000336001600160a01b03166001600160a01b031681526020019081526020016000206040518060a001604052808a6001600160a01b031681526020018981526020018860028111156110e6576110e66145df565b60028111156110f7576110f76145df565b81523360208201526001604091820152517fffffffff0000000000000000000000000000000000000000000000000000000060e087901b1681526111419493929190600401614649565b602060405180830381865af415801561115e573d6000803e3d6000fd5b505050506040513d601f19601f8201168201806040525081019061118291906146af565b90505b9392505050565b611194613134565b603955565b6001600160a01b03811660009081526034602052604081206111ba9061323b565b92915050565b60006040518060e00160405280886001600160a01b03168152602001876001600160a01b0316815260200186815260200185858080601f016020809104026020016040519081016040528093929190818152602001838380828437600092018290525093855250505061ffff8516602080840191909152603a546fffffffffffffffffffffffffffffffff7001000000000000000000000000000000008204811660408087019190915291166060909401939093526001600160a01b038a1682526034905281902090517fa1fe0e8d00000000000000000000000000000000000000000000000000000000815291925073__$4f44554b1390c1bfd654dd4d99e849b537$__9163a1fe0e8d916112da9185906004016146c8565b60006040518083038186803b1580156112f257600080fd5b505af4158015611306573d6000803e3d6000fd5b5050505050505050505050565b600073__$5ea960667ee7e4e23cd692aeb56f111df2$__6340e95de66034603660356000876001600160a01b03166001600160a01b031681526020019081526020016000206040518060a001604052808b6001600160a01b031681526020018a815260200189600281111561138a5761138a6145df565b600281111561139b5761139b6145df565b81526001600160a01b03891660208201526000604091820152517fffffffff0000000000000000000000000000000000000000000000000000000060e087901b1681526113ee9493929190600401614649565b602060405180830381865af415801561140b573d6000803e3d6000fd5b505050506040513d601f19601f8201168201806040525081019061142f91906146af565b95945050505050565b73__$74d960f05651b5bc55d688f34949adfc72$__63bf697a2660346036603760356000336001600160a01b03166001600160a01b031681526020019081526020016000208787603b60089054906101000a900461ffff167f00000000000000000000000000000000000000000000000000000000000000006001600160a01b031663fca513a86040518163ffffffff1660e01b8152600401602060405180830381865afa1580156114ee573d6000803e3d6000fd5b505050506040513d601f19601f8201168201806040525081019061151291906144f5565b336000908152603860205260409081902054905160e08b901b7fffffffff0000000000000000000000000000000000000000000000000000000016815260048101999099526024890197909752604488019590955260648701939093526001600160a01b039182166084870152151560a486015261ffff90911660c48501521660e483015260ff16610104820152610124015b60006040518083038186803b1580156115bd57600080fd5b505af41580156115d1573d6000803e3d6000fd5b505050505050565b6001600160a01b038281166000818152603560209081526040918290208251608081018452898616815291820188815282840194855261ffff8781166060850190815294517f1913f16100000000000000000000000000000000000000000000000000000000815260346004820152603660248201526044810193909352925186166064830152516084820152925190931660a48301525190911660c482015273__$74d960f05651b5bc55d688f34949adfc72$__90631913f1619060e4015b60006040518083038186803b1580156116b157600080fd5b505af41580156116c5573d6000803e3d6000fd5b5050505050505050565b6116d7613134565b6040517f9cf5702300000000000000000000000000000000000000000000000000000000815260346004820152603660248201526001600160a01b038216604482015273__$0de23ea210d7134877a59c3e2ddad15b59$__90639cf570239060640161103c565b600073__$74d960f05651b5bc55d688f34949adfc72$__63186dea4460346036603760356000336001600160a01b03166001600160a01b031681526020019081526020016000206040518060c001604052808b6001600160a01b031681526020018a8152602001896001600160a01b03168152602001603b60089054906101000a900461ffff1661ffff1681526020017f00000000000000000000000000000000000000000000000000000000000000006001600160a01b031663fca513a86040518163ffffffff1660e01b8152600401602060405180830381865afa15801561182c573d6000803e3d6000fd5b505050506040513d601f19601f8201168201806040525081019061185091906144f5565b6001600160a01b039081168252336000908152603860209081526040918290205460ff90811694820194909452815160e08b901b7fffffffff0000000000000000000000000000000000000000000000000000000016815260048101999099526024890197909752604488019590955260648701939093528151831660848701529381015160a486015291820151811660c4850152606082015160e485015260808201511661010484015260a001511661012482015261014401611141565b6119176132cb565b6001600160a01b038281166000818152603560205260409081902090517f0413c86f0000000000000000000000000000000000000000000000000000000081526034600482015260366024820152604481019190915291861660648301526084820185905260a482015261ffff821660c482015273__$63d13bd1f7e7a0ab47fe2c59da08a2cacc$__90630413c86f9060e401611699565b6040805160a081018252600080825260208201819052918101829052606080820192909252608081019190915260ff8216600090815260376020908152604091829020825160a081018452815461ffff808216835262010000820481169483019490945264010000000081049093169381019390935266010000000000009091046001600160a01b03166060830152600181018054608084019190611a5390614746565b80601f0160208091040260200160405190810160405280929190818152602001828054611a7f90614746565b8015611acc5780601f10611aa157610100808354040283529160200191611acc565b820191906000526020600020905b815481529060010190602001808311611aaf57829003601f168201915b5050505050815250509050919050565b611ae4613134565b73__$0de23ea210d7134877a59c3e2ddad15b59$__6369fc1bdf603460366040518060e001604052808a6001600160a01b03168152602001896001600160a01b03168152602001886001600160a01b03168152602001876001600160a01b03168152602001866001600160a01b03168152602001603b60089054906101000a900461ffff1661ffff168152602001611b7a608090565b61ffff168152506040518463ffffffff1660e01b8152600401611b9f93929190614794565b602060405180830381865af4158015611bbc573d6000803e3d6000fd5b505050506040513d601f19601f82011682018060405250810190611be09190614817565b1561106857603b805468010000000000000000900461ffff16906008611c0583614863565b91906101000a81548161ffff021916908361ffff160217905550505050505050565b6001600160a01b0382166000908152603460209081526040808320338452603590925290912073__$5ea960667ee7e4e23cd692aeb56f111df2$__9163eac4d7039185856002811115611c7c57611c7c6145df565b6040518563ffffffff1660e01b81526004016115a59493929190614885565b6040517f48c2ca8c00000000000000000000000000000000000000000000000000000000815273__$0de23ea210d7134877a59c3e2ddad15b59$__906348c2ca8c906115a590603490869086906004016148af565b73__$5ea960667ee7e4e23cd692aeb56f111df2$__631e6473f960346036603760356000876001600160a01b03166001600160a01b031681526020019081526020016000206040518061018001604052808c6001600160a01b03168152602001336001600160a01b03168152602001886001600160a01b031681526020018b81526020018a6002811115611d8657611d866145df565b6002811115611d9757611d976145df565b815261ffff808b166020808401919091526001604080850191909152603b5467ffffffffffffffff81166060860152680100000000000000009004909216608084015281517ffca513a8000000000000000000000000000000000000000000000000000000008152915160a0909301926001600160a01b037f0000000000000000000000000000000000000000000000000000000000000000169263fca513a89260048083019391928290030181865afa158015611e59573d6000803e3d6000fd5b505050506040513d601f19601f82011682018060405250810190611e7d91906144f5565b6001600160a01b0390811682528981166000908152603860209081526040918290205460ff168185015281517f5eb88d3d000000000000000000000000000000000000000000000000000000008152825192909401937f000000000000000000000000000000000000000000000000000000000000000090931692635eb88d3d92600480830193928290030181865afa158015611f1e573d6000803e3d6000fd5b505050506040513d601f19601f82011682018060405250810190611f4291906144f5565b6001600160a01b03168152506040518663ffffffff1660e01b8152600401610b4a959493929190614907565b6000604051806101c001604052808d6001600160a01b031681526020018c8c808060200260200160405190810160405280939291908181526020018383602002808284376000920191909152505050908252506040805160208c810282810182019093528c82529283019290918d918d9182918501908490808284376000920191909152505050908252506040805160208a810282810182019093528a82529283019290918b918b9182918501908490808284376000920191909152505050908252506001600160a01b03871660208083019190915260408051601f88018390048302810183018252878152920191908790879081908401838280828437600092018290525093855250505061ffff808616602080850191909152603a546fffffffffffffffffffffffffffffffff7001000000000000000000000000000000008204811660408088019190915291166060860152603b5467ffffffffffffffff8116608087015268010000000000000000900490921660a08501526001600160a01b037f0000000000000000000000000000000000000000000000000000000000000000811660c08601819052908b16845260388252928290205460ff1660e085015281517f707cd71600000000000000000000000000000000000000000000000000000000815291516101009094019363707cd7169260048082019392918290030181865afa158015612187573d6000803e3d6000fd5b505050506040513d601f19601f820116820180604052508101906121ab91906144f5565b6040517ffa50f2970000000000000000000000000000000000000000000000000000000081523360048201526001600160a01b03919091169063fa50f29790602401602060405180830381865afa15801561220a573d6000803e3d6000fd5b505050506040513d601f19601f8201168201806040525081019061222e9190614817565b151590526001600160a01b0386166000908152603560205260409081902090517f2e7263ea00000000000000000000000000000000000000000000000000000000815291925073__$4f44554b1390c1bfd654dd4d99e849b537$__91632e7263ea916122a891603491603691603791908890600401614a6f565b60006040518083038186803b1580156122c057600080fd5b505af41580156122d4573d6000803e3d6000fd5b50505050505050505050505050505050565b6122ee613134565b6fffffffffffffffffffffffffffffffff90811670010000000000000000000000000000000002911617603a55565b604080516001600160a01b0383811660008181526035602090815285822060c0860187525460a086019081528552603b5468010000000000000000900461ffff16818601528486019290925284517ffca513a8000000000000000000000000000000000000000000000000000000008152945190948594859485948594859473__$0de23ea210d7134877a59c3e2ddad15b59$__946326ec273f9460349460369460379460608501937f0000000000000000000000000000000000000000000000000000000000000000169263fca513a8926004808401938290030181865afa15801561240e573d6000803e3d6000fd5b505050506040513d601f19601f8201168201806040525081019061243291906144f5565b6001600160a01b0390811682528e81166000908152603860209081526040918290205460ff90811694820194909452815160e08a901b7fffffffff00000000000000000000000000000000000000000000000000000000168152600481019890985260248801969096526044870194909452825151606487015293820151608486015291810151831660a4850152606081015190921660c48401526080909101511660e48201526101040160c060405180830381865af41580156124fa573d6000803e3d6000fd5b505050506040513d601f19601f8201168201806040525081019061251e9190614bee565b949c939b5091995097509550909350915050565b6001805460ff16806125435750303b155b8061254f575060005481115b6125db576040517f08c379a000000000000000000000000000000000000000000000000000000000815260206004820152602e60248201527f436f6e747261637420696e7374616e63652068617320616c726561647920626560448201527f656e20696e697469616c697a65640000000000000000000000000000000000006064820152608401610d94565b60015460ff1615801561261857600180547fffffffffffffffffffffffffffffffffffffffffffffffffffffffffffffff00168117905560008290555b7f00000000000000000000000000000000000000000000000000000000000000006001600160a01b0316836001600160a01b0316146040518060400160405280600281526020017f3132000000000000000000000000000000000000000000000000000000000000815250906126bb576040517f08c379a0000000000000000000000000000000000000000000000000000000008152600401610d9491906145cc565b50603b80547fffffffffffffffffffffffffffffffffffffffffffffffff0000000000000000166109c41790556009603a55801561271c57600180547fffffffffffffffffffffffffffffffffffffffffffffffffffffffffffffff001690555b505050565b6001600160a01b038281166000818152603460205260409081902090517f6973f74400000000000000000000000000000000000000000000000000000000815260048101919091526024810191909152908216604482015273__$5ea960667ee7e4e23cd692aeb56f111df2$__90636973f744906064016115a5565b6127a561343e565b6040517f87b322b20000000000000000000000000000000000000000000000000000000081526001600160a01b038085166004830152831660248201526044810182905273__$0de23ea210d7134877a59c3e2ddad15b59$__906387b322b2906064015b60006040518083038186803b15801561282157600080fd5b505af4158015612835573d6000803e3d6000fd5b50505050505050565b6001600160a01b03811660009081526034602052604081206111ba906135b1565b603b5460609068010000000000000000900461ffff166000808267ffffffffffffffff8111156128915761289161420c565b6040519080825280602002602001820160405280156128ba578160200160208202803683370190505b50905060005b8381101561295d576000818152603660205260409020546001600160a01b03161561293d576000818152603660205260409020546001600160a01b0316826129088584614c38565b8151811061291857612918614c4f565b60200260200101906001600160a01b031690816001600160a01b03168152505061294b565b8261294781614c7e565b9350505b8061295581614c7e565b9150506128c0565b5091038152919050565b61296f613134565b60408051808201909152600281527f3136000000000000000000000000000000000000000000000000000000000000602082015260ff83166129de576040517f08c379a0000000000000000000000000000000000000000000000000000000008152600401610d9491906145cc565b5060ff821660009081526037602090815260409182902083518154838601519486015160608701516001600160a01b03166601000000000000027fffffffffffff0000000000000000000000000000000000000000ffffffffffff61ffff92831664010000000002167fffffffffffff00000000000000000000000000000000000000000000ffffffff97831662010000027fffffffffffffffffffffffffffffffffffffffffffffffffffffffff00000000909416929094169190911791909117949094161792909217825560808301518051849392611068926001850192910190613825565b6001600160a01b03868116600090815260346020908152604091829020600401548251808401909352600283527f3131000000000000000000000000000000000000000000000000000000000000918301919091529091163314612b57576040517f08c379a0000000000000000000000000000000000000000000000000000000008152600401610d9491906145cc565b5073__$74d960f05651b5bc55d688f34949adfc72$__638a5dadd160346036603760356040518061012001604052808d6001600160a01b031681526020018c6001600160a01b031681526020018b6001600160a01b031681526020018a8152602001898152602001888152602001603b60089054906101000a900461ffff1661ffff1681526020017f00000000000000000000000000000000000000000000000000000000000000006001600160a01b031663fca513a86040518163ffffffff1660e01b8152600401602060405180830381865afa158015612c3d573d6000803e3d6000fd5b505050506040513d601f19601f82011682018060405250810190612c6191906144f5565b6001600160a01b0390811682528d166000908152603860209081526040918290205460ff16920191909152517fffffffff0000000000000000000000000000000000000000000000000000000060e088901b168152612cc7959493929190600401614cb7565b60006040518083038186803b158015612cdf57600080fd5b505af4158015612cf3573d6000803e3d6000fd5b50505050505050505050565b612d076132cb565b6001600160a01b0383166000818152603460205260409081902060395491517f8e743248000000000000000000000000000000000000000000000000000000008152600481019190915260248101929092526044820184905260648201839052608482015273__$63d13bd1f7e7a0ab47fe2c59da08a2cacc$__90638e7432489060a401612809565b612d98613134565b6040517f1e3b4145000000000000000000000000000000000000000000000000000000008152603460048201526001600160a01b038216602482015273__$0de23ea210d7134877a59c3e2ddad15b59$__90631e3b41459060440161103c565b6040517fd505accf000000000000000000000000000000000000000000000000000000008152336004820152306024820152604481018890526064810185905260ff8416608482015260a4810183905260c481018290526000906001600160a01b038a169063d505accf9060e401600060405180830381600087803b158015612e8057600080fd5b505af1158015612e94573d6000803e3d6000fd5b5050505060006040518060a001604052808b6001600160a01b031681526020018a8152602001896002811115612ecc57612ecc6145df565b6002811115612edd57612edd6145df565b81526001600160a01b0389166020808301829052600060409384018190529182526035905281902090517f40e95de600000000000000000000000000000000000000000000000000000000815291925073__$5ea960667ee7e4e23cd692aeb56f111df2$__916340e95de691612f5d916034916036918790600401614649565b602060405180830381865af4158015612f7a573d6000803e3d6000fd5b505050506040513d601f19601f82011682018060405250810190612f9e91906146af565b9a9950505050505050505050565b612fb4613134565b60408051808201909152600281527f373700000000000000000000000000000000000000000000000000000000000060208201526001600160a01b038316613029576040517f08c379a0000000000000000000000000000000000000000000000000000000008152600401610d9491906145cc565b506001600160a01b0382166000908152603460205260409020600301547501000000000000000000000000000000000000000000900461ffff161515806130a557506000805260366020527f4cb2b152c1b54ce671907a93c300fd5aa72383a9d4ec19a81e3333632ae92e00546001600160a01b038381169116145b6040518060400160405280600281526020017f383200000000000000000000000000000000000000000000000000000000000081525090613113576040517f08c379a0000000000000000000000000000000000000000000000000000000008152600401610d9491906145cc565b506001600160a01b0391909116600090815260346020526040902090359055565b336001600160a01b03167f00000000000000000000000000000000000000000000000000000000000000006001600160a01b031663631adfca6040518163ffffffff1660e01b8152600401602060405180830381865afa15801561319c573d6000803e3d6000fd5b505050506040513d601f19601f820116820180604052508101906131c091906144f5565b6001600160a01b0316146040518060400160405280600281526020017f313000000000000000000000000000000000000000000000000000000000000081525090613238576040517f08c379a0000000000000000000000000000000000000000000000000000000008152600401610d9491906145cc565b50565b6003810154600090700100000000000000000000000000000000900464ffffffffff1642811415613281575050600201546fffffffffffffffffffffffffffffffff1690565b6002830154611185906fffffffffffffffffffffffffffffffff808216916132bf917001000000000000000000000000000000009091041684613635565b90613642565b50919050565b7f00000000000000000000000000000000000000000000000000000000000000006001600160a01b031663707cd7166040518163ffffffff1660e01b8152600401602060405180830381865afa158015613329573d6000803e3d6000fd5b505050506040513d601f19601f8201168201806040525081019061334d91906144f5565b6040517f726600ce0000000000000000000000000000000000000000000000000000000081523360048201526001600160a01b03919091169063726600ce90602401602060405180830381865afa1580156133ac573d6000803e3d6000fd5b505050506040513d601f19601f820116820180604052508101906133d09190614817565b6040518060400160405280600181526020017f360000000000000000000000000000000000000000000000000000000000000081525090613238576040517f08c379a0000000000000000000000000000000000000000000000000000000008152600401610d9491906145cc565b7f00000000000000000000000000000000000000000000000000000000000000006001600160a01b031663707cd7166040518163ffffffff1660e01b8152600401602060405180830381865afa15801561349c573d6000803e3d6000fd5b505050506040513d601f19601f820116820180604052508101906134c091906144f5565b6040517f7be53ca10000000000000000000000000000000000000000000000000000000081523360048201526001600160a01b039190911690637be53ca190602401602060405180830381865afa15801561351f573d6000803e3d6000fd5b505050506040513d601f19601f820116820180604052508101906135439190614817565b6040518060400160405280600181526020017f310000000000000000000000000000000000000000000000000000000000000081525090613238576040517f08c379a0000000000000000000000000000000000000000000000000000000008152600401610d9491906145cc565b6003810154600090700100000000000000000000000000000000900464ffffffffff16428114156135f7575050600101546fffffffffffffffffffffffffffffffff1690565b6001830154611185906fffffffffffffffffffffffffffffffff808216916132bf917001000000000000000000000000000000009091041684613699565b60006111858383426136de565b600081157ffffffffffffffffffffffffffffffffffffffffffe6268e1b017bfe18bffffff8390048411151761367757600080fd5b506b033b2e3c9fd0803ce800000091026b019d971e4fe8401e74000000010490565b6000806136ad64ffffffffff841642614c38565b6136b79085614d6c565b6301e13380900490506136d6816b033b2e3c9fd0803ce8000000614dd8565b949350505050565b6000806136f264ffffffffff851684614c38565b90508061370e576b033b2e3c9fd0803ce8000000915050611185565b7fffffffffffffffffffffffffffffffffffffffffffffffffffffffffffffffff81016000808060028511613744576000613749565b600285035b925066038882915c400061375d8a80613642565b8161376a5761376a614da9565b0491506301e1338061377c838b613642565b8161378957613789614da9565b0490506000826137998688614d6c565b6137a39190614d6c565b600290049050600082856137b7888a614d6c565b6137c19190614d6c565b6137cb9190614d6c565b60069004905080826301e133806137e28a8f614d6c565b6137ec9190614df0565b613802906b033b2e3c9fd0803ce8000000614dd8565b61380c9190614dd8565b6138169190614dd8565b9b9a5050505050505050505050565b82805461383190614746565b90600052602060002090601f0160209004810192826138535760008555613899565b82601f1061386c57805160ff1916838001178555613899565b82800160010185558215613899579182015b8281111561389957825182559160200191906001019061387e565b506138a59291506138a9565b5090565b5b808211156138a557600081556001016138aa565b6001600160a01b038116811461323857600080fd5b80356138de816138be565b919050565b801515811461323857600080fd5b600080600080600060a0868803121561390957600080fd5b8535613914816138be565b94506020860135613924816138be565b93506040860135613934816138be565b925060608601359150608086013561394b816138e3565b809150509295509295909350565b803561ffff811681146138de57600080fd5b803560ff811681146138de57600080fd5b600080600080600080600080610100898b03121561399957600080fd5b88356139a4816138be565b97506020890135965060408901356139bb816138be565b95506139c960608a01613959565b9450608089013593506139de60a08a0161396b565b925060c0890135915060e089013590509295985092959890939650565b60008060408385031215613a0e57600080fd5b8235613a19816138be565b91506020830135613a29816138be565b809150509250929050565b600060208284031215613a4657600080fd5b6111858261396b565b600080600060608486031215613a6457600080fd5b8335613a6f816138be565b95602085013595506040909401359392505050565b600060208284031215613a9657600080fd5b5035919050565b600060208284031215613aaf57600080fd5b8135611185816138be565b81515181526101e081016020830151613ae760208401826fffffffffffffffffffffffffffffffff169052565b506040830151613b0b60408401826fffffffffffffffffffffffffffffffff169052565b506060830151613b2f60608401826fffffffffffffffffffffffffffffffff169052565b506080830151613b5360808401826fffffffffffffffffffffffffffffffff169052565b5060a0830151613b7760a08401826fffffffffffffffffffffffffffffffff169052565b5060c0830151613b9060c084018264ffffffffff169052565b5060e0830151613ba660e084018261ffff169052565b50610100838101516001600160a01b039081169184019190915261012080850151821690840152610140808501518216908401526101608085015190911690830152610180808401516fffffffffffffffffffffffffffffffff908116918401919091526101a0808501518216908401526101c09384015116929091019190915290565b60008083601f840112613c3c57600080fd5b50813567ffffffffffffffff811115613c5457600080fd5b602083019150836020828501011115613c6c57600080fd5b9250929050565b60008060008060008060a08789031215613c8c57600080fd5b8635613c97816138be565b95506020870135613ca7816138be565b945060408701359350606087013567ffffffffffffffff811115613cca57600080fd5b613cd689828a01613c2a565b9094509250613ce9905060808801613959565b90509295509295509295565b600060208284031215613d0757600080fd5b61118582613959565b60008060008060808587031215613d2657600080fd5b8435613d31816138be565b935060208501359250604085013591506060850135613d4f816138be565b939692955090935050565b60008060408385031215613d6d57600080fd5b8235613d78816138be565b91506020830135613a29816138e3565b60008060008060808587031215613d9e57600080fd5b8435613da9816138be565b9350602085013592506040850135613dc0816138be565b9150613dce60608601613959565b905092959194509250565b600080600060608486031215613dee57600080fd5b8335613df9816138be565b9250602084013591506040840135613e10816138be565b809150509250925092565b6000815180845260005b81811015613e4157602081850181015186830182015201613e25565b81811115613e53576000602083870101525b50601f017fffffffffffffffffffffffffffffffffffffffffffffffffffffffffffffffe0169290920160200192915050565b60208152600061ffff808451166020840152806020850151166040840152806040850151166060840152506001600160a01b036060840151166080830152608083015160a0808401526136d660c0840182613e1b565b600080600080600060a08688031215613ef457600080fd5b8535613eff816138be565b94506020860135613f0f816138be565b93506040860135613f1f816138be565b92506060860135613f2f816138be565b9150608086013561394b816138be565b60008060408385031215613f5257600080fd5b8235613f5d816138be565b946020939093013593505050565b60008083601f840112613f7d57600080fd5b50813567ffffffffffffffff811115613f9557600080fd5b6020830191508360208260051b8501011115613c6c57600080fd5b60008060208385031215613fc357600080fd5b823567ffffffffffffffff811115613fda57600080fd5b613fe685828601613f6b565b90969095509350505050565b600080600080600060a0868803121561400a57600080fd5b8535614015816138be565b94506020860135935060408601359250613f2f60608701613959565b600080600080600080600080600080600060e08c8e03121561405257600080fd5b61405b8c6138d3565b9a5067ffffffffffffffff8060208e0135111561407757600080fd5b6140878e60208f01358f01613f6b565b909b50995060408d013581101561409d57600080fd5b6140ad8e60408f01358f01613f6b565b909950975060608d01358110156140c357600080fd5b6140d38e60608f01358f01613f6b565b90975095506140e460808e016138d3565b94508060a08e013511156140f757600080fd5b506141088d60a08e01358e01613c2a565b909350915061411960c08d01613959565b90509295989b509295989b9093969950565b80356fffffffffffffffffffffffffffffffff811681146138de57600080fd5b6000806040838503121561415e57600080fd5b6141678361412b565b91506141756020840161412b565b90509250929050565b60008060006060848603121561419357600080fd5b833561419e816138be565b925060208401356141ae816138be565b929592945050506040919091013590565b6020808252825182820181905260009190848201906040850190845b818110156142005783516001600160a01b0316835292840192918401916001016141db565b50909695505050505050565b7f4e487b7100000000000000000000000000000000000000000000000000000000600052604160045260246000fd5b60405160a0810167ffffffffffffffff8111828210171561425e5761425e61420c565b60405290565b604051601f82017fffffffffffffffffffffffffffffffffffffffffffffffffffffffffffffffe016810167ffffffffffffffff811182821017156142ab576142ab61420c565b604052919050565b600080604083850312156142c657600080fd5b6142cf8361396b565b915060208084013567ffffffffffffffff808211156142ed57600080fd5b9085019060a0828803121561430157600080fd5b61430961423b565b61431283613959565b815261431f848401613959565b8482015261432f60408401613959565b60408201526060830135614342816138be565b606082015260808301358281111561435957600080fd5b80840193505087601f84011261436e57600080fd5b8235828111156143805761438061420c565b6143b0857fffffffffffffffffffffffffffffffffffffffffffffffffffffffffffffffe0601f84011601614264565b925080835288858286010111156143c657600080fd5b8085850186850137600085828501015250816080820152809450505050509250929050565b60008060008060008060c0878903121561440457600080fd5b863561440f816138be565b9550602087013561441f816138be565b9450604087013561442f816138be565b959894975094956060810135955060808101359460a0909101359350915050565b600080600080600080600080610100898b03121561446d57600080fd5b8835614478816138be565b9750602089013596506040890135955060608901356139c9816138be565b60008082840360408112156144aa57600080fd5b83356144b5816138be565b925060207fffffffffffffffffffffffffffffffffffffffffffffffffffffffffffffffe0820112156144e757600080fd5b506020830190509250929050565b60006020828403121561450757600080fd5b8151611185816138be565b60006101a08201905086825285602083015284604083015283606083015282516080830152602083015160a083015260408301516001600160a01b0380821660c08501528060608601511660e085015250506080830151610100614580818501836001600160a01b03169052565b60a0850151151561012085015260c08501516001600160a01b0390811661014086015260e086015160ff166101608601529085015190811661018085015290505b509695505050505050565b6020815260006111856020830184613e1b565b7f4e487b7100000000000000000000000000000000000000000000000000000000600052602160045260246000fd5b60038110614645577f4e487b7100000000000000000000000000000000000000000000000000000000600052602160045260246000fd5b9052565b6000610100820190508582528460208301528360408301526001600160a01b0380845116606084015260208401516080840152604084015161468e60a085018261460e565b5060608401511660c0830152608090920151151560e0909101529392505050565b6000602082840312156146c157600080fd5b5051919050565b8281526040602082015260006001600160a01b038084511660408401528060208501511660608401525060408301516080830152606083015160e060a0840152614716610120840182613e1b565b905061ffff60808501511660c084015260a084015160e084015260c0840151610100840152809150509392505050565b600181811c9082168061475a57607f821691505b602082108114156132c5577f4e487b7100000000000000000000000000000000000000000000000000000000600052602260045260246000fd5b6000610120820190508482528360208301526001600160a01b038084511660408401528060208501511660608401528060408501511660808401528060608501511660a08401528060808501511660c08401525060a08301516147fd60e084018261ffff169052565b5060c083015161ffff811661010084015250949350505050565b60006020828403121561482957600080fd5b8151611185816138e3565b7f4e487b7100000000000000000000000000000000000000000000000000000000600052601160045260246000fd5b600061ffff8083168181141561487b5761487b614834565b6001019392505050565b848152602081018490526001600160a01b03831660408201526080810161142f606083018461460e565b83815260406020808301829052908201839052600090849060608401835b868110156148fb5783356148e0816138be565b6001600160a01b0316825292820192908201906001016148cd565b50979650505050505050565b85815260208101859052604081018490526060810183905281516001600160a01b03166080820152610200810160208301516001600160a01b03811660a08401525060408301516001600160a01b03811660c084015250606083015160e0830152608083015161010061497c8185018361460e565b60a085015191506101206149958186018461ffff169052565b60c086015192506101406149ac8187018515159052565b60e08701516101608781019190915292870151610180870152908601516001600160a01b039081166101a08701529086015160ff166101c0860152908501519081166101e085015290506145c1565b600081518084526020808501945080840160005b83811015614a345781516001600160a01b031687529582019590820190600101614a0f565b509495945050505050565b600081518084526020808501945080840160005b83811015614a3457815187529582019590820190600101614a53565b85815284602082015283604082015282606082015260a06080820152614aa160a0820183516001600160a01b03169052565b600060208301516101c08060c0850152614abf6102608501836149fb565b915060408501517fffffffffffffffffffffffffffffffffffffffffffffffffffffffffffffff60808685030160e0870152614afb8483614a3f565b935060608701519150610100818786030181880152614b1a8584614a3f565b945060808801519250610120614b3a818901856001600160a01b03169052565b60a089015193506101408389880301818a0152614b578786613e1b565b965060c08a015194506101609350614b74848a018661ffff169052565b60e08a0151945061018085818b0152838b015195506101a0935085848b0152828b0151878b0152818b01516101e08b0152848b01519650614bc16102008b01886001600160a01b03169052565b8a015160ff81166102208b01529550614bd8915050565b87015180151561024088015292506148fb915050565b60008060008060008060c08789031215614c0757600080fd5b865195506020870151945060408701519350606087015192506080870151915060a087015190509295509295509295565b600082821015614c4a57614c4a614834565b500390565b7f4e487b7100000000000000000000000000000000000000000000000000000000600052603260045260246000fd5b60007fffffffffffffffffffffffffffffffffffffffffffffffffffffffffffffffff821415614cb057614cb0614834565b5060010190565b60006101a0820190508682528560208301528460408301528360608301526001600160a01b038084511660808401528060208501511660a0840152506040830151614d0d60c08401826001600160a01b03169052565b50606083015160e08301526080830151610100818185015260a085015161012085015260c085015161014085015260e08501519150614d586101608501836001600160a01b03169052565b84015160ff811661018085015290506145c1565b6000817fffffffffffffffffffffffffffffffffffffffffffffffffffffffffffffffff0483118215151615614da457614da4614834565b500290565b7f4e487b7100000000000000000000000000000000000000000000000000000000600052601260045260246000fd5b60008219821115614deb57614deb614834565b500190565b600082614e26577f4e487b7100000000000000000000000000000000000000000000000000000000600052601260045260246000fd5b50049056fea2646970667358221220cdf68c7212ce59575f358ab5e2ffd51a9b6d052e061caa12ff98e4484c7091b864736f6c634300080a0033",
  "linkReferences": {
    "@mahalend/core-v3/contracts/protocol/libraries/logic/BorrowLogic.sol": {
      "BorrowLogic": [
        {
          "length": 20,
          "start": 4461
        },
        {
          "length": 20,
          "start": 5137
        },
        {
          "length": 20,
          "start": 7497
        },
        {
          "length": 20,
          "start": 7660
        },
        {
          "length": 20,
          "start": 10357
        },
        {
          "length": 20,
          "start": 12329
        }
      ]
    },
    "@mahalend/core-v3/contracts/protocol/libraries/logic/BridgeLogic.sol": {
      "BridgeLogic": [
        {
          "length": 20,
          "start": 6791
        },
        {
          "length": 20,
          "start": 11880
        }
      ]
    },
    "@mahalend/core-v3/contracts/protocol/libraries/logic/EModeLogic.sol": {
      "EModeLogic": [
        {
          "length": 20,
          "start": 4045
        }
      ]
    },
    "@mahalend/core-v3/contracts/protocol/libraries/logic/FlashLoanLogic.sol": {
      "FlashLoanLogic": [
        {
          "length": 20,
          "start": 5036
        },
        {
          "length": 20,
          "start": 9072
        }
      ]
    },
    "@mahalend/core-v3/contracts/protocol/libraries/logic/LiquidationLogic.sol": {
      "LiquidationLogic": [
        {
          "length": 20,
          "start": 2640
        }
      ]
    },
    "@mahalend/core-v3/contracts/protocol/libraries/logic/PoolLogic.sol": {
      "PoolLogic": [
        {
          "length": 20,
          "start": 6166
        },
        {
          "length": 20,
          "start": 7136
        },
        {
          "length": 20,
          "start": 7613
        },
        {
          "length": 20,
          "start": 9368
        },
        {
          "length": 20,
          "start": 10469
        },
        {
          "length": 20,
          "start": 11984
        }
      ]
    },
    "@mahalend/core-v3/contracts/protocol/libraries/logic/SupplyLogic.sol": {
      "SupplyLogic": [
        {
          "length": 20,
          "start": 3514
        },
        {
          "length": 20,
          "start": 5428
        },
        {
          "length": 20,
          "start": 6005
        },
        {
          "length": 20,
          "start": 6204
        },
        {
          "length": 20,
          "start": 11348
        }
      ]
    }
  },
  "deployedLinkReferences": {
    "@mahalend/core-v3/contracts/protocol/libraries/logic/BorrowLogic.sol": {
      "BorrowLogic": [
        {
          "length": 20,
          "start": 4211
        },
        {
          "length": 20,
          "start": 4887
        },
        {
          "length": 20,
          "start": 7247
        },
        {
          "length": 20,
          "start": 7410
        },
        {
          "length": 20,
          "start": 10107
        },
        {
          "length": 20,
          "start": 12079
        }
      ]
    },
    "@mahalend/core-v3/contracts/protocol/libraries/logic/BridgeLogic.sol": {
      "BridgeLogic": [
        {
          "length": 20,
          "start": 6541
        },
        {
          "length": 20,
          "start": 11630
        }
      ]
    },
    "@mahalend/core-v3/contracts/protocol/libraries/logic/EModeLogic.sol": {
      "EModeLogic": [
        {
          "length": 20,
          "start": 3795
        }
      ]
    },
    "@mahalend/core-v3/contracts/protocol/libraries/logic/FlashLoanLogic.sol": {
      "FlashLoanLogic": [
        {
          "length": 20,
          "start": 4786
        },
        {
          "length": 20,
          "start": 8822
        }
      ]
    },
    "@mahalend/core-v3/contracts/protocol/libraries/logic/LiquidationLogic.sol": {
      "LiquidationLogic": [
        {
          "length": 20,
          "start": 2390
        }
      ]
    },
    "@mahalend/core-v3/contracts/protocol/libraries/logic/PoolLogic.sol": {
      "PoolLogic": [
        {
          "length": 20,
          "start": 5916
        },
        {
          "length": 20,
          "start": 6886
        },
        {
          "length": 20,
          "start": 7363
        },
        {
          "length": 20,
          "start": 9118
        },
        {
          "length": 20,
          "start": 10219
        },
        {
          "length": 20,
          "start": 11734
        }
      ]
    },
    "@mahalend/core-v3/contracts/protocol/libraries/logic/SupplyLogic.sol": {
      "SupplyLogic": [
        {
          "length": 20,
          "start": 3264
        },
        {
          "length": 20,
          "start": 5178
        },
        {
          "length": 20,
          "start": 5755
        },
        {
          "length": 20,
          "start": 5954
        },
        {
          "length": 20,
          "start": 11098
        }
      ]
    }
  }
}